{
  "address": "0xa090D157dB0f0D8B993e3CfEc65C5De8Bb7c348E",
  "abi": [
    {
      "inputs": [
        {
          "internalType": "address",
          "name": "oracle",
          "type": "address"
        },
        {
          "internalType": "uint256",
          "name": "fee",
          "type": "uint256"
        },
        {
          "internalType": "string",
          "name": "classifierUrl",
          "type": "string"
        },
        {
          "internalType": "uint256",
          "name": "similarityThreshold",
          "type": "uint256"
        }
      ],
      "stateMutability": "nonpayable",
      "type": "constructor"
    },
    {
      "anonymous": false,
      "inputs": [
        {
          "indexed": true,
          "internalType": "address",
          "name": "registry",
          "type": "address"
        }
      ],
      "name": "AuthenticityRegistryCreated",
      "type": "event"
    },
    {
      "anonymous": false,
      "inputs": [
        {
          "indexed": true,
          "internalType": "address",
          "name": "collectionAddress",
          "type": "address"
        }
      ],
      "name": "CollectionCreated",
      "type": "event"
    },
    {
      "anonymous": false,
      "inputs": [
        {
          "indexed": true,
          "internalType": "address",
          "name": "previousOwner",
          "type": "address"
        },
        {
          "indexed": true,
          "internalType": "address",
          "name": "newOwner",
          "type": "address"
        }
      ],
      "name": "OwnershipTransferred",
      "type": "event"
    },
    {
      "inputs": [],
      "name": "AUTHENTICITY_REGISTRY",
      "outputs": [
        {
          "internalType": "address",
          "name": "",
          "type": "address"
        }
      ],
      "stateMutability": "view",
      "type": "function"
    },
    {
      "inputs": [
        {
          "internalType": "string",
          "name": "name",
          "type": "string"
        },
        {
          "internalType": "string",
          "name": "symbol",
          "type": "string"
        }
      ],
      "name": "createCollection",
      "outputs": [],
      "stateMutability": "nonpayable",
      "type": "function"
    },
    {
      "inputs": [
        {
          "internalType": "contract AutentiskERC721",
          "name": "collection",
          "type": "address"
        },
        {
          "internalType": "address",
          "name": "to",
          "type": "address"
        },
        {
          "internalType": "string",
          "name": "tokenURI",
          "type": "string"
        }
      ],
      "name": "fulfillMint",
      "outputs": [],
      "stateMutability": "nonpayable",
      "type": "function"
    },
    {
      "inputs": [
        {
          "internalType": "contract AutentiskERC721",
          "name": "collection",
          "type": "address"
        },
        {
          "internalType": "address",
          "name": "to",
          "type": "address"
        },
        {
          "internalType": "string",
          "name": "tokenURI",
          "type": "string"
        }
      ],
      "name": "mint",
      "outputs": [],
      "stateMutability": "nonpayable",
      "type": "function"
    },
    {
      "inputs": [],
      "name": "owner",
      "outputs": [
        {
          "internalType": "address",
          "name": "",
          "type": "address"
        }
      ],
      "stateMutability": "view",
      "type": "function"
    },
    {
      "inputs": [],
      "name": "renounceOwnership",
      "outputs": [],
      "stateMutability": "nonpayable",
      "type": "function"
    },
    {
      "inputs": [
        {
          "internalType": "contract AutentiskERC721",
          "name": "",
          "type": "address"
        }
      ],
      "name": "s_collectionOwners",
      "outputs": [
        {
          "internalType": "address",
          "name": "",
          "type": "address"
        }
      ],
      "stateMutability": "view",
      "type": "function"
    },
    {
      "inputs": [],
      "name": "s_totalCollection",
      "outputs": [
        {
          "internalType": "uint256",
          "name": "",
          "type": "uint256"
        }
      ],
      "stateMutability": "view",
      "type": "function"
    },
    {
      "inputs": [
        {
          "internalType": "address",
          "name": "newOwner",
          "type": "address"
        }
      ],
      "name": "transferOwnership",
      "outputs": [],
      "stateMutability": "nonpayable",
      "type": "function"
    }
  ],
  "transactionHash": "0x0c9e56ee2392c9163e730aa9a4115950ebce85a09542f21584bc907bd90e693e",
  "args": [
    "0x3A56aE4a2831C3d3514b5D7Af5578E45eBDb7a40",
    "10000000000000000",
    "https://autentisk.vercel.app/api/dummyChainlink",
    "1"
  ],
  "numDeployments": 9,
  "solcInputHash": "64c3a5e195b69f326384e3e59dc88064",
  "bytecode": "0x60a06040523480156200001157600080fd5b5060405162008ca938038062008ca9833981810160405281019062000037919062000431565b620000576200004b6200011a60201b60201c565b6200012260201b60201c565b30848484846040516200006a90620001e6565b6200007a95949392919062000567565b604051809103906000f08015801562000097573d6000803e3d6000fd5b5073ffffffffffffffffffffffffffffffffffffffff1660808173ffffffffffffffffffffffffffffffffffffffff168152505060805173ffffffffffffffffffffffffffffffffffffffff167f3f03db0f3cc3b26768022d50b6a0384d6093bce24922d283674c636965f41fae60405160405180910390a250505050620005d9565b600033905090565b60008060009054906101000a900473ffffffffffffffffffffffffffffffffffffffff169050816000806101000a81548173ffffffffffffffffffffffffffffffffffffffff021916908373ffffffffffffffffffffffffffffffffffffffff1602179055508173ffffffffffffffffffffffffffffffffffffffff168173ffffffffffffffffffffffffffffffffffffffff167f8be0079c531659141344cd1fd0a4f28419497f9722a3daafe3b4186f6b6457e060405160405180910390a35050565b6141c58062004ae483390190565b6000604051905090565b600080fd5b600080fd5b600073ffffffffffffffffffffffffffffffffffffffff82169050919050565b6000620002358262000208565b9050919050565b620002478162000228565b81146200025357600080fd5b50565b60008151905062000267816200023c565b92915050565b6000819050919050565b62000282816200026d565b81146200028e57600080fd5b50565b600081519050620002a28162000277565b92915050565b600080fd5b600080fd5b6000601f19601f8301169050919050565b7f4e487b7100000000000000000000000000000000000000000000000000000000600052604160045260246000fd5b620002fd82620002b2565b810181811067ffffffffffffffff821117156200031f576200031e620002c3565b5b80604052505050565b600062000334620001f4565b9050620003428282620002f2565b919050565b600067ffffffffffffffff821115620003655762000364620002c3565b5b6200037082620002b2565b9050602081019050919050565b60005b838110156200039d57808201518184015260208101905062000380565b83811115620003ad576000848401525b50505050565b6000620003ca620003c48462000347565b62000328565b905082815260208101848484011115620003e957620003e8620002ad565b5b620003f68482856200037d565b509392505050565b600082601f830112620004165762000415620002a8565b5b815162000428848260208601620003b3565b91505092915050565b600080600080608085870312156200044e576200044d620001fe565b5b60006200045e8782880162000256565b9450506020620004718782880162000291565b935050604085015167ffffffffffffffff81111562000495576200049462000203565b5b620004a387828801620003fe565b9250506060620004b68782880162000291565b91505092959194509250565b620004cd8162000228565b82525050565b7f3362376361306434386337613462326461393236383435363636356431316165815250565b62000504816200026d565b82525050565b600081519050919050565b600082825260208201905092915050565b600062000533826200050a565b6200053f818562000515565b9350620005518185602086016200037d565b6200055c81620002b2565b840191505092915050565b600060c0820190506200057e6000830188620004c2565b6200058d6020830187620004c2565b6200059b60408301620004d3565b620005aa6060830186620004f9565b8181036080830152620005be818562000526565b9050620005cf60a0830184620004f9565b9695505050505050565b6080516144e162000603600039600081816101ce015281816104e1015261068301526144e16000f3fe60806040523480156200001157600080fd5b50600436106200009f5760003560e01c8063715018a6116200006f578063715018a6146200013a5780638da5cb5b14620001465780638ded87731462000168578063eb5a5e04146200018a578063f2fde38b14620001ac576200009f565b806259023614620000a4578063176b9b7514620000c4578063221375a614620000e4578063672dc5d01462000104575b600080fd5b620000c26004803603810190620000bc9190620009a4565b620001cc565b005b620000e26004803603810190620000dc919062000a24565b620002e9565b005b620001026004803603810190620000fc9190620009a4565b6200040e565b005b6200012260048036038101906200011c919062000ab2565b6200058e565b60405162000131919062000af5565b60405180910390f35b62000144620005c1565b005b6200015062000652565b6040516200015f919062000af5565b60405180910390f35b620001726200067b565b60405162000181919062000b2d565b60405180910390f35b6200019462000681565b604051620001a3919062000af5565b60405180910390f35b620001ca6004803603810190620001c4919062000b4a565b620006a5565b005b7f000000000000000000000000000000000000000000000000000000000000000073ffffffffffffffffffffffffffffffffffffffff163373ffffffffffffffffffffffffffffffffffffffff16146200025d576040517f08c379a0000000000000000000000000000000000000000000000000000000008152600401620002549062000c03565b60405180910390fd5b8373ffffffffffffffffffffffffffffffffffffffff1663d0def5218484846040518463ffffffff1660e01b81526004016200029c9392919062000c78565b6020604051808303816000875af1158015620002bc573d6000803e3d6000fd5b505050506040513d601f19601f82011682018060405250810190620002e2919062000cdf565b5050505050565b600084848484604051620002fd9062000874565b6200030c949392919062000d11565b604051809103906000f08015801562000329573d6000803e3d6000fd5b50905033600160008373ffffffffffffffffffffffffffffffffffffffff1673ffffffffffffffffffffffffffffffffffffffff16815260200190815260200160002060006101000a81548173ffffffffffffffffffffffffffffffffffffffff021916908373ffffffffffffffffffffffffffffffffffffffff16021790555060026000815480929190620003bf9062000d7f565b91905055508073ffffffffffffffffffffffffffffffffffffffff167f75432e2e509efcaf947efcc7a5a6b6b3562425b29e9725c7a4a5c652291ac35d60405160405180910390a25050505050565b833373ffffffffffffffffffffffffffffffffffffffff16600160008373ffffffffffffffffffffffffffffffffffffffff1673ffffffffffffffffffffffffffffffffffffffff16815260200190815260200160002060009054906101000a900473ffffffffffffffffffffffffffffffffffffffff1673ffffffffffffffffffffffffffffffffffffffff1614620004df576040517f08c379a0000000000000000000000000000000000000000000000000000000008152600401620004d69062000e1c565b60405180910390fd5b7f000000000000000000000000000000000000000000000000000000000000000073ffffffffffffffffffffffffffffffffffffffff1663da423b89858585896040518563ffffffff1660e01b815260040162000540949392919062000e3e565b6020604051808303816000875af115801562000560573d6000803e3d6000fd5b505050506040513d601f19601f8201168201806040525081019062000586919062000ebf565b505050505050565b60016020528060005260406000206000915054906101000a900473ffffffffffffffffffffffffffffffffffffffff1681565b620005cb620007a8565b73ffffffffffffffffffffffffffffffffffffffff16620005eb62000652565b73ffffffffffffffffffffffffffffffffffffffff161462000644576040517f08c379a00000000000000000000000000000000000000000000000000000000081526004016200063b9062000f41565b60405180910390fd5b620006506000620007b0565b565b60008060009054906101000a900473ffffffffffffffffffffffffffffffffffffffff16905090565b60025481565b7f000000000000000000000000000000000000000000000000000000000000000081565b620006af620007a8565b73ffffffffffffffffffffffffffffffffffffffff16620006cf62000652565b73ffffffffffffffffffffffffffffffffffffffff161462000728576040517f08c379a00000000000000000000000000000000000000000000000000000000081526004016200071f9062000f41565b60405180910390fd5b600073ffffffffffffffffffffffffffffffffffffffff168173ffffffffffffffffffffffffffffffffffffffff16036200079a576040517f08c379a0000000000000000000000000000000000000000000000000000000008152600401620007919062000fd9565b60405180910390fd5b620007a581620007b0565b50565b600033905090565b60008060009054906101000a900473ffffffffffffffffffffffffffffffffffffffff169050816000806101000a81548173ffffffffffffffffffffffffffffffffffffffff021916908373ffffffffffffffffffffffffffffffffffffffff1602179055508173ffffffffffffffffffffffffffffffffffffffff168173ffffffffffffffffffffffffffffffffffffffff167f8be0079c531659141344cd1fd0a4f28419497f9722a3daafe3b4186f6b6457e060405160405180910390a35050565b6134b08062000ffc83390190565b600080fd5b600080fd5b600073ffffffffffffffffffffffffffffffffffffffff82169050919050565b6000620008b9826200088c565b9050919050565b6000620008cd82620008ac565b9050919050565b620008df81620008c0565b8114620008eb57600080fd5b50565b600081359050620008ff81620008d4565b92915050565b6200091081620008ac565b81146200091c57600080fd5b50565b600081359050620009308162000905565b92915050565b600080fd5b600080fd5b600080fd5b60008083601f8401126200095e576200095d62000936565b5b8235905067ffffffffffffffff8111156200097e576200097d6200093b565b5b6020830191508360018202830111156200099d576200099c62000940565b5b9250929050565b60008060008060608587031215620009c157620009c062000882565b5b6000620009d187828801620008ee565b9450506020620009e4878288016200091f565b935050604085013567ffffffffffffffff81111562000a085762000a0762000887565b5b62000a168782880162000945565b925092505092959194509250565b6000806000806040858703121562000a415762000a4062000882565b5b600085013567ffffffffffffffff81111562000a625762000a6162000887565b5b62000a708782880162000945565b9450945050602085013567ffffffffffffffff81111562000a965762000a9562000887565b5b62000aa48782880162000945565b925092505092959194509250565b60006020828403121562000acb5762000aca62000882565b5b600062000adb84828501620008ee565b91505092915050565b62000aef81620008ac565b82525050565b600060208201905062000b0c600083018462000ae4565b92915050565b6000819050919050565b62000b278162000b12565b82525050565b600060208201905062000b44600083018462000b1c565b92915050565b60006020828403121562000b635762000b6262000882565b5b600062000b73848285016200091f565b91505092915050565b600082825260208201905092915050565b7f417574656e7469736b3a204e6f742041757468656e746963697479526567697360008201527f7472790000000000000000000000000000000000000000000000000000000000602082015250565b600062000beb60238362000b7c565b915062000bf88262000b8d565b604082019050919050565b6000602082019050818103600083015262000c1e8162000bdc565b9050919050565b82818337600083830152505050565b6000601f19601f8301169050919050565b600062000c53838562000b7c565b935062000c6283858462000c25565b62000c6d8362000c34565b840190509392505050565b600060408201905062000c8f600083018662000ae4565b818103602083015262000ca481848662000c45565b9050949350505050565b62000cb98162000b12565b811462000cc557600080fd5b50565b60008151905062000cd98162000cae565b92915050565b60006020828403121562000cf85762000cf762000882565b5b600062000d088482850162000cc8565b91505092915050565b6000604082019050818103600083015262000d2e81868862000c45565b9050818103602083015262000d4581848662000c45565b905095945050505050565b7f4e487b7100000000000000000000000000000000000000000000000000000000600052601160045260246000fd5b600062000d8c8262000b12565b91507fffffffffffffffffffffffffffffffffffffffffffffffffffffffffffffffff820362000dc15762000dc062000d50565b5b600182019050919050565b7f417574656e7469736b3a204e6f7420636f6c6c656374696f6e206f776e657200600082015250565b600062000e04601f8362000b7c565b915062000e118262000dcc565b602082019050919050565b6000602082019050818103600083015262000e378162000df5565b9050919050565b600060608201905062000e55600083018762000ae4565b818103602083015262000e6a81858762000c45565b905062000e7b604083018462000ae4565b95945050505050565b6000819050919050565b62000e998162000e84565b811462000ea557600080fd5b50565b60008151905062000eb98162000e8e565b92915050565b60006020828403121562000ed85762000ed762000882565b5b600062000ee88482850162000ea8565b91505092915050565b7f4f776e61626c653a2063616c6c6572206973206e6f7420746865206f776e6572600082015250565b600062000f2960208362000b7c565b915062000f368262000ef1565b602082019050919050565b6000602082019050818103600083015262000f5c8162000f1a565b9050919050565b7f4f776e61626c653a206e6577206f776e657220697320746865207a65726f206160008201527f6464726573730000000000000000000000000000000000000000000000000000602082015250565b600062000fc160268362000b7c565b915062000fce8262000f63565b604082019050919050565b6000602082019050818103600083015262000ff48162000fb2565b905091905056fe60806040523480156200001157600080fd5b50604051620034b0380380620034b08339818101604052810190620000379190620003b0565b818181600090805190602001906200005192919062000163565b5080600190805190602001906200006a92919062000163565b5050506200008d620000816200009560201b60201c565b6200009d60201b60201c565b505062000499565b600033905090565b6000600760009054906101000a900473ffffffffffffffffffffffffffffffffffffffff16905081600760006101000a81548173ffffffffffffffffffffffffffffffffffffffff021916908373ffffffffffffffffffffffffffffffffffffffff1602179055508173ffffffffffffffffffffffffffffffffffffffff168173ffffffffffffffffffffffffffffffffffffffff167f8be0079c531659141344cd1fd0a4f28419497f9722a3daafe3b4186f6b6457e060405160405180910390a35050565b828054620001719062000464565b90600052602060002090601f016020900481019282620001955760008555620001e1565b82601f10620001b057805160ff1916838001178555620001e1565b82800160010185558215620001e1579182015b82811115620001e0578251825591602001919060010190620001c3565b5b509050620001f09190620001f4565b5090565b5b808211156200020f576000816000905550600101620001f5565b5090565b6000604051905090565b600080fd5b600080fd5b600080fd5b600080fd5b6000601f19601f8301169050919050565b7f4e487b7100000000000000000000000000000000000000000000000000000000600052604160045260246000fd5b6200027c8262000231565b810181811067ffffffffffffffff821117156200029e576200029d62000242565b5b80604052505050565b6000620002b362000213565b9050620002c1828262000271565b919050565b600067ffffffffffffffff821115620002e457620002e362000242565b5b620002ef8262000231565b9050602081019050919050565b60005b838110156200031c578082015181840152602081019050620002ff565b838111156200032c576000848401525b50505050565b6000620003496200034384620002c6565b620002a7565b9050828152602081018484840111156200036857620003676200022c565b5b62000375848285620002fc565b509392505050565b600082601f83011262000395576200039462000227565b5b8151620003a784826020860162000332565b91505092915050565b60008060408385031215620003ca57620003c96200021d565b5b600083015167ffffffffffffffff811115620003eb57620003ea62000222565b5b620003f9858286016200037d565b925050602083015167ffffffffffffffff8111156200041d576200041c62000222565b5b6200042b858286016200037d565b9150509250929050565b7f4e487b7100000000000000000000000000000000000000000000000000000000600052602260045260246000fd5b600060028204905060018216806200047d57607f821691505b60208210810362000493576200049262000435565b5b50919050565b61300780620004a96000396000f3fe608060405234801561001057600080fd5b506004361061010b5760003560e01c8063715018a6116100a2578063b88d4fde11610071578063b88d4fde146102a4578063c87b56dd146102c0578063d0def521146102f0578063e985e9c514610320578063f2fde38b146103505761010b565b8063715018a6146102425780638da5cb5b1461024c57806395d89b411461026a578063a22cb465146102885761010b565b806323b872dd116100de57806323b872dd146101aa57806342842e0e146101c65780636352211e146101e257806370a08231146102125761010b565b806301ffc9a71461011057806306fdde0314610140578063081812fc1461015e578063095ea7b31461018e575b600080fd5b61012a60048036038101906101259190611caa565b61036c565b6040516101379190611cf2565b60405180910390f35b61014861044e565b6040516101559190611da6565b60405180910390f35b61017860048036038101906101739190611dfe565b6104e0565b6040516101859190611e6c565b60405180910390f35b6101a860048036038101906101a39190611eb3565b610565565b005b6101c460048036038101906101bf9190611ef3565b61067c565b005b6101e060048036038101906101db9190611ef3565b6106dc565b005b6101fc60048036038101906101f79190611dfe565b6106fc565b6040516102099190611e6c565b60405180910390f35b61022c60048036038101906102279190611f46565b6107ad565b6040516102399190611f82565b60405180910390f35b61024a610864565b005b6102546108ec565b6040516102619190611e6c565b60405180910390f35b610272610916565b60405161027f9190611da6565b60405180910390f35b6102a2600480360381019061029d9190611fc9565b6109a8565b005b6102be60048036038101906102b9919061213e565b6109be565b005b6102da60048036038101906102d59190611dfe565b610a20565b6040516102e79190611da6565b60405180910390f35b61030a60048036038101906103059190612221565b610b71565b6040516103179190611f82565b60405180910390f35b61033a60048036038101906103359190612281565b610c64565b6040516103479190611cf2565b60405180910390f35b61036a60048036038101906103659190611f46565b610cf8565b005b60007f80ac58cd000000000000000000000000000000000000000000000000000000007bffffffffffffffffffffffffffffffffffffffffffffffffffffffff1916827bffffffffffffffffffffffffffffffffffffffffffffffffffffffff1916148061043757507f5b5e139f000000000000000000000000000000000000000000000000000000007bffffffffffffffffffffffffffffffffffffffffffffffffffffffff1916827bffffffffffffffffffffffffffffffffffffffffffffffffffffffff1916145b80610447575061044682610def565b5b9050919050565b60606000805461045d906122f0565b80601f0160208091040260200160405190810160405280929190818152602001828054610489906122f0565b80156104d65780601f106104ab576101008083540402835291602001916104d6565b820191906000526020600020905b8154815290600101906020018083116104b957829003601f168201915b5050505050905090565b60006104eb82610e59565b61052a576040517f08c379a000000000000000000000000000000000000000000000000000000000815260040161052190612393565b60405180910390fd5b6004600083815260200190815260200160002060009054906101000a900473ffffffffffffffffffffffffffffffffffffffff169050919050565b6000610570826106fc565b90508073ffffffffffffffffffffffffffffffffffffffff168373ffffffffffffffffffffffffffffffffffffffff16036105e0576040517f08c379a00000000000000000000000000000000000000000000000000000000081526004016105d790612425565b60405180910390fd5b8073ffffffffffffffffffffffffffffffffffffffff166105ff610ec5565b73ffffffffffffffffffffffffffffffffffffffff16148061062e575061062d81610628610ec5565b610c64565b5b61066d576040517f08c379a0000000000000000000000000000000000000000000000000000000008152600401610664906124b7565b60405180910390fd5b6106778383610ecd565b505050565b61068d610687610ec5565b82610f86565b6106cc576040517f08c379a00000000000000000000000000000000000000000000000000000000081526004016106c390612549565b60405180910390fd5b6106d7838383611064565b505050565b6106f7838383604051806020016040528060008152506109be565b505050565b6000806002600084815260200190815260200160002060009054906101000a900473ffffffffffffffffffffffffffffffffffffffff169050600073ffffffffffffffffffffffffffffffffffffffff168173ffffffffffffffffffffffffffffffffffffffff16036107a4576040517f08c379a000000000000000000000000000000000000000000000000000000000815260040161079b906125db565b60405180910390fd5b80915050919050565b60008073ffffffffffffffffffffffffffffffffffffffff168273ffffffffffffffffffffffffffffffffffffffff160361081d576040517f08c379a00000000000000000000000000000000000000000000000000000000081526004016108149061266d565b60405180910390fd5b600360008373ffffffffffffffffffffffffffffffffffffffff1673ffffffffffffffffffffffffffffffffffffffff168152602001908152602001600020549050919050565b61086c610ec5565b73ffffffffffffffffffffffffffffffffffffffff1661088a6108ec565b73ffffffffffffffffffffffffffffffffffffffff16146108e0576040517f08c379a00000000000000000000000000000000000000000000000000000000081526004016108d7906126d9565b60405180910390fd5b6108ea60006112ca565b565b6000600760009054906101000a900473ffffffffffffffffffffffffffffffffffffffff16905090565b606060018054610925906122f0565b80601f0160208091040260200160405190810160405280929190818152602001828054610951906122f0565b801561099e5780601f106109735761010080835404028352916020019161099e565b820191906000526020600020905b81548152906001019060200180831161098157829003601f168201915b5050505050905090565b6109ba6109b3610ec5565b8383611390565b5050565b6109cf6109c9610ec5565b83610f86565b610a0e576040517f08c379a0000000000000000000000000000000000000000000000000000000008152600401610a0590612549565b60405180910390fd5b610a1a848484846114fc565b50505050565b6060610a2b82610e59565b610a6a576040517f08c379a0000000000000000000000000000000000000000000000000000000008152600401610a619061276b565b60405180910390fd5b6000600660008481526020019081526020016000208054610a8a906122f0565b80601f0160208091040260200160405190810160405280929190818152602001828054610ab6906122f0565b8015610b035780601f10610ad857610100808354040283529160200191610b03565b820191906000526020600020905b815481529060010190602001808311610ae657829003601f168201915b505050505090506000610b14611558565b90506000815103610b29578192505050610b6c565b600082511115610b5e578082604051602001610b469291906127c7565b60405160208183030381529060405292505050610b6c565b610b678461156f565b925050505b919050565b6000610b7b610ec5565b73ffffffffffffffffffffffffffffffffffffffff16610b996108ec565b73ffffffffffffffffffffffffffffffffffffffff1614610bef576040517f08c379a0000000000000000000000000000000000000000000000000000000008152600401610be6906126d9565b60405180910390fd5b610bf96008611616565b610c03600861162c565b9050610c0f848261163a565b610c5d8184848080601f016020809104026020016040519081016040528093929190818152602001838380828437600081840152601f19601f82011690508083019250505050505050611813565b9392505050565b6000600560008473ffffffffffffffffffffffffffffffffffffffff1673ffffffffffffffffffffffffffffffffffffffff16815260200190815260200160002060008373ffffffffffffffffffffffffffffffffffffffff1673ffffffffffffffffffffffffffffffffffffffff16815260200190815260200160002060009054906101000a900460ff16905092915050565b610d00610ec5565b73ffffffffffffffffffffffffffffffffffffffff16610d1e6108ec565b73ffffffffffffffffffffffffffffffffffffffff1614610d74576040517f08c379a0000000000000000000000000000000000000000000000000000000008152600401610d6b906126d9565b60405180910390fd5b600073ffffffffffffffffffffffffffffffffffffffff168173ffffffffffffffffffffffffffffffffffffffff1603610de3576040517f08c379a0000000000000000000000000000000000000000000000000000000008152600401610dda9061285d565b60405180910390fd5b610dec816112ca565b50565b60007f01ffc9a7000000000000000000000000000000000000000000000000000000007bffffffffffffffffffffffffffffffffffffffffffffffffffffffff1916827bffffffffffffffffffffffffffffffffffffffffffffffffffffffff1916149050919050565b60008073ffffffffffffffffffffffffffffffffffffffff166002600084815260200190815260200160002060009054906101000a900473ffffffffffffffffffffffffffffffffffffffff1673ffffffffffffffffffffffffffffffffffffffff1614159050919050565b600033905090565b816004600083815260200190815260200160002060006101000a81548173ffffffffffffffffffffffffffffffffffffffff021916908373ffffffffffffffffffffffffffffffffffffffff160217905550808273ffffffffffffffffffffffffffffffffffffffff16610f40836106fc565b73ffffffffffffffffffffffffffffffffffffffff167f8c5be1e5ebec7d5bd14f71427d1e84f3dd0314c0f7b2291e5b200ac8c7c3b92560405160405180910390a45050565b6000610f9182610e59565b610fd0576040517f08c379a0000000000000000000000000000000000000000000000000000000008152600401610fc7906128ef565b60405180910390fd5b6000610fdb836106fc565b90508073ffffffffffffffffffffffffffffffffffffffff168473ffffffffffffffffffffffffffffffffffffffff16148061101d575061101c8185610c64565b5b8061105b57508373ffffffffffffffffffffffffffffffffffffffff16611043846104e0565b73ffffffffffffffffffffffffffffffffffffffff16145b91505092915050565b8273ffffffffffffffffffffffffffffffffffffffff16611084826106fc565b73ffffffffffffffffffffffffffffffffffffffff16146110da576040517f08c379a00000000000000000000000000000000000000000000000000000000081526004016110d190612981565b60405180910390fd5b600073ffffffffffffffffffffffffffffffffffffffff168273ffffffffffffffffffffffffffffffffffffffff1603611149576040517f08c379a000000000000000000000000000000000000000000000000000000000815260040161114090612a13565b60405180910390fd5b611154838383611887565b61115f600082610ecd565b6001600360008573ffffffffffffffffffffffffffffffffffffffff1673ffffffffffffffffffffffffffffffffffffffff16815260200190815260200160002060008282546111af9190612a62565b925050819055506001600360008473ffffffffffffffffffffffffffffffffffffffff1673ffffffffffffffffffffffffffffffffffffffff16815260200190815260200160002060008282546112069190612a96565b92505081905550816002600083815260200190815260200160002060006101000a81548173ffffffffffffffffffffffffffffffffffffffff021916908373ffffffffffffffffffffffffffffffffffffffff160217905550808273ffffffffffffffffffffffffffffffffffffffff168473ffffffffffffffffffffffffffffffffffffffff167fddf252ad1be2c89b69c2b068fc378daa952ba7f163c4a11628f55a4df523b3ef60405160405180910390a46112c583838361188c565b505050565b6000600760009054906101000a900473ffffffffffffffffffffffffffffffffffffffff16905081600760006101000a81548173ffffffffffffffffffffffffffffffffffffffff021916908373ffffffffffffffffffffffffffffffffffffffff1602179055508173ffffffffffffffffffffffffffffffffffffffff168173ffffffffffffffffffffffffffffffffffffffff167f8be0079c531659141344cd1fd0a4f28419497f9722a3daafe3b4186f6b6457e060405160405180910390a35050565b8173ffffffffffffffffffffffffffffffffffffffff168373ffffffffffffffffffffffffffffffffffffffff16036113fe576040517f08c379a00000000000000000000000000000000000000000000000000000000081526004016113f590612b38565b60405180910390fd5b80600560008573ffffffffffffffffffffffffffffffffffffffff1673ffffffffffffffffffffffffffffffffffffffff16815260200190815260200160002060008473ffffffffffffffffffffffffffffffffffffffff1673ffffffffffffffffffffffffffffffffffffffff16815260200190815260200160002060006101000a81548160ff0219169083151502179055508173ffffffffffffffffffffffffffffffffffffffff168373ffffffffffffffffffffffffffffffffffffffff167f17307eab39ab6107e8899845ad3d59bd9653f200f220920489ca2b5937696c31836040516114ef9190611cf2565b60405180910390a3505050565b611507848484611064565b61151384848484611891565b611552576040517f08c379a000000000000000000000000000000000000000000000000000000000815260040161154990612bca565b60405180910390fd5b50505050565b606060405180602001604052806000815250905090565b606061157a82610e59565b6115b9576040517f08c379a00000000000000000000000000000000000000000000000000000000081526004016115b090612c5c565b60405180910390fd5b60006115c3611558565b905060008151116115e3576040518060200160405280600081525061160e565b806115ed84611a18565b6040516020016115fe9291906127c7565b6040516020818303038152906040525b915050919050565b6001816000016000828254019250508190555050565b600081600001549050919050565b600073ffffffffffffffffffffffffffffffffffffffff168273ffffffffffffffffffffffffffffffffffffffff16036116a9576040517f08c379a00000000000000000000000000000000000000000000000000000000081526004016116a090612cc8565b60405180910390fd5b6116b281610e59565b156116f2576040517f08c379a00000000000000000000000000000000000000000000000000000000081526004016116e990612d34565b60405180910390fd5b6116fe60008383611887565b6001600360008473ffffffffffffffffffffffffffffffffffffffff1673ffffffffffffffffffffffffffffffffffffffff168152602001908152602001600020600082825461174e9190612a96565b92505081905550816002600083815260200190815260200160002060006101000a81548173ffffffffffffffffffffffffffffffffffffffff021916908373ffffffffffffffffffffffffffffffffffffffff160217905550808273ffffffffffffffffffffffffffffffffffffffff16600073ffffffffffffffffffffffffffffffffffffffff167fddf252ad1be2c89b69c2b068fc378daa952ba7f163c4a11628f55a4df523b3ef60405160405180910390a461180f6000838361188c565b5050565b61181c82610e59565b61185b576040517f08c379a000000000000000000000000000000000000000000000000000000000815260040161185290612dc6565b60405180910390fd5b80600660008481526020019081526020016000209080519060200190611882929190611b9b565b505050565b505050565b505050565b60006118b28473ffffffffffffffffffffffffffffffffffffffff16611b78565b15611a0b578373ffffffffffffffffffffffffffffffffffffffff1663150b7a026118db610ec5565b8786866040518563ffffffff1660e01b81526004016118fd9493929190612e3b565b6020604051808303816000875af192505050801561193957506040513d601f19601f820116820180604052508101906119369190612e9c565b60015b6119bb573d8060008114611969576040519150601f19603f3d011682016040523d82523d6000602084013e61196e565b606091505b5060008151036119b3576040517f08c379a00000000000000000000000000000000000000000000000000000000081526004016119aa90612bca565b60405180910390fd5b805181602001fd5b63150b7a0260e01b7bffffffffffffffffffffffffffffffffffffffffffffffffffffffff1916817bffffffffffffffffffffffffffffffffffffffffffffffffffffffff191614915050611a10565b600190505b949350505050565b606060008203611a5f576040518060400160405280600181526020017f30000000000000000000000000000000000000000000000000000000000000008152509050611b73565b600082905060005b60008214611a91578080611a7a90612ec9565b915050600a82611a8a9190612f40565b9150611a67565b60008167ffffffffffffffff811115611aad57611aac612013565b5b6040519080825280601f01601f191660200182016040528015611adf5781602001600182028036833780820191505090505b5090505b60008514611b6c57600182611af89190612a62565b9150600a85611b079190612f71565b6030611b139190612a96565b60f81b818381518110611b2957611b28612fa2565b5b60200101907effffffffffffffffffffffffffffffffffffffffffffffffffffffffffffff1916908160001a905350600a85611b659190612f40565b9450611ae3565b8093505050505b919050565b6000808273ffffffffffffffffffffffffffffffffffffffff163b119050919050565b828054611ba7906122f0565b90600052602060002090601f016020900481019282611bc95760008555611c10565b82601f10611be257805160ff1916838001178555611c10565b82800160010185558215611c10579182015b82811115611c0f578251825591602001919060010190611bf4565b5b509050611c1d9190611c21565b5090565b5b80821115611c3a576000816000905550600101611c22565b5090565b6000604051905090565b600080fd5b600080fd5b60007fffffffff0000000000000000000000000000000000000000000000000000000082169050919050565b611c8781611c52565b8114611c9257600080fd5b50565b600081359050611ca481611c7e565b92915050565b600060208284031215611cc057611cbf611c48565b5b6000611cce84828501611c95565b91505092915050565b60008115159050919050565b611cec81611cd7565b82525050565b6000602082019050611d076000830184611ce3565b92915050565b600081519050919050565b600082825260208201905092915050565b60005b83811015611d47578082015181840152602081019050611d2c565b83811115611d56576000848401525b50505050565b6000601f19601f8301169050919050565b6000611d7882611d0d565b611d828185611d18565b9350611d92818560208601611d29565b611d9b81611d5c565b840191505092915050565b60006020820190508181036000830152611dc08184611d6d565b905092915050565b6000819050919050565b611ddb81611dc8565b8114611de657600080fd5b50565b600081359050611df881611dd2565b92915050565b600060208284031215611e1457611e13611c48565b5b6000611e2284828501611de9565b91505092915050565b600073ffffffffffffffffffffffffffffffffffffffff82169050919050565b6000611e5682611e2b565b9050919050565b611e6681611e4b565b82525050565b6000602082019050611e816000830184611e5d565b92915050565b611e9081611e4b565b8114611e9b57600080fd5b50565b600081359050611ead81611e87565b92915050565b60008060408385031215611eca57611ec9611c48565b5b6000611ed885828601611e9e565b9250506020611ee985828601611de9565b9150509250929050565b600080600060608486031215611f0c57611f0b611c48565b5b6000611f1a86828701611e9e565b9350506020611f2b86828701611e9e565b9250506040611f3c86828701611de9565b9150509250925092565b600060208284031215611f5c57611f5b611c48565b5b6000611f6a84828501611e9e565b91505092915050565b611f7c81611dc8565b82525050565b6000602082019050611f976000830184611f73565b92915050565b611fa681611cd7565b8114611fb157600080fd5b50565b600081359050611fc381611f9d565b92915050565b60008060408385031215611fe057611fdf611c48565b5b6000611fee85828601611e9e565b9250506020611fff85828601611fb4565b9150509250929050565b600080fd5b600080fd5b7f4e487b7100000000000000000000000000000000000000000000000000000000600052604160045260246000fd5b61204b82611d5c565b810181811067ffffffffffffffff8211171561206a57612069612013565b5b80604052505050565b600061207d611c3e565b90506120898282612042565b919050565b600067ffffffffffffffff8211156120a9576120a8612013565b5b6120b282611d5c565b9050602081019050919050565b82818337600083830152505050565b60006120e16120dc8461208e565b612073565b9050828152602081018484840111156120fd576120fc61200e565b5b6121088482856120bf565b509392505050565b600082601f83011261212557612124612009565b5b81356121358482602086016120ce565b91505092915050565b6000806000806080858703121561215857612157611c48565b5b600061216687828801611e9e565b945050602061217787828801611e9e565b935050604061218887828801611de9565b925050606085013567ffffffffffffffff8111156121a9576121a8611c4d565b5b6121b587828801612110565b91505092959194509250565b600080fd5b600080fd5b60008083601f8401126121e1576121e0612009565b5b8235905067ffffffffffffffff8111156121fe576121fd6121c1565b5b60208301915083600182028301111561221a576122196121c6565b5b9250929050565b60008060006040848603121561223a57612239611c48565b5b600061224886828701611e9e565b935050602084013567ffffffffffffffff81111561226957612268611c4d565b5b612275868287016121cb565b92509250509250925092565b6000806040838503121561229857612297611c48565b5b60006122a685828601611e9e565b92505060206122b785828601611e9e565b9150509250929050565b7f4e487b7100000000000000000000000000000000000000000000000000000000600052602260045260246000fd5b6000600282049050600182168061230857607f821691505b60208210810361231b5761231a6122c1565b5b50919050565b7f4552433732313a20617070726f76656420717565727920666f72206e6f6e657860008201527f697374656e7420746f6b656e0000000000000000000000000000000000000000602082015250565b600061237d602c83611d18565b915061238882612321565b604082019050919050565b600060208201905081810360008301526123ac81612370565b9050919050565b7f4552433732313a20617070726f76616c20746f2063757272656e74206f776e6560008201527f7200000000000000000000000000000000000000000000000000000000000000602082015250565b600061240f602183611d18565b915061241a826123b3565b604082019050919050565b6000602082019050818103600083015261243e81612402565b9050919050565b7f4552433732313a20617070726f76652063616c6c6572206973206e6f74206f7760008201527f6e6572206e6f7220617070726f76656420666f7220616c6c0000000000000000602082015250565b60006124a1603883611d18565b91506124ac82612445565b604082019050919050565b600060208201905081810360008301526124d081612494565b9050919050565b7f4552433732313a207472616e736665722063616c6c6572206973206e6f74206f60008201527f776e6572206e6f7220617070726f766564000000000000000000000000000000602082015250565b6000612533603183611d18565b915061253e826124d7565b604082019050919050565b6000602082019050818103600083015261256281612526565b9050919050565b7f4552433732313a206f776e657220717565727920666f72206e6f6e657869737460008201527f656e7420746f6b656e0000000000000000000000000000000000000000000000602082015250565b60006125c5602983611d18565b91506125d082612569565b604082019050919050565b600060208201905081810360008301526125f4816125b8565b9050919050565b7f4552433732313a2062616c616e636520717565727920666f7220746865207a6560008201527f726f206164647265737300000000000000000000000000000000000000000000602082015250565b6000612657602a83611d18565b9150612662826125fb565b604082019050919050565b600060208201905081810360008301526126868161264a565b9050919050565b7f4f776e61626c653a2063616c6c6572206973206e6f7420746865206f776e6572600082015250565b60006126c3602083611d18565b91506126ce8261268d565b602082019050919050565b600060208201905081810360008301526126f2816126b6565b9050919050565b7f45524337323155524953746f726167653a2055524920717565727920666f722060008201527f6e6f6e6578697374656e7420746f6b656e000000000000000000000000000000602082015250565b6000612755603183611d18565b9150612760826126f9565b604082019050919050565b6000602082019050818103600083015261278481612748565b9050919050565b600081905092915050565b60006127a182611d0d565b6127ab818561278b565b93506127bb818560208601611d29565b80840191505092915050565b60006127d38285612796565b91506127df8284612796565b91508190509392505050565b7f4f776e61626c653a206e6577206f776e657220697320746865207a65726f206160008201527f6464726573730000000000000000000000000000000000000000000000000000602082015250565b6000612847602683611d18565b9150612852826127eb565b604082019050919050565b600060208201905081810360008301526128768161283a565b9050919050565b7f4552433732313a206f70657261746f7220717565727920666f72206e6f6e657860008201527f697374656e7420746f6b656e0000000000000000000000000000000000000000602082015250565b60006128d9602c83611d18565b91506128e48261287d565b604082019050919050565b60006020820190508181036000830152612908816128cc565b9050919050565b7f4552433732313a207472616e736665722066726f6d20696e636f72726563742060008201527f6f776e6572000000000000000000000000000000000000000000000000000000602082015250565b600061296b602583611d18565b91506129768261290f565b604082019050919050565b6000602082019050818103600083015261299a8161295e565b9050919050565b7f4552433732313a207472616e7366657220746f20746865207a65726f2061646460008201527f7265737300000000000000000000000000000000000000000000000000000000602082015250565b60006129fd602483611d18565b9150612a08826129a1565b604082019050919050565b60006020820190508181036000830152612a2c816129f0565b9050919050565b7f4e487b7100000000000000000000000000000000000000000000000000000000600052601160045260246000fd5b6000612a6d82611dc8565b9150612a7883611dc8565b925082821015612a8b57612a8a612a33565b5b828203905092915050565b6000612aa182611dc8565b9150612aac83611dc8565b9250827fffffffffffffffffffffffffffffffffffffffffffffffffffffffffffffffff03821115612ae157612ae0612a33565b5b828201905092915050565b7f4552433732313a20617070726f766520746f2063616c6c657200000000000000600082015250565b6000612b22601983611d18565b9150612b2d82612aec565b602082019050919050565b60006020820190508181036000830152612b5181612b15565b9050919050565b7f4552433732313a207472616e7366657220746f206e6f6e20455243373231526560008201527f63656976657220696d706c656d656e7465720000000000000000000000000000602082015250565b6000612bb4603283611d18565b9150612bbf82612b58565b604082019050919050565b60006020820190508181036000830152612be381612ba7565b9050919050565b7f4552433732314d657461646174613a2055524920717565727920666f72206e6f60008201527f6e6578697374656e7420746f6b656e0000000000000000000000000000000000602082015250565b6000612c46602f83611d18565b9150612c5182612bea565b604082019050919050565b60006020820190508181036000830152612c7581612c39565b9050919050565b7f4552433732313a206d696e7420746f20746865207a65726f2061646472657373600082015250565b6000612cb2602083611d18565b9150612cbd82612c7c565b602082019050919050565b60006020820190508181036000830152612ce181612ca5565b9050919050565b7f4552433732313a20746f6b656e20616c7265616479206d696e74656400000000600082015250565b6000612d1e601c83611d18565b9150612d2982612ce8565b602082019050919050565b60006020820190508181036000830152612d4d81612d11565b9050919050565b7f45524337323155524953746f726167653a2055524920736574206f66206e6f6e60008201527f6578697374656e7420746f6b656e000000000000000000000000000000000000602082015250565b6000612db0602e83611d18565b9150612dbb82612d54565b604082019050919050565b60006020820190508181036000830152612ddf81612da3565b9050919050565b600081519050919050565b600082825260208201905092915050565b6000612e0d82612de6565b612e178185612df1565b9350612e27818560208601611d29565b612e3081611d5c565b840191505092915050565b6000608082019050612e506000830187611e5d565b612e5d6020830186611e5d565b612e6a6040830185611f73565b8181036060830152612e7c8184612e02565b905095945050505050565b600081519050612e9681611c7e565b92915050565b600060208284031215612eb257612eb1611c48565b5b6000612ec084828501612e87565b91505092915050565b6000612ed482611dc8565b91507fffffffffffffffffffffffffffffffffffffffffffffffffffffffffffffffff8203612f0657612f05612a33565b5b600182019050919050565b7f4e487b7100000000000000000000000000000000000000000000000000000000600052601260045260246000fd5b6000612f4b82611dc8565b9150612f5683611dc8565b925082612f6657612f65612f11565b5b828204905092915050565b6000612f7c82611dc8565b9150612f8783611dc8565b925082612f9757612f96612f11565b5b828206905092915050565b7f4e487b7100000000000000000000000000000000000000000000000000000000600052603260045260246000fdfea26469706673582212202d861bf4e32d00e842d679f5a8f845e3254ccaa14b1cf7c40267d63f20013a1a64736f6c634300080d0033a2646970667358221220867c62f12aa2199509182e32b1ac364bab10f51853aec039a0a4f442f54a16c164736f6c634300080d003360a060405260016004553480156200001657600080fd5b50604051620041c5380380620041c583398181016040528101906200003c919062000871565b6200005c62000050620000d760201b60201c565b620000df60201b60201c565b8573ffffffffffffffffffffffffffffffffffffffff1660808173ffffffffffffffffffffffffffffffffffffffff1681525050620000a0620001a560201b60201c565b620000b38585856200023d60201b60201c565b620000c482620003f760201b60201c565b80600a8190555050505050505062000b86565b600033905090565b6000600660009054906101000a900473ffffffffffffffffffffffffffffffffffffffff16905081600660006101000a81548173ffffffffffffffffffffffffffffffffffffffff021916908373ffffffffffffffffffffffffffffffffffffffff1602179055508173ffffffffffffffffffffffffffffffffffffffff168173ffffffffffffffffffffffffffffffffffffffff167f8be0079c531659141344cd1fd0a4f28419497f9722a3daafe3b4186f6b6457e060405160405180910390a35050565b6200023b73c89bd4e1632d3a43cb03aaad5262cbe4038bc57173ffffffffffffffffffffffffffffffffffffffff166338cc48316040518163ffffffff1660e01b8152600401602060405180830381865afa15801562000209573d6000803e3d6000fd5b505050506040513d601f19601f820116820180604052508101906200022f91906200092c565b620004db60201b60201c565b565b6200024d620000d760201b60201c565b73ffffffffffffffffffffffffffffffffffffffff16620002736200051f60201b60201c565b73ffffffffffffffffffffffffffffffffffffffff1614620002cc576040517f08c379a0000000000000000000000000000000000000000000000000000000008152600401620002c390620009bf565b60405180910390fd5b600073ffffffffffffffffffffffffffffffffffffffff168373ffffffffffffffffffffffffffffffffffffffff16036200033e576040517f08c379a0000000000000000000000000000000000000000000000000000000008152600401620003359062000a31565b60405180910390fd5b6000600b60009054906101000a900473ffffffffffffffffffffffffffffffffffffffff16905083600b60006101000a81548173ffffffffffffffffffffffffffffffffffffffff021916908373ffffffffffffffffffffffffffffffffffffffff16021790555082600c8190555081600d819055507f5608168c8125345db8098e55c10e36cbcca4a6ad8f02318e8c0963820413b29c818585604051620003e99392919062000a75565b60405180910390a150505050565b62000407620000d760201b60201c565b73ffffffffffffffffffffffffffffffffffffffff166200042d6200051f60201b60201c565b73ffffffffffffffffffffffffffffffffffffffff161462000486576040517f08c379a00000000000000000000000000000000000000000000000000000000081526004016200047d90620009bf565b60405180910390fd5b80600990805190602001906200049e92919062000549565b507fb6c4f180f069ea11b10bddee1ac0ae6ffa41fcb3ae92e869582f316df1f2f14e81604051620004d0919062000afe565b60405180910390a150565b80600260006101000a81548173ffffffffffffffffffffffffffffffffffffffff021916908373ffffffffffffffffffffffffffffffffffffffff16021790555050565b6000600660009054906101000a900473ffffffffffffffffffffffffffffffffffffffff16905090565b828054620005579062000b51565b90600052602060002090601f0160209004810192826200057b5760008555620005c7565b82601f106200059657805160ff1916838001178555620005c7565b82800160010185558215620005c7579182015b82811115620005c6578251825591602001919060010190620005a9565b5b509050620005d69190620005da565b5090565b5b80821115620005f5576000816000905550600101620005db565b5090565b6000604051905090565b600080fd5b600080fd5b600073ffffffffffffffffffffffffffffffffffffffff82169050919050565b60006200063a826200060d565b9050919050565b6200064c816200062d565b81146200065857600080fd5b50565b6000815190506200066c8162000641565b92915050565b6000819050919050565b620006878162000672565b81146200069357600080fd5b50565b600081519050620006a7816200067c565b92915050565b6000819050919050565b620006c281620006ad565b8114620006ce57600080fd5b50565b600081519050620006e281620006b7565b92915050565b600080fd5b600080fd5b6000601f19601f8301169050919050565b7f4e487b7100000000000000000000000000000000000000000000000000000000600052604160045260246000fd5b6200073d82620006f2565b810181811067ffffffffffffffff821117156200075f576200075e62000703565b5b80604052505050565b600062000774620005f9565b905062000782828262000732565b919050565b600067ffffffffffffffff821115620007a557620007a462000703565b5b620007b082620006f2565b9050602081019050919050565b60005b83811015620007dd578082015181840152602081019050620007c0565b83811115620007ed576000848401525b50505050565b60006200080a620008048462000787565b62000768565b905082815260208101848484011115620008295762000828620006ed565b5b62000836848285620007bd565b509392505050565b600082601f830112620008565762000855620006e8565b5b815162000868848260208601620007f3565b91505092915050565b60008060008060008060c0878903121562000891576200089062000603565b5b6000620008a189828a016200065b565b9650506020620008b489828a016200065b565b9550506040620008c789828a0162000696565b9450506060620008da89828a01620006d1565b935050608087015167ffffffffffffffff811115620008fe57620008fd62000608565b5b6200090c89828a016200083e565b92505060a06200091f89828a01620006d1565b9150509295509295509295565b60006020828403121562000945576200094462000603565b5b600062000955848285016200065b565b91505092915050565b600082825260208201905092915050565b7f4f776e61626c653a2063616c6c6572206973206e6f7420746865206f776e6572600082015250565b6000620009a76020836200095e565b9150620009b4826200096f565b602082019050919050565b60006020820190508181036000830152620009da8162000998565b9050919050565b7f496e76616c6964206f7261636c65206164647265737300000000000000000000600082015250565b600062000a196016836200095e565b915062000a2682620009e1565b602082019050919050565b6000602082019050818103600083015262000a4c8162000a0a565b9050919050565b62000a5e816200062d565b82525050565b62000a6f8162000672565b82525050565b600060608201905062000a8c600083018662000a53565b62000a9b602083018562000a53565b62000aaa604083018462000a64565b949350505050565b600081519050919050565b600062000aca8262000ab2565b62000ad681856200095e565b935062000ae8818560208601620007bd565b62000af381620006f2565b840191505092915050565b6000602082019050818103600083015262000b1a818462000abd565b905092915050565b7f4e487b7100000000000000000000000000000000000000000000000000000000600052602260045260246000fd5b6000600282049050600182168062000b6a57607f821691505b60208210810362000b805762000b7f62000b22565b5b50919050565b60805161360e62000bb7600039600081816104ba015281816108cf015281816109fd0152610c0d015261360e6000f3fe608060405234801561001057600080fd5b50600436106101005760003560e01c80638947606911610097578063da423b8911610066578063da423b8914610279578063e236fb16146102a9578063f2fde38b146102c5578063fc457792146102e157610100565b806389476069146102055780638da5cb5b14610221578063b9709cdc1461023f578063d6333e0b1461025d57610100565b8063571d578d116100d3578063571d578d146101a3578063596c2328146101c15780635c816195146101df578063715018a6146101fb57610100565b806307e33bad146101055780630f765c01146101235780631581797b1461015557806326b1893d14610173575b600080fd5b61010d6102ff565b60405161011a91906120eb565b60405180910390f35b61013d60048036038101906101389190612146565b610305565b60405161014c9392919061224d565b60405180910390f35b61015d6103f7565b60405161016a919061228b565b60405180910390f35b61018d60048036038101906101889190612146565b610485565b60405161019a91906122ad565b60405180910390f35b6101ab6104b8565b6040516101b891906122ad565b60405180910390f35b6101c96104dc565b6040516101d691906122e1565b60405180910390f35b6101f960048036038101906101f49190612328565b6104e2565b005b61020361096f565b005b61021f600480360381019061021a91906123a6565b6109f7565b005b610229610b0c565b60405161023691906122ad565b60405180910390f35b610247610b36565b60405161025491906122e1565b60405180910390f35b61027760048036038101906102729190612508565b610b3c565b005b610293600480360381019061028e91906125dd565b610c09565b6040516102a091906120eb565b60405180910390f35b6102c360048036038101906102be9190612651565b61109d565b005b6102df60048036038101906102da91906126a4565b61123f565b005b6102e9611336565b6040516102f691906122ad565b60405180910390f35b600c5481565b60086020528060005260406000206000915090508060000160009054906101000a900473ffffffffffffffffffffffffffffffffffffffff169080600101805461034e90612700565b80601f016020809104026020016040519081016040528092919081815260200182805461037a90612700565b80156103c75780601f1061039c576101008083540402835291602001916103c7565b820191906000526020600020905b8154815290600101906020018083116103aa57829003601f168201915b5050505050908060020160009054906101000a900473ffffffffffffffffffffffffffffffffffffffff16905083565b6009805461040490612700565b80601f016020809104026020016040519081016040528092919081815260200182805461043090612700565b801561047d5780601f106104525761010080835404028352916020019161047d565b820191906000526020600020905b81548152906001019060200180831161046057829003601f168201915b505050505081565b60076020528060005260406000206000915054906101000a900473ffffffffffffffffffffffffffffffffffffffff1681565b7f000000000000000000000000000000000000000000000000000000000000000081565b600d5481565b816005600082815260200190815260200160002060009054906101000a900473ffffffffffffffffffffffffffffffffffffffff1673ffffffffffffffffffffffffffffffffffffffff163373ffffffffffffffffffffffffffffffffffffffff1614610584576040517f08c379a000000000000000000000000000000000000000000000000000000000815260040161057b906127a3565b60405180910390fd5b6005600082815260200190815260200160002060006101000a81549073ffffffffffffffffffffffffffffffffffffffff0219169055807f7cc135e0cebb02c3480ae5d74d377283180a2601f8f644edf7987b009316c63a60405160405180910390a26000600860008581526020019081526020016000206040518060600160405290816000820160009054906101000a900473ffffffffffffffffffffffffffffffffffffffff1673ffffffffffffffffffffffffffffffffffffffff1673ffffffffffffffffffffffffffffffffffffffff16815260200160018201805461066d90612700565b80601f016020809104026020016040519081016040528092919081815260200182805461069990612700565b80156106e65780601f106106bb576101008083540402835291602001916106e6565b820191906000526020600020905b8154815290600101906020018083116106c957829003601f168201915b505050505081526020016002820160009054906101000a900473ffffffffffffffffffffffffffffffffffffffff1673ffffffffffffffffffffffffffffffffffffffff1673ffffffffffffffffffffffffffffffffffffffff1681525050905060086000858152602001908152602001600020600080820160006101000a81549073ffffffffffffffffffffffffffffffffffffffff02191690556001820160006107929190611f68565b6002820160006101000a81549073ffffffffffffffffffffffffffffffffffffffff02191690555050600081602001516040516020016107d291906127ff565b6040516020818303038152906040528051906020012090506107f38461135c565b1561083b577f037d8494b1c5a92b49688ff4c11a618ca51caa93543fb0448d9d3dfc720c47dd8585600060405161082c93929190612831565b60405180910390a1505061096a565b81604001516007600083815260200190815260200160002060006101000a81548173ffffffffffffffffffffffffffffffffffffffff021916908373ffffffffffffffffffffffffffffffffffffffff1602179055507f037d8494b1c5a92b49688ff4c11a618ca51caa93543fb0448d9d3dfc720c47dd858560016040516108c593929190612831565b60405180910390a17f000000000000000000000000000000000000000000000000000000000000000073ffffffffffffffffffffffffffffffffffffffff16625902368360400151846000015185602001516040518463ffffffff1660e01b8152600401610935939291906128c7565b600060405180830381600087803b15801561094f57600080fd5b505af1158015610963573d6000803e3d6000fd5b5050505050505b505050565b61097761136b565b73ffffffffffffffffffffffffffffffffffffffff16610995610b0c565b73ffffffffffffffffffffffffffffffffffffffff16146109eb576040517f08c379a00000000000000000000000000000000000000000000000000000000081526004016109e290612951565b60405180910390fd5b6109f56000611373565b565b610b09817f000000000000000000000000000000000000000000000000000000000000000073ffffffffffffffffffffffffffffffffffffffff16638da5cb5b6040518163ffffffff1660e01b8152600401602060405180830381865afa158015610a66573d6000803e3d6000fd5b505050506040513d601f19601f82011682018060405250810190610a8a9190612986565b8373ffffffffffffffffffffffffffffffffffffffff166370a08231306040518263ffffffff1660e01b8152600401610ac391906122ad565b602060405180830381865afa158015610ae0573d6000803e3d6000fd5b505050506040513d601f19601f82011682018060405250810190610b0491906129c8565b611439565b50565b6000600660009054906101000a900473ffffffffffffffffffffffffffffffffffffffff16905090565b600a5481565b610b4461136b565b73ffffffffffffffffffffffffffffffffffffffff16610b62610b0c565b73ffffffffffffffffffffffffffffffffffffffff1614610bb8576040517f08c379a0000000000000000000000000000000000000000000000000000000008152600401610baf90612951565b60405180910390fd5b8060099080519060200190610bce929190611fa8565b507fb6c4f180f069ea11b10bddee1ac0ae6ffa41fcb3ae92e869582f316df1f2f14e81604051610bfe919061228b565b60405180910390a150565b60007f000000000000000000000000000000000000000000000000000000000000000073ffffffffffffffffffffffffffffffffffffffff163373ffffffffffffffffffffffffffffffffffffffff1614610c99576040517f08c379a0000000000000000000000000000000000000000000000000000000008152600401610c9090612a67565b60405180910390fd5b60008484604051602001610cae929190612aac565b604051602081830303815290604052805190602001209050600073ffffffffffffffffffffffffffffffffffffffff166007600083815260200190815260200160002060009054906101000a900473ffffffffffffffffffffffffffffffffffffffff1673ffffffffffffffffffffffffffffffffffffffff1614610d68576040517f08c379a0000000000000000000000000000000000000000000000000000000008152600401610d5f90612b11565b60405180910390fd5b60008585905011610dae576040517f08c379a0000000000000000000000000000000000000000000000000000000008152600401610da590612b7d565b60405180910390fd5b6000610dc4600c5430635c81619560e01b6114bf565b9050610e5c6040518060400160405280600381526020017f6765740000000000000000000000000000000000000000000000000000000000815250610e4c88888080601f016020809104026020016040519081016040528093929190818152602001838380828437600081840152601f19601f820116905080830192505050505050506114f0565b8361151c9092919063ffffffff16565b610edb6040518060400160405280600481526020017f70617468000000000000000000000000000000000000000000000000000000008152506040518060400160405280600981526020017f7468726573686f6c6400000000000000000000000000000000000000000000008152508361151c9092919063ffffffff16565b610f0a600b60009054906101000a900473ffffffffffffffffffffffffffffffffffffffff1682600d5461154f565b925060405180606001604052808873ffffffffffffffffffffffffffffffffffffffff16815260200187878080601f016020809104026020016040519081016040528093929190818152602001838380828437600081840152601f19601f8201169050808301925050505050505081526020018573ffffffffffffffffffffffffffffffffffffffff168152506008600085815260200190815260200160002060008201518160000160006101000a81548173ffffffffffffffffffffffffffffffffffffffff021916908373ffffffffffffffffffffffffffffffffffffffff160217905550602082015181600101908051906020019061100d929190611fa8565b5060408201518160020160006101000a81548173ffffffffffffffffffffffffffffffffffffffff021916908373ffffffffffffffffffffffffffffffffffffffff1602179055509050507f8e86526ae5d5af3ffb2a36f51b7137df9b1096cd861a6a7c54183c02c8eb82df82858560405161108b93929190612b9d565b60405180910390a15050949350505050565b6110a561136b565b73ffffffffffffffffffffffffffffffffffffffff166110c3610b0c565b73ffffffffffffffffffffffffffffffffffffffff1614611119576040517f08c379a000000000000000000000000000000000000000000000000000000000815260040161111090612951565b60405180910390fd5b600073ffffffffffffffffffffffffffffffffffffffff168373ffffffffffffffffffffffffffffffffffffffff1603611188576040517f08c379a000000000000000000000000000000000000000000000000000000000815260040161117f90612c20565b60405180910390fd5b6000600b60009054906101000a900473ffffffffffffffffffffffffffffffffffffffff16905083600b60006101000a81548173ffffffffffffffffffffffffffffffffffffffff021916908373ffffffffffffffffffffffffffffffffffffffff16021790555082600c8190555081600d819055507f5608168c8125345db8098e55c10e36cbcca4a6ad8f02318e8c0963820413b29c81858560405161123193929190612c40565b60405180910390a150505050565b61124761136b565b73ffffffffffffffffffffffffffffffffffffffff16611265610b0c565b73ffffffffffffffffffffffffffffffffffffffff16146112bb576040517f08c379a00000000000000000000000000000000000000000000000000000000081526004016112b290612951565b60405180910390fd5b600073ffffffffffffffffffffffffffffffffffffffff168173ffffffffffffffffffffffffffffffffffffffff160361132a576040517f08c379a000000000000000000000000000000000000000000000000000000000815260040161132190612ce9565b60405180910390fd5b61133381611373565b50565b600b60009054906101000a900473ffffffffffffffffffffffffffffffffffffffff1681565b6000600a548210159050919050565b600033905090565b6000600660009054906101000a900473ffffffffffffffffffffffffffffffffffffffff16905081600660006101000a81548173ffffffffffffffffffffffffffffffffffffffff021916908373ffffffffffffffffffffffffffffffffffffffff1602179055508173ffffffffffffffffffffffffffffffffffffffff168173ffffffffffffffffffffffffffffffffffffffff167f8be0079c531659141344cd1fd0a4f28419497f9722a3daafe3b4186f6b6457e060405160405180910390a35050565b6114ba8363a9059cbb60e01b8484604051602401611458929190612d09565b604051602081830303815290604052907bffffffffffffffffffffffffffffffffffffffffffffffffffffffff19166020820180517bffffffffffffffffffffffffffffffffffffffffffffffffffffffff838183161783525050505061161b565b505050565b6114c761202e565b6114cf61202e565b6114e6858585846116e2909392919063ffffffff16565b9150509392505050565b6060600982604051602001611506929190612dec565b6040516020818303038152906040529050919050565b61153382846080015161179290919063ffffffff16565b61154a81846080015161179290919063ffffffff16565b505050565b60008060045490506001816115649190612e4e565b6004819055506000634042994660e01b60008087600001513089604001518760018c60800151600001516040516024016115a5989796959493929190612f34565b604051602081830303815290604052907bffffffffffffffffffffffffffffffffffffffffffffffffffffffff19166020820180517bffffffffffffffffffffffffffffffffffffffffffffffffffffffff83818316178352505050509050611610868386846117b7565b925050509392505050565b600061167d826040518060400160405280602081526020017f5361666545524332303a206c6f772d6c6576656c2063616c6c206661696c65648152508573ffffffffffffffffffffffffffffffffffffffff1661194c9092919063ffffffff16565b90506000815111156116dd578080602001905181019061169d9190612fe5565b6116dc576040517f08c379a00000000000000000000000000000000000000000000000000000000081526004016116d390613084565b60405180910390fd5b5b505050565b6116ea61202e565b6116fa8560800151610100611964565b508385600001818152505082856020019073ffffffffffffffffffffffffffffffffffffffff16908173ffffffffffffffffffffffffffffffffffffffff16815250508185604001907bffffffffffffffffffffffffffffffffffffffffffffffffffffffff191690817bffffffffffffffffffffffffffffffffffffffffffffffffffffffff191681525050849050949350505050565b61179f82600383516119ce565b6117b28183611b5390919063ffffffff16565b505050565b600030846040516020016117cc92919061311f565b604051602081830303815290604052805190602001209050846005600083815260200190815260200160002060006101000a81548173ffffffffffffffffffffffffffffffffffffffff021916908373ffffffffffffffffffffffffffffffffffffffff160217905550807fb5e6e01e79f91267dc17b4e6314d5d4d03593d2ceee0fbb452b750bd70ea5af960405160405180910390a2600260009054906101000a900473ffffffffffffffffffffffffffffffffffffffff1673ffffffffffffffffffffffffffffffffffffffff16634000aea08685856040518463ffffffff1660e01b81526004016118c29392919061314b565b6020604051808303816000875af11580156118e1573d6000803e3d6000fd5b505050506040513d601f19601f820116820180604052508101906119059190612fe5565b611944576040517f08c379a000000000000000000000000000000000000000000000000000000000815260040161193b906131fb565b60405180910390fd5b949350505050565b606061195b8484600085611b75565b90509392505050565b61196c61209b565b600060208361197b919061324a565b146119a75760208261198d919061324a565b6020611999919061327b565b826119a49190612e4e565b91505b81836020018181525050604051808452600081528281016020016040525082905092915050565b60178167ffffffffffffffff1611611a05576119ff8160058460ff16901b60ff161784611c8990919063ffffffff16565b50611b4e565b60ff8167ffffffffffffffff1611611a5b57611a34601860058460ff16901b1784611c8990919063ffffffff16565b50611a558167ffffffffffffffff16600185611ca99092919063ffffffff16565b50611b4d565b61ffff8167ffffffffffffffff1611611ab257611a8b601960058460ff16901b1784611c8990919063ffffffff16565b50611aac8167ffffffffffffffff16600285611ca99092919063ffffffff16565b50611b4c565b63ffffffff8167ffffffffffffffff1611611b0b57611ae4601a60058460ff16901b1784611c8990919063ffffffff16565b50611b058167ffffffffffffffff16600485611ca99092919063ffffffff16565b50611b4b565b611b28601b60058460ff16901b1784611c8990919063ffffffff16565b50611b498167ffffffffffffffff16600885611ca99092919063ffffffff16565b505b5b5b5b505050565b611b5b61209b565b611b6d83846000015151848551611ccb565b905092915050565b606082471015611bba576040517f08c379a0000000000000000000000000000000000000000000000000000000008152600401611bb190613321565b60405180910390fd5b611bc385611dba565b611c02576040517f08c379a0000000000000000000000000000000000000000000000000000000008152600401611bf99061338d565b60405180910390fd5b6000808673ffffffffffffffffffffffffffffffffffffffff168587604051611c2b91906133e9565b60006040518083038185875af1925050503d8060008114611c68576040519150601f19603f3d011682016040523d82523d6000602084013e611c6d565b606091505b5091509150611c7d828286611ddd565b92505050949350505050565b611c9161209b565b611ca18384600001515184611e44565b905092915050565b611cb161209b565b611cc2848560000151518585611e9a565b90509392505050565b611cd361209b565b8251821115611ce157600080fd5b84602001518285611cf29190612e4e565b1115611d2757611d26856002611d1788602001518887611d129190612e4e565b611f28565b611d219190613400565b611f44565b5b600080865180518760208301019350808887011115611d465787860182525b60208701925050505b60208410611d8d5780518252602082611d689190612e4e565b9150602081611d779190612e4e565b9050602084611d86919061327b565b9350611d4f565b60006001856020036101000a03905080198251168184511681811785525050508692505050949350505050565b6000808273ffffffffffffffffffffffffffffffffffffffff163b119050919050565b60608315611ded57829050611e3d565b600083511115611e005782518084602001fd5b816040517f08c379a0000000000000000000000000000000000000000000000000000000008152600401611e34919061228b565b60405180910390fd5b9392505050565b611e4c61209b565b83602001518310611e7257611e718460028660200151611e6c9190613400565b611f44565b5b83518051602085830101848153818603611e8d576001820183525b5050508390509392505050565b611ea261209b565b84602001518483611eb39190612e4e565b1115611edb57611eda8560028685611ecb9190612e4e565b611ed59190613400565b611f44565b5b6000600183610100611eed919061358d565b611ef7919061327b565b90508551838682010185831982511617815281518588011115611f1a5784870182525b505085915050949350505050565b600081831115611f3a57829050611f3e565b8190505b92915050565b600082600001519050611f578383611964565b50611f628382611b53565b50505050565b508054611f7490612700565b6000825580601f10611f865750611fa5565b601f016020900490600052602060002090810190611fa491906120b5565b5b50565b828054611fb490612700565b90600052602060002090601f016020900481019282611fd6576000855561201d565b82601f10611fef57805160ff191683800117855561201d565b8280016001018555821561201d579182015b8281111561201c578251825591602001919060010190612001565b5b50905061202a91906120b5565b5090565b6040518060a0016040528060008019168152602001600073ffffffffffffffffffffffffffffffffffffffff16815260200160007bffffffffffffffffffffffffffffffffffffffffffffffffffffffff191681526020016000815260200161209561209b565b81525090565b604051806040016040528060608152602001600081525090565b5b808211156120ce5760008160009055506001016120b6565b5090565b6000819050919050565b6120e5816120d2565b82525050565b600060208201905061210060008301846120dc565b92915050565b6000604051905090565b600080fd5b600080fd5b612123816120d2565b811461212e57600080fd5b50565b6000813590506121408161211a565b92915050565b60006020828403121561215c5761215b612110565b5b600061216a84828501612131565b91505092915050565b600073ffffffffffffffffffffffffffffffffffffffff82169050919050565b600061219e82612173565b9050919050565b6121ae81612193565b82525050565b600081519050919050565b600082825260208201905092915050565b60005b838110156121ee5780820151818401526020810190506121d3565b838111156121fd576000848401525b50505050565b6000601f19601f8301169050919050565b600061221f826121b4565b61222981856121bf565b93506122398185602086016121d0565b61224281612203565b840191505092915050565b600060608201905061226260008301866121a5565b81810360208301526122748185612214565b905061228360408301846121a5565b949350505050565b600060208201905081810360008301526122a58184612214565b905092915050565b60006020820190506122c260008301846121a5565b92915050565b6000819050919050565b6122db816122c8565b82525050565b60006020820190506122f660008301846122d2565b92915050565b612305816122c8565b811461231057600080fd5b50565b600081359050612322816122fc565b92915050565b6000806040838503121561233f5761233e612110565b5b600061234d85828601612131565b925050602061235e85828601612313565b9150509250929050565b600061237382612193565b9050919050565b61238381612368565b811461238e57600080fd5b50565b6000813590506123a08161237a565b92915050565b6000602082840312156123bc576123bb612110565b5b60006123ca84828501612391565b91505092915050565b600080fd5b600080fd5b7f4e487b7100000000000000000000000000000000000000000000000000000000600052604160045260246000fd5b61241582612203565b810181811067ffffffffffffffff82111715612434576124336123dd565b5b80604052505050565b6000612447612106565b9050612453828261240c565b919050565b600067ffffffffffffffff821115612473576124726123dd565b5b61247c82612203565b9050602081019050919050565b82818337600083830152505050565b60006124ab6124a684612458565b61243d565b9050828152602081018484840111156124c7576124c66123d8565b5b6124d2848285612489565b509392505050565b600082601f8301126124ef576124ee6123d3565b5b81356124ff848260208601612498565b91505092915050565b60006020828403121561251e5761251d612110565b5b600082013567ffffffffffffffff81111561253c5761253b612115565b5b612548848285016124da565b91505092915050565b61255a81612193565b811461256557600080fd5b50565b60008135905061257781612551565b92915050565b600080fd5b600080fd5b60008083601f84011261259d5761259c6123d3565b5b8235905067ffffffffffffffff8111156125ba576125b961257d565b5b6020830191508360018202830111156125d6576125d5612582565b5b9250929050565b600080600080606085870312156125f7576125f6612110565b5b600061260587828801612568565b945050602085013567ffffffffffffffff81111561262657612625612115565b5b61263287828801612587565b9350935050604061264587828801612568565b91505092959194509250565b60008060006060848603121561266a57612669612110565b5b600061267886828701612568565b935050602061268986828701612131565b925050604061269a86828701612313565b9150509250925092565b6000602082840312156126ba576126b9612110565b5b60006126c884828501612568565b91505092915050565b7f4e487b7100000000000000000000000000000000000000000000000000000000600052602260045260246000fd5b6000600282049050600182168061271857607f821691505b60208210810361272b5761272a6126d1565b5b50919050565b7f536f75726365206d75737420626520746865206f7261636c65206f662074686560008201527f2072657175657374000000000000000000000000000000000000000000000000602082015250565b600061278d6028836121bf565b915061279882612731565b604082019050919050565b600060208201905081810360008301526127bc81612780565b9050919050565b600081905092915050565b60006127d9826121b4565b6127e381856127c3565b93506127f38185602086016121d0565b80840191505092915050565b600061280b82846127ce565b915081905092915050565b60008115159050919050565b61282b81612816565b82525050565b600060608201905061284660008301866120dc565b61285360208301856122d2565b6128606040830184612822565b949350505050565b6000819050919050565b600061288d61288861288384612173565b612868565b612173565b9050919050565b600061289f82612872565b9050919050565b60006128b182612894565b9050919050565b6128c1816128a6565b82525050565b60006060820190506128dc60008301866128b8565b6128e960208301856121a5565b81810360408301526128fb8184612214565b9050949350505050565b7f4f776e61626c653a2063616c6c6572206973206e6f7420746865206f776e6572600082015250565b600061293b6020836121bf565b915061294682612905565b602082019050919050565b6000602082019050818103600083015261296a8161292e565b9050919050565b60008151905061298081612551565b92915050565b60006020828403121561299c5761299b612110565b5b60006129aa84828501612971565b91505092915050565b6000815190506129c2816122fc565b92915050565b6000602082840312156129de576129dd612110565b5b60006129ec848285016129b3565b91505092915050565b7f41757468656e74696369747952656769737472793a204e6f7420417574656e7460008201527f69736b0000000000000000000000000000000000000000000000000000000000602082015250565b6000612a516023836121bf565b9150612a5c826129f5565b604082019050919050565b60006020820190508181036000830152612a8081612a44565b9050919050565b6000612a9383856127c3565b9350612aa0838584612489565b82840190509392505050565b6000612ab9828486612a87565b91508190509392505050565b7f546f6b656e55524920686173206265656e207265676973746572656400000000600082015250565b6000612afb601c836121bf565b9150612b0682612ac5565b602082019050919050565b60006020820190508181036000830152612b2a81612aee565b9050919050565b7f546f6b656e205552492063616e277420626520656d7074790000000000000000600082015250565b6000612b676018836121bf565b9150612b7282612b31565b602082019050919050565b60006020820190508181036000830152612b9681612b5a565b9050919050565b6000606082019050612bb260008301866120dc565b612bbf60208301856121a5565b612bcc60408301846120dc565b949350505050565b7f496e76616c6964206f7261636c65206164647265737300000000000000000000600082015250565b6000612c0a6016836121bf565b9150612c1582612bd4565b602082019050919050565b60006020820190508181036000830152612c3981612bfd565b9050919050565b6000606082019050612c5560008301866121a5565b612c6260208301856121a5565b612c6f60408301846120dc565b949350505050565b7f4f776e61626c653a206e6577206f776e657220697320746865207a65726f206160008201527f6464726573730000000000000000000000000000000000000000000000000000602082015250565b6000612cd36026836121bf565b9150612cde82612c77565b604082019050919050565b60006020820190508181036000830152612d0281612cc6565b9050919050565b6000604082019050612d1e60008301856121a5565b612d2b60208301846122d2565b9392505050565b60008190508160005260206000209050919050565b60008154612d5481612700565b612d5e81866127c3565b94506001821660008114612d795760018114612d8a57612dbd565b60ff19831686528186019350612dbd565b612d9385612d32565b60005b83811015612db557815481890152600182019150602081019050612d96565b838801955050505b50505092915050565b7f3f746f6b656e5572693d00000000000000000000000000000000000000000000815250565b6000612df88285612d47565b9150612e0382612dc6565b600a82019150612e1382846127ce565b91508190509392505050565b7f4e487b7100000000000000000000000000000000000000000000000000000000600052601160045260246000fd5b6000612e59826122c8565b9150612e64836122c8565b9250827fffffffffffffffffffffffffffffffffffffffffffffffffffffffffffffffff03821115612e9957612e98612e1f565b5b828201905092915050565b60007fffffffff0000000000000000000000000000000000000000000000000000000082169050919050565b612ed981612ea4565b82525050565b600081519050919050565b600082825260208201905092915050565b6000612f0682612edf565b612f108185612eea565b9350612f208185602086016121d0565b612f2981612203565b840191505092915050565b600061010082019050612f4a600083018b6121a5565b612f57602083018a6122d2565b612f6460408301896120dc565b612f7160608301886121a5565b612f7e6080830187612ed0565b612f8b60a08301866122d2565b612f9860c08301856122d2565b81810360e0830152612faa8184612efb565b90509998505050505050505050565b612fc281612816565b8114612fcd57600080fd5b50565b600081519050612fdf81612fb9565b92915050565b600060208284031215612ffb57612ffa612110565b5b600061300984828501612fd0565b91505092915050565b7f5361666545524332303a204552433230206f7065726174696f6e20646964206e60008201527f6f74207375636365656400000000000000000000000000000000000000000000602082015250565b600061306e602a836121bf565b915061307982613012565b604082019050919050565b6000602082019050818103600083015261309d81613061565b9050919050565b60006130af82612894565b9050919050565b60008160601b9050919050565b60006130ce826130b6565b9050919050565b60006130e0826130c3565b9050919050565b6130f86130f3826130a4565b6130d5565b82525050565b6000819050919050565b613119613114826122c8565b6130fe565b82525050565b600061312b82856130e7565b60148201915061313b8284613108565b6020820191508190509392505050565b600060608201905061316060008301866121a5565b61316d60208301856122d2565b818103604083015261317f8184612efb565b9050949350505050565b7f756e61626c6520746f207472616e73666572416e6443616c6c20746f206f726160008201527f636c650000000000000000000000000000000000000000000000000000000000602082015250565b60006131e56023836121bf565b91506131f082613189565b604082019050919050565b60006020820190508181036000830152613214816131d8565b9050919050565b7f4e487b7100000000000000000000000000000000000000000000000000000000600052601260045260246000fd5b6000613255826122c8565b9150613260836122c8565b9250826132705761326f61321b565b5b828206905092915050565b6000613286826122c8565b9150613291836122c8565b9250828210156132a4576132a3612e1f565b5b828203905092915050565b7f416464726573733a20696e73756666696369656e742062616c616e636520666f60008201527f722063616c6c0000000000000000000000000000000000000000000000000000602082015250565b600061330b6026836121bf565b9150613316826132af565b604082019050919050565b6000602082019050818103600083015261333a816132fe565b9050919050565b7f416464726573733a2063616c6c20746f206e6f6e2d636f6e7472616374000000600082015250565b6000613377601d836121bf565b915061338282613341565b602082019050919050565b600060208201905081810360008301526133a68161336a565b9050919050565b600081905092915050565b60006133c382612edf565b6133cd81856133ad565b93506133dd8185602086016121d0565b80840191505092915050565b60006133f582846133b8565b915081905092915050565b600061340b826122c8565b9150613416836122c8565b9250817fffffffffffffffffffffffffffffffffffffffffffffffffffffffffffffffff048311821515161561344f5761344e612e1f565b5b828202905092915050565b60008160011c9050919050565b6000808291508390505b60018511156134b15780860481111561348d5761348c612e1f565b5b600185161561349c5780820291505b80810290506134aa8561345a565b9450613471565b94509492505050565b6000826134ca5760019050613586565b816134d85760009050613586565b81600181146134ee57600281146134f857613527565b6001915050613586565b60ff84111561350a57613509612e1f565b5b8360020a91508482111561352157613520612e1f565b5b50613586565b5060208310610133831016604e8410600b841016171561355c5782820a90508381111561355757613556612e1f565b5b613586565b6135698484846001613467565b925090508184048111156135805761357f612e1f565b5b81810290505b9392505050565b6000613598826122c8565b91506135a3836122c8565b92506135d07fffffffffffffffffffffffffffffffffffffffffffffffffffffffffffffffff84846134ba565b90509291505056fea26469706673582212207ef96ad46f2c66ba8f24bb6595e89a1e46a6a2ed5faba8624b9580ea165a564c64736f6c634300080d0033",
  "devdoc": {
    "kind": "dev",
    "methods": {
      "owner()": {
        "details": "Returns the address of the current owner."
      },
      "renounceOwnership()": {
        "details": "Leaves the contract without owner. It will not be possible to call `onlyOwner` functions anymore. Can only be called by the current owner. NOTE: Renouncing ownership will leave the contract without an owner, thereby removing any functionality that is only available to the owner."
      },
      "transferOwnership(address)": {
        "details": "Transfers ownership of the contract to a new account (`newOwner`). Can only be called by the current owner."
      }
    },
    "version": 1
  },
  "userdoc": {
    "kind": "user",
    "methods": {},
    "version": 1
  },
  "storageLayout": {
    "storage": [
      {
        "astId": 2183,
        "contract": "contracts/marketplace/Autentisk.sol:Autentisk",
        "label": "_owner",
        "offset": 0,
        "slot": "0",
        "type": "t_address"
      },
      {
        "astId": 4392,
        "contract": "contracts/marketplace/Autentisk.sol:Autentisk",
        "label": "s_collectionOwners",
        "offset": 0,
        "slot": "1",
        "type": "t_mapping(t_contract(AutentiskERC721)5026,t_address)"
      },
      {
        "astId": 4394,
        "contract": "contracts/marketplace/Autentisk.sol:Autentisk",
        "label": "s_totalCollection",
        "offset": 0,
        "slot": "2",
        "type": "t_uint256"
      }
    ],
    "types": {
      "t_address": {
        "encoding": "inplace",
        "label": "address",
        "numberOfBytes": "20"
      },
      "t_contract(AutentiskERC721)5026": {
        "encoding": "inplace",
        "label": "contract AutentiskERC721",
        "numberOfBytes": "20"
      },
      "t_mapping(t_contract(AutentiskERC721)5026,t_address)": {
        "encoding": "mapping",
        "key": "t_contract(AutentiskERC721)5026",
        "label": "mapping(contract AutentiskERC721 => address)",
        "numberOfBytes": "32",
        "value": "t_address"
      },
      "t_uint256": {
        "encoding": "inplace",
        "label": "uint256",
        "numberOfBytes": "32"
      }
    }
  }
}