{
  "address": "0x91B18eCCc68D639BC6894feAb698680eea98E7A5",
  "abi": [
    {
      "inputs": [
        {
          "internalType": "address",
          "name": "oracle",
          "type": "address"
        },
        {
          "internalType": "uint256",
          "name": "fee",
          "type": "uint256"
        },
        {
          "internalType": "string",
          "name": "classifierUrl",
          "type": "string"
        },
        {
          "internalType": "uint256",
          "name": "similarityThreshold",
          "type": "uint256"
        }
      ],
      "stateMutability": "nonpayable",
      "type": "constructor"
    },
    {
      "anonymous": false,
      "inputs": [
        {
          "indexed": true,
          "internalType": "address",
          "name": "collectionAddress",
          "type": "address"
        }
      ],
      "name": "CollectionCreated",
      "type": "event"
    },
    {
      "anonymous": false,
      "inputs": [
        {
          "indexed": true,
          "internalType": "address",
          "name": "previousOwner",
          "type": "address"
        },
        {
          "indexed": true,
          "internalType": "address",
          "name": "newOwner",
          "type": "address"
        }
      ],
      "name": "OwnershipTransferred",
      "type": "event"
    },
    {
      "inputs": [
        {
          "internalType": "string",
          "name": "name",
          "type": "string"
        },
        {
          "internalType": "string",
          "name": "symbol",
          "type": "string"
        }
      ],
      "name": "createCollection",
      "outputs": [],
      "stateMutability": "nonpayable",
      "type": "function"
    },
    {
      "inputs": [
        {
          "internalType": "contract AutentiskERC721",
          "name": "collection",
          "type": "address"
        },
        {
          "internalType": "string",
          "name": "tokenURI",
          "type": "string"
        }
      ],
      "name": "fulfillMint",
      "outputs": [],
      "stateMutability": "nonpayable",
      "type": "function"
    },
    {
      "inputs": [
        {
          "internalType": "contract AutentiskERC721",
          "name": "collection",
          "type": "address"
        },
        {
          "internalType": "string",
          "name": "tokenURI",
          "type": "string"
        }
      ],
      "name": "mint",
      "outputs": [],
      "stateMutability": "nonpayable",
      "type": "function"
    },
    {
      "inputs": [],
      "name": "owner",
      "outputs": [
        {
          "internalType": "address",
          "name": "",
          "type": "address"
        }
      ],
      "stateMutability": "view",
      "type": "function"
    },
    {
      "inputs": [],
      "name": "renounceOwnership",
      "outputs": [],
      "stateMutability": "nonpayable",
      "type": "function"
    },
    {
      "inputs": [],
      "name": "totalCollection",
      "outputs": [
        {
          "internalType": "uint256",
          "name": "",
          "type": "uint256"
        }
      ],
      "stateMutability": "view",
      "type": "function"
    },
    {
      "inputs": [
        {
          "internalType": "address",
          "name": "newOwner",
          "type": "address"
        }
      ],
      "name": "transferOwnership",
      "outputs": [],
      "stateMutability": "nonpayable",
      "type": "function"
    }
  ],
  "transactionHash": "0x089922606dd6f19f91d3710758f6160e8dec13ae68821962c2e733b65e99d953",
  "args": [
    "0x3A56aE4a2831C3d3514b5D7Af5578E45eBDb7a40",
    "10000000000000000",
    "https://autentisk.vercel.app/api/dummyChainlink",
    "1"
  ],
  "numDeployments": 1,
  "solcInputHash": "c53f71747dcb3e6beba585f9ca638ece",
  "bytecode": "0x60a06040523480156200001157600080fd5b5060405162007c0b38038062007c0b8339818101604052810190620000379190620003ec565b620000576200004b620000d560201b60201c565b620000dd60201b60201c565b30848484846040516200006a90620001a1565b6200007a95949392919062000522565b604051809103906000f08015801562000097573d6000803e3d6000fd5b5073ffffffffffffffffffffffffffffffffffffffff1660808173ffffffffffffffffffffffffffffffffffffffff16815250505050505062000594565b600033905090565b60008060009054906101000a900473ffffffffffffffffffffffffffffffffffffffff169050816000806101000a81548173ffffffffffffffffffffffffffffffffffffffff021916908373ffffffffffffffffffffffffffffffffffffffff1602179055508173ffffffffffffffffffffffffffffffffffffffff168173ffffffffffffffffffffffffffffffffffffffff167f8be0079c531659141344cd1fd0a4f28419497f9722a3daafe3b4186f6b6457e060405160405180910390a35050565b6132e7806200492483390190565b6000604051905090565b600080fd5b600080fd5b600073ffffffffffffffffffffffffffffffffffffffff82169050919050565b6000620001f082620001c3565b9050919050565b6200020281620001e3565b81146200020e57600080fd5b50565b6000815190506200022281620001f7565b92915050565b6000819050919050565b6200023d8162000228565b81146200024957600080fd5b50565b6000815190506200025d8162000232565b92915050565b600080fd5b600080fd5b6000601f19601f8301169050919050565b7f4e487b7100000000000000000000000000000000000000000000000000000000600052604160045260246000fd5b620002b8826200026d565b810181811067ffffffffffffffff82111715620002da57620002d96200027e565b5b80604052505050565b6000620002ef620001af565b9050620002fd8282620002ad565b919050565b600067ffffffffffffffff82111562000320576200031f6200027e565b5b6200032b826200026d565b9050602081019050919050565b60005b83811015620003585780820151818401526020810190506200033b565b8381111562000368576000848401525b50505050565b6000620003856200037f8462000302565b620002e3565b905082815260208101848484011115620003a457620003a362000268565b5b620003b184828562000338565b509392505050565b600082601f830112620003d157620003d062000263565b5b8151620003e38482602086016200036e565b91505092915050565b60008060008060808587031215620004095762000408620001b9565b5b6000620004198782880162000211565b94505060206200042c878288016200024c565b935050604085015167ffffffffffffffff81111562000450576200044f620001be565b5b6200045e87828801620003b9565b925050606062000471878288016200024c565b91505092959194509250565b6200048881620001e3565b82525050565b7f6435323730643163333131393431643062303862656164323166656137373700815250565b620004bf8162000228565b82525050565b600081519050919050565b600082825260208201905092915050565b6000620004ee82620004c5565b620004fa8185620004d0565b93506200050c81856020860162000338565b62000517816200026d565b840191505092915050565b600060c0820190506200053960008301886200047d565b6200054860208301876200047d565b62000556604083016200048e565b620005656060830186620004b4565b8181036080830152620005798185620004e1565b90506200058a60a0830184620004b4565b9695505050505050565b60805161436d620005b76000396000818161041501526104c1015261436d6000f3fe60806040523480156200001157600080fd5b5060043610620000885760003560e01c80638da5cb5b11620000635780638da5cb5b14620000db578063d0def52114620000fd578063e4270299146200011d578063f2fde38b146200013d5762000088565b8063176b9b75146200008d57806342b4224014620000ad578063715018a614620000cf575b600080fd5b620000ab6004803603810190620000a591906200082e565b6200015d565b005b620000b762000282565b604051620000c69190620008d7565b60405180910390f35b620000d962000288565b005b620000e562000319565b604051620000f4919062000939565b60405180910390f35b6200011b60048036038101906200011591906200099b565b62000342565b005b6200013b60048036038101906200013591906200099b565b620004bf565b005b6200015b600480360381019062000155919062000a36565b620005d9565b005b6000848484846040516200017190620007a8565b62000180949392919062000acc565b604051809103906000f0801580156200019d573d6000803e3d6000fd5b50905033600160008373ffffffffffffffffffffffffffffffffffffffff1673ffffffffffffffffffffffffffffffffffffffff16815260200190815260200160002060006101000a81548173ffffffffffffffffffffffffffffffffffffffff021916908373ffffffffffffffffffffffffffffffffffffffff16021790555060026000815480929190620002339062000b3a565b91905055508073ffffffffffffffffffffffffffffffffffffffff167f75432e2e509efcaf947efcc7a5a6b6b3562425b29e9725c7a4a5c652291ac35d60405160405180910390a25050505050565b60025481565b62000292620006dc565b73ffffffffffffffffffffffffffffffffffffffff16620002b262000319565b73ffffffffffffffffffffffffffffffffffffffff16146200030b576040517f08c379a0000000000000000000000000000000000000000000000000000000008152600401620003029062000bd7565b60405180910390fd5b620003176000620006e4565b565b60008060009054906101000a900473ffffffffffffffffffffffffffffffffffffffff16905090565b823373ffffffffffffffffffffffffffffffffffffffff16600160008373ffffffffffffffffffffffffffffffffffffffff1673ffffffffffffffffffffffffffffffffffffffff16815260200190815260200160002060009054906101000a900473ffffffffffffffffffffffffffffffffffffffff1673ffffffffffffffffffffffffffffffffffffffff161462000413576040517f08c379a00000000000000000000000000000000000000000000000000000000081526004016200040a9062000c49565b60405180910390fd5b7f000000000000000000000000000000000000000000000000000000000000000073ffffffffffffffffffffffffffffffffffffffff166315fca5558484876040518463ffffffff1660e01b8152600401620004729392919062000c6b565b6020604051808303816000875af115801562000492573d6000803e3d6000fd5b505050506040513d601f19601f82011682018060405250810190620004b8919062000cdc565b5050505050565b7f000000000000000000000000000000000000000000000000000000000000000073ffffffffffffffffffffffffffffffffffffffff163373ffffffffffffffffffffffffffffffffffffffff161462000550576040517f08c379a0000000000000000000000000000000000000000000000000000000008152600401620005479062000d84565b60405180910390fd5b8273ffffffffffffffffffffffffffffffffffffffff1663d85d3d2783836040518363ffffffff1660e01b81526004016200058d92919062000da6565b6020604051808303816000875af1158015620005ad573d6000803e3d6000fd5b505050506040513d601f19601f82011682018060405250810190620005d3919062000dfd565b50505050565b620005e3620006dc565b73ffffffffffffffffffffffffffffffffffffffff166200060362000319565b73ffffffffffffffffffffffffffffffffffffffff16146200065c576040517f08c379a0000000000000000000000000000000000000000000000000000000008152600401620006539062000bd7565b60405180910390fd5b600073ffffffffffffffffffffffffffffffffffffffff168173ffffffffffffffffffffffffffffffffffffffff1603620006ce576040517f08c379a0000000000000000000000000000000000000000000000000000000008152600401620006c59062000ea5565b60405180910390fd5b620006d981620006e4565b50565b600033905090565b60008060009054906101000a900473ffffffffffffffffffffffffffffffffffffffff169050816000806101000a81548173ffffffffffffffffffffffffffffffffffffffff021916908373ffffffffffffffffffffffffffffffffffffffff1602179055508173ffffffffffffffffffffffffffffffffffffffff168173ffffffffffffffffffffffffffffffffffffffff167f8be0079c531659141344cd1fd0a4f28419497f9722a3daafe3b4186f6b6457e060405160405180910390a35050565b6134708062000ec883390190565b600080fd5b600080fd5b600080fd5b600080fd5b600080fd5b60008083601f840112620007e857620007e7620007c0565b5b8235905067ffffffffffffffff811115620008085762000807620007c5565b5b602083019150836001820283011115620008275762000826620007ca565b5b9250929050565b600080600080604085870312156200084b576200084a620007b6565b5b600085013567ffffffffffffffff8111156200086c576200086b620007bb565b5b6200087a87828801620007cf565b9450945050602085013567ffffffffffffffff811115620008a0576200089f620007bb565b5b620008ae87828801620007cf565b925092505092959194509250565b6000819050919050565b620008d181620008bc565b82525050565b6000602082019050620008ee6000830184620008c6565b92915050565b600073ffffffffffffffffffffffffffffffffffffffff82169050919050565b60006200092182620008f4565b9050919050565b620009338162000914565b82525050565b600060208201905062000950600083018462000928565b92915050565b6000620009638262000914565b9050919050565b620009758162000956565b81146200098157600080fd5b50565b60008135905062000995816200096a565b92915050565b600080600060408486031215620009b757620009b6620007b6565b5b6000620009c78682870162000984565b935050602084013567ffffffffffffffff811115620009eb57620009ea620007bb565b5b620009f986828701620007cf565b92509250509250925092565b62000a108162000914565b811462000a1c57600080fd5b50565b60008135905062000a308162000a05565b92915050565b60006020828403121562000a4f5762000a4e620007b6565b5b600062000a5f8482850162000a1f565b91505092915050565b600082825260208201905092915050565b82818337600083830152505050565b6000601f19601f8301169050919050565b600062000aa7838562000a68565b935062000ab683858462000a79565b62000ac18362000a88565b840190509392505050565b6000604082019050818103600083015262000ae981868862000a99565b9050818103602083015262000b0081848662000a99565b905095945050505050565b7f4e487b7100000000000000000000000000000000000000000000000000000000600052601160045260246000fd5b600062000b4782620008bc565b91507fffffffffffffffffffffffffffffffffffffffffffffffffffffffffffffffff820362000b7c5762000b7b62000b0b565b5b600182019050919050565b7f4f776e61626c653a2063616c6c6572206973206e6f7420746865206f776e6572600082015250565b600062000bbf60208362000a68565b915062000bcc8262000b87565b602082019050919050565b6000602082019050818103600083015262000bf28162000bb0565b9050919050565b7f417574656e7469736b3a204e6f7420636f6c6c656374696f6e206f776e657200600082015250565b600062000c31601f8362000a68565b915062000c3e8262000bf9565b602082019050919050565b6000602082019050818103600083015262000c648162000c22565b9050919050565b6000604082019050818103600083015262000c8881858762000a99565b905062000c99602083018462000928565b949350505050565b6000819050919050565b62000cb68162000ca1565b811462000cc257600080fd5b50565b60008151905062000cd68162000cab565b92915050565b60006020828403121562000cf55762000cf4620007b6565b5b600062000d058482850162000cc5565b91505092915050565b7f417574656e7469736b3a204e6f742041757468656e746963697479526567697360008201527f7472790000000000000000000000000000000000000000000000000000000000602082015250565b600062000d6c60238362000a68565b915062000d798262000d0e565b604082019050919050565b6000602082019050818103600083015262000d9f8162000d5d565b9050919050565b6000602082019050818103600083015262000dc381848662000a99565b90509392505050565b62000dd781620008bc565b811462000de357600080fd5b50565b60008151905062000df78162000dcc565b92915050565b60006020828403121562000e165762000e15620007b6565b5b600062000e268482850162000de6565b91505092915050565b7f4f776e61626c653a206e6577206f776e657220697320746865207a65726f206160008201527f6464726573730000000000000000000000000000000000000000000000000000602082015250565b600062000e8d60268362000a68565b915062000e9a8262000e2f565b604082019050919050565b6000602082019050818103600083015262000ec08162000e7e565b905091905056fe60806040523480156200001157600080fd5b5060405162003470380380620034708339818101604052810190620000379190620003b0565b818181600090805190602001906200005192919062000163565b5080600190805190602001906200006a92919062000163565b5050506200008d620000816200009560201b60201c565b6200009d60201b60201c565b505062000499565b600033905090565b6000600760009054906101000a900473ffffffffffffffffffffffffffffffffffffffff16905081600760006101000a81548173ffffffffffffffffffffffffffffffffffffffff021916908373ffffffffffffffffffffffffffffffffffffffff1602179055508173ffffffffffffffffffffffffffffffffffffffff168173ffffffffffffffffffffffffffffffffffffffff167f8be0079c531659141344cd1fd0a4f28419497f9722a3daafe3b4186f6b6457e060405160405180910390a35050565b828054620001719062000464565b90600052602060002090601f016020900481019282620001955760008555620001e1565b82601f10620001b057805160ff1916838001178555620001e1565b82800160010185558215620001e1579182015b82811115620001e0578251825591602001919060010190620001c3565b5b509050620001f09190620001f4565b5090565b5b808211156200020f576000816000905550600101620001f5565b5090565b6000604051905090565b600080fd5b600080fd5b600080fd5b600080fd5b6000601f19601f8301169050919050565b7f4e487b7100000000000000000000000000000000000000000000000000000000600052604160045260246000fd5b6200027c8262000231565b810181811067ffffffffffffffff821117156200029e576200029d62000242565b5b80604052505050565b6000620002b362000213565b9050620002c1828262000271565b919050565b600067ffffffffffffffff821115620002e457620002e362000242565b5b620002ef8262000231565b9050602081019050919050565b60005b838110156200031c578082015181840152602081019050620002ff565b838111156200032c576000848401525b50505050565b6000620003496200034384620002c6565b620002a7565b9050828152602081018484840111156200036857620003676200022c565b5b62000375848285620002fc565b509392505050565b600082601f83011262000395576200039462000227565b5b8151620003a784826020860162000332565b91505092915050565b60008060408385031215620003ca57620003c96200021d565b5b600083015167ffffffffffffffff811115620003eb57620003ea62000222565b5b620003f9858286016200037d565b925050602083015167ffffffffffffffff8111156200041d576200041c62000222565b5b6200042b858286016200037d565b9150509250929050565b7f4e487b7100000000000000000000000000000000000000000000000000000000600052602260045260246000fd5b600060028204905060018216806200047d57607f821691505b60208210810362000493576200049262000435565b5b50919050565b612fc780620004a96000396000f3fe608060405234801561001057600080fd5b506004361061010b5760003560e01c8063715018a6116100a2578063b88d4fde11610071578063b88d4fde146102a4578063c87b56dd146102c0578063d85d3d27146102f0578063e985e9c514610320578063f2fde38b146103505761010b565b8063715018a6146102425780638da5cb5b1461024c57806395d89b411461026a578063a22cb465146102885761010b565b806323b872dd116100de57806323b872dd146101aa57806342842e0e146101c65780636352211e146101e257806370a08231146102125761010b565b806301ffc9a71461011057806306fdde0314610140578063081812fc1461015e578063095ea7b31461018e575b600080fd5b61012a60048036038101906101259190611c7d565b61036c565b6040516101379190611cc5565b60405180910390f35b61014861044e565b6040516101559190611d79565b60405180910390f35b61017860048036038101906101739190611dd1565b6104e0565b6040516101859190611e3f565b60405180910390f35b6101a860048036038101906101a39190611e86565b610565565b005b6101c460048036038101906101bf9190611ec6565b61067c565b005b6101e060048036038101906101db9190611ec6565b6106dc565b005b6101fc60048036038101906101f79190611dd1565b6106fc565b6040516102099190611e3f565b60405180910390f35b61022c60048036038101906102279190611f19565b6107ad565b6040516102399190611f55565b60405180910390f35b61024a610864565b005b6102546108ec565b6040516102619190611e3f565b60405180910390f35b610272610916565b60405161027f9190611d79565b60405180910390f35b6102a2600480360381019061029d9190611f9c565b6109a8565b005b6102be60048036038101906102b99190612111565b6109be565b005b6102da60048036038101906102d59190611dd1565b610a20565b6040516102e79190611d79565b60405180910390f35b61030a600480360381019061030591906121f4565b610b71565b6040516103179190611f55565b60405180910390f35b61033a60048036038101906103359190612241565b610c63565b6040516103479190611cc5565b60405180910390f35b61036a60048036038101906103659190611f19565b610cf7565b005b60007f80ac58cd000000000000000000000000000000000000000000000000000000007bffffffffffffffffffffffffffffffffffffffffffffffffffffffff1916827bffffffffffffffffffffffffffffffffffffffffffffffffffffffff1916148061043757507f5b5e139f000000000000000000000000000000000000000000000000000000007bffffffffffffffffffffffffffffffffffffffffffffffffffffffff1916827bffffffffffffffffffffffffffffffffffffffffffffffffffffffff1916145b80610447575061044682610dee565b5b9050919050565b60606000805461045d906122b0565b80601f0160208091040260200160405190810160405280929190818152602001828054610489906122b0565b80156104d65780601f106104ab576101008083540402835291602001916104d6565b820191906000526020600020905b8154815290600101906020018083116104b957829003601f168201915b5050505050905090565b60006104eb82610e58565b61052a576040517f08c379a000000000000000000000000000000000000000000000000000000000815260040161052190612353565b60405180910390fd5b6004600083815260200190815260200160002060009054906101000a900473ffffffffffffffffffffffffffffffffffffffff169050919050565b6000610570826106fc565b90508073ffffffffffffffffffffffffffffffffffffffff168373ffffffffffffffffffffffffffffffffffffffff16036105e0576040517f08c379a00000000000000000000000000000000000000000000000000000000081526004016105d7906123e5565b60405180910390fd5b8073ffffffffffffffffffffffffffffffffffffffff166105ff610ec4565b73ffffffffffffffffffffffffffffffffffffffff16148061062e575061062d81610628610ec4565b610c63565b5b61066d576040517f08c379a000000000000000000000000000000000000000000000000000000000815260040161066490612477565b60405180910390fd5b6106778383610ecc565b505050565b61068d610687610ec4565b82610f85565b6106cc576040517f08c379a00000000000000000000000000000000000000000000000000000000081526004016106c390612509565b60405180910390fd5b6106d7838383611063565b505050565b6106f7838383604051806020016040528060008152506109be565b505050565b6000806002600084815260200190815260200160002060009054906101000a900473ffffffffffffffffffffffffffffffffffffffff169050600073ffffffffffffffffffffffffffffffffffffffff168173ffffffffffffffffffffffffffffffffffffffff16036107a4576040517f08c379a000000000000000000000000000000000000000000000000000000000815260040161079b9061259b565b60405180910390fd5b80915050919050565b60008073ffffffffffffffffffffffffffffffffffffffff168273ffffffffffffffffffffffffffffffffffffffff160361081d576040517f08c379a00000000000000000000000000000000000000000000000000000000081526004016108149061262d565b60405180910390fd5b600360008373ffffffffffffffffffffffffffffffffffffffff1673ffffffffffffffffffffffffffffffffffffffff168152602001908152602001600020549050919050565b61086c610ec4565b73ffffffffffffffffffffffffffffffffffffffff1661088a6108ec565b73ffffffffffffffffffffffffffffffffffffffff16146108e0576040517f08c379a00000000000000000000000000000000000000000000000000000000081526004016108d790612699565b60405180910390fd5b6108ea60006112be565b565b6000600760009054906101000a900473ffffffffffffffffffffffffffffffffffffffff16905090565b606060018054610925906122b0565b80601f0160208091040260200160405190810160405280929190818152602001828054610951906122b0565b801561099e5780601f106109735761010080835404028352916020019161099e565b820191906000526020600020905b81548152906001019060200180831161098157829003601f168201915b5050505050905090565b6109ba6109b3610ec4565b8383611384565b5050565b6109cf6109c9610ec4565b83610f85565b610a0e576040517f08c379a0000000000000000000000000000000000000000000000000000000008152600401610a0590612509565b60405180910390fd5b610a1a848484846114f0565b50505050565b6060610a2b82610e58565b610a6a576040517f08c379a0000000000000000000000000000000000000000000000000000000008152600401610a619061272b565b60405180910390fd5b6000600660008481526020019081526020016000208054610a8a906122b0565b80601f0160208091040260200160405190810160405280929190818152602001828054610ab6906122b0565b8015610b035780601f10610ad857610100808354040283529160200191610b03565b820191906000526020600020905b815481529060010190602001808311610ae657829003601f168201915b505050505090506000610b1461154c565b90506000815103610b29578192505050610b6c565b600082511115610b5e578082604051602001610b46929190612787565b60405160208183030381529060405292505050610b6c565b610b6784611563565b925050505b919050565b6000610b7b610ec4565b73ffffffffffffffffffffffffffffffffffffffff16610b996108ec565b73ffffffffffffffffffffffffffffffffffffffff1614610bef576040517f08c379a0000000000000000000000000000000000000000000000000000000008152600401610be690612699565b60405180910390fd5b610bf9600861160a565b610c036008611620565b9050610c0f338261162e565b610c5d8184848080601f016020809104026020016040519081016040528093929190818152602001838380828437600081840152601f19601f820116905080830192505050505050506117fb565b92915050565b6000600560008473ffffffffffffffffffffffffffffffffffffffff1673ffffffffffffffffffffffffffffffffffffffff16815260200190815260200160002060008373ffffffffffffffffffffffffffffffffffffffff1673ffffffffffffffffffffffffffffffffffffffff16815260200190815260200160002060009054906101000a900460ff16905092915050565b610cff610ec4565b73ffffffffffffffffffffffffffffffffffffffff16610d1d6108ec565b73ffffffffffffffffffffffffffffffffffffffff1614610d73576040517f08c379a0000000000000000000000000000000000000000000000000000000008152600401610d6a90612699565b60405180910390fd5b600073ffffffffffffffffffffffffffffffffffffffff168173ffffffffffffffffffffffffffffffffffffffff1603610de2576040517f08c379a0000000000000000000000000000000000000000000000000000000008152600401610dd99061281d565b60405180910390fd5b610deb816112be565b50565b60007f01ffc9a7000000000000000000000000000000000000000000000000000000007bffffffffffffffffffffffffffffffffffffffffffffffffffffffff1916827bffffffffffffffffffffffffffffffffffffffffffffffffffffffff1916149050919050565b60008073ffffffffffffffffffffffffffffffffffffffff166002600084815260200190815260200160002060009054906101000a900473ffffffffffffffffffffffffffffffffffffffff1673ffffffffffffffffffffffffffffffffffffffff1614159050919050565b600033905090565b816004600083815260200190815260200160002060006101000a81548173ffffffffffffffffffffffffffffffffffffffff021916908373ffffffffffffffffffffffffffffffffffffffff160217905550808273ffffffffffffffffffffffffffffffffffffffff16610f3f836106fc565b73ffffffffffffffffffffffffffffffffffffffff167f8c5be1e5ebec7d5bd14f71427d1e84f3dd0314c0f7b2291e5b200ac8c7c3b92560405160405180910390a45050565b6000610f9082610e58565b610fcf576040517f08c379a0000000000000000000000000000000000000000000000000000000008152600401610fc6906128af565b60405180910390fd5b6000610fda836106fc565b90508073ffffffffffffffffffffffffffffffffffffffff168473ffffffffffffffffffffffffffffffffffffffff16148061104957508373ffffffffffffffffffffffffffffffffffffffff16611031846104e0565b73ffffffffffffffffffffffffffffffffffffffff16145b8061105a57506110598185610c63565b5b91505092915050565b8273ffffffffffffffffffffffffffffffffffffffff16611083826106fc565b73ffffffffffffffffffffffffffffffffffffffff16146110d9576040517f08c379a00000000000000000000000000000000000000000000000000000000081526004016110d090612941565b60405180910390fd5b600073ffffffffffffffffffffffffffffffffffffffff168273ffffffffffffffffffffffffffffffffffffffff1603611148576040517f08c379a000000000000000000000000000000000000000000000000000000000815260040161113f906129d3565b60405180910390fd5b61115383838361186f565b61115e600082610ecc565b6001600360008573ffffffffffffffffffffffffffffffffffffffff1673ffffffffffffffffffffffffffffffffffffffff16815260200190815260200160002060008282546111ae9190612a22565b925050819055506001600360008473ffffffffffffffffffffffffffffffffffffffff1673ffffffffffffffffffffffffffffffffffffffff16815260200190815260200160002060008282546112059190612a56565b92505081905550816002600083815260200190815260200160002060006101000a81548173ffffffffffffffffffffffffffffffffffffffff021916908373ffffffffffffffffffffffffffffffffffffffff160217905550808273ffffffffffffffffffffffffffffffffffffffff168473ffffffffffffffffffffffffffffffffffffffff167fddf252ad1be2c89b69c2b068fc378daa952ba7f163c4a11628f55a4df523b3ef60405160405180910390a4505050565b6000600760009054906101000a900473ffffffffffffffffffffffffffffffffffffffff16905081600760006101000a81548173ffffffffffffffffffffffffffffffffffffffff021916908373ffffffffffffffffffffffffffffffffffffffff1602179055508173ffffffffffffffffffffffffffffffffffffffff168173ffffffffffffffffffffffffffffffffffffffff167f8be0079c531659141344cd1fd0a4f28419497f9722a3daafe3b4186f6b6457e060405160405180910390a35050565b8173ffffffffffffffffffffffffffffffffffffffff168373ffffffffffffffffffffffffffffffffffffffff16036113f2576040517f08c379a00000000000000000000000000000000000000000000000000000000081526004016113e990612af8565b60405180910390fd5b80600560008573ffffffffffffffffffffffffffffffffffffffff1673ffffffffffffffffffffffffffffffffffffffff16815260200190815260200160002060008473ffffffffffffffffffffffffffffffffffffffff1673ffffffffffffffffffffffffffffffffffffffff16815260200190815260200160002060006101000a81548160ff0219169083151502179055508173ffffffffffffffffffffffffffffffffffffffff168373ffffffffffffffffffffffffffffffffffffffff167f17307eab39ab6107e8899845ad3d59bd9653f200f220920489ca2b5937696c31836040516114e39190611cc5565b60405180910390a3505050565b6114fb848484611063565b61150784848484611874565b611546576040517f08c379a000000000000000000000000000000000000000000000000000000000815260040161153d90612b8a565b60405180910390fd5b50505050565b606060405180602001604052806000815250905090565b606061156e82610e58565b6115ad576040517f08c379a00000000000000000000000000000000000000000000000000000000081526004016115a490612c1c565b60405180910390fd5b60006115b761154c565b905060008151116115d75760405180602001604052806000815250611602565b806115e1846119fb565b6040516020016115f2929190612787565b6040516020818303038152906040525b915050919050565b6001816000016000828254019250508190555050565b600081600001549050919050565b600073ffffffffffffffffffffffffffffffffffffffff168273ffffffffffffffffffffffffffffffffffffffff160361169d576040517f08c379a000000000000000000000000000000000000000000000000000000000815260040161169490612c88565b60405180910390fd5b6116a681610e58565b156116e6576040517f08c379a00000000000000000000000000000000000000000000000000000000081526004016116dd90612cf4565b60405180910390fd5b6116f26000838361186f565b6001600360008473ffffffffffffffffffffffffffffffffffffffff1673ffffffffffffffffffffffffffffffffffffffff16815260200190815260200160002060008282546117429190612a56565b92505081905550816002600083815260200190815260200160002060006101000a81548173ffffffffffffffffffffffffffffffffffffffff021916908373ffffffffffffffffffffffffffffffffffffffff160217905550808273ffffffffffffffffffffffffffffffffffffffff16600073ffffffffffffffffffffffffffffffffffffffff167fddf252ad1be2c89b69c2b068fc378daa952ba7f163c4a11628f55a4df523b3ef60405160405180910390a45050565b61180482610e58565b611843576040517f08c379a000000000000000000000000000000000000000000000000000000000815260040161183a90612d86565b60405180910390fd5b8060066000848152602001908152602001600020908051906020019061186a929190611b6e565b505050565b505050565b60006118958473ffffffffffffffffffffffffffffffffffffffff16611b5b565b156119ee578373ffffffffffffffffffffffffffffffffffffffff1663150b7a026118be610ec4565b8786866040518563ffffffff1660e01b81526004016118e09493929190612dfb565b6020604051808303816000875af192505050801561191c57506040513d601f19601f820116820180604052508101906119199190612e5c565b60015b61199e573d806000811461194c576040519150601f19603f3d011682016040523d82523d6000602084013e611951565b606091505b506000815103611996576040517f08c379a000000000000000000000000000000000000000000000000000000000815260040161198d90612b8a565b60405180910390fd5b805181602001fd5b63150b7a0260e01b7bffffffffffffffffffffffffffffffffffffffffffffffffffffffff1916817bffffffffffffffffffffffffffffffffffffffffffffffffffffffff1916149150506119f3565b600190505b949350505050565b606060008203611a42576040518060400160405280600181526020017f30000000000000000000000000000000000000000000000000000000000000008152509050611b56565b600082905060005b60008214611a74578080611a5d90612e89565b915050600a82611a6d9190612f00565b9150611a4a565b60008167ffffffffffffffff811115611a9057611a8f611fe6565b5b6040519080825280601f01601f191660200182016040528015611ac25781602001600182028036833780820191505090505b5090505b60008514611b4f57600182611adb9190612a22565b9150600a85611aea9190612f31565b6030611af69190612a56565b60f81b818381518110611b0c57611b0b612f62565b5b60200101907effffffffffffffffffffffffffffffffffffffffffffffffffffffffffffff1916908160001a905350600a85611b489190612f00565b9450611ac6565b8093505050505b919050565b600080823b905060008111915050919050565b828054611b7a906122b0565b90600052602060002090601f016020900481019282611b9c5760008555611be3565b82601f10611bb557805160ff1916838001178555611be3565b82800160010185558215611be3579182015b82811115611be2578251825591602001919060010190611bc7565b5b509050611bf09190611bf4565b5090565b5b80821115611c0d576000816000905550600101611bf5565b5090565b6000604051905090565b600080fd5b600080fd5b60007fffffffff0000000000000000000000000000000000000000000000000000000082169050919050565b611c5a81611c25565b8114611c6557600080fd5b50565b600081359050611c7781611c51565b92915050565b600060208284031215611c9357611c92611c1b565b5b6000611ca184828501611c68565b91505092915050565b60008115159050919050565b611cbf81611caa565b82525050565b6000602082019050611cda6000830184611cb6565b92915050565b600081519050919050565b600082825260208201905092915050565b60005b83811015611d1a578082015181840152602081019050611cff565b83811115611d29576000848401525b50505050565b6000601f19601f8301169050919050565b6000611d4b82611ce0565b611d558185611ceb565b9350611d65818560208601611cfc565b611d6e81611d2f565b840191505092915050565b60006020820190508181036000830152611d938184611d40565b905092915050565b6000819050919050565b611dae81611d9b565b8114611db957600080fd5b50565b600081359050611dcb81611da5565b92915050565b600060208284031215611de757611de6611c1b565b5b6000611df584828501611dbc565b91505092915050565b600073ffffffffffffffffffffffffffffffffffffffff82169050919050565b6000611e2982611dfe565b9050919050565b611e3981611e1e565b82525050565b6000602082019050611e546000830184611e30565b92915050565b611e6381611e1e565b8114611e6e57600080fd5b50565b600081359050611e8081611e5a565b92915050565b60008060408385031215611e9d57611e9c611c1b565b5b6000611eab85828601611e71565b9250506020611ebc85828601611dbc565b9150509250929050565b600080600060608486031215611edf57611ede611c1b565b5b6000611eed86828701611e71565b9350506020611efe86828701611e71565b9250506040611f0f86828701611dbc565b9150509250925092565b600060208284031215611f2f57611f2e611c1b565b5b6000611f3d84828501611e71565b91505092915050565b611f4f81611d9b565b82525050565b6000602082019050611f6a6000830184611f46565b92915050565b611f7981611caa565b8114611f8457600080fd5b50565b600081359050611f9681611f70565b92915050565b60008060408385031215611fb357611fb2611c1b565b5b6000611fc185828601611e71565b9250506020611fd285828601611f87565b9150509250929050565b600080fd5b600080fd5b7f4e487b7100000000000000000000000000000000000000000000000000000000600052604160045260246000fd5b61201e82611d2f565b810181811067ffffffffffffffff8211171561203d5761203c611fe6565b5b80604052505050565b6000612050611c11565b905061205c8282612015565b919050565b600067ffffffffffffffff82111561207c5761207b611fe6565b5b61208582611d2f565b9050602081019050919050565b82818337600083830152505050565b60006120b46120af84612061565b612046565b9050828152602081018484840111156120d0576120cf611fe1565b5b6120db848285612092565b509392505050565b600082601f8301126120f8576120f7611fdc565b5b81356121088482602086016120a1565b91505092915050565b6000806000806080858703121561212b5761212a611c1b565b5b600061213987828801611e71565b945050602061214a87828801611e71565b935050604061215b87828801611dbc565b925050606085013567ffffffffffffffff81111561217c5761217b611c20565b5b612188878288016120e3565b91505092959194509250565b600080fd5b600080fd5b60008083601f8401126121b4576121b3611fdc565b5b8235905067ffffffffffffffff8111156121d1576121d0612194565b5b6020830191508360018202830111156121ed576121ec612199565b5b9250929050565b6000806020838503121561220b5761220a611c1b565b5b600083013567ffffffffffffffff81111561222957612228611c20565b5b6122358582860161219e565b92509250509250929050565b6000806040838503121561225857612257611c1b565b5b600061226685828601611e71565b925050602061227785828601611e71565b9150509250929050565b7f4e487b7100000000000000000000000000000000000000000000000000000000600052602260045260246000fd5b600060028204905060018216806122c857607f821691505b6020821081036122db576122da612281565b5b50919050565b7f4552433732313a20617070726f76656420717565727920666f72206e6f6e657860008201527f697374656e7420746f6b656e0000000000000000000000000000000000000000602082015250565b600061233d602c83611ceb565b9150612348826122e1565b604082019050919050565b6000602082019050818103600083015261236c81612330565b9050919050565b7f4552433732313a20617070726f76616c20746f2063757272656e74206f776e6560008201527f7200000000000000000000000000000000000000000000000000000000000000602082015250565b60006123cf602183611ceb565b91506123da82612373565b604082019050919050565b600060208201905081810360008301526123fe816123c2565b9050919050565b7f4552433732313a20617070726f76652063616c6c6572206973206e6f74206f7760008201527f6e6572206e6f7220617070726f76656420666f7220616c6c0000000000000000602082015250565b6000612461603883611ceb565b915061246c82612405565b604082019050919050565b6000602082019050818103600083015261249081612454565b9050919050565b7f4552433732313a207472616e736665722063616c6c6572206973206e6f74206f60008201527f776e6572206e6f7220617070726f766564000000000000000000000000000000602082015250565b60006124f3603183611ceb565b91506124fe82612497565b604082019050919050565b60006020820190508181036000830152612522816124e6565b9050919050565b7f4552433732313a206f776e657220717565727920666f72206e6f6e657869737460008201527f656e7420746f6b656e0000000000000000000000000000000000000000000000602082015250565b6000612585602983611ceb565b915061259082612529565b604082019050919050565b600060208201905081810360008301526125b481612578565b9050919050565b7f4552433732313a2062616c616e636520717565727920666f7220746865207a6560008201527f726f206164647265737300000000000000000000000000000000000000000000602082015250565b6000612617602a83611ceb565b9150612622826125bb565b604082019050919050565b600060208201905081810360008301526126468161260a565b9050919050565b7f4f776e61626c653a2063616c6c6572206973206e6f7420746865206f776e6572600082015250565b6000612683602083611ceb565b915061268e8261264d565b602082019050919050565b600060208201905081810360008301526126b281612676565b9050919050565b7f45524337323155524953746f726167653a2055524920717565727920666f722060008201527f6e6f6e6578697374656e7420746f6b656e000000000000000000000000000000602082015250565b6000612715603183611ceb565b9150612720826126b9565b604082019050919050565b6000602082019050818103600083015261274481612708565b9050919050565b600081905092915050565b600061276182611ce0565b61276b818561274b565b935061277b818560208601611cfc565b80840191505092915050565b60006127938285612756565b915061279f8284612756565b91508190509392505050565b7f4f776e61626c653a206e6577206f776e657220697320746865207a65726f206160008201527f6464726573730000000000000000000000000000000000000000000000000000602082015250565b6000612807602683611ceb565b9150612812826127ab565b604082019050919050565b60006020820190508181036000830152612836816127fa565b9050919050565b7f4552433732313a206f70657261746f7220717565727920666f72206e6f6e657860008201527f697374656e7420746f6b656e0000000000000000000000000000000000000000602082015250565b6000612899602c83611ceb565b91506128a48261283d565b604082019050919050565b600060208201905081810360008301526128c88161288c565b9050919050565b7f4552433732313a207472616e73666572206f6620746f6b656e2074686174206960008201527f73206e6f74206f776e0000000000000000000000000000000000000000000000602082015250565b600061292b602983611ceb565b9150612936826128cf565b604082019050919050565b6000602082019050818103600083015261295a8161291e565b9050919050565b7f4552433732313a207472616e7366657220746f20746865207a65726f2061646460008201527f7265737300000000000000000000000000000000000000000000000000000000602082015250565b60006129bd602483611ceb565b91506129c882612961565b604082019050919050565b600060208201905081810360008301526129ec816129b0565b9050919050565b7f4e487b7100000000000000000000000000000000000000000000000000000000600052601160045260246000fd5b6000612a2d82611d9b565b9150612a3883611d9b565b925082821015612a4b57612a4a6129f3565b5b828203905092915050565b6000612a6182611d9b565b9150612a6c83611d9b565b9250827fffffffffffffffffffffffffffffffffffffffffffffffffffffffffffffffff03821115612aa157612aa06129f3565b5b828201905092915050565b7f4552433732313a20617070726f766520746f2063616c6c657200000000000000600082015250565b6000612ae2601983611ceb565b9150612aed82612aac565b602082019050919050565b60006020820190508181036000830152612b1181612ad5565b9050919050565b7f4552433732313a207472616e7366657220746f206e6f6e20455243373231526560008201527f63656976657220696d706c656d656e7465720000000000000000000000000000602082015250565b6000612b74603283611ceb565b9150612b7f82612b18565b604082019050919050565b60006020820190508181036000830152612ba381612b67565b9050919050565b7f4552433732314d657461646174613a2055524920717565727920666f72206e6f60008201527f6e6578697374656e7420746f6b656e0000000000000000000000000000000000602082015250565b6000612c06602f83611ceb565b9150612c1182612baa565b604082019050919050565b60006020820190508181036000830152612c3581612bf9565b9050919050565b7f4552433732313a206d696e7420746f20746865207a65726f2061646472657373600082015250565b6000612c72602083611ceb565b9150612c7d82612c3c565b602082019050919050565b60006020820190508181036000830152612ca181612c65565b9050919050565b7f4552433732313a20746f6b656e20616c7265616479206d696e74656400000000600082015250565b6000612cde601c83611ceb565b9150612ce982612ca8565b602082019050919050565b60006020820190508181036000830152612d0d81612cd1565b9050919050565b7f45524337323155524953746f726167653a2055524920736574206f66206e6f6e60008201527f6578697374656e7420746f6b656e000000000000000000000000000000000000602082015250565b6000612d70602e83611ceb565b9150612d7b82612d14565b604082019050919050565b60006020820190508181036000830152612d9f81612d63565b9050919050565b600081519050919050565b600082825260208201905092915050565b6000612dcd82612da6565b612dd78185612db1565b9350612de7818560208601611cfc565b612df081611d2f565b840191505092915050565b6000608082019050612e106000830187611e30565b612e1d6020830186611e30565b612e2a6040830185611f46565b8181036060830152612e3c8184612dc2565b905095945050505050565b600081519050612e5681611c51565b92915050565b600060208284031215612e7257612e71611c1b565b5b6000612e8084828501612e47565b91505092915050565b6000612e9482611d9b565b91507fffffffffffffffffffffffffffffffffffffffffffffffffffffffffffffffff8203612ec657612ec56129f3565b5b600182019050919050565b7f4e487b7100000000000000000000000000000000000000000000000000000000600052601260045260246000fd5b6000612f0b82611d9b565b9150612f1683611d9b565b925082612f2657612f25612ed1565b5b828204905092915050565b6000612f3c82611d9b565b9150612f4783611d9b565b925082612f5757612f56612ed1565b5b828206905092915050565b7f4e487b7100000000000000000000000000000000000000000000000000000000600052603260045260246000fdfea2646970667358221220dcf0d99a09dcb6825d9625710f33ba47ead8146031d2c0811dcfecccfccfeac764736f6c634300080d0033a26469706673582212200584aa6c81dacfeb388ce622da7b6af567821f2602a1e443d8b508f2ab5e4be464736f6c634300080d003360a060405260016004553480156200001657600080fd5b50604051620032e7380380620032e783398181016040528101906200003c919062000795565b6200005c62000050620000df60201b60201c565b620000e760201b60201c565b8573ffffffffffffffffffffffffffffffffffffffff1660808173ffffffffffffffffffffffffffffffffffffffff1681525050620000a0620001ad60201b60201c565b620000b38585856200024560201b60201c565b8160099080519060200190620000cb9291906200046d565b5080600a8190555050505050505062000a3a565b600033905090565b6000600660009054906101000a900473ffffffffffffffffffffffffffffffffffffffff16905081600660006101000a81548173ffffffffffffffffffffffffffffffffffffffff021916908373ffffffffffffffffffffffffffffffffffffffff1602179055508173ffffffffffffffffffffffffffffffffffffffff168173ffffffffffffffffffffffffffffffffffffffff167f8be0079c531659141344cd1fd0a4f28419497f9722a3daafe3b4186f6b6457e060405160405180910390a35050565b6200024373c89bd4e1632d3a43cb03aaad5262cbe4038bc57173ffffffffffffffffffffffffffffffffffffffff166338cc48316040518163ffffffff1660e01b8152600401602060405180830381865afa15801562000211573d6000803e3d6000fd5b505050506040513d601f19601f8201168201806040525081019062000237919062000850565b620003ff60201b60201c565b565b62000255620000df60201b60201c565b73ffffffffffffffffffffffffffffffffffffffff166200027b6200044360201b60201c565b73ffffffffffffffffffffffffffffffffffffffff1614620002d4576040517f08c379a0000000000000000000000000000000000000000000000000000000008152600401620002cb90620008e3565b60405180910390fd5b600073ffffffffffffffffffffffffffffffffffffffff168373ffffffffffffffffffffffffffffffffffffffff160362000346576040517f08c379a00000000000000000000000000000000000000000000000000000000081526004016200033d9062000955565b60405180910390fd5b6000600b60009054906101000a900473ffffffffffffffffffffffffffffffffffffffff16905083600b60006101000a81548173ffffffffffffffffffffffffffffffffffffffff021916908373ffffffffffffffffffffffffffffffffffffffff16021790555082600c8190555081600d819055507f5608168c8125345db8098e55c10e36cbcca4a6ad8f02318e8c0963820413b29c818585604051620003f19392919062000999565b60405180910390a150505050565b80600260006101000a81548173ffffffffffffffffffffffffffffffffffffffff021916908373ffffffffffffffffffffffffffffffffffffffff16021790555050565b6000600660009054906101000a900473ffffffffffffffffffffffffffffffffffffffff16905090565b8280546200047b9062000a05565b90600052602060002090601f0160209004810192826200049f5760008555620004eb565b82601f10620004ba57805160ff1916838001178555620004eb565b82800160010185558215620004eb579182015b82811115620004ea578251825591602001919060010190620004cd565b5b509050620004fa9190620004fe565b5090565b5b8082111562000519576000816000905550600101620004ff565b5090565b6000604051905090565b600080fd5b600080fd5b600073ffffffffffffffffffffffffffffffffffffffff82169050919050565b60006200055e8262000531565b9050919050565b620005708162000551565b81146200057c57600080fd5b50565b600081519050620005908162000565565b92915050565b6000819050919050565b620005ab8162000596565b8114620005b757600080fd5b50565b600081519050620005cb81620005a0565b92915050565b6000819050919050565b620005e681620005d1565b8114620005f257600080fd5b50565b6000815190506200060681620005db565b92915050565b600080fd5b600080fd5b6000601f19601f8301169050919050565b7f4e487b7100000000000000000000000000000000000000000000000000000000600052604160045260246000fd5b620006618262000616565b810181811067ffffffffffffffff8211171562000683576200068262000627565b5b80604052505050565b6000620006986200051d565b9050620006a6828262000656565b919050565b600067ffffffffffffffff821115620006c957620006c862000627565b5b620006d48262000616565b9050602081019050919050565b60005b8381101562000701578082015181840152602081019050620006e4565b8381111562000711576000848401525b50505050565b60006200072e6200072884620006ab565b6200068c565b9050828152602081018484840111156200074d576200074c62000611565b5b6200075a848285620006e1565b509392505050565b600082601f8301126200077a57620007796200060c565b5b81516200078c84826020860162000717565b91505092915050565b60008060008060008060c08789031215620007b557620007b462000527565b5b6000620007c589828a016200057f565b9650506020620007d889828a016200057f565b9550506040620007eb89828a01620005ba565b9450506060620007fe89828a01620005f5565b935050608087015167ffffffffffffffff8111156200082257620008216200052c565b5b6200083089828a0162000762565b92505060a06200084389828a01620005f5565b9150509295509295509295565b60006020828403121562000869576200086862000527565b5b600062000879848285016200057f565b91505092915050565b600082825260208201905092915050565b7f4f776e61626c653a2063616c6c6572206973206e6f7420746865206f776e6572600082015250565b6000620008cb60208362000882565b9150620008d88262000893565b602082019050919050565b60006020820190508181036000830152620008fe81620008bc565b9050919050565b7f496e76616c6964206f7261636c65206164647265737300000000000000000000600082015250565b60006200093d60168362000882565b91506200094a8262000905565b602082019050919050565b6000602082019050818103600083015262000970816200092e565b9050919050565b620009828162000551565b82525050565b620009938162000596565b82525050565b6000606082019050620009b0600083018662000977565b620009bf602083018562000977565b620009ce604083018462000988565b949350505050565b7f4e487b7100000000000000000000000000000000000000000000000000000000600052602260045260246000fd5b6000600282049050600182168062000a1e57607f821691505b60208210810362000a345762000a33620009d6565b5b50919050565b60805161288a62000a5d600039600081816102c301526109de015261288a6000f3fe608060405234801561001057600080fd5b50600436106100b45760003560e01c8063715018a611610071578063715018a61461018f5780638da5cb5b14610199578063b9709cdc146101b7578063e236fb16146101d5578063f2fde38b146101f1578063fc4577921461020d576100b4565b806307e33bad146100b95780631581797b146100d757806315fca555146100f557806326b1893d14610125578063596c2328146101555780635c81619514610173575b600080fd5b6100c161022b565b6040516100ce919061187c565b60405180910390f35b6100df610231565b6040516100ec9190611930565b60405180910390f35b61010f600480360381019061010a9190611a1f565b6102bf565b60405161011c919061187c565b60405180910390f35b61013f600480360381019061013a9190611aab565b61062f565b60405161014c9190611ae7565b60405180910390f35b61015d610662565b60405161016a9190611b1b565b60405180910390f35b61018d60048036038101906101889190611b62565b610668565b005b610197610a79565b005b6101a1610b01565b6040516101ae9190611ae7565b60405180910390f35b6101bf610b2b565b6040516101cc9190611b1b565b60405180910390f35b6101ef60048036038101906101ea9190611ba2565b610b31565b005b61020b60048036038101906102069190611bf5565b610cd3565b005b610215610dca565b6040516102229190611ae7565b60405180910390f35b600c5481565b6009805461023e90611c51565b80601f016020809104026020016040519081016040528092919081815260200182805461026a90611c51565b80156102b75780601f1061028c576101008083540402835291602001916102b7565b820191906000526020600020905b81548152906001019060200180831161029a57829003601f168201915b505050505081565b60007f000000000000000000000000000000000000000000000000000000000000000073ffffffffffffffffffffffffffffffffffffffff163373ffffffffffffffffffffffffffffffffffffffff161461034f576040517f08c379a000000000000000000000000000000000000000000000000000000000815260040161034690611cf4565b60405180910390fd5b600073ffffffffffffffffffffffffffffffffffffffff1660076000868660405160200161037e929190611d53565b60405160208183030381529060405280519060200120815260200190815260200160002060009054906101000a900473ffffffffffffffffffffffffffffffffffffffff1673ffffffffffffffffffffffffffffffffffffffff1614610419576040517f08c379a000000000000000000000000000000000000000000000000000000000815260040161041090611db8565b60405180910390fd5b6000848490501161045f576040517f08c379a000000000000000000000000000000000000000000000000000000000815260040161045690611e24565b60405180910390fd5b6000610475600c5430635c81619560e01b610df0565b905061050d6040518060400160405280600381526020017f67657400000000000000000000000000000000000000000000000000000000008152506104fd87878080601f016020809104026020016040519081016040528093929190818152602001838380828437600081840152601f19601f82011690508083019250505050505050610e21565b83610e4d9092919063ffffffff16565b61053c600b60009054906101000a900473ffffffffffffffffffffffffffffffffffffffff1682600d54610e80565b9150604051806040016040528086868080601f016020809104026020016040519081016040528093929190818152602001838380828437600081840152601f19601f8201169050808301925050505050505081526020018473ffffffffffffffffffffffffffffffffffffffff168152506008600084815260200190815260200160002060008201518160000190805190602001906105dc9291906116f9565b5060208201518160010160006101000a81548173ffffffffffffffffffffffffffffffffffffffff021916908373ffffffffffffffffffffffffffffffffffffffff160217905550905050509392505050565b60076020528060005260406000206000915054906101000a900473ffffffffffffffffffffffffffffffffffffffff1681565b600d5481565b816005600082815260200190815260200160002060009054906101000a900473ffffffffffffffffffffffffffffffffffffffff1673ffffffffffffffffffffffffffffffffffffffff163373ffffffffffffffffffffffffffffffffffffffff161461070a576040517f08c379a000000000000000000000000000000000000000000000000000000000815260040161070190611eb6565b60405180910390fd5b6005600082815260200190815260200160002060006101000a81549073ffffffffffffffffffffffffffffffffffffffff0219169055807f7cc135e0cebb02c3480ae5d74d377283180a2601f8f644edf7987b009316c63a60405160405180910390a260006008600085815260200190815260200160002060405180604001604052908160008201805461079d90611c51565b80601f01602080910402602001604051908101604052809291908181526020018280546107c990611c51565b80156108165780601f106107eb57610100808354040283529160200191610816565b820191906000526020600020905b8154815290600101906020018083116107f957829003601f168201915b505050505081526020016001820160009054906101000a900473ffffffffffffffffffffffffffffffffffffffff1673ffffffffffffffffffffffffffffffffffffffff1673ffffffffffffffffffffffffffffffffffffffff16815250509050600860008581526020019081526020016000206000808201600061089b919061177f565b6001820160006101000a81549073ffffffffffffffffffffffffffffffffffffffff02191690555050600081600001516040516020016108db9190611f07565b6040516020818303038152906040528051906020012090506108fc84610f4c565b15610947577f5bde2ce4aa035ae6e6b7794e40bcf27ea1a2116032317ba9024f82778b1ace028183602001518660405161093893929190611f1e565b60405180910390a15050610a74565b81602001516007600083815260200190815260200160002060006101000a81548173ffffffffffffffffffffffffffffffffffffffff021916908373ffffffffffffffffffffffffffffffffffffffff1602179055507f36d7f7dbac0e2f59ccb350bbef42a2a1823e8102ebbee390b9724f97975d45d5818360200151866040516109d493929190611f1e565b60405180910390a17f000000000000000000000000000000000000000000000000000000000000000073ffffffffffffffffffffffffffffffffffffffff1663e4270299836020015184600001516040518363ffffffff1660e01b8152600401610a3f929190611fb4565b600060405180830381600087803b158015610a5957600080fd5b505af1158015610a6d573d6000803e3d6000fd5b5050505050505b505050565b610a81610f5b565b73ffffffffffffffffffffffffffffffffffffffff16610a9f610b01565b73ffffffffffffffffffffffffffffffffffffffff1614610af5576040517f08c379a0000000000000000000000000000000000000000000000000000000008152600401610aec90612030565b60405180910390fd5b610aff6000610f63565b565b6000600660009054906101000a900473ffffffffffffffffffffffffffffffffffffffff16905090565b600a5481565b610b39610f5b565b73ffffffffffffffffffffffffffffffffffffffff16610b57610b01565b73ffffffffffffffffffffffffffffffffffffffff1614610bad576040517f08c379a0000000000000000000000000000000000000000000000000000000008152600401610ba490612030565b60405180910390fd5b600073ffffffffffffffffffffffffffffffffffffffff168373ffffffffffffffffffffffffffffffffffffffff1603610c1c576040517f08c379a0000000000000000000000000000000000000000000000000000000008152600401610c139061209c565b60405180910390fd5b6000600b60009054906101000a900473ffffffffffffffffffffffffffffffffffffffff16905083600b60006101000a81548173ffffffffffffffffffffffffffffffffffffffff021916908373ffffffffffffffffffffffffffffffffffffffff16021790555082600c8190555081600d819055507f5608168c8125345db8098e55c10e36cbcca4a6ad8f02318e8c0963820413b29c818585604051610cc5939291906120bc565b60405180910390a150505050565b610cdb610f5b565b73ffffffffffffffffffffffffffffffffffffffff16610cf9610b01565b73ffffffffffffffffffffffffffffffffffffffff1614610d4f576040517f08c379a0000000000000000000000000000000000000000000000000000000008152600401610d4690612030565b60405180910390fd5b600073ffffffffffffffffffffffffffffffffffffffff168173ffffffffffffffffffffffffffffffffffffffff1603610dbe576040517f08c379a0000000000000000000000000000000000000000000000000000000008152600401610db590612165565b60405180910390fd5b610dc781610f63565b50565b600b60009054906101000a900473ffffffffffffffffffffffffffffffffffffffff1681565b610df86117bf565b610e006117bf565b610e1785858584611029909392919063ffffffff16565b9150509392505050565b6060600982604051602001610e3792919061223f565b6040516020818303038152906040529050919050565b610e648284608001516110d990919063ffffffff16565b610e7b8184608001516110d990919063ffffffff16565b505050565b6000806004549050600181610e9591906122a1565b6004819055506000634042994660e01b60008087600001513089604001518760018c6080015160000151604051602401610ed6989796959493929190612387565b604051602081830303815290604052907bffffffffffffffffffffffffffffffffffffffffffffffffffffffff19166020820180517bffffffffffffffffffffffffffffffffffffffffffffffffffffffff83818316178352505050509050610f41868386846110fe565b925050509392505050565b6000600a548211159050919050565b600033905090565b6000600660009054906101000a900473ffffffffffffffffffffffffffffffffffffffff16905081600660006101000a81548173ffffffffffffffffffffffffffffffffffffffff021916908373ffffffffffffffffffffffffffffffffffffffff1602179055508173ffffffffffffffffffffffffffffffffffffffff168173ffffffffffffffffffffffffffffffffffffffff167f8be0079c531659141344cd1fd0a4f28419497f9722a3daafe3b4186f6b6457e060405160405180910390a35050565b6110316117bf565b6110418560800151610100611293565b508385600001818152505082856020019073ffffffffffffffffffffffffffffffffffffffff16908173ffffffffffffffffffffffffffffffffffffffff16815250508185604001907bffffffffffffffffffffffffffffffffffffffffffffffffffffffff191690817bffffffffffffffffffffffffffffffffffffffffffffffffffffffff191681525050849050949350505050565b6110e682600383516112fd565b6110f9818361148290919063ffffffff16565b505050565b60003084604051602001611113929190612487565b604051602081830303815290604052805190602001209050846005600083815260200190815260200160002060006101000a81548173ffffffffffffffffffffffffffffffffffffffff021916908373ffffffffffffffffffffffffffffffffffffffff160217905550807fb5e6e01e79f91267dc17b4e6314d5d4d03593d2ceee0fbb452b750bd70ea5af960405160405180910390a2600260009054906101000a900473ffffffffffffffffffffffffffffffffffffffff1673ffffffffffffffffffffffffffffffffffffffff16634000aea08685856040518463ffffffff1660e01b8152600401611209939291906124b3565b6020604051808303816000875af1158015611228573d6000803e3d6000fd5b505050506040513d601f19601f8201168201806040525081019061124c9190612529565b61128b576040517f08c379a0000000000000000000000000000000000000000000000000000000008152600401611282906125c8565b60405180910390fd5b949350505050565b61129b61182c565b60006020836112aa9190612617565b146112d6576020826112bc9190612617565b60206112c89190612648565b826112d391906122a1565b91505b81836020018181525050604051808452600081528281016020016040525082905092915050565b60178167ffffffffffffffff16116113345761132e8160058460ff16901b60ff1617846114a490919063ffffffff16565b5061147d565b60ff8167ffffffffffffffff161161138a57611363601860058460ff16901b17846114a490919063ffffffff16565b506113848167ffffffffffffffff166001856114c49092919063ffffffff16565b5061147c565b61ffff8167ffffffffffffffff16116113e1576113ba601960058460ff16901b17846114a490919063ffffffff16565b506113db8167ffffffffffffffff166002856114c49092919063ffffffff16565b5061147b565b63ffffffff8167ffffffffffffffff161161143a57611413601a60058460ff16901b17846114a490919063ffffffff16565b506114348167ffffffffffffffff166004856114c49092919063ffffffff16565b5061147a565b611457601b60058460ff16901b17846114a490919063ffffffff16565b506114788167ffffffffffffffff166008856114c49092919063ffffffff16565b505b5b5b5b505050565b61148a61182c565b61149c838460000151518485516114e6565b905092915050565b6114ac61182c565b6114bc83846000015151846115d5565b905092915050565b6114cc61182c565b6114dd84856000015151858561162b565b90509392505050565b6114ee61182c565b82518211156114fc57600080fd5b8460200151828561150d91906122a1565b1115611542576115418560026115328860200151888761152d91906122a1565b6116b9565b61153c919061267c565b6116d5565b5b6000808651805187602083010193508088870111156115615787860182525b60208701925050505b602084106115a8578051825260208261158391906122a1565b915060208161159291906122a1565b90506020846115a19190612648565b935061156a565b60006001856020036101000a03905080198251168184511681811785525050508692505050949350505050565b6115dd61182c565b836020015183106116035761160284600286602001516115fd919061267c565b6116d5565b5b8351805160208583010184815381860361161e576001820183525b5050508390509392505050565b61163361182c565b8460200151848361164491906122a1565b111561166c5761166b856002868561165c91906122a1565b611666919061267c565b6116d5565b5b600060018361010061167e9190612809565b6116889190612648565b905085518386820101858319825116178152815185880111156116ab5784870182525b505085915050949350505050565b6000818311156116cb578290506116cf565b8190505b92915050565b6000826000015190506116e88383611293565b506116f38382611482565b50505050565b82805461170590611c51565b90600052602060002090601f016020900481019282611727576000855561176e565b82601f1061174057805160ff191683800117855561176e565b8280016001018555821561176e579182015b8281111561176d578251825591602001919060010190611752565b5b50905061177b9190611846565b5090565b50805461178b90611c51565b6000825580601f1061179d57506117bc565b601f0160209004906000526020600020908101906117bb9190611846565b5b50565b6040518060a0016040528060008019168152602001600073ffffffffffffffffffffffffffffffffffffffff16815260200160007bffffffffffffffffffffffffffffffffffffffffffffffffffffffff191681526020016000815260200161182661182c565b81525090565b604051806040016040528060608152602001600081525090565b5b8082111561185f576000816000905550600101611847565b5090565b6000819050919050565b61187681611863565b82525050565b6000602082019050611891600083018461186d565b92915050565b600081519050919050565b600082825260208201905092915050565b60005b838110156118d15780820151818401526020810190506118b6565b838111156118e0576000848401525b50505050565b6000601f19601f8301169050919050565b600061190282611897565b61190c81856118a2565b935061191c8185602086016118b3565b611925816118e6565b840191505092915050565b6000602082019050818103600083015261194a81846118f7565b905092915050565b600080fd5b600080fd5b600080fd5b600080fd5b600080fd5b60008083601f8401126119815761198061195c565b5b8235905067ffffffffffffffff81111561199e5761199d611961565b5b6020830191508360018202830111156119ba576119b9611966565b5b9250929050565b600073ffffffffffffffffffffffffffffffffffffffff82169050919050565b60006119ec826119c1565b9050919050565b6119fc816119e1565b8114611a0757600080fd5b50565b600081359050611a19816119f3565b92915050565b600080600060408486031215611a3857611a37611952565b5b600084013567ffffffffffffffff811115611a5657611a55611957565b5b611a628682870161196b565b93509350506020611a7586828701611a0a565b9150509250925092565b611a8881611863565b8114611a9357600080fd5b50565b600081359050611aa581611a7f565b92915050565b600060208284031215611ac157611ac0611952565b5b6000611acf84828501611a96565b91505092915050565b611ae1816119e1565b82525050565b6000602082019050611afc6000830184611ad8565b92915050565b6000819050919050565b611b1581611b02565b82525050565b6000602082019050611b306000830184611b0c565b92915050565b611b3f81611b02565b8114611b4a57600080fd5b50565b600081359050611b5c81611b36565b92915050565b60008060408385031215611b7957611b78611952565b5b6000611b8785828601611a96565b9250506020611b9885828601611b4d565b9150509250929050565b600080600060608486031215611bbb57611bba611952565b5b6000611bc986828701611a0a565b9350506020611bda86828701611a96565b9250506040611beb86828701611b4d565b9150509250925092565b600060208284031215611c0b57611c0a611952565b5b6000611c1984828501611a0a565b91505092915050565b7f4e487b7100000000000000000000000000000000000000000000000000000000600052602260045260246000fd5b60006002820490506001821680611c6957607f821691505b602082108103611c7c57611c7b611c22565b5b50919050565b7f41757468656e74696369747952656769737472793a204e6f7420417574656e7460008201527f69736b0000000000000000000000000000000000000000000000000000000000602082015250565b6000611cde6023836118a2565b9150611ce982611c82565b604082019050919050565b60006020820190508181036000830152611d0d81611cd1565b9050919050565b600081905092915050565b82818337600083830152505050565b6000611d3a8385611d14565b9350611d47838584611d1f565b82840190509392505050565b6000611d60828486611d2e565b91508190509392505050565b7f546f6b656e55524920686173206265656e207265676973746572656400000000600082015250565b6000611da2601c836118a2565b9150611dad82611d6c565b602082019050919050565b60006020820190508181036000830152611dd181611d95565b9050919050565b7f546f6b656e205552492063616e277420626520656d7074790000000000000000600082015250565b6000611e0e6018836118a2565b9150611e1982611dd8565b602082019050919050565b60006020820190508181036000830152611e3d81611e01565b9050919050565b7f536f75726365206d75737420626520746865206f7261636c65206f662074686560008201527f2072657175657374000000000000000000000000000000000000000000000000602082015250565b6000611ea06028836118a2565b9150611eab82611e44565b604082019050919050565b60006020820190508181036000830152611ecf81611e93565b9050919050565b6000611ee182611897565b611eeb8185611d14565b9350611efb8185602086016118b3565b80840191505092915050565b6000611f138284611ed6565b915081905092915050565b6000606082019050611f33600083018661186d565b611f406020830185611ad8565b611f4d6040830184611b0c565b949350505050565b6000819050919050565b6000611f7a611f75611f70846119c1565b611f55565b6119c1565b9050919050565b6000611f8c82611f5f565b9050919050565b6000611f9e82611f81565b9050919050565b611fae81611f93565b82525050565b6000604082019050611fc96000830185611fa5565b8181036020830152611fdb81846118f7565b90509392505050565b7f4f776e61626c653a2063616c6c6572206973206e6f7420746865206f776e6572600082015250565b600061201a6020836118a2565b915061202582611fe4565b602082019050919050565b600060208201905081810360008301526120498161200d565b9050919050565b7f496e76616c6964206f7261636c65206164647265737300000000000000000000600082015250565b60006120866016836118a2565b915061209182612050565b602082019050919050565b600060208201905081810360008301526120b581612079565b9050919050565b60006060820190506120d16000830186611ad8565b6120de6020830185611ad8565b6120eb604083018461186d565b949350505050565b7f4f776e61626c653a206e6577206f776e657220697320746865207a65726f206160008201527f6464726573730000000000000000000000000000000000000000000000000000602082015250565b600061214f6026836118a2565b915061215a826120f3565b604082019050919050565b6000602082019050818103600083015261217e81612142565b9050919050565b60008190508160005260206000209050919050565b600081546121a781611c51565b6121b18186611d14565b945060018216600081146121cc57600181146121dd57612210565b60ff19831686528186019350612210565b6121e685612185565b60005b83811015612208578154818901526001820191506020810190506121e9565b838801955050505b50505092915050565b7f3f746f6b656e5572693d00000000000000000000000000000000000000000000815250565b600061224b828561219a565b915061225682612219565b600a820191506122668284611ed6565b91508190509392505050565b7f4e487b7100000000000000000000000000000000000000000000000000000000600052601160045260246000fd5b60006122ac82611b02565b91506122b783611b02565b9250827fffffffffffffffffffffffffffffffffffffffffffffffffffffffffffffffff038211156122ec576122eb612272565b5b828201905092915050565b60007fffffffff0000000000000000000000000000000000000000000000000000000082169050919050565b61232c816122f7565b82525050565b600081519050919050565b600082825260208201905092915050565b600061235982612332565b612363818561233d565b93506123738185602086016118b3565b61237c816118e6565b840191505092915050565b60006101008201905061239d600083018b611ad8565b6123aa602083018a611b0c565b6123b7604083018961186d565b6123c46060830188611ad8565b6123d16080830187612323565b6123de60a0830186611b0c565b6123eb60c0830185611b0c565b81810360e08301526123fd818461234e565b90509998505050505050505050565b600061241782611f81565b9050919050565b60008160601b9050919050565b60006124368261241e565b9050919050565b60006124488261242b565b9050919050565b61246061245b8261240c565b61243d565b82525050565b6000819050919050565b61248161247c82611b02565b612466565b82525050565b6000612493828561244f565b6014820191506124a38284612470565b6020820191508190509392505050565b60006060820190506124c86000830186611ad8565b6124d56020830185611b0c565b81810360408301526124e7818461234e565b9050949350505050565b60008115159050919050565b612506816124f1565b811461251157600080fd5b50565b600081519050612523816124fd565b92915050565b60006020828403121561253f5761253e611952565b5b600061254d84828501612514565b91505092915050565b7f756e61626c6520746f207472616e73666572416e6443616c6c20746f206f726160008201527f636c650000000000000000000000000000000000000000000000000000000000602082015250565b60006125b26023836118a2565b91506125bd82612556565b604082019050919050565b600060208201905081810360008301526125e1816125a5565b9050919050565b7f4e487b7100000000000000000000000000000000000000000000000000000000600052601260045260246000fd5b600061262282611b02565b915061262d83611b02565b92508261263d5761263c6125e8565b5b828206905092915050565b600061265382611b02565b915061265e83611b02565b92508282101561267157612670612272565b5b828203905092915050565b600061268782611b02565b915061269283611b02565b9250817fffffffffffffffffffffffffffffffffffffffffffffffffffffffffffffffff04831182151516156126cb576126ca612272565b5b828202905092915050565b60008160011c9050919050565b6000808291508390505b600185111561272d5780860481111561270957612708612272565b5b60018516156127185780820291505b8081029050612726856126d6565b94506126ed565b94509492505050565b6000826127465760019050612802565b816127545760009050612802565b816001811461276a5760028114612774576127a3565b6001915050612802565b60ff84111561278657612785612272565b5b8360020a91508482111561279d5761279c612272565b5b50612802565b5060208310610133831016604e8410600b84101617156127d85782820a9050838111156127d3576127d2612272565b5b612802565b6127e584848460016126e3565b925090508184048111156127fc576127fb612272565b5b81810290505b9392505050565b600061281482611b02565b915061281f83611b02565b925061284c7fffffffffffffffffffffffffffffffffffffffffffffffffffffffffffffffff8484612736565b90509291505056fea2646970667358221220a7b1eaccae101c9f449c20bbf8510f8c574c8ee0c434005ae1ca460352bc38e064736f6c634300080d0033",
  "devdoc": {
    "kind": "dev",
    "methods": {
      "owner()": {
        "details": "Returns the address of the current owner."
      },
      "renounceOwnership()": {
        "details": "Leaves the contract without owner. It will not be possible to call `onlyOwner` functions anymore. Can only be called by the current owner. NOTE: Renouncing ownership will leave the contract without an owner, thereby removing any functionality that is only available to the owner."
      },
      "transferOwnership(address)": {
        "details": "Transfers ownership of the contract to a new account (`newOwner`). Can only be called by the current owner."
      }
    },
    "version": 1
  },
  "userdoc": {
    "kind": "user",
    "methods": {},
    "version": 1
  },
  "storageLayout": {
    "storage": [
      {
        "astId": 2183,
        "contract": "contracts/marketplace/Autentisk.sol:Autentisk",
        "label": "_owner",
        "offset": 0,
        "slot": "0",
        "type": "t_address"
      },
      {
        "astId": 4050,
        "contract": "contracts/marketplace/Autentisk.sol:Autentisk",
        "label": "collectionOwners",
        "offset": 0,
        "slot": "1",
        "type": "t_mapping(t_contract(AutentiskERC721)4600,t_address)"
      },
      {
        "astId": 4052,
        "contract": "contracts/marketplace/Autentisk.sol:Autentisk",
        "label": "totalCollection",
        "offset": 0,
        "slot": "2",
        "type": "t_uint256"
      }
    ],
    "types": {
      "t_address": {
        "encoding": "inplace",
        "label": "address",
        "numberOfBytes": "20"
      },
      "t_contract(AutentiskERC721)4600": {
        "encoding": "inplace",
        "label": "contract AutentiskERC721",
        "numberOfBytes": "20"
      },
      "t_mapping(t_contract(AutentiskERC721)4600,t_address)": {
        "encoding": "mapping",
        "key": "t_contract(AutentiskERC721)4600",
        "label": "mapping(contract AutentiskERC721 => address)",
        "numberOfBytes": "32",
        "value": "t_address"
      },
      "t_uint256": {
        "encoding": "inplace",
        "label": "uint256",
        "numberOfBytes": "32"
      }
    }
  }
}