{
  "address": "0xb03B70F28941d8C94B6FC91303F88ed8cAa669f0",
  "abi": [
    {
      "inputs": [
        {
          "internalType": "address",
          "name": "oracle",
          "type": "address"
        },
        {
          "internalType": "uint256",
          "name": "fee",
          "type": "uint256"
        },
        {
          "internalType": "string",
          "name": "classifierUrl",
          "type": "string"
        },
        {
          "internalType": "uint256",
          "name": "similarityThreshold",
          "type": "uint256"
        }
      ],
      "stateMutability": "nonpayable",
      "type": "constructor"
    },
    {
      "anonymous": false,
      "inputs": [
        {
          "indexed": true,
          "internalType": "address",
          "name": "collectionAddress",
          "type": "address"
        }
      ],
      "name": "CollectionCreated",
      "type": "event"
    },
    {
      "anonymous": false,
      "inputs": [
        {
          "indexed": true,
          "internalType": "address",
          "name": "previousOwner",
          "type": "address"
        },
        {
          "indexed": true,
          "internalType": "address",
          "name": "newOwner",
          "type": "address"
        }
      ],
      "name": "OwnershipTransferred",
      "type": "event"
    },
    {
      "inputs": [],
      "name": "AUTHENTICITY_REGISTRY",
      "outputs": [
        {
          "internalType": "address",
          "name": "",
          "type": "address"
        }
      ],
      "stateMutability": "view",
      "type": "function"
    },
    {
      "inputs": [
        {
          "internalType": "string",
          "name": "name",
          "type": "string"
        },
        {
          "internalType": "string",
          "name": "symbol",
          "type": "string"
        }
      ],
      "name": "createCollection",
      "outputs": [],
      "stateMutability": "nonpayable",
      "type": "function"
    },
    {
      "inputs": [
        {
          "internalType": "contract AutentiskERC721",
          "name": "collection",
          "type": "address"
        },
        {
          "internalType": "string",
          "name": "tokenURI",
          "type": "string"
        }
      ],
      "name": "fulfillMint",
      "outputs": [],
      "stateMutability": "nonpayable",
      "type": "function"
    },
    {
      "inputs": [
        {
          "internalType": "contract AutentiskERC721",
          "name": "collection",
          "type": "address"
        },
        {
          "internalType": "string",
          "name": "tokenURI",
          "type": "string"
        }
      ],
      "name": "mint",
      "outputs": [],
      "stateMutability": "nonpayable",
      "type": "function"
    },
    {
      "inputs": [],
      "name": "owner",
      "outputs": [
        {
          "internalType": "address",
          "name": "",
          "type": "address"
        }
      ],
      "stateMutability": "view",
      "type": "function"
    },
    {
      "inputs": [],
      "name": "renounceOwnership",
      "outputs": [],
      "stateMutability": "nonpayable",
      "type": "function"
    },
    {
      "inputs": [
        {
          "internalType": "contract AutentiskERC721",
          "name": "",
          "type": "address"
        }
      ],
      "name": "s_collectionOwners",
      "outputs": [
        {
          "internalType": "address",
          "name": "",
          "type": "address"
        }
      ],
      "stateMutability": "view",
      "type": "function"
    },
    {
      "inputs": [],
      "name": "s_totalCollection",
      "outputs": [
        {
          "internalType": "uint256",
          "name": "",
          "type": "uint256"
        }
      ],
      "stateMutability": "view",
      "type": "function"
    },
    {
      "inputs": [
        {
          "internalType": "address",
          "name": "newOwner",
          "type": "address"
        }
      ],
      "name": "transferOwnership",
      "outputs": [],
      "stateMutability": "nonpayable",
      "type": "function"
    }
  ],
  "transactionHash": "0x14362b9e3627cf22c737783fcd27485409b97c097364dd5d2d0b532a41270c52",
  "args": [
    "0x3A56aE4a2831C3d3514b5D7Af5578E45eBDb7a40",
    "10000000000000000",
    "https://autentisk.vercel.app/api/dummyChainlink",
    "1"
  ],
  "numDeployments": 5,
  "solcInputHash": "50dc91b1c0e284fb6df65c8416394cdb",
  "bytecode": "0x60a06040523480156200001157600080fd5b5060405162008ccc38038062008ccc8339818101604052810190620000379190620003ec565b620000576200004b620000d560201b60201c565b620000dd60201b60201c565b30848484846040516200006a90620001a1565b6200007a95949392919062000522565b604051809103906000f08015801562000097573d6000803e3d6000fd5b5073ffffffffffffffffffffffffffffffffffffffff1660808173ffffffffffffffffffffffffffffffffffffffff16815250505050505062000594565b600033905090565b60008060009054906101000a900473ffffffffffffffffffffffffffffffffffffffff169050816000806101000a81548173ffffffffffffffffffffffffffffffffffffffff021916908373ffffffffffffffffffffffffffffffffffffffff1602179055508173ffffffffffffffffffffffffffffffffffffffff168173ffffffffffffffffffffffffffffffffffffffff167f8be0079c531659141344cd1fd0a4f28419497f9722a3daafe3b4186f6b6457e060405160405180910390a35050565b6142a88062004a2483390190565b6000604051905090565b600080fd5b600080fd5b600073ffffffffffffffffffffffffffffffffffffffff82169050919050565b6000620001f082620001c3565b9050919050565b6200020281620001e3565b81146200020e57600080fd5b50565b6000815190506200022281620001f7565b92915050565b6000819050919050565b6200023d8162000228565b81146200024957600080fd5b50565b6000815190506200025d8162000232565b92915050565b600080fd5b600080fd5b6000601f19601f8301169050919050565b7f4e487b7100000000000000000000000000000000000000000000000000000000600052604160045260246000fd5b620002b8826200026d565b810181811067ffffffffffffffff82111715620002da57620002d96200027e565b5b80604052505050565b6000620002ef620001af565b9050620002fd8282620002ad565b919050565b600067ffffffffffffffff82111562000320576200031f6200027e565b5b6200032b826200026d565b9050602081019050919050565b60005b83811015620003585780820151818401526020810190506200033b565b8381111562000368576000848401525b50505050565b6000620003856200037f8462000302565b620002e3565b905082815260208101848484011115620003a457620003a362000268565b5b620003b184828562000338565b509392505050565b600082601f830112620003d157620003d062000263565b5b8151620003e38482602086016200036e565b91505092915050565b60008060008060808587031215620004095762000408620001b9565b5b6000620004198782880162000211565b94505060206200042c878288016200024c565b935050604085015167ffffffffffffffff81111562000450576200044f620001be565b5b6200045e87828801620003b9565b925050606062000471878288016200024c565b91505092959194509250565b6200048881620001e3565b82525050565b7f3362376361306434386337613462326461393236383435363636356431316165815250565b620004bf8162000228565b82525050565b600081519050919050565b600082825260208201905092915050565b6000620004ee82620004c5565b620004fa8185620004d0565b93506200050c81856020860162000338565b62000517816200026d565b840191505092915050565b600060c0820190506200053960008301886200047d565b6200054860208301876200047d565b62000556604083016200048e565b620005656060830186620004b4565b8181036080830152620005798185620004e1565b90506200058a60a0830184620004b4565b9695505050505050565b608051614466620005be600039600081816104b801528181610564015261067e01526144666000f3fe60806040523480156200001157600080fd5b5060043610620000a05760003560e01c80638ded8773116200006f5780638ded87731462000129578063d0def521146200014b578063e4270299146200016b578063eb5a5e04146200018b578063f2fde38b14620001ad57620000a0565b8063176b9b7514620000a5578063672dc5d014620000c5578063715018a614620000fb5780638da5cb5b1462000107575b600080fd5b620000c36004803603810190620000bd9190620008f5565b620001cd565b005b620000e36004803603810190620000dd9190620009fc565b620002f2565b604051620000f2919062000a3f565b60405180910390f35b6200010562000325565b005b62000111620003b6565b60405162000120919062000a3f565b60405180910390f35b62000133620003df565b60405162000142919062000a77565b60405180910390f35b62000169600480360381019062000163919062000a94565b620003e5565b005b62000189600480360381019062000183919062000a94565b62000562565b005b620001956200067c565b604051620001a4919062000a3f565b60405180910390f35b620001cb6004803603810190620001c5919062000b2f565b620006a0565b005b600084848484604051620001e1906200086f565b620001f0949392919062000bc5565b604051809103906000f0801580156200020d573d6000803e3d6000fd5b50905033600160008373ffffffffffffffffffffffffffffffffffffffff1673ffffffffffffffffffffffffffffffffffffffff16815260200190815260200160002060006101000a81548173ffffffffffffffffffffffffffffffffffffffff021916908373ffffffffffffffffffffffffffffffffffffffff16021790555060026000815480929190620002a39062000c33565b91905055508073ffffffffffffffffffffffffffffffffffffffff167f75432e2e509efcaf947efcc7a5a6b6b3562425b29e9725c7a4a5c652291ac35d60405160405180910390a25050505050565b60016020528060005260406000206000915054906101000a900473ffffffffffffffffffffffffffffffffffffffff1681565b6200032f620007a3565b73ffffffffffffffffffffffffffffffffffffffff166200034f620003b6565b73ffffffffffffffffffffffffffffffffffffffff1614620003a8576040517f08c379a00000000000000000000000000000000000000000000000000000000081526004016200039f9062000cd0565b60405180910390fd5b620003b46000620007ab565b565b60008060009054906101000a900473ffffffffffffffffffffffffffffffffffffffff16905090565b60025481565b823373ffffffffffffffffffffffffffffffffffffffff16600160008373ffffffffffffffffffffffffffffffffffffffff1673ffffffffffffffffffffffffffffffffffffffff16815260200190815260200160002060009054906101000a900473ffffffffffffffffffffffffffffffffffffffff1673ffffffffffffffffffffffffffffffffffffffff1614620004b6576040517f08c379a0000000000000000000000000000000000000000000000000000000008152600401620004ad9062000d42565b60405180910390fd5b7f000000000000000000000000000000000000000000000000000000000000000073ffffffffffffffffffffffffffffffffffffffff166315fca5558484876040518463ffffffff1660e01b8152600401620005159392919062000d64565b6020604051808303816000875af115801562000535573d6000803e3d6000fd5b505050506040513d601f19601f820116820180604052508101906200055b919062000dd5565b5050505050565b7f000000000000000000000000000000000000000000000000000000000000000073ffffffffffffffffffffffffffffffffffffffff163373ffffffffffffffffffffffffffffffffffffffff1614620005f3576040517f08c379a0000000000000000000000000000000000000000000000000000000008152600401620005ea9062000e7d565b60405180910390fd5b8273ffffffffffffffffffffffffffffffffffffffff1663d85d3d2783836040518363ffffffff1660e01b81526004016200063092919062000e9f565b6020604051808303816000875af115801562000650573d6000803e3d6000fd5b505050506040513d601f19601f8201168201806040525081019062000676919062000ef6565b50505050565b7f000000000000000000000000000000000000000000000000000000000000000081565b620006aa620007a3565b73ffffffffffffffffffffffffffffffffffffffff16620006ca620003b6565b73ffffffffffffffffffffffffffffffffffffffff161462000723576040517f08c379a00000000000000000000000000000000000000000000000000000000081526004016200071a9062000cd0565b60405180910390fd5b600073ffffffffffffffffffffffffffffffffffffffff168173ffffffffffffffffffffffffffffffffffffffff160362000795576040517f08c379a00000000000000000000000000000000000000000000000000000000081526004016200078c9062000f9e565b60405180910390fd5b620007a081620007ab565b50565b600033905090565b60008060009054906101000a900473ffffffffffffffffffffffffffffffffffffffff169050816000806101000a81548173ffffffffffffffffffffffffffffffffffffffff021916908373ffffffffffffffffffffffffffffffffffffffff1602179055508173ffffffffffffffffffffffffffffffffffffffff168173ffffffffffffffffffffffffffffffffffffffff167f8be0079c531659141344cd1fd0a4f28419497f9722a3daafe3b4186f6b6457e060405160405180910390a35050565b6134708062000fc183390190565b600080fd5b600080fd5b600080fd5b600080fd5b600080fd5b60008083601f840112620008af57620008ae62000887565b5b8235905067ffffffffffffffff811115620008cf57620008ce6200088c565b5b602083019150836001820283011115620008ee57620008ed62000891565b5b9250929050565b600080600080604085870312156200091257620009116200087d565b5b600085013567ffffffffffffffff81111562000933576200093262000882565b5b620009418782880162000896565b9450945050602085013567ffffffffffffffff81111562000967576200096662000882565b5b620009758782880162000896565b925092505092959194509250565b600073ffffffffffffffffffffffffffffffffffffffff82169050919050565b6000620009b08262000983565b9050919050565b6000620009c482620009a3565b9050919050565b620009d681620009b7565b8114620009e257600080fd5b50565b600081359050620009f681620009cb565b92915050565b60006020828403121562000a155762000a146200087d565b5b600062000a2584828501620009e5565b91505092915050565b62000a3981620009a3565b82525050565b600060208201905062000a56600083018462000a2e565b92915050565b6000819050919050565b62000a718162000a5c565b82525050565b600060208201905062000a8e600083018462000a66565b92915050565b60008060006040848603121562000ab05762000aaf6200087d565b5b600062000ac086828701620009e5565b935050602084013567ffffffffffffffff81111562000ae45762000ae362000882565b5b62000af28682870162000896565b92509250509250925092565b62000b0981620009a3565b811462000b1557600080fd5b50565b60008135905062000b298162000afe565b92915050565b60006020828403121562000b485762000b476200087d565b5b600062000b588482850162000b18565b91505092915050565b600082825260208201905092915050565b82818337600083830152505050565b6000601f19601f8301169050919050565b600062000ba0838562000b61565b935062000baf83858462000b72565b62000bba8362000b81565b840190509392505050565b6000604082019050818103600083015262000be281868862000b92565b9050818103602083015262000bf981848662000b92565b905095945050505050565b7f4e487b7100000000000000000000000000000000000000000000000000000000600052601160045260246000fd5b600062000c408262000a5c565b91507fffffffffffffffffffffffffffffffffffffffffffffffffffffffffffffffff820362000c755762000c7462000c04565b5b600182019050919050565b7f4f776e61626c653a2063616c6c6572206973206e6f7420746865206f776e6572600082015250565b600062000cb860208362000b61565b915062000cc58262000c80565b602082019050919050565b6000602082019050818103600083015262000ceb8162000ca9565b9050919050565b7f417574656e7469736b3a204e6f7420636f6c6c656374696f6e206f776e657200600082015250565b600062000d2a601f8362000b61565b915062000d378262000cf2565b602082019050919050565b6000602082019050818103600083015262000d5d8162000d1b565b9050919050565b6000604082019050818103600083015262000d8181858762000b92565b905062000d92602083018462000a2e565b949350505050565b6000819050919050565b62000daf8162000d9a565b811462000dbb57600080fd5b50565b60008151905062000dcf8162000da4565b92915050565b60006020828403121562000dee5762000ded6200087d565b5b600062000dfe8482850162000dbe565b91505092915050565b7f417574656e7469736b3a204e6f742041757468656e746963697479526567697360008201527f7472790000000000000000000000000000000000000000000000000000000000602082015250565b600062000e6560238362000b61565b915062000e728262000e07565b604082019050919050565b6000602082019050818103600083015262000e988162000e56565b9050919050565b6000602082019050818103600083015262000ebc81848662000b92565b90509392505050565b62000ed08162000a5c565b811462000edc57600080fd5b50565b60008151905062000ef08162000ec5565b92915050565b60006020828403121562000f0f5762000f0e6200087d565b5b600062000f1f8482850162000edf565b91505092915050565b7f4f776e61626c653a206e6577206f776e657220697320746865207a65726f206160008201527f6464726573730000000000000000000000000000000000000000000000000000602082015250565b600062000f8660268362000b61565b915062000f938262000f28565b604082019050919050565b6000602082019050818103600083015262000fb98162000f77565b905091905056fe60806040523480156200001157600080fd5b5060405162003470380380620034708339818101604052810190620000379190620003b0565b818181600090805190602001906200005192919062000163565b5080600190805190602001906200006a92919062000163565b5050506200008d620000816200009560201b60201c565b6200009d60201b60201c565b505062000499565b600033905090565b6000600760009054906101000a900473ffffffffffffffffffffffffffffffffffffffff16905081600760006101000a81548173ffffffffffffffffffffffffffffffffffffffff021916908373ffffffffffffffffffffffffffffffffffffffff1602179055508173ffffffffffffffffffffffffffffffffffffffff168173ffffffffffffffffffffffffffffffffffffffff167f8be0079c531659141344cd1fd0a4f28419497f9722a3daafe3b4186f6b6457e060405160405180910390a35050565b828054620001719062000464565b90600052602060002090601f016020900481019282620001955760008555620001e1565b82601f10620001b057805160ff1916838001178555620001e1565b82800160010185558215620001e1579182015b82811115620001e0578251825591602001919060010190620001c3565b5b509050620001f09190620001f4565b5090565b5b808211156200020f576000816000905550600101620001f5565b5090565b6000604051905090565b600080fd5b600080fd5b600080fd5b600080fd5b6000601f19601f8301169050919050565b7f4e487b7100000000000000000000000000000000000000000000000000000000600052604160045260246000fd5b6200027c8262000231565b810181811067ffffffffffffffff821117156200029e576200029d62000242565b5b80604052505050565b6000620002b362000213565b9050620002c1828262000271565b919050565b600067ffffffffffffffff821115620002e457620002e362000242565b5b620002ef8262000231565b9050602081019050919050565b60005b838110156200031c578082015181840152602081019050620002ff565b838111156200032c576000848401525b50505050565b6000620003496200034384620002c6565b620002a7565b9050828152602081018484840111156200036857620003676200022c565b5b62000375848285620002fc565b509392505050565b600082601f83011262000395576200039462000227565b5b8151620003a784826020860162000332565b91505092915050565b60008060408385031215620003ca57620003c96200021d565b5b600083015167ffffffffffffffff811115620003eb57620003ea62000222565b5b620003f9858286016200037d565b925050602083015167ffffffffffffffff8111156200041d576200041c62000222565b5b6200042b858286016200037d565b9150509250929050565b7f4e487b7100000000000000000000000000000000000000000000000000000000600052602260045260246000fd5b600060028204905060018216806200047d57607f821691505b60208210810362000493576200049262000435565b5b50919050565b612fc780620004a96000396000f3fe608060405234801561001057600080fd5b506004361061010b5760003560e01c8063715018a6116100a2578063b88d4fde11610071578063b88d4fde146102a4578063c87b56dd146102c0578063d85d3d27146102f0578063e985e9c514610320578063f2fde38b146103505761010b565b8063715018a6146102425780638da5cb5b1461024c57806395d89b411461026a578063a22cb465146102885761010b565b806323b872dd116100de57806323b872dd146101aa57806342842e0e146101c65780636352211e146101e257806370a08231146102125761010b565b806301ffc9a71461011057806306fdde0314610140578063081812fc1461015e578063095ea7b31461018e575b600080fd5b61012a60048036038101906101259190611c7d565b61036c565b6040516101379190611cc5565b60405180910390f35b61014861044e565b6040516101559190611d79565b60405180910390f35b61017860048036038101906101739190611dd1565b6104e0565b6040516101859190611e3f565b60405180910390f35b6101a860048036038101906101a39190611e86565b610565565b005b6101c460048036038101906101bf9190611ec6565b61067c565b005b6101e060048036038101906101db9190611ec6565b6106dc565b005b6101fc60048036038101906101f79190611dd1565b6106fc565b6040516102099190611e3f565b60405180910390f35b61022c60048036038101906102279190611f19565b6107ad565b6040516102399190611f55565b60405180910390f35b61024a610864565b005b6102546108ec565b6040516102619190611e3f565b60405180910390f35b610272610916565b60405161027f9190611d79565b60405180910390f35b6102a2600480360381019061029d9190611f9c565b6109a8565b005b6102be60048036038101906102b99190612111565b6109be565b005b6102da60048036038101906102d59190611dd1565b610a20565b6040516102e79190611d79565b60405180910390f35b61030a600480360381019061030591906121f4565b610b71565b6040516103179190611f55565b60405180910390f35b61033a60048036038101906103359190612241565b610c63565b6040516103479190611cc5565b60405180910390f35b61036a60048036038101906103659190611f19565b610cf7565b005b60007f80ac58cd000000000000000000000000000000000000000000000000000000007bffffffffffffffffffffffffffffffffffffffffffffffffffffffff1916827bffffffffffffffffffffffffffffffffffffffffffffffffffffffff1916148061043757507f5b5e139f000000000000000000000000000000000000000000000000000000007bffffffffffffffffffffffffffffffffffffffffffffffffffffffff1916827bffffffffffffffffffffffffffffffffffffffffffffffffffffffff1916145b80610447575061044682610dee565b5b9050919050565b60606000805461045d906122b0565b80601f0160208091040260200160405190810160405280929190818152602001828054610489906122b0565b80156104d65780601f106104ab576101008083540402835291602001916104d6565b820191906000526020600020905b8154815290600101906020018083116104b957829003601f168201915b5050505050905090565b60006104eb82610e58565b61052a576040517f08c379a000000000000000000000000000000000000000000000000000000000815260040161052190612353565b60405180910390fd5b6004600083815260200190815260200160002060009054906101000a900473ffffffffffffffffffffffffffffffffffffffff169050919050565b6000610570826106fc565b90508073ffffffffffffffffffffffffffffffffffffffff168373ffffffffffffffffffffffffffffffffffffffff16036105e0576040517f08c379a00000000000000000000000000000000000000000000000000000000081526004016105d7906123e5565b60405180910390fd5b8073ffffffffffffffffffffffffffffffffffffffff166105ff610ec4565b73ffffffffffffffffffffffffffffffffffffffff16148061062e575061062d81610628610ec4565b610c63565b5b61066d576040517f08c379a000000000000000000000000000000000000000000000000000000000815260040161066490612477565b60405180910390fd5b6106778383610ecc565b505050565b61068d610687610ec4565b82610f85565b6106cc576040517f08c379a00000000000000000000000000000000000000000000000000000000081526004016106c390612509565b60405180910390fd5b6106d7838383611063565b505050565b6106f7838383604051806020016040528060008152506109be565b505050565b6000806002600084815260200190815260200160002060009054906101000a900473ffffffffffffffffffffffffffffffffffffffff169050600073ffffffffffffffffffffffffffffffffffffffff168173ffffffffffffffffffffffffffffffffffffffff16036107a4576040517f08c379a000000000000000000000000000000000000000000000000000000000815260040161079b9061259b565b60405180910390fd5b80915050919050565b60008073ffffffffffffffffffffffffffffffffffffffff168273ffffffffffffffffffffffffffffffffffffffff160361081d576040517f08c379a00000000000000000000000000000000000000000000000000000000081526004016108149061262d565b60405180910390fd5b600360008373ffffffffffffffffffffffffffffffffffffffff1673ffffffffffffffffffffffffffffffffffffffff168152602001908152602001600020549050919050565b61086c610ec4565b73ffffffffffffffffffffffffffffffffffffffff1661088a6108ec565b73ffffffffffffffffffffffffffffffffffffffff16146108e0576040517f08c379a00000000000000000000000000000000000000000000000000000000081526004016108d790612699565b60405180910390fd5b6108ea60006112be565b565b6000600760009054906101000a900473ffffffffffffffffffffffffffffffffffffffff16905090565b606060018054610925906122b0565b80601f0160208091040260200160405190810160405280929190818152602001828054610951906122b0565b801561099e5780601f106109735761010080835404028352916020019161099e565b820191906000526020600020905b81548152906001019060200180831161098157829003601f168201915b5050505050905090565b6109ba6109b3610ec4565b8383611384565b5050565b6109cf6109c9610ec4565b83610f85565b610a0e576040517f08c379a0000000000000000000000000000000000000000000000000000000008152600401610a0590612509565b60405180910390fd5b610a1a848484846114f0565b50505050565b6060610a2b82610e58565b610a6a576040517f08c379a0000000000000000000000000000000000000000000000000000000008152600401610a619061272b565b60405180910390fd5b6000600660008481526020019081526020016000208054610a8a906122b0565b80601f0160208091040260200160405190810160405280929190818152602001828054610ab6906122b0565b8015610b035780601f10610ad857610100808354040283529160200191610b03565b820191906000526020600020905b815481529060010190602001808311610ae657829003601f168201915b505050505090506000610b1461154c565b90506000815103610b29578192505050610b6c565b600082511115610b5e578082604051602001610b46929190612787565b60405160208183030381529060405292505050610b6c565b610b6784611563565b925050505b919050565b6000610b7b610ec4565b73ffffffffffffffffffffffffffffffffffffffff16610b996108ec565b73ffffffffffffffffffffffffffffffffffffffff1614610bef576040517f08c379a0000000000000000000000000000000000000000000000000000000008152600401610be690612699565b60405180910390fd5b610bf9600861160a565b610c036008611620565b9050610c0f338261162e565b610c5d8184848080601f016020809104026020016040519081016040528093929190818152602001838380828437600081840152601f19601f820116905080830192505050505050506117fb565b92915050565b6000600560008473ffffffffffffffffffffffffffffffffffffffff1673ffffffffffffffffffffffffffffffffffffffff16815260200190815260200160002060008373ffffffffffffffffffffffffffffffffffffffff1673ffffffffffffffffffffffffffffffffffffffff16815260200190815260200160002060009054906101000a900460ff16905092915050565b610cff610ec4565b73ffffffffffffffffffffffffffffffffffffffff16610d1d6108ec565b73ffffffffffffffffffffffffffffffffffffffff1614610d73576040517f08c379a0000000000000000000000000000000000000000000000000000000008152600401610d6a90612699565b60405180910390fd5b600073ffffffffffffffffffffffffffffffffffffffff168173ffffffffffffffffffffffffffffffffffffffff1603610de2576040517f08c379a0000000000000000000000000000000000000000000000000000000008152600401610dd99061281d565b60405180910390fd5b610deb816112be565b50565b60007f01ffc9a7000000000000000000000000000000000000000000000000000000007bffffffffffffffffffffffffffffffffffffffffffffffffffffffff1916827bffffffffffffffffffffffffffffffffffffffffffffffffffffffff1916149050919050565b60008073ffffffffffffffffffffffffffffffffffffffff166002600084815260200190815260200160002060009054906101000a900473ffffffffffffffffffffffffffffffffffffffff1673ffffffffffffffffffffffffffffffffffffffff1614159050919050565b600033905090565b816004600083815260200190815260200160002060006101000a81548173ffffffffffffffffffffffffffffffffffffffff021916908373ffffffffffffffffffffffffffffffffffffffff160217905550808273ffffffffffffffffffffffffffffffffffffffff16610f3f836106fc565b73ffffffffffffffffffffffffffffffffffffffff167f8c5be1e5ebec7d5bd14f71427d1e84f3dd0314c0f7b2291e5b200ac8c7c3b92560405160405180910390a45050565b6000610f9082610e58565b610fcf576040517f08c379a0000000000000000000000000000000000000000000000000000000008152600401610fc6906128af565b60405180910390fd5b6000610fda836106fc565b90508073ffffffffffffffffffffffffffffffffffffffff168473ffffffffffffffffffffffffffffffffffffffff16148061104957508373ffffffffffffffffffffffffffffffffffffffff16611031846104e0565b73ffffffffffffffffffffffffffffffffffffffff16145b8061105a57506110598185610c63565b5b91505092915050565b8273ffffffffffffffffffffffffffffffffffffffff16611083826106fc565b73ffffffffffffffffffffffffffffffffffffffff16146110d9576040517f08c379a00000000000000000000000000000000000000000000000000000000081526004016110d090612941565b60405180910390fd5b600073ffffffffffffffffffffffffffffffffffffffff168273ffffffffffffffffffffffffffffffffffffffff1603611148576040517f08c379a000000000000000000000000000000000000000000000000000000000815260040161113f906129d3565b60405180910390fd5b61115383838361186f565b61115e600082610ecc565b6001600360008573ffffffffffffffffffffffffffffffffffffffff1673ffffffffffffffffffffffffffffffffffffffff16815260200190815260200160002060008282546111ae9190612a22565b925050819055506001600360008473ffffffffffffffffffffffffffffffffffffffff1673ffffffffffffffffffffffffffffffffffffffff16815260200190815260200160002060008282546112059190612a56565b92505081905550816002600083815260200190815260200160002060006101000a81548173ffffffffffffffffffffffffffffffffffffffff021916908373ffffffffffffffffffffffffffffffffffffffff160217905550808273ffffffffffffffffffffffffffffffffffffffff168473ffffffffffffffffffffffffffffffffffffffff167fddf252ad1be2c89b69c2b068fc378daa952ba7f163c4a11628f55a4df523b3ef60405160405180910390a4505050565b6000600760009054906101000a900473ffffffffffffffffffffffffffffffffffffffff16905081600760006101000a81548173ffffffffffffffffffffffffffffffffffffffff021916908373ffffffffffffffffffffffffffffffffffffffff1602179055508173ffffffffffffffffffffffffffffffffffffffff168173ffffffffffffffffffffffffffffffffffffffff167f8be0079c531659141344cd1fd0a4f28419497f9722a3daafe3b4186f6b6457e060405160405180910390a35050565b8173ffffffffffffffffffffffffffffffffffffffff168373ffffffffffffffffffffffffffffffffffffffff16036113f2576040517f08c379a00000000000000000000000000000000000000000000000000000000081526004016113e990612af8565b60405180910390fd5b80600560008573ffffffffffffffffffffffffffffffffffffffff1673ffffffffffffffffffffffffffffffffffffffff16815260200190815260200160002060008473ffffffffffffffffffffffffffffffffffffffff1673ffffffffffffffffffffffffffffffffffffffff16815260200190815260200160002060006101000a81548160ff0219169083151502179055508173ffffffffffffffffffffffffffffffffffffffff168373ffffffffffffffffffffffffffffffffffffffff167f17307eab39ab6107e8899845ad3d59bd9653f200f220920489ca2b5937696c31836040516114e39190611cc5565b60405180910390a3505050565b6114fb848484611063565b61150784848484611874565b611546576040517f08c379a000000000000000000000000000000000000000000000000000000000815260040161153d90612b8a565b60405180910390fd5b50505050565b606060405180602001604052806000815250905090565b606061156e82610e58565b6115ad576040517f08c379a00000000000000000000000000000000000000000000000000000000081526004016115a490612c1c565b60405180910390fd5b60006115b761154c565b905060008151116115d75760405180602001604052806000815250611602565b806115e1846119fb565b6040516020016115f2929190612787565b6040516020818303038152906040525b915050919050565b6001816000016000828254019250508190555050565b600081600001549050919050565b600073ffffffffffffffffffffffffffffffffffffffff168273ffffffffffffffffffffffffffffffffffffffff160361169d576040517f08c379a000000000000000000000000000000000000000000000000000000000815260040161169490612c88565b60405180910390fd5b6116a681610e58565b156116e6576040517f08c379a00000000000000000000000000000000000000000000000000000000081526004016116dd90612cf4565b60405180910390fd5b6116f26000838361186f565b6001600360008473ffffffffffffffffffffffffffffffffffffffff1673ffffffffffffffffffffffffffffffffffffffff16815260200190815260200160002060008282546117429190612a56565b92505081905550816002600083815260200190815260200160002060006101000a81548173ffffffffffffffffffffffffffffffffffffffff021916908373ffffffffffffffffffffffffffffffffffffffff160217905550808273ffffffffffffffffffffffffffffffffffffffff16600073ffffffffffffffffffffffffffffffffffffffff167fddf252ad1be2c89b69c2b068fc378daa952ba7f163c4a11628f55a4df523b3ef60405160405180910390a45050565b61180482610e58565b611843576040517f08c379a000000000000000000000000000000000000000000000000000000000815260040161183a90612d86565b60405180910390fd5b8060066000848152602001908152602001600020908051906020019061186a929190611b6e565b505050565b505050565b60006118958473ffffffffffffffffffffffffffffffffffffffff16611b5b565b156119ee578373ffffffffffffffffffffffffffffffffffffffff1663150b7a026118be610ec4565b8786866040518563ffffffff1660e01b81526004016118e09493929190612dfb565b6020604051808303816000875af192505050801561191c57506040513d601f19601f820116820180604052508101906119199190612e5c565b60015b61199e573d806000811461194c576040519150601f19603f3d011682016040523d82523d6000602084013e611951565b606091505b506000815103611996576040517f08c379a000000000000000000000000000000000000000000000000000000000815260040161198d90612b8a565b60405180910390fd5b805181602001fd5b63150b7a0260e01b7bffffffffffffffffffffffffffffffffffffffffffffffffffffffff1916817bffffffffffffffffffffffffffffffffffffffffffffffffffffffff1916149150506119f3565b600190505b949350505050565b606060008203611a42576040518060400160405280600181526020017f30000000000000000000000000000000000000000000000000000000000000008152509050611b56565b600082905060005b60008214611a74578080611a5d90612e89565b915050600a82611a6d9190612f00565b9150611a4a565b60008167ffffffffffffffff811115611a9057611a8f611fe6565b5b6040519080825280601f01601f191660200182016040528015611ac25781602001600182028036833780820191505090505b5090505b60008514611b4f57600182611adb9190612a22565b9150600a85611aea9190612f31565b6030611af69190612a56565b60f81b818381518110611b0c57611b0b612f62565b5b60200101907effffffffffffffffffffffffffffffffffffffffffffffffffffffffffffff1916908160001a905350600a85611b489190612f00565b9450611ac6565b8093505050505b919050565b600080823b905060008111915050919050565b828054611b7a906122b0565b90600052602060002090601f016020900481019282611b9c5760008555611be3565b82601f10611bb557805160ff1916838001178555611be3565b82800160010185558215611be3579182015b82811115611be2578251825591602001919060010190611bc7565b5b509050611bf09190611bf4565b5090565b5b80821115611c0d576000816000905550600101611bf5565b5090565b6000604051905090565b600080fd5b600080fd5b60007fffffffff0000000000000000000000000000000000000000000000000000000082169050919050565b611c5a81611c25565b8114611c6557600080fd5b50565b600081359050611c7781611c51565b92915050565b600060208284031215611c9357611c92611c1b565b5b6000611ca184828501611c68565b91505092915050565b60008115159050919050565b611cbf81611caa565b82525050565b6000602082019050611cda6000830184611cb6565b92915050565b600081519050919050565b600082825260208201905092915050565b60005b83811015611d1a578082015181840152602081019050611cff565b83811115611d29576000848401525b50505050565b6000601f19601f8301169050919050565b6000611d4b82611ce0565b611d558185611ceb565b9350611d65818560208601611cfc565b611d6e81611d2f565b840191505092915050565b60006020820190508181036000830152611d938184611d40565b905092915050565b6000819050919050565b611dae81611d9b565b8114611db957600080fd5b50565b600081359050611dcb81611da5565b92915050565b600060208284031215611de757611de6611c1b565b5b6000611df584828501611dbc565b91505092915050565b600073ffffffffffffffffffffffffffffffffffffffff82169050919050565b6000611e2982611dfe565b9050919050565b611e3981611e1e565b82525050565b6000602082019050611e546000830184611e30565b92915050565b611e6381611e1e565b8114611e6e57600080fd5b50565b600081359050611e8081611e5a565b92915050565b60008060408385031215611e9d57611e9c611c1b565b5b6000611eab85828601611e71565b9250506020611ebc85828601611dbc565b9150509250929050565b600080600060608486031215611edf57611ede611c1b565b5b6000611eed86828701611e71565b9350506020611efe86828701611e71565b9250506040611f0f86828701611dbc565b9150509250925092565b600060208284031215611f2f57611f2e611c1b565b5b6000611f3d84828501611e71565b91505092915050565b611f4f81611d9b565b82525050565b6000602082019050611f6a6000830184611f46565b92915050565b611f7981611caa565b8114611f8457600080fd5b50565b600081359050611f9681611f70565b92915050565b60008060408385031215611fb357611fb2611c1b565b5b6000611fc185828601611e71565b9250506020611fd285828601611f87565b9150509250929050565b600080fd5b600080fd5b7f4e487b7100000000000000000000000000000000000000000000000000000000600052604160045260246000fd5b61201e82611d2f565b810181811067ffffffffffffffff8211171561203d5761203c611fe6565b5b80604052505050565b6000612050611c11565b905061205c8282612015565b919050565b600067ffffffffffffffff82111561207c5761207b611fe6565b5b61208582611d2f565b9050602081019050919050565b82818337600083830152505050565b60006120b46120af84612061565b612046565b9050828152602081018484840111156120d0576120cf611fe1565b5b6120db848285612092565b509392505050565b600082601f8301126120f8576120f7611fdc565b5b81356121088482602086016120a1565b91505092915050565b6000806000806080858703121561212b5761212a611c1b565b5b600061213987828801611e71565b945050602061214a87828801611e71565b935050604061215b87828801611dbc565b925050606085013567ffffffffffffffff81111561217c5761217b611c20565b5b612188878288016120e3565b91505092959194509250565b600080fd5b600080fd5b60008083601f8401126121b4576121b3611fdc565b5b8235905067ffffffffffffffff8111156121d1576121d0612194565b5b6020830191508360018202830111156121ed576121ec612199565b5b9250929050565b6000806020838503121561220b5761220a611c1b565b5b600083013567ffffffffffffffff81111561222957612228611c20565b5b6122358582860161219e565b92509250509250929050565b6000806040838503121561225857612257611c1b565b5b600061226685828601611e71565b925050602061227785828601611e71565b9150509250929050565b7f4e487b7100000000000000000000000000000000000000000000000000000000600052602260045260246000fd5b600060028204905060018216806122c857607f821691505b6020821081036122db576122da612281565b5b50919050565b7f4552433732313a20617070726f76656420717565727920666f72206e6f6e657860008201527f697374656e7420746f6b656e0000000000000000000000000000000000000000602082015250565b600061233d602c83611ceb565b9150612348826122e1565b604082019050919050565b6000602082019050818103600083015261236c81612330565b9050919050565b7f4552433732313a20617070726f76616c20746f2063757272656e74206f776e6560008201527f7200000000000000000000000000000000000000000000000000000000000000602082015250565b60006123cf602183611ceb565b91506123da82612373565b604082019050919050565b600060208201905081810360008301526123fe816123c2565b9050919050565b7f4552433732313a20617070726f76652063616c6c6572206973206e6f74206f7760008201527f6e6572206e6f7220617070726f76656420666f7220616c6c0000000000000000602082015250565b6000612461603883611ceb565b915061246c82612405565b604082019050919050565b6000602082019050818103600083015261249081612454565b9050919050565b7f4552433732313a207472616e736665722063616c6c6572206973206e6f74206f60008201527f776e6572206e6f7220617070726f766564000000000000000000000000000000602082015250565b60006124f3603183611ceb565b91506124fe82612497565b604082019050919050565b60006020820190508181036000830152612522816124e6565b9050919050565b7f4552433732313a206f776e657220717565727920666f72206e6f6e657869737460008201527f656e7420746f6b656e0000000000000000000000000000000000000000000000602082015250565b6000612585602983611ceb565b915061259082612529565b604082019050919050565b600060208201905081810360008301526125b481612578565b9050919050565b7f4552433732313a2062616c616e636520717565727920666f7220746865207a6560008201527f726f206164647265737300000000000000000000000000000000000000000000602082015250565b6000612617602a83611ceb565b9150612622826125bb565b604082019050919050565b600060208201905081810360008301526126468161260a565b9050919050565b7f4f776e61626c653a2063616c6c6572206973206e6f7420746865206f776e6572600082015250565b6000612683602083611ceb565b915061268e8261264d565b602082019050919050565b600060208201905081810360008301526126b281612676565b9050919050565b7f45524337323155524953746f726167653a2055524920717565727920666f722060008201527f6e6f6e6578697374656e7420746f6b656e000000000000000000000000000000602082015250565b6000612715603183611ceb565b9150612720826126b9565b604082019050919050565b6000602082019050818103600083015261274481612708565b9050919050565b600081905092915050565b600061276182611ce0565b61276b818561274b565b935061277b818560208601611cfc565b80840191505092915050565b60006127938285612756565b915061279f8284612756565b91508190509392505050565b7f4f776e61626c653a206e6577206f776e657220697320746865207a65726f206160008201527f6464726573730000000000000000000000000000000000000000000000000000602082015250565b6000612807602683611ceb565b9150612812826127ab565b604082019050919050565b60006020820190508181036000830152612836816127fa565b9050919050565b7f4552433732313a206f70657261746f7220717565727920666f72206e6f6e657860008201527f697374656e7420746f6b656e0000000000000000000000000000000000000000602082015250565b6000612899602c83611ceb565b91506128a48261283d565b604082019050919050565b600060208201905081810360008301526128c88161288c565b9050919050565b7f4552433732313a207472616e73666572206f6620746f6b656e2074686174206960008201527f73206e6f74206f776e0000000000000000000000000000000000000000000000602082015250565b600061292b602983611ceb565b9150612936826128cf565b604082019050919050565b6000602082019050818103600083015261295a8161291e565b9050919050565b7f4552433732313a207472616e7366657220746f20746865207a65726f2061646460008201527f7265737300000000000000000000000000000000000000000000000000000000602082015250565b60006129bd602483611ceb565b91506129c882612961565b604082019050919050565b600060208201905081810360008301526129ec816129b0565b9050919050565b7f4e487b7100000000000000000000000000000000000000000000000000000000600052601160045260246000fd5b6000612a2d82611d9b565b9150612a3883611d9b565b925082821015612a4b57612a4a6129f3565b5b828203905092915050565b6000612a6182611d9b565b9150612a6c83611d9b565b9250827fffffffffffffffffffffffffffffffffffffffffffffffffffffffffffffffff03821115612aa157612aa06129f3565b5b828201905092915050565b7f4552433732313a20617070726f766520746f2063616c6c657200000000000000600082015250565b6000612ae2601983611ceb565b9150612aed82612aac565b602082019050919050565b60006020820190508181036000830152612b1181612ad5565b9050919050565b7f4552433732313a207472616e7366657220746f206e6f6e20455243373231526560008201527f63656976657220696d706c656d656e7465720000000000000000000000000000602082015250565b6000612b74603283611ceb565b9150612b7f82612b18565b604082019050919050565b60006020820190508181036000830152612ba381612b67565b9050919050565b7f4552433732314d657461646174613a2055524920717565727920666f72206e6f60008201527f6e6578697374656e7420746f6b656e0000000000000000000000000000000000602082015250565b6000612c06602f83611ceb565b9150612c1182612baa565b604082019050919050565b60006020820190508181036000830152612c3581612bf9565b9050919050565b7f4552433732313a206d696e7420746f20746865207a65726f2061646472657373600082015250565b6000612c72602083611ceb565b9150612c7d82612c3c565b602082019050919050565b60006020820190508181036000830152612ca181612c65565b9050919050565b7f4552433732313a20746f6b656e20616c7265616479206d696e74656400000000600082015250565b6000612cde601c83611ceb565b9150612ce982612ca8565b602082019050919050565b60006020820190508181036000830152612d0d81612cd1565b9050919050565b7f45524337323155524953746f726167653a2055524920736574206f66206e6f6e60008201527f6578697374656e7420746f6b656e000000000000000000000000000000000000602082015250565b6000612d70602e83611ceb565b9150612d7b82612d14565b604082019050919050565b60006020820190508181036000830152612d9f81612d63565b9050919050565b600081519050919050565b600082825260208201905092915050565b6000612dcd82612da6565b612dd78185612db1565b9350612de7818560208601611cfc565b612df081611d2f565b840191505092915050565b6000608082019050612e106000830187611e30565b612e1d6020830186611e30565b612e2a6040830185611f46565b8181036060830152612e3c8184612dc2565b905095945050505050565b600081519050612e5681611c51565b92915050565b600060208284031215612e7257612e71611c1b565b5b6000612e8084828501612e47565b91505092915050565b6000612e9482611d9b565b91507fffffffffffffffffffffffffffffffffffffffffffffffffffffffffffffffff8203612ec657612ec56129f3565b5b600182019050919050565b7f4e487b7100000000000000000000000000000000000000000000000000000000600052601260045260246000fd5b6000612f0b82611d9b565b9150612f1683611d9b565b925082612f2657612f25612ed1565b5b828204905092915050565b6000612f3c82611d9b565b9150612f4783611d9b565b925082612f5757612f56612ed1565b5b828206905092915050565b7f4e487b7100000000000000000000000000000000000000000000000000000000600052603260045260246000fdfea2646970667358221220dcf0d99a09dcb6825d9625710f33ba47ead8146031d2c0811dcfecccfccfeac764736f6c634300080d0033a2646970667358221220296e7030c06f0559e6a697b3dd813f16563c7616a160634eee9da4b4e09ac04664736f6c634300080d003360a060405260016004553480156200001657600080fd5b50604051620042a8380380620042a883398181016040528101906200003c919062000871565b6200005c62000050620000d760201b60201c565b620000df60201b60201c565b8573ffffffffffffffffffffffffffffffffffffffff1660808173ffffffffffffffffffffffffffffffffffffffff1681525050620000a0620001a560201b60201c565b620000b38585856200023d60201b60201c565b620000c482620003f760201b60201c565b80600a8190555050505050505062000b86565b600033905090565b6000600660009054906101000a900473ffffffffffffffffffffffffffffffffffffffff16905081600660006101000a81548173ffffffffffffffffffffffffffffffffffffffff021916908373ffffffffffffffffffffffffffffffffffffffff1602179055508173ffffffffffffffffffffffffffffffffffffffff168173ffffffffffffffffffffffffffffffffffffffff167f8be0079c531659141344cd1fd0a4f28419497f9722a3daafe3b4186f6b6457e060405160405180910390a35050565b6200023b73c89bd4e1632d3a43cb03aaad5262cbe4038bc57173ffffffffffffffffffffffffffffffffffffffff166338cc48316040518163ffffffff1660e01b8152600401602060405180830381865afa15801562000209573d6000803e3d6000fd5b505050506040513d601f19601f820116820180604052508101906200022f91906200092c565b620004db60201b60201c565b565b6200024d620000d760201b60201c565b73ffffffffffffffffffffffffffffffffffffffff16620002736200051f60201b60201c565b73ffffffffffffffffffffffffffffffffffffffff1614620002cc576040517f08c379a0000000000000000000000000000000000000000000000000000000008152600401620002c390620009bf565b60405180910390fd5b600073ffffffffffffffffffffffffffffffffffffffff168373ffffffffffffffffffffffffffffffffffffffff16036200033e576040517f08c379a0000000000000000000000000000000000000000000000000000000008152600401620003359062000a31565b60405180910390fd5b6000600b60009054906101000a900473ffffffffffffffffffffffffffffffffffffffff16905083600b60006101000a81548173ffffffffffffffffffffffffffffffffffffffff021916908373ffffffffffffffffffffffffffffffffffffffff16021790555082600c8190555081600d819055507f5608168c8125345db8098e55c10e36cbcca4a6ad8f02318e8c0963820413b29c818585604051620003e99392919062000a75565b60405180910390a150505050565b62000407620000d760201b60201c565b73ffffffffffffffffffffffffffffffffffffffff166200042d6200051f60201b60201c565b73ffffffffffffffffffffffffffffffffffffffff161462000486576040517f08c379a00000000000000000000000000000000000000000000000000000000081526004016200047d90620009bf565b60405180910390fd5b80600990805190602001906200049e92919062000549565b507fb6c4f180f069ea11b10bddee1ac0ae6ffa41fcb3ae92e869582f316df1f2f14e81604051620004d0919062000afe565b60405180910390a150565b80600260006101000a81548173ffffffffffffffffffffffffffffffffffffffff021916908373ffffffffffffffffffffffffffffffffffffffff16021790555050565b6000600660009054906101000a900473ffffffffffffffffffffffffffffffffffffffff16905090565b828054620005579062000b51565b90600052602060002090601f0160209004810192826200057b5760008555620005c7565b82601f106200059657805160ff1916838001178555620005c7565b82800160010185558215620005c7579182015b82811115620005c6578251825591602001919060010190620005a9565b5b509050620005d69190620005da565b5090565b5b80821115620005f5576000816000905550600101620005db565b5090565b6000604051905090565b600080fd5b600080fd5b600073ffffffffffffffffffffffffffffffffffffffff82169050919050565b60006200063a826200060d565b9050919050565b6200064c816200062d565b81146200065857600080fd5b50565b6000815190506200066c8162000641565b92915050565b6000819050919050565b620006878162000672565b81146200069357600080fd5b50565b600081519050620006a7816200067c565b92915050565b6000819050919050565b620006c281620006ad565b8114620006ce57600080fd5b50565b600081519050620006e281620006b7565b92915050565b600080fd5b600080fd5b6000601f19601f8301169050919050565b7f4e487b7100000000000000000000000000000000000000000000000000000000600052604160045260246000fd5b6200073d82620006f2565b810181811067ffffffffffffffff821117156200075f576200075e62000703565b5b80604052505050565b600062000774620005f9565b905062000782828262000732565b919050565b600067ffffffffffffffff821115620007a557620007a462000703565b5b620007b082620006f2565b9050602081019050919050565b60005b83811015620007dd578082015181840152602081019050620007c0565b83811115620007ed576000848401525b50505050565b60006200080a620008048462000787565b62000768565b905082815260208101848484011115620008295762000828620006ed565b5b62000836848285620007bd565b509392505050565b600082601f830112620008565762000855620006e8565b5b815162000868848260208601620007f3565b91505092915050565b60008060008060008060c0878903121562000891576200089062000603565b5b6000620008a189828a016200065b565b9650506020620008b489828a016200065b565b9550506040620008c789828a0162000696565b9450506060620008da89828a01620006d1565b935050608087015167ffffffffffffffff811115620008fe57620008fd62000608565b5b6200090c89828a016200083e565b92505060a06200091f89828a01620006d1565b9150509295509295509295565b60006020828403121562000945576200094462000603565b5b600062000955848285016200065b565b91505092915050565b600082825260208201905092915050565b7f4f776e61626c653a2063616c6c6572206973206e6f7420746865206f776e6572600082015250565b6000620009a76020836200095e565b9150620009b4826200096f565b602082019050919050565b60006020820190508181036000830152620009da8162000998565b9050919050565b7f496e76616c6964206f7261636c65206164647265737300000000000000000000600082015250565b600062000a196016836200095e565b915062000a2682620009e1565b602082019050919050565b6000602082019050818103600083015262000a4c8162000a0a565b9050919050565b62000a5e816200062d565b82525050565b62000a6f8162000672565b82525050565b600060608201905062000a8c600083018662000a53565b62000a9b602083018562000a53565b62000aaa604083018462000a64565b949350505050565b600081519050919050565b600062000aca8262000ab2565b62000ad681856200095e565b935062000ae8818560208601620007bd565b62000af381620006f2565b840191505092915050565b6000602082019050818103600083015262000b1a818462000abd565b905092915050565b7f4e487b7100000000000000000000000000000000000000000000000000000000600052602260045260246000fd5b6000600282049050600182168062000b6a57607f821691505b60208210810362000b805762000b7f62000b22565b5b50919050565b6080516136f162000bb760003960008181610462015281816108cd01528181610c6b0152610d9401526136f16000f3fe608060405234801561001057600080fd5b50600436106101005760003560e01c8063715018a611610097578063d6333e0b11610066578063d6333e0b1461028c578063e236fb16146102a8578063f2fde38b146102c4578063fc457792146102e057610100565b8063715018a61461022a57806389476069146102345780638da5cb5b14610250578063b9709cdc1461026e57610100565b806326b1893d116100d357806326b1893d146101a2578063571d578d146101d2578063596c2328146101f05780635c8161951461020e57610100565b806307e33bad146101055780630f765c01146101235780631581797b1461015457806315fca55514610172575b600080fd5b61010d6102fe565b60405161011a91906121a6565b60405180910390f35b61013d60048036038101906101389190612201565b610304565b60405161014b929190612308565b60405180910390f35b61015c6103d0565b6040516101699190612338565b60405180910390f35b61018c600480360381019061018791906123eb565b61045e565b60405161019991906121a6565b60405180910390f35b6101bc60048036038101906101b79190612201565b610898565b6040516101c9919061244b565b60405180910390f35b6101da6108cb565b6040516101e7919061244b565b60405180910390f35b6101f86108ef565b604051610205919061247f565b60405180910390f35b610228600480360381019061022391906124c6565b6108f5565b005b610232610d06565b005b61024e60048036038101906102499190612544565b610d8e565b005b610258610ea3565b604051610265919061244b565b60405180910390f35b610276610ecd565b604051610283919061247f565b60405180910390f35b6102a660048036038101906102a191906126a1565b610ed3565b005b6102c260048036038101906102bd91906126ea565b610fa0565b005b6102de60048036038101906102d9919061273d565b611142565b005b6102e8611239565b6040516102f5919061244b565b60405180910390f35b600c5481565b600860205280600052604060002060009150905080600001805461032790612799565b80601f016020809104026020016040519081016040528092919081815260200182805461035390612799565b80156103a05780601f10610375576101008083540402835291602001916103a0565b820191906000526020600020905b81548152906001019060200180831161038357829003601f168201915b5050505050908060010160009054906101000a900473ffffffffffffffffffffffffffffffffffffffff16905082565b600980546103dd90612799565b80601f016020809104026020016040519081016040528092919081815260200182805461040990612799565b80156104565780601f1061042b57610100808354040283529160200191610456565b820191906000526020600020905b81548152906001019060200180831161043957829003601f168201915b505050505081565b60007f000000000000000000000000000000000000000000000000000000000000000073ffffffffffffffffffffffffffffffffffffffff163373ffffffffffffffffffffffffffffffffffffffff16146104ee576040517f08c379a00000000000000000000000000000000000000000000000000000000081526004016104e59061283c565b60405180910390fd5b600073ffffffffffffffffffffffffffffffffffffffff1660076000868660405160200161051d92919061288c565b60405160208183030381529060405280519060200120815260200190815260200160002060009054906101000a900473ffffffffffffffffffffffffffffffffffffffff1673ffffffffffffffffffffffffffffffffffffffff16146105b8576040517f08c379a00000000000000000000000000000000000000000000000000000000081526004016105af906128f1565b60405180910390fd5b600084849050116105fe576040517f08c379a00000000000000000000000000000000000000000000000000000000081526004016105f59061295d565b60405180910390fd5b6000610614600c5430635c81619560e01b61125f565b90506106ac6040518060400160405280600381526020017f676574000000000000000000000000000000000000000000000000000000000081525061069c87878080601f016020809104026020016040519081016040528093929190818152602001838380828437600081840152601f19601f82011690508083019250505050505050611290565b836112bc9092919063ffffffff16565b61072b6040518060400160405280600481526020017f70617468000000000000000000000000000000000000000000000000000000008152506040518060400160405280600981526020017f7468726573686f6c640000000000000000000000000000000000000000000000815250836112bc9092919063ffffffff16565b6107766040518060400160405280600581526020017f74696d65730000000000000000000000000000000000000000000000000000008152506001836112ef9092919063ffffffff16565b6107a5600b60009054906101000a900473ffffffffffffffffffffffffffffffffffffffff1682600d54611322565b9150604051806040016040528086868080601f016020809104026020016040519081016040528093929190818152602001838380828437600081840152601f19601f8201169050808301925050505050505081526020018473ffffffffffffffffffffffffffffffffffffffff16815250600860008481526020019081526020016000206000820151816000019080519060200190610845929190612023565b5060208201518160010160006101000a81548173ffffffffffffffffffffffffffffffffffffffff021916908373ffffffffffffffffffffffffffffffffffffffff160217905550905050509392505050565b60076020528060005260406000206000915054906101000a900473ffffffffffffffffffffffffffffffffffffffff1681565b7f000000000000000000000000000000000000000000000000000000000000000081565b600d5481565b816005600082815260200190815260200160002060009054906101000a900473ffffffffffffffffffffffffffffffffffffffff1673ffffffffffffffffffffffffffffffffffffffff163373ffffffffffffffffffffffffffffffffffffffff1614610997576040517f08c379a000000000000000000000000000000000000000000000000000000000815260040161098e906129ef565b60405180910390fd5b6005600082815260200190815260200160002060006101000a81549073ffffffffffffffffffffffffffffffffffffffff0219169055807f7cc135e0cebb02c3480ae5d74d377283180a2601f8f644edf7987b009316c63a60405160405180910390a2600060086000858152602001908152602001600020604051806040016040529081600082018054610a2a90612799565b80601f0160208091040260200160405190810160405280929190818152602001828054610a5690612799565b8015610aa35780601f10610a7857610100808354040283529160200191610aa3565b820191906000526020600020905b815481529060010190602001808311610a8657829003601f168201915b505050505081526020016001820160009054906101000a900473ffffffffffffffffffffffffffffffffffffffff1673ffffffffffffffffffffffffffffffffffffffff1673ffffffffffffffffffffffffffffffffffffffff168152505090506008600085815260200190815260200160002060008082016000610b2891906120a9565b6001820160006101000a81549073ffffffffffffffffffffffffffffffffffffffff0219169055505060008160000151604051602001610b689190612a40565b604051602081830303815290604052805190602001209050610b89846113ee565b15610bd4577f5bde2ce4aa035ae6e6b7794e40bcf27ea1a2116032317ba9024f82778b1ace0281836020015186604051610bc593929190612a57565b60405180910390a15050610d01565b81602001516007600083815260200190815260200160002060006101000a81548173ffffffffffffffffffffffffffffffffffffffff021916908373ffffffffffffffffffffffffffffffffffffffff1602179055507f36d7f7dbac0e2f59ccb350bbef42a2a1823e8102ebbee390b9724f97975d45d581836020015186604051610c6193929190612a57565b60405180910390a17f000000000000000000000000000000000000000000000000000000000000000073ffffffffffffffffffffffffffffffffffffffff1663e4270299836020015184600001516040518363ffffffff1660e01b8152600401610ccc929190612aed565b600060405180830381600087803b158015610ce657600080fd5b505af1158015610cfa573d6000803e3d6000fd5b5050505050505b505050565b610d0e6113fd565b73ffffffffffffffffffffffffffffffffffffffff16610d2c610ea3565b73ffffffffffffffffffffffffffffffffffffffff1614610d82576040517f08c379a0000000000000000000000000000000000000000000000000000000008152600401610d7990612b69565b60405180910390fd5b610d8c6000611405565b565b610ea0817f000000000000000000000000000000000000000000000000000000000000000073ffffffffffffffffffffffffffffffffffffffff16638da5cb5b6040518163ffffffff1660e01b8152600401602060405180830381865afa158015610dfd573d6000803e3d6000fd5b505050506040513d601f19601f82011682018060405250810190610e219190612b9e565b8373ffffffffffffffffffffffffffffffffffffffff166370a08231306040518263ffffffff1660e01b8152600401610e5a919061244b565b602060405180830381865afa158015610e77573d6000803e3d6000fd5b505050506040513d601f19601f82011682018060405250810190610e9b9190612be0565b6114cb565b50565b6000600660009054906101000a900473ffffffffffffffffffffffffffffffffffffffff16905090565b600a5481565b610edb6113fd565b73ffffffffffffffffffffffffffffffffffffffff16610ef9610ea3565b73ffffffffffffffffffffffffffffffffffffffff1614610f4f576040517f08c379a0000000000000000000000000000000000000000000000000000000008152600401610f4690612b69565b60405180910390fd5b8060099080519060200190610f65929190612023565b507fb6c4f180f069ea11b10bddee1ac0ae6ffa41fcb3ae92e869582f316df1f2f14e81604051610f959190612338565b60405180910390a150565b610fa86113fd565b73ffffffffffffffffffffffffffffffffffffffff16610fc6610ea3565b73ffffffffffffffffffffffffffffffffffffffff161461101c576040517f08c379a000000000000000000000000000000000000000000000000000000000815260040161101390612b69565b60405180910390fd5b600073ffffffffffffffffffffffffffffffffffffffff168373ffffffffffffffffffffffffffffffffffffffff160361108b576040517f08c379a000000000000000000000000000000000000000000000000000000000815260040161108290612c59565b60405180910390fd5b6000600b60009054906101000a900473ffffffffffffffffffffffffffffffffffffffff16905083600b60006101000a81548173ffffffffffffffffffffffffffffffffffffffff021916908373ffffffffffffffffffffffffffffffffffffffff16021790555082600c8190555081600d819055507f5608168c8125345db8098e55c10e36cbcca4a6ad8f02318e8c0963820413b29c81858560405161113493929190612c79565b60405180910390a150505050565b61114a6113fd565b73ffffffffffffffffffffffffffffffffffffffff16611168610ea3565b73ffffffffffffffffffffffffffffffffffffffff16146111be576040517f08c379a00000000000000000000000000000000000000000000000000000000081526004016111b590612b69565b60405180910390fd5b600073ffffffffffffffffffffffffffffffffffffffff168173ffffffffffffffffffffffffffffffffffffffff160361122d576040517f08c379a000000000000000000000000000000000000000000000000000000000815260040161122490612d22565b60405180910390fd5b61123681611405565b50565b600b60009054906101000a900473ffffffffffffffffffffffffffffffffffffffff1681565b6112676120e9565b61126f6120e9565b61128685858584611551909392919063ffffffff16565b9150509392505050565b60606009826040516020016112a6929190612dfc565b6040516020818303038152906040529050919050565b6112d382846080015161160190919063ffffffff16565b6112ea81846080015161160190919063ffffffff16565b505050565b61130682846080015161160190919063ffffffff16565b61131d81846080015161162690919063ffffffff16565b505050565b60008060045490506001816113379190612e5e565b6004819055506000634042994660e01b60008087600001513089604001518760018c6080015160000151604051602401611378989796959493929190612f44565b604051602081830303815290604052907bffffffffffffffffffffffffffffffffffffffffffffffffffffffff19166020820180517bffffffffffffffffffffffffffffffffffffffffffffffffffffffff838183161783525050505090506113e3868386846116d3565b925050509392505050565b6000600a548211159050919050565b600033905090565b6000600660009054906101000a900473ffffffffffffffffffffffffffffffffffffffff16905081600660006101000a81548173ffffffffffffffffffffffffffffffffffffffff021916908373ffffffffffffffffffffffffffffffffffffffff1602179055508173ffffffffffffffffffffffffffffffffffffffff168173ffffffffffffffffffffffffffffffffffffffff167f8be0079c531659141344cd1fd0a4f28419497f9722a3daafe3b4186f6b6457e060405160405180910390a35050565b61154c8363a9059cbb60e01b84846040516024016114ea929190612fc9565b604051602081830303815290604052907bffffffffffffffffffffffffffffffffffffffffffffffffffffffff19166020820180517bffffffffffffffffffffffffffffffffffffffffffffffffffffffff8381831617835250505050611868565b505050565b6115596120e9565b611569856080015161010061192f565b508385600001818152505082856020019073ffffffffffffffffffffffffffffffffffffffff16908173ffffffffffffffffffffffffffffffffffffffff16815250508185604001907bffffffffffffffffffffffffffffffffffffffffffffffffffffffff191690817bffffffffffffffffffffffffffffffffffffffffffffffffffffffff191681525050849050949350505050565b61160e8260038351611999565b6116218183611b1e90919063ffffffff16565b505050565b7fffffffffffffffffffffffffffffffffffffffffffffffff000000000000000081121561165d576116588282611b40565b6116cf565b67ffffffffffffffff81131561167c576116778282611bb7565b6116ce565b600081126116955761169082600083611999565b6116cd565b6116cc826001837fffffffffffffffffffffffffffffffffffffffffffffffffffffffffffffffff6116c79190612ffc565b611999565b5b5b5b5050565b600030846040516020016116e892919061310b565b604051602081830303815290604052805190602001209050846005600083815260200190815260200160002060006101000a81548173ffffffffffffffffffffffffffffffffffffffff021916908373ffffffffffffffffffffffffffffffffffffffff160217905550807fb5e6e01e79f91267dc17b4e6314d5d4d03593d2ceee0fbb452b750bd70ea5af960405160405180910390a2600260009054906101000a900473ffffffffffffffffffffffffffffffffffffffff1673ffffffffffffffffffffffffffffffffffffffff16634000aea08685856040518463ffffffff1660e01b81526004016117de93929190613137565b6020604051808303816000875af11580156117fd573d6000803e3d6000fd5b505050506040513d601f19601f8201168201806040525081019061182191906131ad565b611860576040517f08c379a00000000000000000000000000000000000000000000000000000000081526004016118579061324c565b60405180910390fd5b949350505050565b60006118ca826040518060400160405280602081526020017f5361666545524332303a206c6f772d6c6576656c2063616c6c206661696c65648152508573ffffffffffffffffffffffffffffffffffffffff16611c039092919063ffffffff16565b905060008151111561192a57808060200190518101906118ea91906131ad565b611929576040517f08c379a0000000000000000000000000000000000000000000000000000000008152600401611920906132de565b60405180910390fd5b5b505050565b611937612156565b6000602083611946919061332d565b1461197257602082611958919061332d565b6020611964919061335e565b8261196f9190612e5e565b91505b81836020018181525050604051808452600081528281016020016040525082905092915050565b60178167ffffffffffffffff16116119d0576119ca8160058460ff16901b60ff161784611c1b90919063ffffffff16565b50611b19565b60ff8167ffffffffffffffff1611611a26576119ff601860058460ff16901b1784611c1b90919063ffffffff16565b50611a208167ffffffffffffffff16600185611c3b9092919063ffffffff16565b50611b18565b61ffff8167ffffffffffffffff1611611a7d57611a56601960058460ff16901b1784611c1b90919063ffffffff16565b50611a778167ffffffffffffffff16600285611c3b9092919063ffffffff16565b50611b17565b63ffffffff8167ffffffffffffffff1611611ad657611aaf601a60058460ff16901b1784611c1b90919063ffffffff16565b50611ad08167ffffffffffffffff16600485611c3b9092919063ffffffff16565b50611b16565b611af3601b60058460ff16901b1784611c1b90919063ffffffff16565b50611b148167ffffffffffffffff16600885611c3b9092919063ffffffff16565b505b5b5b5b505050565b611b26612156565b611b3883846000015151848551611c5d565b905092915050565b611b5e60036005600660ff16901b1783611c1b90919063ffffffff16565b50611bb382827fffffffffffffffffffffffffffffffffffffffffffffffffffffffffffffffff611b8f9190612ffc565b604051602001611b9f919061247f565b604051602081830303815290604052611d4c565b5050565b611bd560026005600660ff16901b1783611c1b90919063ffffffff16565b50611bff8282604051602001611beb919061247f565b604051602081830303815290604052611d4c565b5050565b6060611c128484600085611d71565b90509392505050565b611c23612156565b611c338384600001515184611e85565b905092915050565b611c43612156565b611c54848560000151518585611edb565b90509392505050565b611c65612156565b8251821115611c7357600080fd5b84602001518285611c849190612e5e565b1115611cb957611cb8856002611ca988602001518887611ca49190612e5e565b611f69565b611cb39190613392565b611f85565b5b600080865180518760208301019350808887011115611cd85787860182525b60208701925050505b60208410611d1f5780518252602082611cfa9190612e5e565b9150602081611d099190612e5e565b9050602084611d18919061335e565b9350611ce1565b60006001856020036101000a03905080198251168184511681811785525050508692505050949350505050565b611d598260028351611999565b611d6c8183611b1e90919063ffffffff16565b505050565b606082471015611db6576040517f08c379a0000000000000000000000000000000000000000000000000000000008152600401611dad9061345e565b60405180910390fd5b611dbf85611fa9565b611dfe576040517f08c379a0000000000000000000000000000000000000000000000000000000008152600401611df5906134ca565b60405180910390fd5b6000808673ffffffffffffffffffffffffffffffffffffffff168587604051611e279190613526565b60006040518083038185875af1925050503d8060008114611e64576040519150601f19603f3d011682016040523d82523d6000602084013e611e69565b606091505b5091509150611e79828286611fbc565b92505050949350505050565b611e8d612156565b83602001518310611eb357611eb28460028660200151611ead9190613392565b611f85565b5b83518051602085830101848153818603611ece576001820183525b5050508390509392505050565b611ee3612156565b84602001518483611ef49190612e5e565b1115611f1c57611f1b8560028685611f0c9190612e5e565b611f169190613392565b611f85565b5b6000600183610100611f2e9190613670565b611f38919061335e565b90508551838682010185831982511617815281518588011115611f5b5784870182525b505085915050949350505050565b600081831115611f7b57829050611f7f565b8190505b92915050565b600082600001519050611f98838361192f565b50611fa38382611b1e565b50505050565b600080823b905060008111915050919050565b60608315611fcc5782905061201c565b600083511115611fdf5782518084602001fd5b816040517f08c379a00000000000000000000000000000000000000000000000000000000081526004016120139190612338565b60405180910390fd5b9392505050565b82805461202f90612799565b90600052602060002090601f0160209004810192826120515760008555612098565b82601f1061206a57805160ff1916838001178555612098565b82800160010185558215612098579182015b8281111561209757825182559160200191906001019061207c565b5b5090506120a59190612170565b5090565b5080546120b590612799565b6000825580601f106120c757506120e6565b601f0160209004906000526020600020908101906120e59190612170565b5b50565b6040518060a0016040528060008019168152602001600073ffffffffffffffffffffffffffffffffffffffff16815260200160007bffffffffffffffffffffffffffffffffffffffffffffffffffffffff1916815260200160008152602001612150612156565b81525090565b604051806040016040528060608152602001600081525090565b5b80821115612189576000816000905550600101612171565b5090565b6000819050919050565b6121a08161218d565b82525050565b60006020820190506121bb6000830184612197565b92915050565b6000604051905090565b600080fd5b600080fd5b6121de8161218d565b81146121e957600080fd5b50565b6000813590506121fb816121d5565b92915050565b600060208284031215612217576122166121cb565b5b6000612225848285016121ec565b91505092915050565b600081519050919050565b600082825260208201905092915050565b60005b8381101561226857808201518184015260208101905061224d565b83811115612277576000848401525b50505050565b6000601f19601f8301169050919050565b60006122998261222e565b6122a38185612239565b93506122b381856020860161224a565b6122bc8161227d565b840191505092915050565b600073ffffffffffffffffffffffffffffffffffffffff82169050919050565b60006122f2826122c7565b9050919050565b612302816122e7565b82525050565b60006040820190508181036000830152612322818561228e565b905061233160208301846122f9565b9392505050565b60006020820190508181036000830152612352818461228e565b905092915050565b600080fd5b600080fd5b600080fd5b60008083601f84011261237f5761237e61235a565b5b8235905067ffffffffffffffff81111561239c5761239b61235f565b5b6020830191508360018202830111156123b8576123b7612364565b5b9250929050565b6123c8816122e7565b81146123d357600080fd5b50565b6000813590506123e5816123bf565b92915050565b600080600060408486031215612404576124036121cb565b5b600084013567ffffffffffffffff811115612422576124216121d0565b5b61242e86828701612369565b93509350506020612441868287016123d6565b9150509250925092565b600060208201905061246060008301846122f9565b92915050565b6000819050919050565b61247981612466565b82525050565b60006020820190506124946000830184612470565b92915050565b6124a381612466565b81146124ae57600080fd5b50565b6000813590506124c08161249a565b92915050565b600080604083850312156124dd576124dc6121cb565b5b60006124eb858286016121ec565b92505060206124fc858286016124b1565b9150509250929050565b6000612511826122e7565b9050919050565b61252181612506565b811461252c57600080fd5b50565b60008135905061253e81612518565b92915050565b60006020828403121561255a576125596121cb565b5b60006125688482850161252f565b91505092915050565b600080fd5b7f4e487b7100000000000000000000000000000000000000000000000000000000600052604160045260246000fd5b6125ae8261227d565b810181811067ffffffffffffffff821117156125cd576125cc612576565b5b80604052505050565b60006125e06121c1565b90506125ec82826125a5565b919050565b600067ffffffffffffffff82111561260c5761260b612576565b5b6126158261227d565b9050602081019050919050565b82818337600083830152505050565b600061264461263f846125f1565b6125d6565b9050828152602081018484840111156126605761265f612571565b5b61266b848285612622565b509392505050565b600082601f8301126126885761268761235a565b5b8135612698848260208601612631565b91505092915050565b6000602082840312156126b7576126b66121cb565b5b600082013567ffffffffffffffff8111156126d5576126d46121d0565b5b6126e184828501612673565b91505092915050565b600080600060608486031215612703576127026121cb565b5b6000612711868287016123d6565b9350506020612722868287016121ec565b9250506040612733868287016124b1565b9150509250925092565b600060208284031215612753576127526121cb565b5b6000612761848285016123d6565b91505092915050565b7f4e487b7100000000000000000000000000000000000000000000000000000000600052602260045260246000fd5b600060028204905060018216806127b157607f821691505b6020821081036127c4576127c361276a565b5b50919050565b7f41757468656e74696369747952656769737472793a204e6f7420417574656e7460008201527f69736b0000000000000000000000000000000000000000000000000000000000602082015250565b6000612826602383612239565b9150612831826127ca565b604082019050919050565b6000602082019050818103600083015261285581612819565b9050919050565b600081905092915050565b6000612873838561285c565b9350612880838584612622565b82840190509392505050565b6000612899828486612867565b91508190509392505050565b7f546f6b656e55524920686173206265656e207265676973746572656400000000600082015250565b60006128db601c83612239565b91506128e6826128a5565b602082019050919050565b6000602082019050818103600083015261290a816128ce565b9050919050565b7f546f6b656e205552492063616e277420626520656d7074790000000000000000600082015250565b6000612947601883612239565b915061295282612911565b602082019050919050565b600060208201905081810360008301526129768161293a565b9050919050565b7f536f75726365206d75737420626520746865206f7261636c65206f662074686560008201527f2072657175657374000000000000000000000000000000000000000000000000602082015250565b60006129d9602883612239565b91506129e48261297d565b604082019050919050565b60006020820190508181036000830152612a08816129cc565b9050919050565b6000612a1a8261222e565b612a24818561285c565b9350612a3481856020860161224a565b80840191505092915050565b6000612a4c8284612a0f565b915081905092915050565b6000606082019050612a6c6000830186612197565b612a7960208301856122f9565b612a866040830184612470565b949350505050565b6000819050919050565b6000612ab3612aae612aa9846122c7565b612a8e565b6122c7565b9050919050565b6000612ac582612a98565b9050919050565b6000612ad782612aba565b9050919050565b612ae781612acc565b82525050565b6000604082019050612b026000830185612ade565b8181036020830152612b14818461228e565b90509392505050565b7f4f776e61626c653a2063616c6c6572206973206e6f7420746865206f776e6572600082015250565b6000612b53602083612239565b9150612b5e82612b1d565b602082019050919050565b60006020820190508181036000830152612b8281612b46565b9050919050565b600081519050612b98816123bf565b92915050565b600060208284031215612bb457612bb36121cb565b5b6000612bc284828501612b89565b91505092915050565b600081519050612bda8161249a565b92915050565b600060208284031215612bf657612bf56121cb565b5b6000612c0484828501612bcb565b91505092915050565b7f496e76616c6964206f7261636c65206164647265737300000000000000000000600082015250565b6000612c43601683612239565b9150612c4e82612c0d565b602082019050919050565b60006020820190508181036000830152612c7281612c36565b9050919050565b6000606082019050612c8e60008301866122f9565b612c9b60208301856122f9565b612ca86040830184612197565b949350505050565b7f4f776e61626c653a206e6577206f776e657220697320746865207a65726f206160008201527f6464726573730000000000000000000000000000000000000000000000000000602082015250565b6000612d0c602683612239565b9150612d1782612cb0565b604082019050919050565b60006020820190508181036000830152612d3b81612cff565b9050919050565b60008190508160005260206000209050919050565b60008154612d6481612799565b612d6e818661285c565b94506001821660008114612d895760018114612d9a57612dcd565b60ff19831686528186019350612dcd565b612da385612d42565b60005b83811015612dc557815481890152600182019150602081019050612da6565b838801955050505b50505092915050565b7f3f746f6b656e5572693d00000000000000000000000000000000000000000000815250565b6000612e088285612d57565b9150612e1382612dd6565b600a82019150612e238284612a0f565b91508190509392505050565b7f4e487b7100000000000000000000000000000000000000000000000000000000600052601160045260246000fd5b6000612e6982612466565b9150612e7483612466565b9250827fffffffffffffffffffffffffffffffffffffffffffffffffffffffffffffffff03821115612ea957612ea8612e2f565b5b828201905092915050565b60007fffffffff0000000000000000000000000000000000000000000000000000000082169050919050565b612ee981612eb4565b82525050565b600081519050919050565b600082825260208201905092915050565b6000612f1682612eef565b612f208185612efa565b9350612f3081856020860161224a565b612f398161227d565b840191505092915050565b600061010082019050612f5a600083018b6122f9565b612f67602083018a612470565b612f746040830189612197565b612f8160608301886122f9565b612f8e6080830187612ee0565b612f9b60a0830186612470565b612fa860c0830185612470565b81810360e0830152612fba8184612f0b565b90509998505050505050505050565b6000604082019050612fde60008301856122f9565b612feb6020830184612470565b9392505050565b6000819050919050565b600061300782612ff2565b915061301283612ff2565b9250827f80000000000000000000000000000000000000000000000000000000000000000182126000841215161561304d5761304c612e2f565b5b827f7fffffffffffffffffffffffffffffffffffffffffffffffffffffffffffffff01821360008412161561308557613084612e2f565b5b828203905092915050565b600061309b82612aba565b9050919050565b60008160601b9050919050565b60006130ba826130a2565b9050919050565b60006130cc826130af565b9050919050565b6130e46130df82613090565b6130c1565b82525050565b6000819050919050565b61310561310082612466565b6130ea565b82525050565b600061311782856130d3565b60148201915061312782846130f4565b6020820191508190509392505050565b600060608201905061314c60008301866122f9565b6131596020830185612470565b818103604083015261316b8184612f0b565b9050949350505050565b60008115159050919050565b61318a81613175565b811461319557600080fd5b50565b6000815190506131a781613181565b92915050565b6000602082840312156131c3576131c26121cb565b5b60006131d184828501613198565b91505092915050565b7f756e61626c6520746f207472616e73666572416e6443616c6c20746f206f726160008201527f636c650000000000000000000000000000000000000000000000000000000000602082015250565b6000613236602383612239565b9150613241826131da565b604082019050919050565b6000602082019050818103600083015261326581613229565b9050919050565b7f5361666545524332303a204552433230206f7065726174696f6e20646964206e60008201527f6f74207375636365656400000000000000000000000000000000000000000000602082015250565b60006132c8602a83612239565b91506132d38261326c565b604082019050919050565b600060208201905081810360008301526132f7816132bb565b9050919050565b7f4e487b7100000000000000000000000000000000000000000000000000000000600052601260045260246000fd5b600061333882612466565b915061334383612466565b925082613353576133526132fe565b5b828206905092915050565b600061336982612466565b915061337483612466565b92508282101561338757613386612e2f565b5b828203905092915050565b600061339d82612466565b91506133a883612466565b9250817fffffffffffffffffffffffffffffffffffffffffffffffffffffffffffffffff04831182151516156133e1576133e0612e2f565b5b828202905092915050565b7f416464726573733a20696e73756666696369656e742062616c616e636520666f60008201527f722063616c6c0000000000000000000000000000000000000000000000000000602082015250565b6000613448602683612239565b9150613453826133ec565b604082019050919050565b600060208201905081810360008301526134778161343b565b9050919050565b7f416464726573733a2063616c6c20746f206e6f6e2d636f6e7472616374000000600082015250565b60006134b4601d83612239565b91506134bf8261347e565b602082019050919050565b600060208201905081810360008301526134e3816134a7565b9050919050565b600081905092915050565b600061350082612eef565b61350a81856134ea565b935061351a81856020860161224a565b80840191505092915050565b600061353282846134f5565b915081905092915050565b60008160011c9050919050565b6000808291508390505b6001851115613594578086048111156135705761356f612e2f565b5b600185161561357f5780820291505b808102905061358d8561353d565b9450613554565b94509492505050565b6000826135ad5760019050613669565b816135bb5760009050613669565b81600181146135d157600281146135db5761360a565b6001915050613669565b60ff8411156135ed576135ec612e2f565b5b8360020a91508482111561360457613603612e2f565b5b50613669565b5060208310610133831016604e8410600b841016171561363f5782820a90508381111561363a57613639612e2f565b5b613669565b61364c848484600161354a565b9250905081840481111561366357613662612e2f565b5b81810290505b9392505050565b600061367b82612466565b915061368683612466565b92506136b37fffffffffffffffffffffffffffffffffffffffffffffffffffffffffffffffff848461359d565b90509291505056fea2646970667358221220d78963450d1377dd6e8ba8ea18a62b1d473d6cdf3eec3978c5008c9cc72e4a2964736f6c634300080d0033",
  "devdoc": {
    "kind": "dev",
    "methods": {
      "owner()": {
        "details": "Returns the address of the current owner."
      },
      "renounceOwnership()": {
        "details": "Leaves the contract without owner. It will not be possible to call `onlyOwner` functions anymore. Can only be called by the current owner. NOTE: Renouncing ownership will leave the contract without an owner, thereby removing any functionality that is only available to the owner."
      },
      "transferOwnership(address)": {
        "details": "Transfers ownership of the contract to a new account (`newOwner`). Can only be called by the current owner."
      }
    },
    "version": 1
  },
  "userdoc": {
    "kind": "user",
    "methods": {},
    "version": 1
  },
  "storageLayout": {
    "storage": [
      {
        "astId": 2183,
        "contract": "contracts/marketplace/Autentisk.sol:Autentisk",
        "label": "_owner",
        "offset": 0,
        "slot": "0",
        "type": "t_address"
      },
      {
        "astId": 4355,
        "contract": "contracts/marketplace/Autentisk.sol:Autentisk",
        "label": "s_collectionOwners",
        "offset": 0,
        "slot": "1",
        "type": "t_mapping(t_contract(AutentiskERC721)4970,t_address)"
      },
      {
        "astId": 4357,
        "contract": "contracts/marketplace/Autentisk.sol:Autentisk",
        "label": "s_totalCollection",
        "offset": 0,
        "slot": "2",
        "type": "t_uint256"
      }
    ],
    "types": {
      "t_address": {
        "encoding": "inplace",
        "label": "address",
        "numberOfBytes": "20"
      },
      "t_contract(AutentiskERC721)4970": {
        "encoding": "inplace",
        "label": "contract AutentiskERC721",
        "numberOfBytes": "20"
      },
      "t_mapping(t_contract(AutentiskERC721)4970,t_address)": {
        "encoding": "mapping",
        "key": "t_contract(AutentiskERC721)4970",
        "label": "mapping(contract AutentiskERC721 => address)",
        "numberOfBytes": "32",
        "value": "t_address"
      },
      "t_uint256": {
        "encoding": "inplace",
        "label": "uint256",
        "numberOfBytes": "32"
      }
    }
  }
}