{
  "address": "0x2c6d34F6764728Fe071034a8fE91Ae47Af1e3611",
  "abi": [
    {
      "inputs": [
        {
          "internalType": "address",
          "name": "registry",
          "type": "address"
        }
      ],
      "stateMutability": "nonpayable",
      "type": "constructor"
    },
    {
      "anonymous": false,
      "inputs": [
        {
          "indexed": true,
          "internalType": "address",
          "name": "registry",
          "type": "address"
        }
      ],
      "name": "AuthenticityRegistryCreated",
      "type": "event"
    },
    {
      "anonymous": false,
      "inputs": [
        {
          "indexed": true,
          "internalType": "address",
          "name": "collectionAddress",
          "type": "address"
        }
      ],
      "name": "CollectionCreated",
      "type": "event"
    },
    {
      "anonymous": false,
      "inputs": [
        {
          "indexed": true,
          "internalType": "address",
          "name": "previousOwner",
          "type": "address"
        },
        {
          "indexed": true,
          "internalType": "address",
          "name": "newOwner",
          "type": "address"
        }
      ],
      "name": "OwnershipTransferred",
      "type": "event"
    },
    {
      "inputs": [],
      "name": "AUTHENTICITY_REGISTRY",
      "outputs": [
        {
          "internalType": "address",
          "name": "",
          "type": "address"
        }
      ],
      "stateMutability": "view",
      "type": "function"
    },
    {
      "inputs": [
        {
          "internalType": "string",
          "name": "name",
          "type": "string"
        },
        {
          "internalType": "string",
          "name": "symbol",
          "type": "string"
        }
      ],
      "name": "createCollection",
      "outputs": [],
      "stateMutability": "nonpayable",
      "type": "function"
    },
    {
      "inputs": [
        {
          "internalType": "contract AutentiskERC721",
          "name": "collection",
          "type": "address"
        },
        {
          "internalType": "address",
          "name": "to",
          "type": "address"
        },
        {
          "internalType": "string",
          "name": "tokenURI",
          "type": "string"
        }
      ],
      "name": "fulfillMint",
      "outputs": [],
      "stateMutability": "nonpayable",
      "type": "function"
    },
    {
      "inputs": [
        {
          "internalType": "contract AutentiskERC721",
          "name": "collection",
          "type": "address"
        },
        {
          "internalType": "address",
          "name": "to",
          "type": "address"
        },
        {
          "internalType": "string",
          "name": "tokenURI",
          "type": "string"
        },
        {
          "internalType": "string",
          "name": "encodedTokenURI",
          "type": "string"
        }
      ],
      "name": "mint",
      "outputs": [],
      "stateMutability": "nonpayable",
      "type": "function"
    },
    {
      "inputs": [],
      "name": "owner",
      "outputs": [
        {
          "internalType": "address",
          "name": "",
          "type": "address"
        }
      ],
      "stateMutability": "view",
      "type": "function"
    },
    {
      "inputs": [],
      "name": "renounceOwnership",
      "outputs": [],
      "stateMutability": "nonpayable",
      "type": "function"
    },
    {
      "inputs": [
        {
          "internalType": "contract AutentiskERC721",
          "name": "",
          "type": "address"
        }
      ],
      "name": "s_collectionOwners",
      "outputs": [
        {
          "internalType": "address",
          "name": "",
          "type": "address"
        }
      ],
      "stateMutability": "view",
      "type": "function"
    },
    {
      "inputs": [],
      "name": "s_totalCollection",
      "outputs": [
        {
          "internalType": "uint256",
          "name": "",
          "type": "uint256"
        }
      ],
      "stateMutability": "view",
      "type": "function"
    },
    {
      "inputs": [
        {
          "internalType": "address",
          "name": "newOwner",
          "type": "address"
        }
      ],
      "name": "transferOwnership",
      "outputs": [],
      "stateMutability": "nonpayable",
      "type": "function"
    }
  ],
  "transactionHash": "0x17a67464e033d96c7f49fa8d454384c679053411f9cffde79f3a22fc6a104660",
  "args": [
    "0x2835D604baD54219f4472ce865Fb78a3f5F4928c"
  ],
  "numDeployments": 18,
  "solcInputHash": "d9a5ee2a300b3dcc800dd6b6e01a7c38",
  "bytecode": "0x60a06040523480156200001157600080fd5b50604051620043ad380380620043ad83398181016040528101906200003791906200020d565b620000576200004b620000d760201b60201c565b620000df60201b60201c565b8073ffffffffffffffffffffffffffffffffffffffff1660808173ffffffffffffffffffffffffffffffffffffffff168152505060805173ffffffffffffffffffffffffffffffffffffffff167f3f03db0f3cc3b26768022d50b6a0384d6093bce24922d283674c636965f41fae60405160405180910390a2506200023f565b600033905090565b60008060009054906101000a900473ffffffffffffffffffffffffffffffffffffffff169050816000806101000a81548173ffffffffffffffffffffffffffffffffffffffff021916908373ffffffffffffffffffffffffffffffffffffffff1602179055508173ffffffffffffffffffffffffffffffffffffffff168173ffffffffffffffffffffffffffffffffffffffff167f8be0079c531659141344cd1fd0a4f28419497f9722a3daafe3b4186f6b6457e060405160405180910390a35050565b600080fd5b600073ffffffffffffffffffffffffffffffffffffffff82169050919050565b6000620001d582620001a8565b9050919050565b620001e781620001c8565b8114620001f357600080fd5b50565b6000815190506200020781620001dc565b92915050565b600060208284031215620002265762000225620001a3565b5b60006200023684828501620001f6565b91505092915050565b60805161414462000269600039600081816101ce015281816104e1015261061001526141446000f3fe60806040523480156200001157600080fd5b50600436106200009f5760003560e01c8063715018a6116200006f578063715018a6146200013a5780638da5cb5b14620001465780638ded87731462000168578063eb5a5e04146200018a578063f2fde38b14620001ac576200009f565b806259023614620000a4578063176b9b7514620000c45780634cace35914620000e4578063672dc5d01462000104575b600080fd5b620000c26004803603810190620000bc91906200093d565b620001cc565b005b620000e26004803603810190620000dc9190620009bd565b620002e9565b005b620001026004803603810190620000fc919062000a4b565b6200040e565b005b6200012260048036038101906200011c919062000b03565b62000594565b60405162000131919062000b46565b60405180910390f35b62000144620005c7565b005b62000150620005df565b6040516200015f919062000b46565b60405180910390f35b6200017262000608565b60405162000181919062000b7e565b60405180910390f35b620001946200060e565b604051620001a3919062000b46565b60405180910390f35b620001ca6004803603810190620001c4919062000b9b565b62000632565b005b7f000000000000000000000000000000000000000000000000000000000000000073ffffffffffffffffffffffffffffffffffffffff163373ffffffffffffffffffffffffffffffffffffffff16146200025d576040517f08c379a0000000000000000000000000000000000000000000000000000000008152600401620002549062000c54565b60405180910390fd5b8373ffffffffffffffffffffffffffffffffffffffff1663d0def5218484846040518463ffffffff1660e01b81526004016200029c9392919062000cc9565b6020604051808303816000875af1158015620002bc573d6000803e3d6000fd5b505050506040513d601f19601f82011682018060405250810190620002e2919062000d30565b5050505050565b600084848484604051620002fd906200080d565b6200030c949392919062000d62565b604051809103906000f08015801562000329573d6000803e3d6000fd5b50905033600160008373ffffffffffffffffffffffffffffffffffffffff1673ffffffffffffffffffffffffffffffffffffffff16815260200190815260200160002060006101000a81548173ffffffffffffffffffffffffffffffffffffffff021916908373ffffffffffffffffffffffffffffffffffffffff16021790555060026000815480929190620003bf9062000dd0565b91905055508073ffffffffffffffffffffffffffffffffffffffff167f75432e2e509efcaf947efcc7a5a6b6b3562425b29e9725c7a4a5c652291ac35d60405160405180910390a25050505050565b853373ffffffffffffffffffffffffffffffffffffffff16600160008373ffffffffffffffffffffffffffffffffffffffff1673ffffffffffffffffffffffffffffffffffffffff16815260200190815260200160002060009054906101000a900473ffffffffffffffffffffffffffffffffffffffff1673ffffffffffffffffffffffffffffffffffffffff1614620004df576040517f08c379a0000000000000000000000000000000000000000000000000000000008152600401620004d69062000e6d565b60405180910390fd5b7f000000000000000000000000000000000000000000000000000000000000000073ffffffffffffffffffffffffffffffffffffffff16638cfd435f87878787878d6040518763ffffffff1660e01b8152600401620005449695949392919062000e8f565b6020604051808303816000875af115801562000564573d6000803e3d6000fd5b505050506040513d601f19601f820116820180604052508101906200058a919062000f29565b5050505050505050565b60016020528060005260406000206000915054906101000a900473ffffffffffffffffffffffffffffffffffffffff1681565b620005d1620006bc565b620005dd600062000741565b565b60008060009054906101000a900473ffffffffffffffffffffffffffffffffffffffff16905090565b60025481565b7f000000000000000000000000000000000000000000000000000000000000000081565b6200063c620006bc565b600073ffffffffffffffffffffffffffffffffffffffff168173ffffffffffffffffffffffffffffffffffffffff1603620006ae576040517f08c379a0000000000000000000000000000000000000000000000000000000008152600401620006a59062000fd1565b60405180910390fd5b620006b98162000741565b50565b620006c662000805565b73ffffffffffffffffffffffffffffffffffffffff16620006e6620005df565b73ffffffffffffffffffffffffffffffffffffffff16146200073f576040517f08c379a0000000000000000000000000000000000000000000000000000000008152600401620007369062001043565b60405180910390fd5b565b60008060009054906101000a900473ffffffffffffffffffffffffffffffffffffffff169050816000806101000a81548173ffffffffffffffffffffffffffffffffffffffff021916908373ffffffffffffffffffffffffffffffffffffffff1602179055508173ffffffffffffffffffffffffffffffffffffffff168173ffffffffffffffffffffffffffffffffffffffff167f8be0079c531659141344cd1fd0a4f28419497f9722a3daafe3b4186f6b6457e060405160405180910390a35050565b600033905090565b6130a9806200106683390190565b600080fd5b600080fd5b600073ffffffffffffffffffffffffffffffffffffffff82169050919050565b6000620008528262000825565b9050919050565b6000620008668262000845565b9050919050565b620008788162000859565b81146200088457600080fd5b50565b60008135905062000898816200086d565b92915050565b620008a98162000845565b8114620008b557600080fd5b50565b600081359050620008c9816200089e565b92915050565b600080fd5b600080fd5b600080fd5b60008083601f840112620008f757620008f6620008cf565b5b8235905067ffffffffffffffff811115620009175762000916620008d4565b5b602083019150836001820283011115620009365762000935620008d9565b5b9250929050565b600080600080606085870312156200095a57620009596200081b565b5b60006200096a8782880162000887565b94505060206200097d87828801620008b8565b935050604085013567ffffffffffffffff811115620009a157620009a062000820565b5b620009af87828801620008de565b925092505092959194509250565b60008060008060408587031215620009da57620009d96200081b565b5b600085013567ffffffffffffffff811115620009fb57620009fa62000820565b5b62000a0987828801620008de565b9450945050602085013567ffffffffffffffff81111562000a2f5762000a2e62000820565b5b62000a3d87828801620008de565b925092505092959194509250565b6000806000806000806080878903121562000a6b5762000a6a6200081b565b5b600062000a7b89828a0162000887565b965050602062000a8e89828a01620008b8565b955050604087013567ffffffffffffffff81111562000ab25762000ab162000820565b5b62000ac089828a01620008de565b9450945050606087013567ffffffffffffffff81111562000ae65762000ae562000820565b5b62000af489828a01620008de565b92509250509295509295509295565b60006020828403121562000b1c5762000b1b6200081b565b5b600062000b2c8482850162000887565b91505092915050565b62000b408162000845565b82525050565b600060208201905062000b5d600083018462000b35565b92915050565b6000819050919050565b62000b788162000b63565b82525050565b600060208201905062000b95600083018462000b6d565b92915050565b60006020828403121562000bb45762000bb36200081b565b5b600062000bc484828501620008b8565b91505092915050565b600082825260208201905092915050565b7f417574656e7469736b3a204e6f742041757468656e746963697479526567697360008201527f7472790000000000000000000000000000000000000000000000000000000000602082015250565b600062000c3c60238362000bcd565b915062000c498262000bde565b604082019050919050565b6000602082019050818103600083015262000c6f8162000c2d565b9050919050565b82818337600083830152505050565b6000601f19601f8301169050919050565b600062000ca4838562000bcd565b935062000cb383858462000c76565b62000cbe8362000c85565b840190509392505050565b600060408201905062000ce0600083018662000b35565b818103602083015262000cf581848662000c96565b9050949350505050565b62000d0a8162000b63565b811462000d1657600080fd5b50565b60008151905062000d2a8162000cff565b92915050565b60006020828403121562000d495762000d486200081b565b5b600062000d598482850162000d19565b91505092915050565b6000604082019050818103600083015262000d7f81868862000c96565b9050818103602083015262000d9681848662000c96565b905095945050505050565b7f4e487b7100000000000000000000000000000000000000000000000000000000600052601160045260246000fd5b600062000ddd8262000b63565b91507fffffffffffffffffffffffffffffffffffffffffffffffffffffffffffffffff820362000e125762000e1162000da1565b5b600182019050919050565b7f417574656e7469736b3a204e6f7420636f6c6c656374696f6e206f776e657200600082015250565b600062000e55601f8362000bcd565b915062000e628262000e1d565b602082019050919050565b6000602082019050818103600083015262000e888162000e46565b9050919050565b600060808201905062000ea6600083018962000b35565b818103602083015262000ebb81878962000c96565b9050818103604083015262000ed281858762000c96565b905062000ee3606083018462000b35565b979650505050505050565b6000819050919050565b62000f038162000eee565b811462000f0f57600080fd5b50565b60008151905062000f238162000ef8565b92915050565b60006020828403121562000f425762000f416200081b565b5b600062000f528482850162000f12565b91505092915050565b7f4f776e61626c653a206e6577206f776e657220697320746865207a65726f206160008201527f6464726573730000000000000000000000000000000000000000000000000000602082015250565b600062000fb960268362000bcd565b915062000fc68262000f5b565b604082019050919050565b6000602082019050818103600083015262000fec8162000faa565b9050919050565b7f4f776e61626c653a2063616c6c6572206973206e6f7420746865206f776e6572600082015250565b60006200102b60208362000bcd565b9150620010388262000ff3565b602082019050919050565b600060208201905081810360008301526200105e816200101c565b905091905056fe60806040523480156200001157600080fd5b50604051620030a9380380620030a98339818101604052810190620000379190620003b0565b818181600090805190602001906200005192919062000163565b5080600190805190602001906200006a92919062000163565b5050506200008d620000816200009560201b60201c565b6200009d60201b60201c565b505062000499565b600033905090565b6000600760009054906101000a900473ffffffffffffffffffffffffffffffffffffffff16905081600760006101000a81548173ffffffffffffffffffffffffffffffffffffffff021916908373ffffffffffffffffffffffffffffffffffffffff1602179055508173ffffffffffffffffffffffffffffffffffffffff168173ffffffffffffffffffffffffffffffffffffffff167f8be0079c531659141344cd1fd0a4f28419497f9722a3daafe3b4186f6b6457e060405160405180910390a35050565b828054620001719062000464565b90600052602060002090601f016020900481019282620001955760008555620001e1565b82601f10620001b057805160ff1916838001178555620001e1565b82800160010185558215620001e1579182015b82811115620001e0578251825591602001919060010190620001c3565b5b509050620001f09190620001f4565b5090565b5b808211156200020f576000816000905550600101620001f5565b5090565b6000604051905090565b600080fd5b600080fd5b600080fd5b600080fd5b6000601f19601f8301169050919050565b7f4e487b7100000000000000000000000000000000000000000000000000000000600052604160045260246000fd5b6200027c8262000231565b810181811067ffffffffffffffff821117156200029e576200029d62000242565b5b80604052505050565b6000620002b362000213565b9050620002c1828262000271565b919050565b600067ffffffffffffffff821115620002e457620002e362000242565b5b620002ef8262000231565b9050602081019050919050565b60005b838110156200031c578082015181840152602081019050620002ff565b838111156200032c576000848401525b50505050565b6000620003496200034384620002c6565b620002a7565b9050828152602081018484840111156200036857620003676200022c565b5b62000375848285620002fc565b509392505050565b600082601f83011262000395576200039462000227565b5b8151620003a784826020860162000332565b91505092915050565b60008060408385031215620003ca57620003c96200021d565b5b600083015167ffffffffffffffff811115620003eb57620003ea62000222565b5b620003f9858286016200037d565b925050602083015167ffffffffffffffff8111156200041d576200041c62000222565b5b6200042b858286016200037d565b9150509250929050565b7f4e487b7100000000000000000000000000000000000000000000000000000000600052602260045260246000fd5b600060028204905060018216806200047d57607f821691505b60208210810362000493576200049262000435565b5b50919050565b612c0080620004a96000396000f3fe608060405234801561001057600080fd5b506004361061010b5760003560e01c8063715018a6116100a2578063b88d4fde11610071578063b88d4fde146102a4578063c87b56dd146102c0578063d0def521146102f0578063e985e9c514610320578063f2fde38b146103505761010b565b8063715018a6146102425780638da5cb5b1461024c57806395d89b411461026a578063a22cb465146102885761010b565b806323b872dd116100de57806323b872dd146101aa57806342842e0e146101c65780636352211e146101e257806370a08231146102125761010b565b806301ffc9a71461011057806306fdde0314610140578063081812fc1461015e578063095ea7b31461018e575b600080fd5b61012a60048036038101906101259190611b11565b61036c565b6040516101379190611b59565b60405180910390f35b61014861044e565b6040516101559190611c0d565b60405180910390f35b61017860048036038101906101739190611c65565b6104e0565b6040516101859190611cd3565b60405180910390f35b6101a860048036038101906101a39190611d1a565b610526565b005b6101c460048036038101906101bf9190611d5a565b61063d565b005b6101e060048036038101906101db9190611d5a565b61069d565b005b6101fc60048036038101906101f79190611c65565b6106bd565b6040516102099190611cd3565b60405180910390f35b61022c60048036038101906102279190611dad565b61076e565b6040516102399190611de9565b60405180910390f35b61024a610825565b005b610254610839565b6040516102619190611cd3565b60405180910390f35b610272610863565b60405161027f9190611c0d565b60405180910390f35b6102a2600480360381019061029d9190611e30565b6108f5565b005b6102be60048036038101906102b99190611fa5565b61090b565b005b6102da60048036038101906102d59190611c65565b61096d565b6040516102e79190611c0d565b60405180910390f35b61030a60048036038101906103059190612088565b610a7f565b6040516103179190611de9565b60405180910390f35b61033a600480360381019061033591906120e8565b610afe565b6040516103479190611b59565b60405180910390f35b61036a60048036038101906103659190611dad565b610b92565b005b60007f80ac58cd000000000000000000000000000000000000000000000000000000007bffffffffffffffffffffffffffffffffffffffffffffffffffffffff1916827bffffffffffffffffffffffffffffffffffffffffffffffffffffffff1916148061043757507f5b5e139f000000000000000000000000000000000000000000000000000000007bffffffffffffffffffffffffffffffffffffffffffffffffffffffff1916827bffffffffffffffffffffffffffffffffffffffffffffffffffffffff1916145b80610447575061044682610c15565b5b9050919050565b60606000805461045d90612157565b80601f016020809104026020016040519081016040528092919081815260200182805461048990612157565b80156104d65780601f106104ab576101008083540402835291602001916104d6565b820191906000526020600020905b8154815290600101906020018083116104b957829003601f168201915b5050505050905090565b60006104eb82610c7f565b6004600083815260200190815260200160002060009054906101000a900473ffffffffffffffffffffffffffffffffffffffff169050919050565b6000610531826106bd565b90508073ffffffffffffffffffffffffffffffffffffffff168373ffffffffffffffffffffffffffffffffffffffff16036105a1576040517f08c379a0000000000000000000000000000000000000000000000000000000008152600401610598906121fa565b60405180910390fd5b8073ffffffffffffffffffffffffffffffffffffffff166105c0610cca565b73ffffffffffffffffffffffffffffffffffffffff1614806105ef57506105ee816105e9610cca565b610afe565b5b61062e576040517f08c379a00000000000000000000000000000000000000000000000000000000081526004016106259061228c565b60405180910390fd5b6106388383610cd2565b505050565b61064e610648610cca565b82610d8b565b61068d576040517f08c379a00000000000000000000000000000000000000000000000000000000081526004016106849061231e565b60405180910390fd5b610698838383610e20565b505050565b6106b88383836040518060200160405280600081525061090b565b505050565b6000806002600084815260200190815260200160002060009054906101000a900473ffffffffffffffffffffffffffffffffffffffff169050600073ffffffffffffffffffffffffffffffffffffffff168173ffffffffffffffffffffffffffffffffffffffff1603610765576040517f08c379a000000000000000000000000000000000000000000000000000000000815260040161075c9061238a565b60405180910390fd5b80915050919050565b60008073ffffffffffffffffffffffffffffffffffffffff168273ffffffffffffffffffffffffffffffffffffffff16036107de576040517f08c379a00000000000000000000000000000000000000000000000000000000081526004016107d59061241c565b60405180910390fd5b600360008373ffffffffffffffffffffffffffffffffffffffff1673ffffffffffffffffffffffffffffffffffffffff168152602001908152602001600020549050919050565b61082d611086565b6108376000611104565b565b6000600760009054906101000a900473ffffffffffffffffffffffffffffffffffffffff16905090565b60606001805461087290612157565b80601f016020809104026020016040519081016040528092919081815260200182805461089e90612157565b80156108eb5780601f106108c0576101008083540402835291602001916108eb565b820191906000526020600020905b8154815290600101906020018083116108ce57829003601f168201915b5050505050905090565b610907610900610cca565b83836111ca565b5050565b61091c610916610cca565b83610d8b565b61095b576040517f08c379a00000000000000000000000000000000000000000000000000000000081526004016109529061231e565b60405180910390fd5b61096784848484611336565b50505050565b606061097882610c7f565b600060066000848152602001908152602001600020805461099890612157565b80601f01602080910402602001604051908101604052809291908181526020018280546109c490612157565b8015610a115780601f106109e657610100808354040283529160200191610a11565b820191906000526020600020905b8154815290600101906020018083116109f457829003601f168201915b505050505090506000610a22611392565b90506000815103610a37578192505050610a7a565b600082511115610a6c578082604051602001610a54929190612478565b60405160208183030381529060405292505050610a7a565b610a75846113a9565b925050505b919050565b6000610a89611086565b610a936008611411565b610a9d6008611427565b9050610aa98482611435565b610af78184848080601f016020809104026020016040519081016040528093929190818152602001838380828437600081840152601f19601f8201169050808301925050505050505061160e565b9392505050565b6000600560008473ffffffffffffffffffffffffffffffffffffffff1673ffffffffffffffffffffffffffffffffffffffff16815260200190815260200160002060008373ffffffffffffffffffffffffffffffffffffffff1673ffffffffffffffffffffffffffffffffffffffff16815260200190815260200160002060009054906101000a900460ff16905092915050565b610b9a611086565b600073ffffffffffffffffffffffffffffffffffffffff168173ffffffffffffffffffffffffffffffffffffffff1603610c09576040517f08c379a0000000000000000000000000000000000000000000000000000000008152600401610c009061250e565b60405180910390fd5b610c1281611104565b50565b60007f01ffc9a7000000000000000000000000000000000000000000000000000000007bffffffffffffffffffffffffffffffffffffffffffffffffffffffff1916827bffffffffffffffffffffffffffffffffffffffffffffffffffffffff1916149050919050565b610c8881611682565b610cc7576040517f08c379a0000000000000000000000000000000000000000000000000000000008152600401610cbe9061238a565b60405180910390fd5b50565b600033905090565b816004600083815260200190815260200160002060006101000a81548173ffffffffffffffffffffffffffffffffffffffff021916908373ffffffffffffffffffffffffffffffffffffffff160217905550808273ffffffffffffffffffffffffffffffffffffffff16610d45836106bd565b73ffffffffffffffffffffffffffffffffffffffff167f8c5be1e5ebec7d5bd14f71427d1e84f3dd0314c0f7b2291e5b200ac8c7c3b92560405160405180910390a45050565b600080610d97836106bd565b90508073ffffffffffffffffffffffffffffffffffffffff168473ffffffffffffffffffffffffffffffffffffffff161480610dd95750610dd88185610afe565b5b80610e1757508373ffffffffffffffffffffffffffffffffffffffff16610dff846104e0565b73ffffffffffffffffffffffffffffffffffffffff16145b91505092915050565b8273ffffffffffffffffffffffffffffffffffffffff16610e40826106bd565b73ffffffffffffffffffffffffffffffffffffffff1614610e96576040517f08c379a0000000000000000000000000000000000000000000000000000000008152600401610e8d906125a0565b60405180910390fd5b600073ffffffffffffffffffffffffffffffffffffffff168273ffffffffffffffffffffffffffffffffffffffff1603610f05576040517f08c379a0000000000000000000000000000000000000000000000000000000008152600401610efc90612632565b60405180910390fd5b610f108383836116ee565b610f1b600082610cd2565b6001600360008573ffffffffffffffffffffffffffffffffffffffff1673ffffffffffffffffffffffffffffffffffffffff1681526020019081526020016000206000828254610f6b9190612681565b925050819055506001600360008473ffffffffffffffffffffffffffffffffffffffff1673ffffffffffffffffffffffffffffffffffffffff1681526020019081526020016000206000828254610fc291906126b5565b92505081905550816002600083815260200190815260200160002060006101000a81548173ffffffffffffffffffffffffffffffffffffffff021916908373ffffffffffffffffffffffffffffffffffffffff160217905550808273ffffffffffffffffffffffffffffffffffffffff168473ffffffffffffffffffffffffffffffffffffffff167fddf252ad1be2c89b69c2b068fc378daa952ba7f163c4a11628f55a4df523b3ef60405160405180910390a46110818383836116f3565b505050565b61108e610cca565b73ffffffffffffffffffffffffffffffffffffffff166110ac610839565b73ffffffffffffffffffffffffffffffffffffffff1614611102576040517f08c379a00000000000000000000000000000000000000000000000000000000081526004016110f990612757565b60405180910390fd5b565b6000600760009054906101000a900473ffffffffffffffffffffffffffffffffffffffff16905081600760006101000a81548173ffffffffffffffffffffffffffffffffffffffff021916908373ffffffffffffffffffffffffffffffffffffffff1602179055508173ffffffffffffffffffffffffffffffffffffffff168173ffffffffffffffffffffffffffffffffffffffff167f8be0079c531659141344cd1fd0a4f28419497f9722a3daafe3b4186f6b6457e060405160405180910390a35050565b8173ffffffffffffffffffffffffffffffffffffffff168373ffffffffffffffffffffffffffffffffffffffff1603611238576040517f08c379a000000000000000000000000000000000000000000000000000000000815260040161122f906127c3565b60405180910390fd5b80600560008573ffffffffffffffffffffffffffffffffffffffff1673ffffffffffffffffffffffffffffffffffffffff16815260200190815260200160002060008473ffffffffffffffffffffffffffffffffffffffff1673ffffffffffffffffffffffffffffffffffffffff16815260200190815260200160002060006101000a81548160ff0219169083151502179055508173ffffffffffffffffffffffffffffffffffffffff168373ffffffffffffffffffffffffffffffffffffffff167f17307eab39ab6107e8899845ad3d59bd9653f200f220920489ca2b5937696c31836040516113299190611b59565b60405180910390a3505050565b611341848484610e20565b61134d848484846116f8565b61138c576040517f08c379a000000000000000000000000000000000000000000000000000000000815260040161138390612855565b60405180910390fd5b50505050565b606060405180602001604052806000815250905090565b60606113b482610c7f565b60006113be611392565b905060008151116113de5760405180602001604052806000815250611409565b806113e88461187f565b6040516020016113f9929190612478565b6040516020818303038152906040525b915050919050565b6001816000016000828254019250508190555050565b600081600001549050919050565b600073ffffffffffffffffffffffffffffffffffffffff168273ffffffffffffffffffffffffffffffffffffffff16036114a4576040517f08c379a000000000000000000000000000000000000000000000000000000000815260040161149b906128c1565b60405180910390fd5b6114ad81611682565b156114ed576040517f08c379a00000000000000000000000000000000000000000000000000000000081526004016114e49061292d565b60405180910390fd5b6114f9600083836116ee565b6001600360008473ffffffffffffffffffffffffffffffffffffffff1673ffffffffffffffffffffffffffffffffffffffff168152602001908152602001600020600082825461154991906126b5565b92505081905550816002600083815260200190815260200160002060006101000a81548173ffffffffffffffffffffffffffffffffffffffff021916908373ffffffffffffffffffffffffffffffffffffffff160217905550808273ffffffffffffffffffffffffffffffffffffffff16600073ffffffffffffffffffffffffffffffffffffffff167fddf252ad1be2c89b69c2b068fc378daa952ba7f163c4a11628f55a4df523b3ef60405160405180910390a461160a600083836116f3565b5050565b61161782611682565b611656576040517f08c379a000000000000000000000000000000000000000000000000000000000815260040161164d906129bf565b60405180910390fd5b8060066000848152602001908152602001600020908051906020019061167d929190611a02565b505050565b60008073ffffffffffffffffffffffffffffffffffffffff166002600084815260200190815260200160002060009054906101000a900473ffffffffffffffffffffffffffffffffffffffff1673ffffffffffffffffffffffffffffffffffffffff1614159050919050565b505050565b505050565b60006117198473ffffffffffffffffffffffffffffffffffffffff166119df565b15611872578373ffffffffffffffffffffffffffffffffffffffff1663150b7a02611742610cca565b8786866040518563ffffffff1660e01b81526004016117649493929190612a34565b6020604051808303816000875af19250505080156117a057506040513d601f19601f8201168201806040525081019061179d9190612a95565b60015b611822573d80600081146117d0576040519150601f19603f3d011682016040523d82523d6000602084013e6117d5565b606091505b50600081510361181a576040517f08c379a000000000000000000000000000000000000000000000000000000000815260040161181190612855565b60405180910390fd5b805181602001fd5b63150b7a0260e01b7bffffffffffffffffffffffffffffffffffffffffffffffffffffffff1916817bffffffffffffffffffffffffffffffffffffffffffffffffffffffff191614915050611877565b600190505b949350505050565b6060600082036118c6576040518060400160405280600181526020017f300000000000000000000000000000000000000000000000000000000000000081525090506119da565b600082905060005b600082146118f85780806118e190612ac2565b915050600a826118f19190612b39565b91506118ce565b60008167ffffffffffffffff81111561191457611913611e7a565b5b6040519080825280601f01601f1916602001820160405280156119465781602001600182028036833780820191505090505b5090505b600085146119d35760018261195f9190612681565b9150600a8561196e9190612b6a565b603061197a91906126b5565b60f81b8183815181106119905761198f612b9b565b5b60200101907effffffffffffffffffffffffffffffffffffffffffffffffffffffffffffff1916908160001a905350600a856119cc9190612b39565b945061194a565b8093505050505b919050565b6000808273ffffffffffffffffffffffffffffffffffffffff163b119050919050565b828054611a0e90612157565b90600052602060002090601f016020900481019282611a305760008555611a77565b82601f10611a4957805160ff1916838001178555611a77565b82800160010185558215611a77579182015b82811115611a76578251825591602001919060010190611a5b565b5b509050611a849190611a88565b5090565b5b80821115611aa1576000816000905550600101611a89565b5090565b6000604051905090565b600080fd5b600080fd5b60007fffffffff0000000000000000000000000000000000000000000000000000000082169050919050565b611aee81611ab9565b8114611af957600080fd5b50565b600081359050611b0b81611ae5565b92915050565b600060208284031215611b2757611b26611aaf565b5b6000611b3584828501611afc565b91505092915050565b60008115159050919050565b611b5381611b3e565b82525050565b6000602082019050611b6e6000830184611b4a565b92915050565b600081519050919050565b600082825260208201905092915050565b60005b83811015611bae578082015181840152602081019050611b93565b83811115611bbd576000848401525b50505050565b6000601f19601f8301169050919050565b6000611bdf82611b74565b611be98185611b7f565b9350611bf9818560208601611b90565b611c0281611bc3565b840191505092915050565b60006020820190508181036000830152611c278184611bd4565b905092915050565b6000819050919050565b611c4281611c2f565b8114611c4d57600080fd5b50565b600081359050611c5f81611c39565b92915050565b600060208284031215611c7b57611c7a611aaf565b5b6000611c8984828501611c50565b91505092915050565b600073ffffffffffffffffffffffffffffffffffffffff82169050919050565b6000611cbd82611c92565b9050919050565b611ccd81611cb2565b82525050565b6000602082019050611ce86000830184611cc4565b92915050565b611cf781611cb2565b8114611d0257600080fd5b50565b600081359050611d1481611cee565b92915050565b60008060408385031215611d3157611d30611aaf565b5b6000611d3f85828601611d05565b9250506020611d5085828601611c50565b9150509250929050565b600080600060608486031215611d7357611d72611aaf565b5b6000611d8186828701611d05565b9350506020611d9286828701611d05565b9250506040611da386828701611c50565b9150509250925092565b600060208284031215611dc357611dc2611aaf565b5b6000611dd184828501611d05565b91505092915050565b611de381611c2f565b82525050565b6000602082019050611dfe6000830184611dda565b92915050565b611e0d81611b3e565b8114611e1857600080fd5b50565b600081359050611e2a81611e04565b92915050565b60008060408385031215611e4757611e46611aaf565b5b6000611e5585828601611d05565b9250506020611e6685828601611e1b565b9150509250929050565b600080fd5b600080fd5b7f4e487b7100000000000000000000000000000000000000000000000000000000600052604160045260246000fd5b611eb282611bc3565b810181811067ffffffffffffffff82111715611ed157611ed0611e7a565b5b80604052505050565b6000611ee4611aa5565b9050611ef08282611ea9565b919050565b600067ffffffffffffffff821115611f1057611f0f611e7a565b5b611f1982611bc3565b9050602081019050919050565b82818337600083830152505050565b6000611f48611f4384611ef5565b611eda565b905082815260208101848484011115611f6457611f63611e75565b5b611f6f848285611f26565b509392505050565b600082601f830112611f8c57611f8b611e70565b5b8135611f9c848260208601611f35565b91505092915050565b60008060008060808587031215611fbf57611fbe611aaf565b5b6000611fcd87828801611d05565b9450506020611fde87828801611d05565b9350506040611fef87828801611c50565b925050606085013567ffffffffffffffff8111156120105761200f611ab4565b5b61201c87828801611f77565b91505092959194509250565b600080fd5b600080fd5b60008083601f84011261204857612047611e70565b5b8235905067ffffffffffffffff81111561206557612064612028565b5b6020830191508360018202830111156120815761208061202d565b5b9250929050565b6000806000604084860312156120a1576120a0611aaf565b5b60006120af86828701611d05565b935050602084013567ffffffffffffffff8111156120d0576120cf611ab4565b5b6120dc86828701612032565b92509250509250925092565b600080604083850312156120ff576120fe611aaf565b5b600061210d85828601611d05565b925050602061211e85828601611d05565b9150509250929050565b7f4e487b7100000000000000000000000000000000000000000000000000000000600052602260045260246000fd5b6000600282049050600182168061216f57607f821691505b60208210810361218257612181612128565b5b50919050565b7f4552433732313a20617070726f76616c20746f2063757272656e74206f776e6560008201527f7200000000000000000000000000000000000000000000000000000000000000602082015250565b60006121e4602183611b7f565b91506121ef82612188565b604082019050919050565b60006020820190508181036000830152612213816121d7565b9050919050565b7f4552433732313a20617070726f76652063616c6c6572206973206e6f7420746f60008201527f6b656e206f776e6572206e6f7220617070726f76656420666f7220616c6c0000602082015250565b6000612276603e83611b7f565b91506122818261221a565b604082019050919050565b600060208201905081810360008301526122a581612269565b9050919050565b7f4552433732313a2063616c6c6572206973206e6f7420746f6b656e206f776e6560008201527f72206e6f7220617070726f766564000000000000000000000000000000000000602082015250565b6000612308602e83611b7f565b9150612313826122ac565b604082019050919050565b60006020820190508181036000830152612337816122fb565b9050919050565b7f4552433732313a20696e76616c696420746f6b656e2049440000000000000000600082015250565b6000612374601883611b7f565b915061237f8261233e565b602082019050919050565b600060208201905081810360008301526123a381612367565b9050919050565b7f4552433732313a2061646472657373207a65726f206973206e6f74206120766160008201527f6c6964206f776e65720000000000000000000000000000000000000000000000602082015250565b6000612406602983611b7f565b9150612411826123aa565b604082019050919050565b60006020820190508181036000830152612435816123f9565b9050919050565b600081905092915050565b600061245282611b74565b61245c818561243c565b935061246c818560208601611b90565b80840191505092915050565b60006124848285612447565b91506124908284612447565b91508190509392505050565b7f4f776e61626c653a206e6577206f776e657220697320746865207a65726f206160008201527f6464726573730000000000000000000000000000000000000000000000000000602082015250565b60006124f8602683611b7f565b91506125038261249c565b604082019050919050565b60006020820190508181036000830152612527816124eb565b9050919050565b7f4552433732313a207472616e736665722066726f6d20696e636f72726563742060008201527f6f776e6572000000000000000000000000000000000000000000000000000000602082015250565b600061258a602583611b7f565b91506125958261252e565b604082019050919050565b600060208201905081810360008301526125b98161257d565b9050919050565b7f4552433732313a207472616e7366657220746f20746865207a65726f2061646460008201527f7265737300000000000000000000000000000000000000000000000000000000602082015250565b600061261c602483611b7f565b9150612627826125c0565b604082019050919050565b6000602082019050818103600083015261264b8161260f565b9050919050565b7f4e487b7100000000000000000000000000000000000000000000000000000000600052601160045260246000fd5b600061268c82611c2f565b915061269783611c2f565b9250828210156126aa576126a9612652565b5b828203905092915050565b60006126c082611c2f565b91506126cb83611c2f565b9250827fffffffffffffffffffffffffffffffffffffffffffffffffffffffffffffffff03821115612700576126ff612652565b5b828201905092915050565b7f4f776e61626c653a2063616c6c6572206973206e6f7420746865206f776e6572600082015250565b6000612741602083611b7f565b915061274c8261270b565b602082019050919050565b6000602082019050818103600083015261277081612734565b9050919050565b7f4552433732313a20617070726f766520746f2063616c6c657200000000000000600082015250565b60006127ad601983611b7f565b91506127b882612777565b602082019050919050565b600060208201905081810360008301526127dc816127a0565b9050919050565b7f4552433732313a207472616e7366657220746f206e6f6e20455243373231526560008201527f63656976657220696d706c656d656e7465720000000000000000000000000000602082015250565b600061283f603283611b7f565b915061284a826127e3565b604082019050919050565b6000602082019050818103600083015261286e81612832565b9050919050565b7f4552433732313a206d696e7420746f20746865207a65726f2061646472657373600082015250565b60006128ab602083611b7f565b91506128b682612875565b602082019050919050565b600060208201905081810360008301526128da8161289e565b9050919050565b7f4552433732313a20746f6b656e20616c7265616479206d696e74656400000000600082015250565b6000612917601c83611b7f565b9150612922826128e1565b602082019050919050565b600060208201905081810360008301526129468161290a565b9050919050565b7f45524337323155524953746f726167653a2055524920736574206f66206e6f6e60008201527f6578697374656e7420746f6b656e000000000000000000000000000000000000602082015250565b60006129a9602e83611b7f565b91506129b48261294d565b604082019050919050565b600060208201905081810360008301526129d88161299c565b9050919050565b600081519050919050565b600082825260208201905092915050565b6000612a06826129df565b612a1081856129ea565b9350612a20818560208601611b90565b612a2981611bc3565b840191505092915050565b6000608082019050612a496000830187611cc4565b612a566020830186611cc4565b612a636040830185611dda565b8181036060830152612a7581846129fb565b905095945050505050565b600081519050612a8f81611ae5565b92915050565b600060208284031215612aab57612aaa611aaf565b5b6000612ab984828501612a80565b91505092915050565b6000612acd82611c2f565b91507fffffffffffffffffffffffffffffffffffffffffffffffffffffffffffffffff8203612aff57612afe612652565b5b600182019050919050565b7f4e487b7100000000000000000000000000000000000000000000000000000000600052601260045260246000fd5b6000612b4482611c2f565b9150612b4f83611c2f565b925082612b5f57612b5e612b0a565b5b828204905092915050565b6000612b7582611c2f565b9150612b8083611c2f565b925082612b9057612b8f612b0a565b5b828206905092915050565b7f4e487b7100000000000000000000000000000000000000000000000000000000600052603260045260246000fdfea2646970667358221220515cfa6b656ec04148a03f95389aa72ed7bfc67659b2173614e5205de354a6be64736f6c634300080d0033a2646970667358221220c5ff5c2f8205842c9311b980c59f755de64aa3e43104c6e1214874e959df107864736f6c634300080d0033",
  "devdoc": {
    "kind": "dev",
    "methods": {
      "owner()": {
        "details": "Returns the address of the current owner."
      },
      "renounceOwnership()": {
        "details": "Leaves the contract without owner. It will not be possible to call `onlyOwner` functions anymore. Can only be called by the current owner. NOTE: Renouncing ownership will leave the contract without an owner, thereby removing any functionality that is only available to the owner."
      },
      "transferOwnership(address)": {
        "details": "Transfers ownership of the contract to a new account (`newOwner`). Can only be called by the current owner."
      }
    },
    "version": 1
  },
  "userdoc": {
    "kind": "user",
    "methods": {},
    "version": 1
  },
  "storageLayout": {
    "storage": [
      {
        "astId": 2183,
        "contract": "contracts/marketplace/Autentisk.sol:Autentisk",
        "label": "_owner",
        "offset": 0,
        "slot": "0",
        "type": "t_address"
      },
      {
        "astId": 4514,
        "contract": "contracts/marketplace/Autentisk.sol:Autentisk",
        "label": "s_collectionOwners",
        "offset": 0,
        "slot": "1",
        "type": "t_mapping(t_contract(AutentiskERC721)5171,t_address)"
      },
      {
        "astId": 4516,
        "contract": "contracts/marketplace/Autentisk.sol:Autentisk",
        "label": "s_totalCollection",
        "offset": 0,
        "slot": "2",
        "type": "t_uint256"
      }
    ],
    "types": {
      "t_address": {
        "encoding": "inplace",
        "label": "address",
        "numberOfBytes": "20"
      },
      "t_contract(AutentiskERC721)5171": {
        "encoding": "inplace",
        "label": "contract AutentiskERC721",
        "numberOfBytes": "20"
      },
      "t_mapping(t_contract(AutentiskERC721)5171,t_address)": {
        "encoding": "mapping",
        "key": "t_contract(AutentiskERC721)5171",
        "label": "mapping(contract AutentiskERC721 => address)",
        "numberOfBytes": "32",
        "value": "t_address"
      },
      "t_uint256": {
        "encoding": "inplace",
        "label": "uint256",
        "numberOfBytes": "32"
      }
    }
  }
}