{
  "address": "0x3F4deE9d0EB974dF641541f06E0fbbBbdFAc75f1",
  "abi": [
    {
      "inputs": [
        {
          "internalType": "address",
          "name": "controller",
          "type": "address"
        },
        {
          "internalType": "address",
          "name": "autentisk",
          "type": "address"
        },
        {
          "internalType": "address",
          "name": "oracle",
          "type": "address"
        },
        {
          "internalType": "string",
          "name": "jobId",
          "type": "string"
        },
        {
          "internalType": "uint256",
          "name": "fee",
          "type": "uint256"
        },
        {
          "internalType": "string",
          "name": "classifierUrl",
          "type": "string"
        },
        {
          "internalType": "uint256",
          "name": "similarityThreshold",
          "type": "uint256"
        },
        {
          "internalType": "address",
          "name": "link",
          "type": "address"
        }
      ],
      "stateMutability": "nonpayable",
      "type": "constructor"
    },
    {
      "anonymous": false,
      "inputs": [
        {
          "indexed": false,
          "internalType": "bytes32",
          "name": "requestId",
          "type": "bytes32"
        },
        {
          "indexed": false,
          "internalType": "uint256",
          "name": "similarity",
          "type": "uint256"
        },
        {
          "indexed": false,
          "internalType": "bool",
          "name": "isAccepted",
          "type": "bool"
        }
      ],
      "name": "AuthenticityFulfilled",
      "type": "event"
    },
    {
      "anonymous": false,
      "inputs": [
        {
          "indexed": false,
          "internalType": "bytes32",
          "name": "uriSignature",
          "type": "bytes32"
        },
        {
          "indexed": false,
          "internalType": "address",
          "name": "collection",
          "type": "address"
        },
        {
          "indexed": false,
          "internalType": "bytes32",
          "name": "requestId",
          "type": "bytes32"
        }
      ],
      "name": "AuthenticityRequested",
      "type": "event"
    },
    {
      "anonymous": false,
      "inputs": [
        {
          "indexed": true,
          "internalType": "bytes32",
          "name": "id",
          "type": "bytes32"
        }
      ],
      "name": "ChainlinkCancelled",
      "type": "event"
    },
    {
      "anonymous": false,
      "inputs": [
        {
          "indexed": true,
          "internalType": "bytes32",
          "name": "id",
          "type": "bytes32"
        }
      ],
      "name": "ChainlinkFulfilled",
      "type": "event"
    },
    {
      "anonymous": false,
      "inputs": [
        {
          "indexed": true,
          "internalType": "bytes32",
          "name": "id",
          "type": "bytes32"
        }
      ],
      "name": "ChainlinkRequested",
      "type": "event"
    },
    {
      "anonymous": false,
      "inputs": [
        {
          "indexed": false,
          "internalType": "string",
          "name": "value",
          "type": "string"
        }
      ],
      "name": "ClassifierUrlChanged",
      "type": "event"
    },
    {
      "anonymous": false,
      "inputs": [
        {
          "indexed": false,
          "internalType": "address",
          "name": "prevOracle",
          "type": "address"
        },
        {
          "indexed": false,
          "internalType": "address",
          "name": "newOracle",
          "type": "address"
        },
        {
          "indexed": false,
          "internalType": "bytes32",
          "name": "jobId",
          "type": "bytes32"
        }
      ],
      "name": "OracleChanged",
      "type": "event"
    },
    {
      "anonymous": false,
      "inputs": [
        {
          "indexed": true,
          "internalType": "address",
          "name": "previousOwner",
          "type": "address"
        },
        {
          "indexed": true,
          "internalType": "address",
          "name": "newOwner",
          "type": "address"
        }
      ],
      "name": "OwnershipTransferred",
      "type": "event"
    },
    {
      "inputs": [],
      "name": "AUTENTISK",
      "outputs": [
        {
          "internalType": "address",
          "name": "",
          "type": "address"
        }
      ],
      "stateMutability": "view",
      "type": "function"
    },
    {
      "inputs": [
        {
          "internalType": "address",
          "name": "to",
          "type": "address"
        },
        {
          "internalType": "string",
          "name": "tokenURI",
          "type": "string"
        },
        {
          "internalType": "address",
          "name": "collection",
          "type": "address"
        }
      ],
      "name": "checkAuthenticity",
      "outputs": [
        {
          "internalType": "bytes32",
          "name": "requestId_",
          "type": "bytes32"
        }
      ],
      "stateMutability": "nonpayable",
      "type": "function"
    },
    {
      "inputs": [
        {
          "internalType": "bytes32",
          "name": "requestId",
          "type": "bytes32"
        },
        {
          "internalType": "uint256",
          "name": "similarity",
          "type": "uint256"
        }
      ],
      "name": "fulfillAuthenticity",
      "outputs": [],
      "stateMutability": "nonpayable",
      "type": "function"
    },
    {
      "inputs": [],
      "name": "owner",
      "outputs": [
        {
          "internalType": "address",
          "name": "",
          "type": "address"
        }
      ],
      "stateMutability": "view",
      "type": "function"
    },
    {
      "inputs": [],
      "name": "renounceOwnership",
      "outputs": [],
      "stateMutability": "nonpayable",
      "type": "function"
    },
    {
      "inputs": [
        {
          "internalType": "bytes32",
          "name": "",
          "type": "bytes32"
        }
      ],
      "name": "s_autentics",
      "outputs": [
        {
          "internalType": "address",
          "name": "",
          "type": "address"
        }
      ],
      "stateMutability": "view",
      "type": "function"
    },
    {
      "inputs": [
        {
          "internalType": "bytes32",
          "name": "",
          "type": "bytes32"
        }
      ],
      "name": "s_authenticityRequests",
      "outputs": [
        {
          "internalType": "address",
          "name": "to",
          "type": "address"
        },
        {
          "internalType": "string",
          "name": "tokenURI",
          "type": "string"
        },
        {
          "internalType": "address",
          "name": "collection",
          "type": "address"
        }
      ],
      "stateMutability": "view",
      "type": "function"
    },
    {
      "inputs": [],
      "name": "s_classifierUrl",
      "outputs": [
        {
          "internalType": "string",
          "name": "",
          "type": "string"
        }
      ],
      "stateMutability": "view",
      "type": "function"
    },
    {
      "inputs": [],
      "name": "s_fee",
      "outputs": [
        {
          "internalType": "uint256",
          "name": "",
          "type": "uint256"
        }
      ],
      "stateMutability": "view",
      "type": "function"
    },
    {
      "inputs": [],
      "name": "s_jobId",
      "outputs": [
        {
          "internalType": "bytes32",
          "name": "",
          "type": "bytes32"
        }
      ],
      "stateMutability": "view",
      "type": "function"
    },
    {
      "inputs": [],
      "name": "s_oracle",
      "outputs": [
        {
          "internalType": "address",
          "name": "",
          "type": "address"
        }
      ],
      "stateMutability": "view",
      "type": "function"
    },
    {
      "inputs": [],
      "name": "s_similarityThreshold",
      "outputs": [
        {
          "internalType": "uint256",
          "name": "",
          "type": "uint256"
        }
      ],
      "stateMutability": "view",
      "type": "function"
    },
    {
      "inputs": [
        {
          "internalType": "string",
          "name": "value",
          "type": "string"
        }
      ],
      "name": "setClassifierUrl",
      "outputs": [],
      "stateMutability": "nonpayable",
      "type": "function"
    },
    {
      "inputs": [
        {
          "internalType": "address",
          "name": "_oracle",
          "type": "address"
        },
        {
          "internalType": "bytes32",
          "name": "_jobId",
          "type": "bytes32"
        },
        {
          "internalType": "uint256",
          "name": "_fee",
          "type": "uint256"
        }
      ],
      "name": "setOracle",
      "outputs": [],
      "stateMutability": "nonpayable",
      "type": "function"
    },
    {
      "inputs": [
        {
          "internalType": "address",
          "name": "newOwner",
          "type": "address"
        }
      ],
      "name": "transferOwnership",
      "outputs": [],
      "stateMutability": "nonpayable",
      "type": "function"
    },
    {
      "inputs": [
        {
          "internalType": "contract IERC20",
          "name": "token",
          "type": "address"
        }
      ],
      "name": "withdrawToken",
      "outputs": [],
      "stateMutability": "nonpayable",
      "type": "function"
    }
  ],
  "transactionHash": "0xfae94d37bc7920986a5703edee9fafc5e71664f129b47873ef1317b5402043a3",
  "args": [
    "0xf38AA28118cAfe28799daC04C3d9B80C0fBD8343",
    "0xece80f79b735e50403fab3097e40ece58bfa9013",
    "0x3A56aE4a2831C3d3514b5D7Af5578E45eBDb7a40",
    "3b7ca0d48c7a4b2da9268456665d11ae",
    "10000000000000000",
    "https://autentisk-production.up.railway.app/",
    "1",
    "0x326c977e6efc84e512bb9c30f76e30c160ed06fb"
  ],
  "numDeployments": 1,
  "solcInputHash": "9fec4021d9457495d49a6fe56cf94b03",
  "bytecode": "0x60a060405260016004553480156200001657600080fd5b50604051620041e4380380620041e483398181016040528101906200003c9190620007bd565b6200005c62000050620000f660201b60201c565b620000fe60201b60201c565b6200006d88620000fe60201b60201c565b8673ffffffffffffffffffffffffffffffffffffffff1660808173ffffffffffffffffffffffffffffffffffffffff1681525050620000b281620001c460201b60201c565b620000d08686620000c3906200090d565b866200020860201b60201c565b620000e183620003c260201b60201c565b81600a81905550505050505050505062000ba5565b600033905090565b6000600660009054906101000a900473ffffffffffffffffffffffffffffffffffffffff16905081600660006101000a81548173ffffffffffffffffffffffffffffffffffffffff021916908373ffffffffffffffffffffffffffffffffffffffff1602179055508173ffffffffffffffffffffffffffffffffffffffff168173ffffffffffffffffffffffffffffffffffffffff167f8be0079c531659141344cd1fd0a4f28419497f9722a3daafe3b4186f6b6457e060405160405180910390a35050565b80600260006101000a81548173ffffffffffffffffffffffffffffffffffffffff021916908373ffffffffffffffffffffffffffffffffffffffff16021790555050565b62000218620000f660201b60201c565b73ffffffffffffffffffffffffffffffffffffffff166200023e620004a660201b60201c565b73ffffffffffffffffffffffffffffffffffffffff161462000297576040517f08c379a00000000000000000000000000000000000000000000000000000000081526004016200028e90620009de565b60405180910390fd5b600073ffffffffffffffffffffffffffffffffffffffff168373ffffffffffffffffffffffffffffffffffffffff160362000309576040517f08c379a0000000000000000000000000000000000000000000000000000000008152600401620003009062000a50565b60405180910390fd5b6000600b60009054906101000a900473ffffffffffffffffffffffffffffffffffffffff16905083600b60006101000a81548173ffffffffffffffffffffffffffffffffffffffff021916908373ffffffffffffffffffffffffffffffffffffffff16021790555082600c8190555081600d819055507f5608168c8125345db8098e55c10e36cbcca4a6ad8f02318e8c0963820413b29c818585604051620003b49392919062000a94565b60405180910390a150505050565b620003d2620000f660201b60201c565b73ffffffffffffffffffffffffffffffffffffffff16620003f8620004a660201b60201c565b73ffffffffffffffffffffffffffffffffffffffff161462000451576040517f08c379a00000000000000000000000000000000000000000000000000000000081526004016200044890620009de565b60405180910390fd5b806009908051906020019062000469929190620004d0565b507fb6c4f180f069ea11b10bddee1ac0ae6ffa41fcb3ae92e869582f316df1f2f14e816040516200049b919062000b1d565b60405180910390a150565b6000600660009054906101000a900473ffffffffffffffffffffffffffffffffffffffff16905090565b828054620004de9062000b70565b90600052602060002090601f0160209004810192826200050257600085556200054e565b82601f106200051d57805160ff19168380011785556200054e565b828001600101855582156200054e579182015b828111156200054d57825182559160200191906001019062000530565b5b5090506200055d919062000561565b5090565b5b808211156200057c57600081600090555060010162000562565b5090565b6000604051905090565b600080fd5b600080fd5b600073ffffffffffffffffffffffffffffffffffffffff82169050919050565b6000620005c18262000594565b9050919050565b620005d381620005b4565b8114620005df57600080fd5b50565b600081519050620005f381620005c8565b92915050565b600080fd5b600080fd5b6000601f19601f8301169050919050565b7f4e487b7100000000000000000000000000000000000000000000000000000000600052604160045260246000fd5b6200064e8262000603565b810181811067ffffffffffffffff8211171562000670576200066f62000614565b5b80604052505050565b60006200068562000580565b905062000693828262000643565b919050565b600067ffffffffffffffff821115620006b657620006b562000614565b5b620006c18262000603565b9050602081019050919050565b60005b83811015620006ee578082015181840152602081019050620006d1565b83811115620006fe576000848401525b50505050565b60006200071b620007158462000698565b62000679565b9050828152602081018484840111156200073a5762000739620005fe565b5b62000747848285620006ce565b509392505050565b600082601f830112620007675762000766620005f9565b5b81516200077984826020860162000704565b91505092915050565b6000819050919050565b620007978162000782565b8114620007a357600080fd5b50565b600081519050620007b7816200078c565b92915050565b600080600080600080600080610100898b031215620007e157620007e06200058a565b5b6000620007f18b828c01620005e2565b9850506020620008048b828c01620005e2565b9750506040620008178b828c01620005e2565b965050606089015167ffffffffffffffff8111156200083b576200083a6200058f565b5b620008498b828c016200074f565b95505060806200085c8b828c01620007a6565b94505060a089015167ffffffffffffffff81111562000880576200087f6200058f565b5b6200088e8b828c016200074f565b93505060c0620008a18b828c01620007a6565b92505060e0620008b48b828c01620005e2565b9150509295985092959890939650565b600081519050919050565b6000819050602082019050919050565b6000819050919050565b6000620008f78251620008df565b80915050919050565b600082821b905092915050565b60006200091a82620008c4565b826200092684620008cf565b90506200093381620008e9565b925060208210156200097657620009717fffffffffffffffffffffffffffffffffffffffffffffffffffffffffffffffff8360200360080262000900565b831692505b5050919050565b600082825260208201905092915050565b7f4f776e61626c653a2063616c6c6572206973206e6f7420746865206f776e6572600082015250565b6000620009c66020836200097d565b9150620009d3826200098e565b602082019050919050565b60006020820190508181036000830152620009f981620009b7565b9050919050565b7f496e76616c6964206f7261636c65206164647265737300000000000000000000600082015250565b600062000a386016836200097d565b915062000a458262000a00565b602082019050919050565b6000602082019050818103600083015262000a6b8162000a29565b9050919050565b62000a7d81620005b4565b82525050565b62000a8e81620008df565b82525050565b600060608201905062000aab600083018662000a72565b62000aba602083018562000a72565b62000ac9604083018462000a83565b949350505050565b600081519050919050565b600062000ae98262000ad1565b62000af581856200097d565b935062000b07818560208601620006ce565b62000b128162000603565b840191505092915050565b6000602082019050818103600083015262000b39818462000adc565b905092915050565b7f4e487b7100000000000000000000000000000000000000000000000000000000600052602260045260246000fd5b6000600282049050600182168062000b8957607f821691505b60208210810362000b9f5762000b9e62000b41565b5b50919050565b60805161360e62000bd6600039600081816104ba015281816108cf015281816109fd0152610c0d015261360e6000f3fe608060405234801561001057600080fd5b50600436106101005760003560e01c80638947606911610097578063da423b8911610066578063da423b8914610279578063e236fb16146102a9578063f2fde38b146102c5578063fc457792146102e157610100565b806389476069146102055780638da5cb5b14610221578063b9709cdc1461023f578063d6333e0b1461025d57610100565b8063571d578d116100d3578063571d578d146101a3578063596c2328146101c15780635c816195146101df578063715018a6146101fb57610100565b806307e33bad146101055780630f765c01146101235780631581797b1461015557806326b1893d14610173575b600080fd5b61010d6102ff565b60405161011a91906120eb565b60405180910390f35b61013d60048036038101906101389190612146565b610305565b60405161014c9392919061224d565b60405180910390f35b61015d6103f7565b60405161016a919061228b565b60405180910390f35b61018d60048036038101906101889190612146565b610485565b60405161019a91906122ad565b60405180910390f35b6101ab6104b8565b6040516101b891906122ad565b60405180910390f35b6101c96104dc565b6040516101d691906122e1565b60405180910390f35b6101f960048036038101906101f49190612328565b6104e2565b005b61020361096f565b005b61021f600480360381019061021a91906123a6565b6109f7565b005b610229610b0c565b60405161023691906122ad565b60405180910390f35b610247610b36565b60405161025491906122e1565b60405180910390f35b61027760048036038101906102729190612508565b610b3c565b005b610293600480360381019061028e91906125dd565b610c09565b6040516102a091906120eb565b60405180910390f35b6102c360048036038101906102be9190612651565b61109d565b005b6102df60048036038101906102da91906126a4565b61123f565b005b6102e9611336565b6040516102f691906122ad565b60405180910390f35b600c5481565b60086020528060005260406000206000915090508060000160009054906101000a900473ffffffffffffffffffffffffffffffffffffffff169080600101805461034e90612700565b80601f016020809104026020016040519081016040528092919081815260200182805461037a90612700565b80156103c75780601f1061039c576101008083540402835291602001916103c7565b820191906000526020600020905b8154815290600101906020018083116103aa57829003601f168201915b5050505050908060020160009054906101000a900473ffffffffffffffffffffffffffffffffffffffff16905083565b6009805461040490612700565b80601f016020809104026020016040519081016040528092919081815260200182805461043090612700565b801561047d5780601f106104525761010080835404028352916020019161047d565b820191906000526020600020905b81548152906001019060200180831161046057829003601f168201915b505050505081565b60076020528060005260406000206000915054906101000a900473ffffffffffffffffffffffffffffffffffffffff1681565b7f000000000000000000000000000000000000000000000000000000000000000081565b600d5481565b816005600082815260200190815260200160002060009054906101000a900473ffffffffffffffffffffffffffffffffffffffff1673ffffffffffffffffffffffffffffffffffffffff163373ffffffffffffffffffffffffffffffffffffffff1614610584576040517f08c379a000000000000000000000000000000000000000000000000000000000815260040161057b906127a3565b60405180910390fd5b6005600082815260200190815260200160002060006101000a81549073ffffffffffffffffffffffffffffffffffffffff0219169055807f7cc135e0cebb02c3480ae5d74d377283180a2601f8f644edf7987b009316c63a60405160405180910390a26000600860008581526020019081526020016000206040518060600160405290816000820160009054906101000a900473ffffffffffffffffffffffffffffffffffffffff1673ffffffffffffffffffffffffffffffffffffffff1673ffffffffffffffffffffffffffffffffffffffff16815260200160018201805461066d90612700565b80601f016020809104026020016040519081016040528092919081815260200182805461069990612700565b80156106e65780601f106106bb576101008083540402835291602001916106e6565b820191906000526020600020905b8154815290600101906020018083116106c957829003601f168201915b505050505081526020016002820160009054906101000a900473ffffffffffffffffffffffffffffffffffffffff1673ffffffffffffffffffffffffffffffffffffffff1673ffffffffffffffffffffffffffffffffffffffff1681525050905060086000858152602001908152602001600020600080820160006101000a81549073ffffffffffffffffffffffffffffffffffffffff02191690556001820160006107929190611f68565b6002820160006101000a81549073ffffffffffffffffffffffffffffffffffffffff02191690555050600081602001516040516020016107d291906127ff565b6040516020818303038152906040528051906020012090506107f38461135c565b1561083b577f037d8494b1c5a92b49688ff4c11a618ca51caa93543fb0448d9d3dfc720c47dd8585600060405161082c93929190612831565b60405180910390a1505061096a565b81604001516007600083815260200190815260200160002060006101000a81548173ffffffffffffffffffffffffffffffffffffffff021916908373ffffffffffffffffffffffffffffffffffffffff1602179055507f037d8494b1c5a92b49688ff4c11a618ca51caa93543fb0448d9d3dfc720c47dd858560016040516108c593929190612831565b60405180910390a17f000000000000000000000000000000000000000000000000000000000000000073ffffffffffffffffffffffffffffffffffffffff16625902368360400151846000015185602001516040518463ffffffff1660e01b8152600401610935939291906128c7565b600060405180830381600087803b15801561094f57600080fd5b505af1158015610963573d6000803e3d6000fd5b5050505050505b505050565b61097761136b565b73ffffffffffffffffffffffffffffffffffffffff16610995610b0c565b73ffffffffffffffffffffffffffffffffffffffff16146109eb576040517f08c379a00000000000000000000000000000000000000000000000000000000081526004016109e290612951565b60405180910390fd5b6109f56000611373565b565b610b09817f000000000000000000000000000000000000000000000000000000000000000073ffffffffffffffffffffffffffffffffffffffff16638da5cb5b6040518163ffffffff1660e01b8152600401602060405180830381865afa158015610a66573d6000803e3d6000fd5b505050506040513d601f19601f82011682018060405250810190610a8a9190612986565b8373ffffffffffffffffffffffffffffffffffffffff166370a08231306040518263ffffffff1660e01b8152600401610ac391906122ad565b602060405180830381865afa158015610ae0573d6000803e3d6000fd5b505050506040513d601f19601f82011682018060405250810190610b0491906129c8565b611439565b50565b6000600660009054906101000a900473ffffffffffffffffffffffffffffffffffffffff16905090565b600a5481565b610b4461136b565b73ffffffffffffffffffffffffffffffffffffffff16610b62610b0c565b73ffffffffffffffffffffffffffffffffffffffff1614610bb8576040517f08c379a0000000000000000000000000000000000000000000000000000000008152600401610baf90612951565b60405180910390fd5b8060099080519060200190610bce929190611fa8565b507fb6c4f180f069ea11b10bddee1ac0ae6ffa41fcb3ae92e869582f316df1f2f14e81604051610bfe919061228b565b60405180910390a150565b60007f000000000000000000000000000000000000000000000000000000000000000073ffffffffffffffffffffffffffffffffffffffff163373ffffffffffffffffffffffffffffffffffffffff1614610c99576040517f08c379a0000000000000000000000000000000000000000000000000000000008152600401610c9090612a67565b60405180910390fd5b60008484604051602001610cae929190612aac565b604051602081830303815290604052805190602001209050600073ffffffffffffffffffffffffffffffffffffffff166007600083815260200190815260200160002060009054906101000a900473ffffffffffffffffffffffffffffffffffffffff1673ffffffffffffffffffffffffffffffffffffffff1614610d68576040517f08c379a0000000000000000000000000000000000000000000000000000000008152600401610d5f90612b11565b60405180910390fd5b60008585905011610dae576040517f08c379a0000000000000000000000000000000000000000000000000000000008152600401610da590612b7d565b60405180910390fd5b6000610dc4600c5430635c81619560e01b6114bf565b9050610e5c6040518060400160405280600381526020017f6765740000000000000000000000000000000000000000000000000000000000815250610e4c88888080601f016020809104026020016040519081016040528093929190818152602001838380828437600081840152601f19601f820116905080830192505050505050506114f0565b8361151c9092919063ffffffff16565b610edb6040518060400160405280600481526020017f70617468000000000000000000000000000000000000000000000000000000008152506040518060400160405280600a81526020017f73696d696c6172697479000000000000000000000000000000000000000000008152508361151c9092919063ffffffff16565b610f0a600b60009054906101000a900473ffffffffffffffffffffffffffffffffffffffff1682600d5461154f565b925060405180606001604052808873ffffffffffffffffffffffffffffffffffffffff16815260200187878080601f016020809104026020016040519081016040528093929190818152602001838380828437600081840152601f19601f8201169050808301925050505050505081526020018573ffffffffffffffffffffffffffffffffffffffff168152506008600085815260200190815260200160002060008201518160000160006101000a81548173ffffffffffffffffffffffffffffffffffffffff021916908373ffffffffffffffffffffffffffffffffffffffff160217905550602082015181600101908051906020019061100d929190611fa8565b5060408201518160020160006101000a81548173ffffffffffffffffffffffffffffffffffffffff021916908373ffffffffffffffffffffffffffffffffffffffff1602179055509050507f8e86526ae5d5af3ffb2a36f51b7137df9b1096cd861a6a7c54183c02c8eb82df82858560405161108b93929190612b9d565b60405180910390a15050949350505050565b6110a561136b565b73ffffffffffffffffffffffffffffffffffffffff166110c3610b0c565b73ffffffffffffffffffffffffffffffffffffffff1614611119576040517f08c379a000000000000000000000000000000000000000000000000000000000815260040161111090612951565b60405180910390fd5b600073ffffffffffffffffffffffffffffffffffffffff168373ffffffffffffffffffffffffffffffffffffffff1603611188576040517f08c379a000000000000000000000000000000000000000000000000000000000815260040161117f90612c20565b60405180910390fd5b6000600b60009054906101000a900473ffffffffffffffffffffffffffffffffffffffff16905083600b60006101000a81548173ffffffffffffffffffffffffffffffffffffffff021916908373ffffffffffffffffffffffffffffffffffffffff16021790555082600c8190555081600d819055507f5608168c8125345db8098e55c10e36cbcca4a6ad8f02318e8c0963820413b29c81858560405161123193929190612c40565b60405180910390a150505050565b61124761136b565b73ffffffffffffffffffffffffffffffffffffffff16611265610b0c565b73ffffffffffffffffffffffffffffffffffffffff16146112bb576040517f08c379a00000000000000000000000000000000000000000000000000000000081526004016112b290612951565b60405180910390fd5b600073ffffffffffffffffffffffffffffffffffffffff168173ffffffffffffffffffffffffffffffffffffffff160361132a576040517f08c379a000000000000000000000000000000000000000000000000000000000815260040161132190612ce9565b60405180910390fd5b61133381611373565b50565b600b60009054906101000a900473ffffffffffffffffffffffffffffffffffffffff1681565b6000600a548210159050919050565b600033905090565b6000600660009054906101000a900473ffffffffffffffffffffffffffffffffffffffff16905081600660006101000a81548173ffffffffffffffffffffffffffffffffffffffff021916908373ffffffffffffffffffffffffffffffffffffffff1602179055508173ffffffffffffffffffffffffffffffffffffffff168173ffffffffffffffffffffffffffffffffffffffff167f8be0079c531659141344cd1fd0a4f28419497f9722a3daafe3b4186f6b6457e060405160405180910390a35050565b6114ba8363a9059cbb60e01b8484604051602401611458929190612d09565b604051602081830303815290604052907bffffffffffffffffffffffffffffffffffffffffffffffffffffffff19166020820180517bffffffffffffffffffffffffffffffffffffffffffffffffffffffff838183161783525050505061161b565b505050565b6114c761202e565b6114cf61202e565b6114e6858585846116e2909392919063ffffffff16565b9150509392505050565b6060600982604051602001611506929190612dec565b6040516020818303038152906040529050919050565b61153382846080015161179290919063ffffffff16565b61154a81846080015161179290919063ffffffff16565b505050565b60008060045490506001816115649190612e4e565b6004819055506000634042994660e01b60008087600001513089604001518760018c60800151600001516040516024016115a5989796959493929190612f34565b604051602081830303815290604052907bffffffffffffffffffffffffffffffffffffffffffffffffffffffff19166020820180517bffffffffffffffffffffffffffffffffffffffffffffffffffffffff83818316178352505050509050611610868386846117b7565b925050509392505050565b600061167d826040518060400160405280602081526020017f5361666545524332303a206c6f772d6c6576656c2063616c6c206661696c65648152508573ffffffffffffffffffffffffffffffffffffffff1661194c9092919063ffffffff16565b90506000815111156116dd578080602001905181019061169d9190612fe5565b6116dc576040517f08c379a00000000000000000000000000000000000000000000000000000000081526004016116d390613084565b60405180910390fd5b5b505050565b6116ea61202e565b6116fa8560800151610100611964565b508385600001818152505082856020019073ffffffffffffffffffffffffffffffffffffffff16908173ffffffffffffffffffffffffffffffffffffffff16815250508185604001907bffffffffffffffffffffffffffffffffffffffffffffffffffffffff191690817bffffffffffffffffffffffffffffffffffffffffffffffffffffffff191681525050849050949350505050565b61179f82600383516119ce565b6117b28183611b5390919063ffffffff16565b505050565b600030846040516020016117cc92919061311f565b604051602081830303815290604052805190602001209050846005600083815260200190815260200160002060006101000a81548173ffffffffffffffffffffffffffffffffffffffff021916908373ffffffffffffffffffffffffffffffffffffffff160217905550807fb5e6e01e79f91267dc17b4e6314d5d4d03593d2ceee0fbb452b750bd70ea5af960405160405180910390a2600260009054906101000a900473ffffffffffffffffffffffffffffffffffffffff1673ffffffffffffffffffffffffffffffffffffffff16634000aea08685856040518463ffffffff1660e01b81526004016118c29392919061314b565b6020604051808303816000875af11580156118e1573d6000803e3d6000fd5b505050506040513d601f19601f820116820180604052508101906119059190612fe5565b611944576040517f08c379a000000000000000000000000000000000000000000000000000000000815260040161193b906131fb565b60405180910390fd5b949350505050565b606061195b8484600085611b75565b90509392505050565b61196c61209b565b600060208361197b919061324a565b146119a75760208261198d919061324a565b6020611999919061327b565b826119a49190612e4e565b91505b81836020018181525050604051808452600081528281016020016040525082905092915050565b60178167ffffffffffffffff1611611a05576119ff8160058460ff16901b60ff161784611c8990919063ffffffff16565b50611b4e565b60ff8167ffffffffffffffff1611611a5b57611a34601860058460ff16901b1784611c8990919063ffffffff16565b50611a558167ffffffffffffffff16600185611ca99092919063ffffffff16565b50611b4d565b61ffff8167ffffffffffffffff1611611ab257611a8b601960058460ff16901b1784611c8990919063ffffffff16565b50611aac8167ffffffffffffffff16600285611ca99092919063ffffffff16565b50611b4c565b63ffffffff8167ffffffffffffffff1611611b0b57611ae4601a60058460ff16901b1784611c8990919063ffffffff16565b50611b058167ffffffffffffffff16600485611ca99092919063ffffffff16565b50611b4b565b611b28601b60058460ff16901b1784611c8990919063ffffffff16565b50611b498167ffffffffffffffff16600885611ca99092919063ffffffff16565b505b5b5b5b505050565b611b5b61209b565b611b6d83846000015151848551611ccb565b905092915050565b606082471015611bba576040517f08c379a0000000000000000000000000000000000000000000000000000000008152600401611bb190613321565b60405180910390fd5b611bc385611dba565b611c02576040517f08c379a0000000000000000000000000000000000000000000000000000000008152600401611bf99061338d565b60405180910390fd5b6000808673ffffffffffffffffffffffffffffffffffffffff168587604051611c2b91906133e9565b60006040518083038185875af1925050503d8060008114611c68576040519150601f19603f3d011682016040523d82523d6000602084013e611c6d565b606091505b5091509150611c7d828286611ddd565b92505050949350505050565b611c9161209b565b611ca18384600001515184611e44565b905092915050565b611cb161209b565b611cc2848560000151518585611e9a565b90509392505050565b611cd361209b565b8251821115611ce157600080fd5b84602001518285611cf29190612e4e565b1115611d2757611d26856002611d1788602001518887611d129190612e4e565b611f28565b611d219190613400565b611f44565b5b600080865180518760208301019350808887011115611d465787860182525b60208701925050505b60208410611d8d5780518252602082611d689190612e4e565b9150602081611d779190612e4e565b9050602084611d86919061327b565b9350611d4f565b60006001856020036101000a03905080198251168184511681811785525050508692505050949350505050565b6000808273ffffffffffffffffffffffffffffffffffffffff163b119050919050565b60608315611ded57829050611e3d565b600083511115611e005782518084602001fd5b816040517f08c379a0000000000000000000000000000000000000000000000000000000008152600401611e34919061228b565b60405180910390fd5b9392505050565b611e4c61209b565b83602001518310611e7257611e718460028660200151611e6c9190613400565b611f44565b5b83518051602085830101848153818603611e8d576001820183525b5050508390509392505050565b611ea261209b565b84602001518483611eb39190612e4e565b1115611edb57611eda8560028685611ecb9190612e4e565b611ed59190613400565b611f44565b5b6000600183610100611eed919061358d565b611ef7919061327b565b90508551838682010185831982511617815281518588011115611f1a5784870182525b505085915050949350505050565b600081831115611f3a57829050611f3e565b8190505b92915050565b600082600001519050611f578383611964565b50611f628382611b53565b50505050565b508054611f7490612700565b6000825580601f10611f865750611fa5565b601f016020900490600052602060002090810190611fa491906120b5565b5b50565b828054611fb490612700565b90600052602060002090601f016020900481019282611fd6576000855561201d565b82601f10611fef57805160ff191683800117855561201d565b8280016001018555821561201d579182015b8281111561201c578251825591602001919060010190612001565b5b50905061202a91906120b5565b5090565b6040518060a0016040528060008019168152602001600073ffffffffffffffffffffffffffffffffffffffff16815260200160007bffffffffffffffffffffffffffffffffffffffffffffffffffffffff191681526020016000815260200161209561209b565b81525090565b604051806040016040528060608152602001600081525090565b5b808211156120ce5760008160009055506001016120b6565b5090565b6000819050919050565b6120e5816120d2565b82525050565b600060208201905061210060008301846120dc565b92915050565b6000604051905090565b600080fd5b600080fd5b612123816120d2565b811461212e57600080fd5b50565b6000813590506121408161211a565b92915050565b60006020828403121561215c5761215b612110565b5b600061216a84828501612131565b91505092915050565b600073ffffffffffffffffffffffffffffffffffffffff82169050919050565b600061219e82612173565b9050919050565b6121ae81612193565b82525050565b600081519050919050565b600082825260208201905092915050565b60005b838110156121ee5780820151818401526020810190506121d3565b838111156121fd576000848401525b50505050565b6000601f19601f8301169050919050565b600061221f826121b4565b61222981856121bf565b93506122398185602086016121d0565b61224281612203565b840191505092915050565b600060608201905061226260008301866121a5565b81810360208301526122748185612214565b905061228360408301846121a5565b949350505050565b600060208201905081810360008301526122a58184612214565b905092915050565b60006020820190506122c260008301846121a5565b92915050565b6000819050919050565b6122db816122c8565b82525050565b60006020820190506122f660008301846122d2565b92915050565b612305816122c8565b811461231057600080fd5b50565b600081359050612322816122fc565b92915050565b6000806040838503121561233f5761233e612110565b5b600061234d85828601612131565b925050602061235e85828601612313565b9150509250929050565b600061237382612193565b9050919050565b61238381612368565b811461238e57600080fd5b50565b6000813590506123a08161237a565b92915050565b6000602082840312156123bc576123bb612110565b5b60006123ca84828501612391565b91505092915050565b600080fd5b600080fd5b7f4e487b7100000000000000000000000000000000000000000000000000000000600052604160045260246000fd5b61241582612203565b810181811067ffffffffffffffff82111715612434576124336123dd565b5b80604052505050565b6000612447612106565b9050612453828261240c565b919050565b600067ffffffffffffffff821115612473576124726123dd565b5b61247c82612203565b9050602081019050919050565b82818337600083830152505050565b60006124ab6124a684612458565b61243d565b9050828152602081018484840111156124c7576124c66123d8565b5b6124d2848285612489565b509392505050565b600082601f8301126124ef576124ee6123d3565b5b81356124ff848260208601612498565b91505092915050565b60006020828403121561251e5761251d612110565b5b600082013567ffffffffffffffff81111561253c5761253b612115565b5b612548848285016124da565b91505092915050565b61255a81612193565b811461256557600080fd5b50565b60008135905061257781612551565b92915050565b600080fd5b600080fd5b60008083601f84011261259d5761259c6123d3565b5b8235905067ffffffffffffffff8111156125ba576125b961257d565b5b6020830191508360018202830111156125d6576125d5612582565b5b9250929050565b600080600080606085870312156125f7576125f6612110565b5b600061260587828801612568565b945050602085013567ffffffffffffffff81111561262657612625612115565b5b61263287828801612587565b9350935050604061264587828801612568565b91505092959194509250565b60008060006060848603121561266a57612669612110565b5b600061267886828701612568565b935050602061268986828701612131565b925050604061269a86828701612313565b9150509250925092565b6000602082840312156126ba576126b9612110565b5b60006126c884828501612568565b91505092915050565b7f4e487b7100000000000000000000000000000000000000000000000000000000600052602260045260246000fd5b6000600282049050600182168061271857607f821691505b60208210810361272b5761272a6126d1565b5b50919050565b7f536f75726365206d75737420626520746865206f7261636c65206f662074686560008201527f2072657175657374000000000000000000000000000000000000000000000000602082015250565b600061278d6028836121bf565b915061279882612731565b604082019050919050565b600060208201905081810360008301526127bc81612780565b9050919050565b600081905092915050565b60006127d9826121b4565b6127e381856127c3565b93506127f38185602086016121d0565b80840191505092915050565b600061280b82846127ce565b915081905092915050565b60008115159050919050565b61282b81612816565b82525050565b600060608201905061284660008301866120dc565b61285360208301856122d2565b6128606040830184612822565b949350505050565b6000819050919050565b600061288d61288861288384612173565b612868565b612173565b9050919050565b600061289f82612872565b9050919050565b60006128b182612894565b9050919050565b6128c1816128a6565b82525050565b60006060820190506128dc60008301866128b8565b6128e960208301856121a5565b81810360408301526128fb8184612214565b9050949350505050565b7f4f776e61626c653a2063616c6c6572206973206e6f7420746865206f776e6572600082015250565b600061293b6020836121bf565b915061294682612905565b602082019050919050565b6000602082019050818103600083015261296a8161292e565b9050919050565b60008151905061298081612551565b92915050565b60006020828403121561299c5761299b612110565b5b60006129aa84828501612971565b91505092915050565b6000815190506129c2816122fc565b92915050565b6000602082840312156129de576129dd612110565b5b60006129ec848285016129b3565b91505092915050565b7f41757468656e74696369747952656769737472793a204e6f7420417574656e7460008201527f69736b0000000000000000000000000000000000000000000000000000000000602082015250565b6000612a516023836121bf565b9150612a5c826129f5565b604082019050919050565b60006020820190508181036000830152612a8081612a44565b9050919050565b6000612a9383856127c3565b9350612aa0838584612489565b82840190509392505050565b6000612ab9828486612a87565b91508190509392505050565b7f546f6b656e55524920686173206265656e207265676973746572656400000000600082015250565b6000612afb601c836121bf565b9150612b0682612ac5565b602082019050919050565b60006020820190508181036000830152612b2a81612aee565b9050919050565b7f546f6b656e205552492063616e277420626520656d7074790000000000000000600082015250565b6000612b676018836121bf565b9150612b7282612b31565b602082019050919050565b60006020820190508181036000830152612b9681612b5a565b9050919050565b6000606082019050612bb260008301866120dc565b612bbf60208301856121a5565b612bcc60408301846120dc565b949350505050565b7f496e76616c6964206f7261636c65206164647265737300000000000000000000600082015250565b6000612c0a6016836121bf565b9150612c1582612bd4565b602082019050919050565b60006020820190508181036000830152612c3981612bfd565b9050919050565b6000606082019050612c5560008301866121a5565b612c6260208301856121a5565b612c6f60408301846120dc565b949350505050565b7f4f776e61626c653a206e6577206f776e657220697320746865207a65726f206160008201527f6464726573730000000000000000000000000000000000000000000000000000602082015250565b6000612cd36026836121bf565b9150612cde82612c77565b604082019050919050565b60006020820190508181036000830152612d0281612cc6565b9050919050565b6000604082019050612d1e60008301856121a5565b612d2b60208301846122d2565b9392505050565b60008190508160005260206000209050919050565b60008154612d5481612700565b612d5e81866127c3565b94506001821660008114612d795760018114612d8a57612dbd565b60ff19831686528186019350612dbd565b612d9385612d32565b60005b83811015612db557815481890152600182019150602081019050612d96565b838801955050505b50505092915050565b7f3f746f6b656e5572693d00000000000000000000000000000000000000000000815250565b6000612df88285612d47565b9150612e0382612dc6565b600a82019150612e1382846127ce565b91508190509392505050565b7f4e487b7100000000000000000000000000000000000000000000000000000000600052601160045260246000fd5b6000612e59826122c8565b9150612e64836122c8565b9250827fffffffffffffffffffffffffffffffffffffffffffffffffffffffffffffffff03821115612e9957612e98612e1f565b5b828201905092915050565b60007fffffffff0000000000000000000000000000000000000000000000000000000082169050919050565b612ed981612ea4565b82525050565b600081519050919050565b600082825260208201905092915050565b6000612f0682612edf565b612f108185612eea565b9350612f208185602086016121d0565b612f2981612203565b840191505092915050565b600061010082019050612f4a600083018b6121a5565b612f57602083018a6122d2565b612f6460408301896120dc565b612f7160608301886121a5565b612f7e6080830187612ed0565b612f8b60a08301866122d2565b612f9860c08301856122d2565b81810360e0830152612faa8184612efb565b90509998505050505050505050565b612fc281612816565b8114612fcd57600080fd5b50565b600081519050612fdf81612fb9565b92915050565b600060208284031215612ffb57612ffa612110565b5b600061300984828501612fd0565b91505092915050565b7f5361666545524332303a204552433230206f7065726174696f6e20646964206e60008201527f6f74207375636365656400000000000000000000000000000000000000000000602082015250565b600061306e602a836121bf565b915061307982613012565b604082019050919050565b6000602082019050818103600083015261309d81613061565b9050919050565b60006130af82612894565b9050919050565b60008160601b9050919050565b60006130ce826130b6565b9050919050565b60006130e0826130c3565b9050919050565b6130f86130f3826130a4565b6130d5565b82525050565b6000819050919050565b613119613114826122c8565b6130fe565b82525050565b600061312b82856130e7565b60148201915061313b8284613108565b6020820191508190509392505050565b600060608201905061316060008301866121a5565b61316d60208301856122d2565b818103604083015261317f8184612efb565b9050949350505050565b7f756e61626c6520746f207472616e73666572416e6443616c6c20746f206f726160008201527f636c650000000000000000000000000000000000000000000000000000000000602082015250565b60006131e56023836121bf565b91506131f082613189565b604082019050919050565b60006020820190508181036000830152613214816131d8565b9050919050565b7f4e487b7100000000000000000000000000000000000000000000000000000000600052601260045260246000fd5b6000613255826122c8565b9150613260836122c8565b9250826132705761326f61321b565b5b828206905092915050565b6000613286826122c8565b9150613291836122c8565b9250828210156132a4576132a3612e1f565b5b828203905092915050565b7f416464726573733a20696e73756666696369656e742062616c616e636520666f60008201527f722063616c6c0000000000000000000000000000000000000000000000000000602082015250565b600061330b6026836121bf565b9150613316826132af565b604082019050919050565b6000602082019050818103600083015261333a816132fe565b9050919050565b7f416464726573733a2063616c6c20746f206e6f6e2d636f6e7472616374000000600082015250565b6000613377601d836121bf565b915061338282613341565b602082019050919050565b600060208201905081810360008301526133a68161336a565b9050919050565b600081905092915050565b60006133c382612edf565b6133cd81856133ad565b93506133dd8185602086016121d0565b80840191505092915050565b60006133f582846133b8565b915081905092915050565b600061340b826122c8565b9150613416836122c8565b9250817fffffffffffffffffffffffffffffffffffffffffffffffffffffffffffffffff048311821515161561344f5761344e612e1f565b5b828202905092915050565b60008160011c9050919050565b6000808291508390505b60018511156134b15780860481111561348d5761348c612e1f565b5b600185161561349c5780820291505b80810290506134aa8561345a565b9450613471565b94509492505050565b6000826134ca5760019050613586565b816134d85760009050613586565b81600181146134ee57600281146134f857613527565b6001915050613586565b60ff84111561350a57613509612e1f565b5b8360020a91508482111561352157613520612e1f565b5b50613586565b5060208310610133831016604e8410600b841016171561355c5782820a90508381111561355757613556612e1f565b5b613586565b6135698484846001613467565b925090508184048111156135805761357f612e1f565b5b81810290505b9392505050565b6000613598826122c8565b91506135a3836122c8565b92506135d07fffffffffffffffffffffffffffffffffffffffffffffffffffffffffffffffff84846134ba565b90509291505056fea26469706673582212201342a3f33db270d29f8228b2615cd04fb494a74ea06866eafea9ce97fb739bc864736f6c634300080d0033",
  "devdoc": {
    "kind": "dev",
    "methods": {
      "owner()": {
        "details": "Returns the address of the current owner."
      },
      "renounceOwnership()": {
        "details": "Leaves the contract without owner. It will not be possible to call `onlyOwner` functions anymore. Can only be called by the current owner. NOTE: Renouncing ownership will leave the contract without an owner, thereby removing any functionality that is only available to the owner."
      },
      "transferOwnership(address)": {
        "details": "Transfers ownership of the contract to a new account (`newOwner`). Can only be called by the current owner."
      }
    },
    "version": 1
  },
  "userdoc": {
    "kind": "user",
    "methods": {},
    "version": 1
  },
  "storageLayout": {
    "storage": [
      {
        "astId": 319,
        "contract": "contracts/marketplace/AuthenticityRegistry.sol:AuthenticityRegistry",
        "label": "s_ens",
        "offset": 0,
        "slot": "0",
        "type": "t_contract(ENSInterface)974"
      },
      {
        "astId": 321,
        "contract": "contracts/marketplace/AuthenticityRegistry.sol:AuthenticityRegistry",
        "label": "s_ensNode",
        "offset": 0,
        "slot": "1",
        "type": "t_bytes32"
      },
      {
        "astId": 324,
        "contract": "contracts/marketplace/AuthenticityRegistry.sol:AuthenticityRegistry",
        "label": "s_link",
        "offset": 0,
        "slot": "2",
        "type": "t_contract(LinkTokenInterface)1069"
      },
      {
        "astId": 327,
        "contract": "contracts/marketplace/AuthenticityRegistry.sol:AuthenticityRegistry",
        "label": "s_oracle",
        "offset": 0,
        "slot": "3",
        "type": "t_contract(OperatorInterface)1149"
      },
      {
        "astId": 330,
        "contract": "contracts/marketplace/AuthenticityRegistry.sol:AuthenticityRegistry",
        "label": "s_requestCount",
        "offset": 0,
        "slot": "4",
        "type": "t_uint256"
      },
      {
        "astId": 334,
        "contract": "contracts/marketplace/AuthenticityRegistry.sol:AuthenticityRegistry",
        "label": "s_pendingRequests",
        "offset": 0,
        "slot": "5",
        "type": "t_mapping(t_bytes32,t_address)"
      },
      {
        "astId": 2183,
        "contract": "contracts/marketplace/AuthenticityRegistry.sol:AuthenticityRegistry",
        "label": "_owner",
        "offset": 0,
        "slot": "6",
        "type": "t_address"
      },
      {
        "astId": 4583,
        "contract": "contracts/marketplace/AuthenticityRegistry.sol:AuthenticityRegistry",
        "label": "s_autentics",
        "offset": 0,
        "slot": "7",
        "type": "t_mapping(t_bytes32,t_address)"
      },
      {
        "astId": 4588,
        "contract": "contracts/marketplace/AuthenticityRegistry.sol:AuthenticityRegistry",
        "label": "s_authenticityRequests",
        "offset": 0,
        "slot": "8",
        "type": "t_mapping(t_bytes32,t_struct(AuthenticityRequest)4549_storage)"
      },
      {
        "astId": 4590,
        "contract": "contracts/marketplace/AuthenticityRegistry.sol:AuthenticityRegistry",
        "label": "s_classifierUrl",
        "offset": 0,
        "slot": "9",
        "type": "t_string_storage"
      },
      {
        "astId": 4592,
        "contract": "contracts/marketplace/AuthenticityRegistry.sol:AuthenticityRegistry",
        "label": "s_similarityThreshold",
        "offset": 0,
        "slot": "10",
        "type": "t_uint256"
      },
      {
        "astId": 4594,
        "contract": "contracts/marketplace/AuthenticityRegistry.sol:AuthenticityRegistry",
        "label": "s_oracle",
        "offset": 0,
        "slot": "11",
        "type": "t_address"
      },
      {
        "astId": 4596,
        "contract": "contracts/marketplace/AuthenticityRegistry.sol:AuthenticityRegistry",
        "label": "s_jobId",
        "offset": 0,
        "slot": "12",
        "type": "t_bytes32"
      },
      {
        "astId": 4598,
        "contract": "contracts/marketplace/AuthenticityRegistry.sol:AuthenticityRegistry",
        "label": "s_fee",
        "offset": 0,
        "slot": "13",
        "type": "t_uint256"
      }
    ],
    "types": {
      "t_address": {
        "encoding": "inplace",
        "label": "address",
        "numberOfBytes": "20"
      },
      "t_bytes32": {
        "encoding": "inplace",
        "label": "bytes32",
        "numberOfBytes": "32"
      },
      "t_contract(ENSInterface)974": {
        "encoding": "inplace",
        "label": "contract ENSInterface",
        "numberOfBytes": "20"
      },
      "t_contract(LinkTokenInterface)1069": {
        "encoding": "inplace",
        "label": "contract LinkTokenInterface",
        "numberOfBytes": "20"
      },
      "t_contract(OperatorInterface)1149": {
        "encoding": "inplace",
        "label": "contract OperatorInterface",
        "numberOfBytes": "20"
      },
      "t_mapping(t_bytes32,t_address)": {
        "encoding": "mapping",
        "key": "t_bytes32",
        "label": "mapping(bytes32 => address)",
        "numberOfBytes": "32",
        "value": "t_address"
      },
      "t_mapping(t_bytes32,t_struct(AuthenticityRequest)4549_storage)": {
        "encoding": "mapping",
        "key": "t_bytes32",
        "label": "mapping(bytes32 => struct AuthenticityRegistry.AuthenticityRequest)",
        "numberOfBytes": "32",
        "value": "t_struct(AuthenticityRequest)4549_storage"
      },
      "t_string_storage": {
        "encoding": "bytes",
        "label": "string",
        "numberOfBytes": "32"
      },
      "t_struct(AuthenticityRequest)4549_storage": {
        "encoding": "inplace",
        "label": "struct AuthenticityRegistry.AuthenticityRequest",
        "members": [
          {
            "astId": 4544,
            "contract": "contracts/marketplace/AuthenticityRegistry.sol:AuthenticityRegistry",
            "label": "to",
            "offset": 0,
            "slot": "0",
            "type": "t_address"
          },
          {
            "astId": 4546,
            "contract": "contracts/marketplace/AuthenticityRegistry.sol:AuthenticityRegistry",
            "label": "tokenURI",
            "offset": 0,
            "slot": "1",
            "type": "t_string_storage"
          },
          {
            "astId": 4548,
            "contract": "contracts/marketplace/AuthenticityRegistry.sol:AuthenticityRegistry",
            "label": "collection",
            "offset": 0,
            "slot": "2",
            "type": "t_address"
          }
        ],
        "numberOfBytes": "96"
      },
      "t_uint256": {
        "encoding": "inplace",
        "label": "uint256",
        "numberOfBytes": "32"
      }
    }
  }
}