{
  "address": "0x7edAdc6F4Ab9f6270F202047515Db2a30Ef16d86",
  "abi": [
    {
      "inputs": [
        {
          "internalType": "address",
          "name": "controller",
          "type": "address"
        },
        {
          "internalType": "address",
          "name": "autentisk",
          "type": "address"
        },
        {
          "internalType": "address",
          "name": "oracle",
          "type": "address"
        },
        {
          "internalType": "string",
          "name": "jobId",
          "type": "string"
        },
        {
          "internalType": "uint256",
          "name": "fee",
          "type": "uint256"
        },
        {
          "internalType": "string",
          "name": "classifierUrl",
          "type": "string"
        },
        {
          "internalType": "uint256",
          "name": "similarityThreshold",
          "type": "uint256"
        },
        {
          "internalType": "address",
          "name": "link",
          "type": "address"
        }
      ],
      "stateMutability": "nonpayable",
      "type": "constructor"
    },
    {
      "anonymous": false,
      "inputs": [
        {
          "indexed": false,
          "internalType": "bytes32",
          "name": "requestId",
          "type": "bytes32"
        },
        {
          "indexed": false,
          "internalType": "uint256",
          "name": "similarity",
          "type": "uint256"
        },
        {
          "indexed": false,
          "internalType": "bool",
          "name": "isAccepted",
          "type": "bool"
        }
      ],
      "name": "AuthenticityFulfilled",
      "type": "event"
    },
    {
      "anonymous": false,
      "inputs": [
        {
          "indexed": false,
          "internalType": "bytes32",
          "name": "uriSignature",
          "type": "bytes32"
        },
        {
          "indexed": false,
          "internalType": "address",
          "name": "collection",
          "type": "address"
        },
        {
          "indexed": false,
          "internalType": "bytes32",
          "name": "requestId",
          "type": "bytes32"
        }
      ],
      "name": "AuthenticityRequested",
      "type": "event"
    },
    {
      "anonymous": false,
      "inputs": [
        {
          "indexed": true,
          "internalType": "bytes32",
          "name": "id",
          "type": "bytes32"
        }
      ],
      "name": "ChainlinkCancelled",
      "type": "event"
    },
    {
      "anonymous": false,
      "inputs": [
        {
          "indexed": true,
          "internalType": "bytes32",
          "name": "id",
          "type": "bytes32"
        }
      ],
      "name": "ChainlinkFulfilled",
      "type": "event"
    },
    {
      "anonymous": false,
      "inputs": [
        {
          "indexed": true,
          "internalType": "bytes32",
          "name": "id",
          "type": "bytes32"
        }
      ],
      "name": "ChainlinkRequested",
      "type": "event"
    },
    {
      "anonymous": false,
      "inputs": [
        {
          "indexed": false,
          "internalType": "string",
          "name": "value",
          "type": "string"
        }
      ],
      "name": "ClassifierUrlChanged",
      "type": "event"
    },
    {
      "anonymous": false,
      "inputs": [
        {
          "indexed": false,
          "internalType": "address",
          "name": "prevOracle",
          "type": "address"
        },
        {
          "indexed": false,
          "internalType": "address",
          "name": "newOracle",
          "type": "address"
        },
        {
          "indexed": false,
          "internalType": "bytes32",
          "name": "jobId",
          "type": "bytes32"
        }
      ],
      "name": "OracleChanged",
      "type": "event"
    },
    {
      "anonymous": false,
      "inputs": [
        {
          "indexed": true,
          "internalType": "address",
          "name": "previousOwner",
          "type": "address"
        },
        {
          "indexed": true,
          "internalType": "address",
          "name": "newOwner",
          "type": "address"
        }
      ],
      "name": "OwnershipTransferred",
      "type": "event"
    },
    {
      "inputs": [],
      "name": "AUTENTISK",
      "outputs": [
        {
          "internalType": "address",
          "name": "",
          "type": "address"
        }
      ],
      "stateMutability": "view",
      "type": "function"
    },
    {
      "inputs": [
        {
          "internalType": "address",
          "name": "to",
          "type": "address"
        },
        {
          "internalType": "string",
          "name": "tokenURI",
          "type": "string"
        },
        {
          "internalType": "string",
          "name": "encodedTokenURI",
          "type": "string"
        },
        {
          "internalType": "address",
          "name": "collection",
          "type": "address"
        }
      ],
      "name": "checkAuthenticity",
      "outputs": [
        {
          "internalType": "bytes32",
          "name": "requestId_",
          "type": "bytes32"
        }
      ],
      "stateMutability": "nonpayable",
      "type": "function"
    },
    {
      "inputs": [
        {
          "internalType": "bytes32",
          "name": "requestId",
          "type": "bytes32"
        },
        {
          "internalType": "uint256",
          "name": "similarity",
          "type": "uint256"
        }
      ],
      "name": "fulfillAuthenticity",
      "outputs": [],
      "stateMutability": "nonpayable",
      "type": "function"
    },
    {
      "inputs": [],
      "name": "owner",
      "outputs": [
        {
          "internalType": "address",
          "name": "",
          "type": "address"
        }
      ],
      "stateMutability": "view",
      "type": "function"
    },
    {
      "inputs": [],
      "name": "renounceOwnership",
      "outputs": [],
      "stateMutability": "nonpayable",
      "type": "function"
    },
    {
      "inputs": [
        {
          "internalType": "bytes32",
          "name": "",
          "type": "bytes32"
        }
      ],
      "name": "s_autentics",
      "outputs": [
        {
          "internalType": "address",
          "name": "",
          "type": "address"
        }
      ],
      "stateMutability": "view",
      "type": "function"
    },
    {
      "inputs": [
        {
          "internalType": "bytes32",
          "name": "",
          "type": "bytes32"
        }
      ],
      "name": "s_authenticityRequests",
      "outputs": [
        {
          "internalType": "address",
          "name": "to",
          "type": "address"
        },
        {
          "internalType": "string",
          "name": "tokenURI",
          "type": "string"
        },
        {
          "internalType": "address",
          "name": "collection",
          "type": "address"
        }
      ],
      "stateMutability": "view",
      "type": "function"
    },
    {
      "inputs": [],
      "name": "s_classifierUrl",
      "outputs": [
        {
          "internalType": "string",
          "name": "",
          "type": "string"
        }
      ],
      "stateMutability": "view",
      "type": "function"
    },
    {
      "inputs": [],
      "name": "s_fee",
      "outputs": [
        {
          "internalType": "uint256",
          "name": "",
          "type": "uint256"
        }
      ],
      "stateMutability": "view",
      "type": "function"
    },
    {
      "inputs": [],
      "name": "s_jobId",
      "outputs": [
        {
          "internalType": "bytes32",
          "name": "",
          "type": "bytes32"
        }
      ],
      "stateMutability": "view",
      "type": "function"
    },
    {
      "inputs": [],
      "name": "s_oracle",
      "outputs": [
        {
          "internalType": "address",
          "name": "",
          "type": "address"
        }
      ],
      "stateMutability": "view",
      "type": "function"
    },
    {
      "inputs": [
        {
          "internalType": "bytes32",
          "name": "",
          "type": "bytes32"
        }
      ],
      "name": "s_signatureToRequestId",
      "outputs": [
        {
          "internalType": "bytes32",
          "name": "",
          "type": "bytes32"
        }
      ],
      "stateMutability": "view",
      "type": "function"
    },
    {
      "inputs": [],
      "name": "s_similarityThreshold",
      "outputs": [
        {
          "internalType": "uint256",
          "name": "",
          "type": "uint256"
        }
      ],
      "stateMutability": "view",
      "type": "function"
    },
    {
      "inputs": [
        {
          "internalType": "string",
          "name": "value",
          "type": "string"
        }
      ],
      "name": "setClassifierUrl",
      "outputs": [],
      "stateMutability": "nonpayable",
      "type": "function"
    },
    {
      "inputs": [
        {
          "internalType": "address",
          "name": "_oracle",
          "type": "address"
        },
        {
          "internalType": "bytes32",
          "name": "_jobId",
          "type": "bytes32"
        },
        {
          "internalType": "uint256",
          "name": "_fee",
          "type": "uint256"
        }
      ],
      "name": "setOracle",
      "outputs": [],
      "stateMutability": "nonpayable",
      "type": "function"
    },
    {
      "inputs": [
        {
          "internalType": "address",
          "name": "newOwner",
          "type": "address"
        }
      ],
      "name": "transferOwnership",
      "outputs": [],
      "stateMutability": "nonpayable",
      "type": "function"
    },
    {
      "inputs": [
        {
          "internalType": "contract IERC20",
          "name": "token",
          "type": "address"
        }
      ],
      "name": "withdrawToken",
      "outputs": [],
      "stateMutability": "nonpayable",
      "type": "function"
    }
  ],
  "transactionHash": "0xcac94d9b1318c7e2aa9ccc33b5ea5981529c9591faacd911f2e661738df62104",
  "args": [
    "0xf38AA28118cAfe28799daC04C3d9B80C0fBD8343",
    "0x0f5fc969a2ec2c69dd6d9ff22ff4e9442f502944",
    "0xc8D925525CA8759812d0c299B90247917d4d4b7C",
    "bbf0badad29d49dc887504bacfbb905b",
    "10000000000000000",
    "https://autentisk-production.up.railway.app/",
    "500000000000000000",
    "0x326c977e6efc84e512bb9c30f76e30c160ed06fb"
  ],
  "numDeployments": 8,
  "solcInputHash": "320c961802a09210bca86f232b82af19",
  "bytecode": "0x60a060405260016004553480156200001657600080fd5b506040516200429a3803806200429a83398181016040528101906200003c9190620007bd565b6200005c62000050620000f660201b60201c565b620000fe60201b60201c565b6200006d88620000fe60201b60201c565b8673ffffffffffffffffffffffffffffffffffffffff1660808173ffffffffffffffffffffffffffffffffffffffff1681525050620000b281620001c460201b60201c565b620000d08686620000c3906200090d565b866200020860201b60201c565b620000e183620003c260201b60201c565b81600b81905550505050505050505062000ba5565b600033905090565b6000600660009054906101000a900473ffffffffffffffffffffffffffffffffffffffff16905081600660006101000a81548173ffffffffffffffffffffffffffffffffffffffff021916908373ffffffffffffffffffffffffffffffffffffffff1602179055508173ffffffffffffffffffffffffffffffffffffffff168173ffffffffffffffffffffffffffffffffffffffff167f8be0079c531659141344cd1fd0a4f28419497f9722a3daafe3b4186f6b6457e060405160405180910390a35050565b80600260006101000a81548173ffffffffffffffffffffffffffffffffffffffff021916908373ffffffffffffffffffffffffffffffffffffffff16021790555050565b62000218620000f660201b60201c565b73ffffffffffffffffffffffffffffffffffffffff166200023e620004a660201b60201c565b73ffffffffffffffffffffffffffffffffffffffff161462000297576040517f08c379a00000000000000000000000000000000000000000000000000000000081526004016200028e90620009de565b60405180910390fd5b600073ffffffffffffffffffffffffffffffffffffffff168373ffffffffffffffffffffffffffffffffffffffff160362000309576040517f08c379a0000000000000000000000000000000000000000000000000000000008152600401620003009062000a50565b60405180910390fd5b6000600c60009054906101000a900473ffffffffffffffffffffffffffffffffffffffff16905083600c60006101000a81548173ffffffffffffffffffffffffffffffffffffffff021916908373ffffffffffffffffffffffffffffffffffffffff16021790555082600d8190555081600e819055507f5608168c8125345db8098e55c10e36cbcca4a6ad8f02318e8c0963820413b29c818585604051620003b49392919062000a94565b60405180910390a150505050565b620003d2620000f660201b60201c565b73ffffffffffffffffffffffffffffffffffffffff16620003f8620004a660201b60201c565b73ffffffffffffffffffffffffffffffffffffffff161462000451576040517f08c379a00000000000000000000000000000000000000000000000000000000081526004016200044890620009de565b60405180910390fd5b80600a908051906020019062000469929190620004d0565b507fb6c4f180f069ea11b10bddee1ac0ae6ffa41fcb3ae92e869582f316df1f2f14e816040516200049b919062000b1d565b60405180910390a150565b6000600660009054906101000a900473ffffffffffffffffffffffffffffffffffffffff16905090565b828054620004de9062000b70565b90600052602060002090601f0160209004810192826200050257600085556200054e565b82601f106200051d57805160ff19168380011785556200054e565b828001600101855582156200054e579182015b828111156200054d57825182559160200191906001019062000530565b5b5090506200055d919062000561565b5090565b5b808211156200057c57600081600090555060010162000562565b5090565b6000604051905090565b600080fd5b600080fd5b600073ffffffffffffffffffffffffffffffffffffffff82169050919050565b6000620005c18262000594565b9050919050565b620005d381620005b4565b8114620005df57600080fd5b50565b600081519050620005f381620005c8565b92915050565b600080fd5b600080fd5b6000601f19601f8301169050919050565b7f4e487b7100000000000000000000000000000000000000000000000000000000600052604160045260246000fd5b6200064e8262000603565b810181811067ffffffffffffffff8211171562000670576200066f62000614565b5b80604052505050565b60006200068562000580565b905062000693828262000643565b919050565b600067ffffffffffffffff821115620006b657620006b562000614565b5b620006c18262000603565b9050602081019050919050565b60005b83811015620006ee578082015181840152602081019050620006d1565b83811115620006fe576000848401525b50505050565b60006200071b620007158462000698565b62000679565b9050828152602081018484840111156200073a5762000739620005fe565b5b62000747848285620006ce565b509392505050565b600082601f830112620007675762000766620005f9565b5b81516200077984826020860162000704565b91505092915050565b6000819050919050565b620007978162000782565b8114620007a357600080fd5b50565b600081519050620007b7816200078c565b92915050565b600080600080600080600080610100898b031215620007e157620007e06200058a565b5b6000620007f18b828c01620005e2565b9850506020620008048b828c01620005e2565b9750506040620008178b828c01620005e2565b965050606089015167ffffffffffffffff8111156200083b576200083a6200058f565b5b620008498b828c016200074f565b95505060806200085c8b828c01620007a6565b94505060a089015167ffffffffffffffff81111562000880576200087f6200058f565b5b6200088e8b828c016200074f565b93505060c0620008a18b828c01620007a6565b92505060e0620008b48b828c01620005e2565b9150509295985092959890939650565b600081519050919050565b6000819050602082019050919050565b6000819050919050565b6000620008f78251620008df565b80915050919050565b600082821b905092915050565b60006200091a82620008c4565b826200092684620008cf565b90506200093381620008e9565b925060208210156200097657620009717fffffffffffffffffffffffffffffffffffffffffffffffffffffffffffffffff8360200360080262000900565b831692505b5050919050565b600082825260208201905092915050565b7f4f776e61626c653a2063616c6c6572206973206e6f7420746865206f776e6572600082015250565b6000620009c66020836200097d565b9150620009d3826200098e565b602082019050919050565b60006020820190508181036000830152620009f981620009b7565b9050919050565b7f496e76616c6964206f7261636c65206164647265737300000000000000000000600082015250565b600062000a386016836200097d565b915062000a458262000a00565b602082019050919050565b6000602082019050818103600083015262000a6b8162000a29565b9050919050565b62000a7d81620005b4565b82525050565b62000a8e81620008df565b82525050565b600060608201905062000aab600083018662000a72565b62000aba602083018562000a72565b62000ac9604083018462000a83565b949350505050565b600081519050919050565b600062000ae98262000ad1565b62000af581856200097d565b935062000b07818560208601620006ce565b62000b128162000603565b840191505092915050565b6000602082019050818103600083015262000b39818462000adc565b905092915050565b7f4e487b7100000000000000000000000000000000000000000000000000000000600052602260045260246000fd5b6000600282049050600182168062000b8957607f821691505b60208210810362000b9f5762000b9e62000b41565b5b50919050565b6080516136c462000bd6600039600081816104f50152818161092101528181610a4f0152610b6201526136c46000f3fe608060405234801561001057600080fd5b506004361061010b5760003560e01c806389476069116100a2578063b9709cdc11610071578063b9709cdc146102aa578063d6333e0b146102c8578063e236fb16146102e4578063f2fde38b14610300578063fc4577921461031c5761010b565b806389476069146102105780638cfd435f1461022c5780638da5cb5b1461025c578063a76627161461027a5761010b565b8063571d578d116100de578063571d578d146101ae578063596c2328146101cc5780635c816195146101ea578063715018a6146102065761010b565b806307e33bad146101105780630f765c011461012e5780631581797b1461016057806326b1893d1461017e575b600080fd5b61011861033a565b604051610125919061216e565b60405180910390f35b610148600480360381019061014391906121c9565b610340565b604051610157939291906122d0565b60405180910390f35b610168610432565b604051610175919061230e565b60405180910390f35b610198600480360381019061019391906121c9565b6104c0565b6040516101a59190612330565b60405180910390f35b6101b66104f3565b6040516101c39190612330565b60405180910390f35b6101d4610517565b6040516101e19190612364565b60405180910390f35b61020460048036038101906101ff91906123ab565b61051d565b005b61020e6109c1565b005b61022a60048036038101906102259190612429565b610a49565b005b610246600480360381019061024191906124e7565b610b5e565b604051610253919061216e565b60405180910390f35b61026461100c565b6040516102719190612330565b60405180910390f35b610294600480360381019061028f91906121c9565b611036565b6040516102a1919061216e565b60405180910390f35b6102b261104e565b6040516102bf9190612364565b60405180910390f35b6102e260048036038101906102dd91906126be565b611054565b005b6102fe60048036038101906102f99190612707565b611121565b005b61031a6004803603810190610315919061275a565b6112c3565b005b6103246113ba565b6040516103319190612330565b60405180910390f35b600d5481565b60086020528060005260406000206000915090508060000160009054906101000a900473ffffffffffffffffffffffffffffffffffffffff1690806001018054610389906127b6565b80601f01602080910402602001604051908101604052809291908181526020018280546103b5906127b6565b80156104025780601f106103d757610100808354040283529160200191610402565b820191906000526020600020905b8154815290600101906020018083116103e557829003601f168201915b5050505050908060020160009054906101000a900473ffffffffffffffffffffffffffffffffffffffff16905083565b600a805461043f906127b6565b80601f016020809104026020016040519081016040528092919081815260200182805461046b906127b6565b80156104b85780601f1061048d576101008083540402835291602001916104b8565b820191906000526020600020905b81548152906001019060200180831161049b57829003601f168201915b505050505081565b60076020528060005260406000206000915054906101000a900473ffffffffffffffffffffffffffffffffffffffff1681565b7f000000000000000000000000000000000000000000000000000000000000000081565b600e5481565b816005600082815260200190815260200160002060009054906101000a900473ffffffffffffffffffffffffffffffffffffffff1673ffffffffffffffffffffffffffffffffffffffff163373ffffffffffffffffffffffffffffffffffffffff16146105bf576040517f08c379a00000000000000000000000000000000000000000000000000000000081526004016105b690612859565b60405180910390fd5b6005600082815260200190815260200160002060006101000a81549073ffffffffffffffffffffffffffffffffffffffff0219169055807f7cc135e0cebb02c3480ae5d74d377283180a2601f8f644edf7987b009316c63a60405160405180910390a26000600860008581526020019081526020016000206040518060600160405290816000820160009054906101000a900473ffffffffffffffffffffffffffffffffffffffff1673ffffffffffffffffffffffffffffffffffffffff1673ffffffffffffffffffffffffffffffffffffffff1681526020016001820180546106a8906127b6565b80601f01602080910402602001604051908101604052809291908181526020018280546106d4906127b6565b80156107215780601f106106f657610100808354040283529160200191610721565b820191906000526020600020905b81548152906001019060200180831161070457829003601f168201915b505050505081526020016002820160009054906101000a900473ffffffffffffffffffffffffffffffffffffffff1673ffffffffffffffffffffffffffffffffffffffff1673ffffffffffffffffffffffffffffffffffffffff1681525050905060086000858152602001908152602001600020600080820160006101000a81549073ffffffffffffffffffffffffffffffffffffffff02191690556001820160006107cd9190611feb565b6002820160006101000a81549073ffffffffffffffffffffffffffffffffffffffff021916905550506000816020015160405160200161080d91906128b5565b6040516020818303038152906040528051906020012090506009600082815260200190815260200160002060009055610845846113e0565b1561088d577f037d8494b1c5a92b49688ff4c11a618ca51caa93543fb0448d9d3dfc720c47dd8585600060405161087e939291906128e7565b60405180910390a150506109bc565b81604001516007600083815260200190815260200160002060006101000a81548173ffffffffffffffffffffffffffffffffffffffff021916908373ffffffffffffffffffffffffffffffffffffffff1602179055507f037d8494b1c5a92b49688ff4c11a618ca51caa93543fb0448d9d3dfc720c47dd85856001604051610917939291906128e7565b60405180910390a17f000000000000000000000000000000000000000000000000000000000000000073ffffffffffffffffffffffffffffffffffffffff16625902368360400151846000015185602001516040518463ffffffff1660e01b81526004016109879392919061297d565b600060405180830381600087803b1580156109a157600080fd5b505af11580156109b5573d6000803e3d6000fd5b5050505050505b505050565b6109c96113ee565b73ffffffffffffffffffffffffffffffffffffffff166109e761100c565b73ffffffffffffffffffffffffffffffffffffffff1614610a3d576040517f08c379a0000000000000000000000000000000000000000000000000000000008152600401610a3490612a07565b60405180910390fd5b610a4760006113f6565b565b610b5b817f000000000000000000000000000000000000000000000000000000000000000073ffffffffffffffffffffffffffffffffffffffff16638da5cb5b6040518163ffffffff1660e01b8152600401602060405180830381865afa158015610ab8573d6000803e3d6000fd5b505050506040513d601f19601f82011682018060405250810190610adc9190612a3c565b8373ffffffffffffffffffffffffffffffffffffffff166370a08231306040518263ffffffff1660e01b8152600401610b159190612330565b602060405180830381865afa158015610b32573d6000803e3d6000fd5b505050506040513d601f19601f82011682018060405250810190610b569190612a7e565b6114bc565b50565b60007f000000000000000000000000000000000000000000000000000000000000000073ffffffffffffffffffffffffffffffffffffffff163373ffffffffffffffffffffffffffffffffffffffff1614610bee576040517f08c379a0000000000000000000000000000000000000000000000000000000008152600401610be590612b1d565b60405180910390fd5b60008686604051602001610c03929190612b62565b604051602081830303815290604052805190602001209050600073ffffffffffffffffffffffffffffffffffffffff166007600083815260200190815260200160002060009054906101000a900473ffffffffffffffffffffffffffffffffffffffff1673ffffffffffffffffffffffffffffffffffffffff1614610cbd576040517f08c379a0000000000000000000000000000000000000000000000000000000008152600401610cb490612bc7565b60405180910390fd5b60008787905011610d03576040517f08c379a0000000000000000000000000000000000000000000000000000000008152600401610cfa90612c33565b60405180910390fd5b6000610d19600d5430635c81619560e01b611542565b9050610db16040518060400160405280600381526020017f6765740000000000000000000000000000000000000000000000000000000000815250610da188888080601f016020809104026020016040519081016040528093929190818152602001838380828437600081840152601f19601f82011690508083019250505050505050611573565b8361159f9092919063ffffffff16565b610e306040518060400160405280600481526020017f70617468000000000000000000000000000000000000000000000000000000008152506040518060400160405280600a81526020017f73696d696c6172697479000000000000000000000000000000000000000000008152508361159f9092919063ffffffff16565b610e5f600c60009054906101000a900473ffffffffffffffffffffffffffffffffffffffff1682600e546115d2565b925060405180606001604052808a73ffffffffffffffffffffffffffffffffffffffff16815260200189898080601f016020809104026020016040519081016040528093929190818152602001838380828437600081840152601f19601f8201169050808301925050505050505081526020018573ffffffffffffffffffffffffffffffffffffffff168152506008600085815260200190815260200160002060008201518160000160006101000a81548173ffffffffffffffffffffffffffffffffffffffff021916908373ffffffffffffffffffffffffffffffffffffffff1602179055506020820151816001019080519060200190610f6292919061202b565b5060408201518160020160006101000a81548173ffffffffffffffffffffffffffffffffffffffff021916908373ffffffffffffffffffffffffffffffffffffffff1602179055509050508260096000848152602001908152602001600020819055507f8e86526ae5d5af3ffb2a36f51b7137df9b1096cd861a6a7c54183c02c8eb82df828585604051610ff893929190612c53565b60405180910390a150509695505050505050565b6000600660009054906101000a900473ffffffffffffffffffffffffffffffffffffffff16905090565b60096020528060005260406000206000915090505481565b600b5481565b61105c6113ee565b73ffffffffffffffffffffffffffffffffffffffff1661107a61100c565b73ffffffffffffffffffffffffffffffffffffffff16146110d0576040517f08c379a00000000000000000000000000000000000000000000000000000000081526004016110c790612a07565b60405180910390fd5b80600a90805190602001906110e692919061202b565b507fb6c4f180f069ea11b10bddee1ac0ae6ffa41fcb3ae92e869582f316df1f2f14e81604051611116919061230e565b60405180910390a150565b6111296113ee565b73ffffffffffffffffffffffffffffffffffffffff1661114761100c565b73ffffffffffffffffffffffffffffffffffffffff161461119d576040517f08c379a000000000000000000000000000000000000000000000000000000000815260040161119490612a07565b60405180910390fd5b600073ffffffffffffffffffffffffffffffffffffffff168373ffffffffffffffffffffffffffffffffffffffff160361120c576040517f08c379a000000000000000000000000000000000000000000000000000000000815260040161120390612cd6565b60405180910390fd5b6000600c60009054906101000a900473ffffffffffffffffffffffffffffffffffffffff16905083600c60006101000a81548173ffffffffffffffffffffffffffffffffffffffff021916908373ffffffffffffffffffffffffffffffffffffffff16021790555082600d8190555081600e819055507f5608168c8125345db8098e55c10e36cbcca4a6ad8f02318e8c0963820413b29c8185856040516112b593929190612cf6565b60405180910390a150505050565b6112cb6113ee565b73ffffffffffffffffffffffffffffffffffffffff166112e961100c565b73ffffffffffffffffffffffffffffffffffffffff161461133f576040517f08c379a000000000000000000000000000000000000000000000000000000000815260040161133690612a07565b60405180910390fd5b600073ffffffffffffffffffffffffffffffffffffffff168173ffffffffffffffffffffffffffffffffffffffff16036113ae576040517f08c379a00000000000000000000000000000000000000000000000000000000081526004016113a590612d9f565b60405180910390fd5b6113b7816113f6565b50565b600c60009054906101000a900473ffffffffffffffffffffffffffffffffffffffff1681565b6000600b5482109050919050565b600033905090565b6000600660009054906101000a900473ffffffffffffffffffffffffffffffffffffffff16905081600660006101000a81548173ffffffffffffffffffffffffffffffffffffffff021916908373ffffffffffffffffffffffffffffffffffffffff1602179055508173ffffffffffffffffffffffffffffffffffffffff168173ffffffffffffffffffffffffffffffffffffffff167f8be0079c531659141344cd1fd0a4f28419497f9722a3daafe3b4186f6b6457e060405160405180910390a35050565b61153d8363a9059cbb60e01b84846040516024016114db929190612dbf565b604051602081830303815290604052907bffffffffffffffffffffffffffffffffffffffffffffffffffffffff19166020820180517bffffffffffffffffffffffffffffffffffffffffffffffffffffffff838183161783525050505061169e565b505050565b61154a6120b1565b6115526120b1565b61156985858584611765909392919063ffffffff16565b9150509392505050565b6060600a82604051602001611589929190612ea2565b6040516020818303038152906040529050919050565b6115b682846080015161181590919063ffffffff16565b6115cd81846080015161181590919063ffffffff16565b505050565b60008060045490506001816115e79190612f04565b6004819055506000634042994660e01b60008087600001513089604001518760018c6080015160000151604051602401611628989796959493929190612fea565b604051602081830303815290604052907bffffffffffffffffffffffffffffffffffffffffffffffffffffffff19166020820180517bffffffffffffffffffffffffffffffffffffffffffffffffffffffff838183161783525050505090506116938683868461183a565b925050509392505050565b6000611700826040518060400160405280602081526020017f5361666545524332303a206c6f772d6c6576656c2063616c6c206661696c65648152508573ffffffffffffffffffffffffffffffffffffffff166119cf9092919063ffffffff16565b90506000815111156117605780806020019051810190611720919061309b565b61175f576040517f08c379a00000000000000000000000000000000000000000000000000000000081526004016117569061313a565b60405180910390fd5b5b505050565b61176d6120b1565b61177d85608001516101006119e7565b508385600001818152505082856020019073ffffffffffffffffffffffffffffffffffffffff16908173ffffffffffffffffffffffffffffffffffffffff16815250508185604001907bffffffffffffffffffffffffffffffffffffffffffffffffffffffff191690817bffffffffffffffffffffffffffffffffffffffffffffffffffffffff191681525050849050949350505050565b6118228260038351611a51565b6118358183611bd690919063ffffffff16565b505050565b6000308460405160200161184f9291906131d5565b604051602081830303815290604052805190602001209050846005600083815260200190815260200160002060006101000a81548173ffffffffffffffffffffffffffffffffffffffff021916908373ffffffffffffffffffffffffffffffffffffffff160217905550807fb5e6e01e79f91267dc17b4e6314d5d4d03593d2ceee0fbb452b750bd70ea5af960405160405180910390a2600260009054906101000a900473ffffffffffffffffffffffffffffffffffffffff1673ffffffffffffffffffffffffffffffffffffffff16634000aea08685856040518463ffffffff1660e01b815260040161194593929190613201565b6020604051808303816000875af1158015611964573d6000803e3d6000fd5b505050506040513d601f19601f82011682018060405250810190611988919061309b565b6119c7576040517f08c379a00000000000000000000000000000000000000000000000000000000081526004016119be906132b1565b60405180910390fd5b949350505050565b60606119de8484600085611bf8565b90509392505050565b6119ef61211e565b60006020836119fe9190613300565b14611a2a57602082611a109190613300565b6020611a1c9190613331565b82611a279190612f04565b91505b81836020018181525050604051808452600081528281016020016040525082905092915050565b60178167ffffffffffffffff1611611a8857611a828160058460ff16901b60ff161784611d0c90919063ffffffff16565b50611bd1565b60ff8167ffffffffffffffff1611611ade57611ab7601860058460ff16901b1784611d0c90919063ffffffff16565b50611ad88167ffffffffffffffff16600185611d2c9092919063ffffffff16565b50611bd0565b61ffff8167ffffffffffffffff1611611b3557611b0e601960058460ff16901b1784611d0c90919063ffffffff16565b50611b2f8167ffffffffffffffff16600285611d2c9092919063ffffffff16565b50611bcf565b63ffffffff8167ffffffffffffffff1611611b8e57611b67601a60058460ff16901b1784611d0c90919063ffffffff16565b50611b888167ffffffffffffffff16600485611d2c9092919063ffffffff16565b50611bce565b611bab601b60058460ff16901b1784611d0c90919063ffffffff16565b50611bcc8167ffffffffffffffff16600885611d2c9092919063ffffffff16565b505b5b5b5b505050565b611bde61211e565b611bf083846000015151848551611d4e565b905092915050565b606082471015611c3d576040517f08c379a0000000000000000000000000000000000000000000000000000000008152600401611c34906133d7565b60405180910390fd5b611c4685611e3d565b611c85576040517f08c379a0000000000000000000000000000000000000000000000000000000008152600401611c7c90613443565b60405180910390fd5b6000808673ffffffffffffffffffffffffffffffffffffffff168587604051611cae919061349f565b60006040518083038185875af1925050503d8060008114611ceb576040519150601f19603f3d011682016040523d82523d6000602084013e611cf0565b606091505b5091509150611d00828286611e60565b92505050949350505050565b611d1461211e565b611d248384600001515184611ec7565b905092915050565b611d3461211e565b611d45848560000151518585611f1d565b90509392505050565b611d5661211e565b8251821115611d6457600080fd5b84602001518285611d759190612f04565b1115611daa57611da9856002611d9a88602001518887611d959190612f04565b611fab565b611da491906134b6565b611fc7565b5b600080865180518760208301019350808887011115611dc95787860182525b60208701925050505b60208410611e105780518252602082611deb9190612f04565b9150602081611dfa9190612f04565b9050602084611e099190613331565b9350611dd2565b60006001856020036101000a03905080198251168184511681811785525050508692505050949350505050565b6000808273ffffffffffffffffffffffffffffffffffffffff163b119050919050565b60608315611e7057829050611ec0565b600083511115611e835782518084602001fd5b816040517f08c379a0000000000000000000000000000000000000000000000000000000008152600401611eb7919061230e565b60405180910390fd5b9392505050565b611ecf61211e565b83602001518310611ef557611ef48460028660200151611eef91906134b6565b611fc7565b5b83518051602085830101848153818603611f10576001820183525b5050508390509392505050565b611f2561211e565b84602001518483611f369190612f04565b1115611f5e57611f5d8560028685611f4e9190612f04565b611f5891906134b6565b611fc7565b5b6000600183610100611f709190613643565b611f7a9190613331565b90508551838682010185831982511617815281518588011115611f9d5784870182525b505085915050949350505050565b600081831115611fbd57829050611fc1565b8190505b92915050565b600082600001519050611fda83836119e7565b50611fe58382611bd6565b50505050565b508054611ff7906127b6565b6000825580601f106120095750612028565b601f0160209004906000526020600020908101906120279190612138565b5b50565b828054612037906127b6565b90600052602060002090601f01602090048101928261205957600085556120a0565b82601f1061207257805160ff19168380011785556120a0565b828001600101855582156120a0579182015b8281111561209f578251825591602001919060010190612084565b5b5090506120ad9190612138565b5090565b6040518060a0016040528060008019168152602001600073ffffffffffffffffffffffffffffffffffffffff16815260200160007bffffffffffffffffffffffffffffffffffffffffffffffffffffffff191681526020016000815260200161211861211e565b81525090565b604051806040016040528060608152602001600081525090565b5b80821115612151576000816000905550600101612139565b5090565b6000819050919050565b61216881612155565b82525050565b6000602082019050612183600083018461215f565b92915050565b6000604051905090565b600080fd5b600080fd5b6121a681612155565b81146121b157600080fd5b50565b6000813590506121c38161219d565b92915050565b6000602082840312156121df576121de612193565b5b60006121ed848285016121b4565b91505092915050565b600073ffffffffffffffffffffffffffffffffffffffff82169050919050565b6000612221826121f6565b9050919050565b61223181612216565b82525050565b600081519050919050565b600082825260208201905092915050565b60005b83811015612271578082015181840152602081019050612256565b83811115612280576000848401525b50505050565b6000601f19601f8301169050919050565b60006122a282612237565b6122ac8185612242565b93506122bc818560208601612253565b6122c581612286565b840191505092915050565b60006060820190506122e56000830186612228565b81810360208301526122f78185612297565b90506123066040830184612228565b949350505050565b600060208201905081810360008301526123288184612297565b905092915050565b60006020820190506123456000830184612228565b92915050565b6000819050919050565b61235e8161234b565b82525050565b60006020820190506123796000830184612355565b92915050565b6123888161234b565b811461239357600080fd5b50565b6000813590506123a58161237f565b92915050565b600080604083850312156123c2576123c1612193565b5b60006123d0858286016121b4565b92505060206123e185828601612396565b9150509250929050565b60006123f682612216565b9050919050565b612406816123eb565b811461241157600080fd5b50565b600081359050612423816123fd565b92915050565b60006020828403121561243f5761243e612193565b5b600061244d84828501612414565b91505092915050565b61245f81612216565b811461246a57600080fd5b50565b60008135905061247c81612456565b92915050565b600080fd5b600080fd5b600080fd5b60008083601f8401126124a7576124a6612482565b5b8235905067ffffffffffffffff8111156124c4576124c3612487565b5b6020830191508360018202830111156124e0576124df61248c565b5b9250929050565b6000806000806000806080878903121561250457612503612193565b5b600061251289828a0161246d565b965050602087013567ffffffffffffffff81111561253357612532612198565b5b61253f89828a01612491565b9550955050604087013567ffffffffffffffff81111561256257612561612198565b5b61256e89828a01612491565b9350935050606061258189828a0161246d565b9150509295509295509295565b600080fd5b7f4e487b7100000000000000000000000000000000000000000000000000000000600052604160045260246000fd5b6125cb82612286565b810181811067ffffffffffffffff821117156125ea576125e9612593565b5b80604052505050565b60006125fd612189565b905061260982826125c2565b919050565b600067ffffffffffffffff82111561262957612628612593565b5b61263282612286565b9050602081019050919050565b82818337600083830152505050565b600061266161265c8461260e565b6125f3565b90508281526020810184848401111561267d5761267c61258e565b5b61268884828561263f565b509392505050565b600082601f8301126126a5576126a4612482565b5b81356126b584826020860161264e565b91505092915050565b6000602082840312156126d4576126d3612193565b5b600082013567ffffffffffffffff8111156126f2576126f1612198565b5b6126fe84828501612690565b91505092915050565b6000806000606084860312156127205761271f612193565b5b600061272e8682870161246d565b935050602061273f868287016121b4565b925050604061275086828701612396565b9150509250925092565b6000602082840312156127705761276f612193565b5b600061277e8482850161246d565b91505092915050565b7f4e487b7100000000000000000000000000000000000000000000000000000000600052602260045260246000fd5b600060028204905060018216806127ce57607f821691505b6020821081036127e1576127e0612787565b5b50919050565b7f536f75726365206d75737420626520746865206f7261636c65206f662074686560008201527f2072657175657374000000000000000000000000000000000000000000000000602082015250565b6000612843602883612242565b915061284e826127e7565b604082019050919050565b6000602082019050818103600083015261287281612836565b9050919050565b600081905092915050565b600061288f82612237565b6128998185612879565b93506128a9818560208601612253565b80840191505092915050565b60006128c18284612884565b915081905092915050565b60008115159050919050565b6128e1816128cc565b82525050565b60006060820190506128fc600083018661215f565b6129096020830185612355565b61291660408301846128d8565b949350505050565b6000819050919050565b600061294361293e612939846121f6565b61291e565b6121f6565b9050919050565b600061295582612928565b9050919050565b60006129678261294a565b9050919050565b6129778161295c565b82525050565b6000606082019050612992600083018661296e565b61299f6020830185612228565b81810360408301526129b18184612297565b9050949350505050565b7f4f776e61626c653a2063616c6c6572206973206e6f7420746865206f776e6572600082015250565b60006129f1602083612242565b91506129fc826129bb565b602082019050919050565b60006020820190508181036000830152612a20816129e4565b9050919050565b600081519050612a3681612456565b92915050565b600060208284031215612a5257612a51612193565b5b6000612a6084828501612a27565b91505092915050565b600081519050612a788161237f565b92915050565b600060208284031215612a9457612a93612193565b5b6000612aa284828501612a69565b91505092915050565b7f41757468656e74696369747952656769737472793a204e6f7420417574656e7460008201527f69736b0000000000000000000000000000000000000000000000000000000000602082015250565b6000612b07602383612242565b9150612b1282612aab565b604082019050919050565b60006020820190508181036000830152612b3681612afa565b9050919050565b6000612b498385612879565b9350612b5683858461263f565b82840190509392505050565b6000612b6f828486612b3d565b91508190509392505050565b7f546f6b656e55524920686173206265656e207265676973746572656400000000600082015250565b6000612bb1601c83612242565b9150612bbc82612b7b565b602082019050919050565b60006020820190508181036000830152612be081612ba4565b9050919050565b7f546f6b656e205552492063616e277420626520656d7074790000000000000000600082015250565b6000612c1d601883612242565b9150612c2882612be7565b602082019050919050565b60006020820190508181036000830152612c4c81612c10565b9050919050565b6000606082019050612c68600083018661215f565b612c756020830185612228565b612c82604083018461215f565b949350505050565b7f496e76616c6964206f7261636c65206164647265737300000000000000000000600082015250565b6000612cc0601683612242565b9150612ccb82612c8a565b602082019050919050565b60006020820190508181036000830152612cef81612cb3565b9050919050565b6000606082019050612d0b6000830186612228565b612d186020830185612228565b612d25604083018461215f565b949350505050565b7f4f776e61626c653a206e6577206f776e657220697320746865207a65726f206160008201527f6464726573730000000000000000000000000000000000000000000000000000602082015250565b6000612d89602683612242565b9150612d9482612d2d565b604082019050919050565b60006020820190508181036000830152612db881612d7c565b9050919050565b6000604082019050612dd46000830185612228565b612de16020830184612355565b9392505050565b60008190508160005260206000209050919050565b60008154612e0a816127b6565b612e148186612879565b94506001821660008114612e2f5760018114612e4057612e73565b60ff19831686528186019350612e73565b612e4985612de8565b60005b83811015612e6b57815481890152600182019150602081019050612e4c565b838801955050505b50505092915050565b7f3f746f6b656e5572693d00000000000000000000000000000000000000000000815250565b6000612eae8285612dfd565b9150612eb982612e7c565b600a82019150612ec98284612884565b91508190509392505050565b7f4e487b7100000000000000000000000000000000000000000000000000000000600052601160045260246000fd5b6000612f0f8261234b565b9150612f1a8361234b565b9250827fffffffffffffffffffffffffffffffffffffffffffffffffffffffffffffffff03821115612f4f57612f4e612ed5565b5b828201905092915050565b60007fffffffff0000000000000000000000000000000000000000000000000000000082169050919050565b612f8f81612f5a565b82525050565b600081519050919050565b600082825260208201905092915050565b6000612fbc82612f95565b612fc68185612fa0565b9350612fd6818560208601612253565b612fdf81612286565b840191505092915050565b600061010082019050613000600083018b612228565b61300d602083018a612355565b61301a604083018961215f565b6130276060830188612228565b6130346080830187612f86565b61304160a0830186612355565b61304e60c0830185612355565b81810360e08301526130608184612fb1565b90509998505050505050505050565b613078816128cc565b811461308357600080fd5b50565b6000815190506130958161306f565b92915050565b6000602082840312156130b1576130b0612193565b5b60006130bf84828501613086565b91505092915050565b7f5361666545524332303a204552433230206f7065726174696f6e20646964206e60008201527f6f74207375636365656400000000000000000000000000000000000000000000602082015250565b6000613124602a83612242565b915061312f826130c8565b604082019050919050565b6000602082019050818103600083015261315381613117565b9050919050565b60006131658261294a565b9050919050565b60008160601b9050919050565b60006131848261316c565b9050919050565b600061319682613179565b9050919050565b6131ae6131a98261315a565b61318b565b82525050565b6000819050919050565b6131cf6131ca8261234b565b6131b4565b82525050565b60006131e1828561319d565b6014820191506131f182846131be565b6020820191508190509392505050565b60006060820190506132166000830186612228565b6132236020830185612355565b81810360408301526132358184612fb1565b9050949350505050565b7f756e61626c6520746f207472616e73666572416e6443616c6c20746f206f726160008201527f636c650000000000000000000000000000000000000000000000000000000000602082015250565b600061329b602383612242565b91506132a68261323f565b604082019050919050565b600060208201905081810360008301526132ca8161328e565b9050919050565b7f4e487b7100000000000000000000000000000000000000000000000000000000600052601260045260246000fd5b600061330b8261234b565b91506133168361234b565b925082613326576133256132d1565b5b828206905092915050565b600061333c8261234b565b91506133478361234b565b92508282101561335a57613359612ed5565b5b828203905092915050565b7f416464726573733a20696e73756666696369656e742062616c616e636520666f60008201527f722063616c6c0000000000000000000000000000000000000000000000000000602082015250565b60006133c1602683612242565b91506133cc82613365565b604082019050919050565b600060208201905081810360008301526133f0816133b4565b9050919050565b7f416464726573733a2063616c6c20746f206e6f6e2d636f6e7472616374000000600082015250565b600061342d601d83612242565b9150613438826133f7565b602082019050919050565b6000602082019050818103600083015261345c81613420565b9050919050565b600081905092915050565b600061347982612f95565b6134838185613463565b9350613493818560208601612253565b80840191505092915050565b60006134ab828461346e565b915081905092915050565b60006134c18261234b565b91506134cc8361234b565b9250817fffffffffffffffffffffffffffffffffffffffffffffffffffffffffffffffff048311821515161561350557613504612ed5565b5b828202905092915050565b60008160011c9050919050565b6000808291508390505b60018511156135675780860481111561354357613542612ed5565b5b60018516156135525780820291505b808102905061356085613510565b9450613527565b94509492505050565b600082613580576001905061363c565b8161358e576000905061363c565b81600181146135a457600281146135ae576135dd565b600191505061363c565b60ff8411156135c0576135bf612ed5565b5b8360020a9150848211156135d7576135d6612ed5565b5b5061363c565b5060208310610133831016604e8410600b84101617156136125782820a90508381111561360d5761360c612ed5565b5b61363c565b61361f848484600161351d565b9250905081840481111561363657613635612ed5565b5b81810290505b9392505050565b600061364e8261234b565b91506136598361234b565b92506136867fffffffffffffffffffffffffffffffffffffffffffffffffffffffffffffffff8484613570565b90509291505056fea26469706673582212206987cbbba30f35511a4a70feef36b5d857cffbb147ca34741e6c52c945edc87c64736f6c634300080d0033",
  "devdoc": {
    "kind": "dev",
    "methods": {
      "owner()": {
        "details": "Returns the address of the current owner."
      },
      "renounceOwnership()": {
        "details": "Leaves the contract without owner. It will not be possible to call `onlyOwner` functions anymore. Can only be called by the current owner. NOTE: Renouncing ownership will leave the contract without an owner, thereby removing any functionality that is only available to the owner."
      },
      "transferOwnership(address)": {
        "details": "Transfers ownership of the contract to a new account (`newOwner`). Can only be called by the current owner."
      }
    },
    "version": 1
  },
  "userdoc": {
    "kind": "user",
    "methods": {},
    "version": 1
  },
  "storageLayout": {
    "storage": [
      {
        "astId": 319,
        "contract": "contracts/marketplace/AuthenticityRegistry.sol:AuthenticityRegistry",
        "label": "s_ens",
        "offset": 0,
        "slot": "0",
        "type": "t_contract(ENSInterface)974"
      },
      {
        "astId": 321,
        "contract": "contracts/marketplace/AuthenticityRegistry.sol:AuthenticityRegistry",
        "label": "s_ensNode",
        "offset": 0,
        "slot": "1",
        "type": "t_bytes32"
      },
      {
        "astId": 324,
        "contract": "contracts/marketplace/AuthenticityRegistry.sol:AuthenticityRegistry",
        "label": "s_link",
        "offset": 0,
        "slot": "2",
        "type": "t_contract(LinkTokenInterface)1069"
      },
      {
        "astId": 327,
        "contract": "contracts/marketplace/AuthenticityRegistry.sol:AuthenticityRegistry",
        "label": "s_oracle",
        "offset": 0,
        "slot": "3",
        "type": "t_contract(OperatorInterface)1149"
      },
      {
        "astId": 330,
        "contract": "contracts/marketplace/AuthenticityRegistry.sol:AuthenticityRegistry",
        "label": "s_requestCount",
        "offset": 0,
        "slot": "4",
        "type": "t_uint256"
      },
      {
        "astId": 334,
        "contract": "contracts/marketplace/AuthenticityRegistry.sol:AuthenticityRegistry",
        "label": "s_pendingRequests",
        "offset": 0,
        "slot": "5",
        "type": "t_mapping(t_bytes32,t_address)"
      },
      {
        "astId": 2183,
        "contract": "contracts/marketplace/AuthenticityRegistry.sol:AuthenticityRegistry",
        "label": "_owner",
        "offset": 0,
        "slot": "6",
        "type": "t_address"
      },
      {
        "astId": 4586,
        "contract": "contracts/marketplace/AuthenticityRegistry.sol:AuthenticityRegistry",
        "label": "s_autentics",
        "offset": 0,
        "slot": "7",
        "type": "t_mapping(t_bytes32,t_address)"
      },
      {
        "astId": 4591,
        "contract": "contracts/marketplace/AuthenticityRegistry.sol:AuthenticityRegistry",
        "label": "s_authenticityRequests",
        "offset": 0,
        "slot": "8",
        "type": "t_mapping(t_bytes32,t_struct(AuthenticityRequest)4552_storage)"
      },
      {
        "astId": 4595,
        "contract": "contracts/marketplace/AuthenticityRegistry.sol:AuthenticityRegistry",
        "label": "s_signatureToRequestId",
        "offset": 0,
        "slot": "9",
        "type": "t_mapping(t_bytes32,t_bytes32)"
      },
      {
        "astId": 4597,
        "contract": "contracts/marketplace/AuthenticityRegistry.sol:AuthenticityRegistry",
        "label": "s_classifierUrl",
        "offset": 0,
        "slot": "10",
        "type": "t_string_storage"
      },
      {
        "astId": 4599,
        "contract": "contracts/marketplace/AuthenticityRegistry.sol:AuthenticityRegistry",
        "label": "s_similarityThreshold",
        "offset": 0,
        "slot": "11",
        "type": "t_uint256"
      },
      {
        "astId": 4601,
        "contract": "contracts/marketplace/AuthenticityRegistry.sol:AuthenticityRegistry",
        "label": "s_oracle",
        "offset": 0,
        "slot": "12",
        "type": "t_address"
      },
      {
        "astId": 4603,
        "contract": "contracts/marketplace/AuthenticityRegistry.sol:AuthenticityRegistry",
        "label": "s_jobId",
        "offset": 0,
        "slot": "13",
        "type": "t_bytes32"
      },
      {
        "astId": 4605,
        "contract": "contracts/marketplace/AuthenticityRegistry.sol:AuthenticityRegistry",
        "label": "s_fee",
        "offset": 0,
        "slot": "14",
        "type": "t_uint256"
      }
    ],
    "types": {
      "t_address": {
        "encoding": "inplace",
        "label": "address",
        "numberOfBytes": "20"
      },
      "t_bytes32": {
        "encoding": "inplace",
        "label": "bytes32",
        "numberOfBytes": "32"
      },
      "t_contract(ENSInterface)974": {
        "encoding": "inplace",
        "label": "contract ENSInterface",
        "numberOfBytes": "20"
      },
      "t_contract(LinkTokenInterface)1069": {
        "encoding": "inplace",
        "label": "contract LinkTokenInterface",
        "numberOfBytes": "20"
      },
      "t_contract(OperatorInterface)1149": {
        "encoding": "inplace",
        "label": "contract OperatorInterface",
        "numberOfBytes": "20"
      },
      "t_mapping(t_bytes32,t_address)": {
        "encoding": "mapping",
        "key": "t_bytes32",
        "label": "mapping(bytes32 => address)",
        "numberOfBytes": "32",
        "value": "t_address"
      },
      "t_mapping(t_bytes32,t_bytes32)": {
        "encoding": "mapping",
        "key": "t_bytes32",
        "label": "mapping(bytes32 => bytes32)",
        "numberOfBytes": "32",
        "value": "t_bytes32"
      },
      "t_mapping(t_bytes32,t_struct(AuthenticityRequest)4552_storage)": {
        "encoding": "mapping",
        "key": "t_bytes32",
        "label": "mapping(bytes32 => struct AuthenticityRegistry.AuthenticityRequest)",
        "numberOfBytes": "32",
        "value": "t_struct(AuthenticityRequest)4552_storage"
      },
      "t_string_storage": {
        "encoding": "bytes",
        "label": "string",
        "numberOfBytes": "32"
      },
      "t_struct(AuthenticityRequest)4552_storage": {
        "encoding": "inplace",
        "label": "struct AuthenticityRegistry.AuthenticityRequest",
        "members": [
          {
            "astId": 4547,
            "contract": "contracts/marketplace/AuthenticityRegistry.sol:AuthenticityRegistry",
            "label": "to",
            "offset": 0,
            "slot": "0",
            "type": "t_address"
          },
          {
            "astId": 4549,
            "contract": "contracts/marketplace/AuthenticityRegistry.sol:AuthenticityRegistry",
            "label": "tokenURI",
            "offset": 0,
            "slot": "1",
            "type": "t_string_storage"
          },
          {
            "astId": 4551,
            "contract": "contracts/marketplace/AuthenticityRegistry.sol:AuthenticityRegistry",
            "label": "collection",
            "offset": 0,
            "slot": "2",
            "type": "t_address"
          }
        ],
        "numberOfBytes": "96"
      },
      "t_uint256": {
        "encoding": "inplace",
        "label": "uint256",
        "numberOfBytes": "32"
      }
    }
  }
}