{
  "address": "0xE592bEB81b7D9A629095620568301Bcf477A8026",
  "abi": [
    {
      "inputs": [
        {
          "internalType": "address",
          "name": "controller",
          "type": "address"
        },
        {
          "internalType": "address",
          "name": "autentisk",
          "type": "address"
        },
        {
          "internalType": "address",
          "name": "oracle",
          "type": "address"
        },
        {
          "internalType": "string",
          "name": "jobId",
          "type": "string"
        },
        {
          "internalType": "uint256",
          "name": "fee",
          "type": "uint256"
        },
        {
          "internalType": "string",
          "name": "classifierUrl",
          "type": "string"
        },
        {
          "internalType": "uint256",
          "name": "similarityThreshold",
          "type": "uint256"
        },
        {
          "internalType": "address",
          "name": "link",
          "type": "address"
        }
      ],
      "stateMutability": "nonpayable",
      "type": "constructor"
    },
    {
      "anonymous": false,
      "inputs": [
        {
          "indexed": false,
          "internalType": "bytes32",
          "name": "requestId",
          "type": "bytes32"
        },
        {
          "indexed": false,
          "internalType": "uint256",
          "name": "similarity",
          "type": "uint256"
        },
        {
          "indexed": false,
          "internalType": "bool",
          "name": "isAccepted",
          "type": "bool"
        }
      ],
      "name": "AuthenticityFulfilled",
      "type": "event"
    },
    {
      "anonymous": false,
      "inputs": [
        {
          "indexed": false,
          "internalType": "bytes32",
          "name": "uriSignature",
          "type": "bytes32"
        },
        {
          "indexed": false,
          "internalType": "address",
          "name": "collection",
          "type": "address"
        },
        {
          "indexed": false,
          "internalType": "bytes32",
          "name": "requestId",
          "type": "bytes32"
        }
      ],
      "name": "AuthenticityRequested",
      "type": "event"
    },
    {
      "anonymous": false,
      "inputs": [
        {
          "indexed": true,
          "internalType": "bytes32",
          "name": "id",
          "type": "bytes32"
        }
      ],
      "name": "ChainlinkCancelled",
      "type": "event"
    },
    {
      "anonymous": false,
      "inputs": [
        {
          "indexed": true,
          "internalType": "bytes32",
          "name": "id",
          "type": "bytes32"
        }
      ],
      "name": "ChainlinkFulfilled",
      "type": "event"
    },
    {
      "anonymous": false,
      "inputs": [
        {
          "indexed": true,
          "internalType": "bytes32",
          "name": "id",
          "type": "bytes32"
        }
      ],
      "name": "ChainlinkRequested",
      "type": "event"
    },
    {
      "anonymous": false,
      "inputs": [
        {
          "indexed": false,
          "internalType": "string",
          "name": "value",
          "type": "string"
        }
      ],
      "name": "ClassifierUrlChanged",
      "type": "event"
    },
    {
      "anonymous": false,
      "inputs": [
        {
          "indexed": false,
          "internalType": "address",
          "name": "prevOracle",
          "type": "address"
        },
        {
          "indexed": false,
          "internalType": "address",
          "name": "newOracle",
          "type": "address"
        },
        {
          "indexed": false,
          "internalType": "bytes32",
          "name": "jobId",
          "type": "bytes32"
        }
      ],
      "name": "OracleChanged",
      "type": "event"
    },
    {
      "anonymous": false,
      "inputs": [
        {
          "indexed": true,
          "internalType": "address",
          "name": "previousOwner",
          "type": "address"
        },
        {
          "indexed": true,
          "internalType": "address",
          "name": "newOwner",
          "type": "address"
        }
      ],
      "name": "OwnershipTransferred",
      "type": "event"
    },
    {
      "inputs": [],
      "name": "AUTENTISK",
      "outputs": [
        {
          "internalType": "address",
          "name": "",
          "type": "address"
        }
      ],
      "stateMutability": "view",
      "type": "function"
    },
    {
      "inputs": [
        {
          "internalType": "address",
          "name": "to",
          "type": "address"
        },
        {
          "internalType": "string",
          "name": "tokenURI",
          "type": "string"
        },
        {
          "internalType": "string",
          "name": "encodedTokenURI",
          "type": "string"
        },
        {
          "internalType": "address",
          "name": "collection",
          "type": "address"
        }
      ],
      "name": "checkAuthenticity",
      "outputs": [
        {
          "internalType": "bytes32",
          "name": "requestId_",
          "type": "bytes32"
        }
      ],
      "stateMutability": "nonpayable",
      "type": "function"
    },
    {
      "inputs": [
        {
          "internalType": "bytes32",
          "name": "requestId",
          "type": "bytes32"
        },
        {
          "internalType": "uint256",
          "name": "similarity",
          "type": "uint256"
        }
      ],
      "name": "fulfillAuthenticity",
      "outputs": [],
      "stateMutability": "nonpayable",
      "type": "function"
    },
    {
      "inputs": [],
      "name": "owner",
      "outputs": [
        {
          "internalType": "address",
          "name": "",
          "type": "address"
        }
      ],
      "stateMutability": "view",
      "type": "function"
    },
    {
      "inputs": [],
      "name": "renounceOwnership",
      "outputs": [],
      "stateMutability": "nonpayable",
      "type": "function"
    },
    {
      "inputs": [
        {
          "internalType": "bytes32",
          "name": "",
          "type": "bytes32"
        }
      ],
      "name": "s_autentics",
      "outputs": [
        {
          "internalType": "address",
          "name": "",
          "type": "address"
        }
      ],
      "stateMutability": "view",
      "type": "function"
    },
    {
      "inputs": [
        {
          "internalType": "bytes32",
          "name": "",
          "type": "bytes32"
        }
      ],
      "name": "s_authenticityRequests",
      "outputs": [
        {
          "internalType": "address",
          "name": "to",
          "type": "address"
        },
        {
          "internalType": "string",
          "name": "tokenURI",
          "type": "string"
        },
        {
          "internalType": "address",
          "name": "collection",
          "type": "address"
        }
      ],
      "stateMutability": "view",
      "type": "function"
    },
    {
      "inputs": [],
      "name": "s_classifierUrl",
      "outputs": [
        {
          "internalType": "string",
          "name": "",
          "type": "string"
        }
      ],
      "stateMutability": "view",
      "type": "function"
    },
    {
      "inputs": [],
      "name": "s_fee",
      "outputs": [
        {
          "internalType": "uint256",
          "name": "",
          "type": "uint256"
        }
      ],
      "stateMutability": "view",
      "type": "function"
    },
    {
      "inputs": [],
      "name": "s_jobId",
      "outputs": [
        {
          "internalType": "bytes32",
          "name": "",
          "type": "bytes32"
        }
      ],
      "stateMutability": "view",
      "type": "function"
    },
    {
      "inputs": [],
      "name": "s_oracle",
      "outputs": [
        {
          "internalType": "address",
          "name": "",
          "type": "address"
        }
      ],
      "stateMutability": "view",
      "type": "function"
    },
    {
      "inputs": [
        {
          "internalType": "bytes32",
          "name": "",
          "type": "bytes32"
        }
      ],
      "name": "s_signatureToRequestId",
      "outputs": [
        {
          "internalType": "bytes32",
          "name": "",
          "type": "bytes32"
        }
      ],
      "stateMutability": "view",
      "type": "function"
    },
    {
      "inputs": [],
      "name": "s_similarityThreshold",
      "outputs": [
        {
          "internalType": "uint256",
          "name": "",
          "type": "uint256"
        }
      ],
      "stateMutability": "view",
      "type": "function"
    },
    {
      "inputs": [
        {
          "internalType": "string",
          "name": "value",
          "type": "string"
        }
      ],
      "name": "setClassifierUrl",
      "outputs": [],
      "stateMutability": "nonpayable",
      "type": "function"
    },
    {
      "inputs": [
        {
          "internalType": "address",
          "name": "_oracle",
          "type": "address"
        },
        {
          "internalType": "bytes32",
          "name": "_jobId",
          "type": "bytes32"
        },
        {
          "internalType": "uint256",
          "name": "_fee",
          "type": "uint256"
        }
      ],
      "name": "setOracle",
      "outputs": [],
      "stateMutability": "nonpayable",
      "type": "function"
    },
    {
      "inputs": [
        {
          "internalType": "address",
          "name": "newOwner",
          "type": "address"
        }
      ],
      "name": "transferOwnership",
      "outputs": [],
      "stateMutability": "nonpayable",
      "type": "function"
    },
    {
      "inputs": [
        {
          "internalType": "contract IERC20",
          "name": "token",
          "type": "address"
        }
      ],
      "name": "withdrawToken",
      "outputs": [],
      "stateMutability": "nonpayable",
      "type": "function"
    }
  ],
  "transactionHash": "0x0b9622759d4aa9a173b28d1bbaec71f21e1fa383f2fa601f3ea2f6de6e37483a",
  "args": [
    "0xA122D06b3C3f9Ccdd78438f8253C2E2Cf98d63B4",
    "0x6e17d848ba58ca6bf10a481566c954b2f7f5be88",
    "0xc8D925525CA8759812d0c299B90247917d4d4b7C",
    "bbf0badad29d49dc887504bacfbb905b",
    "10000000000000000",
    "https://autentisk-production.up.railway.app/",
    "500000000000000000",
    "0x326c977e6efc84e512bb9c30f76e30c160ed06fb"
  ],
  "numDeployments": 19,
  "solcInputHash": "d9a5ee2a300b3dcc800dd6b6e01a7c38",
  "bytecode": "0x60a060405260016004553480156200001657600080fd5b506040516200419f3803806200419f83398181016040528101906200003c919062000750565b6200005c62000050620000f660201b60201c565b620000fe60201b60201c565b6200006d88620000fe60201b60201c565b8673ffffffffffffffffffffffffffffffffffffffff1660808173ffffffffffffffffffffffffffffffffffffffff1681525050620000b281620001c460201b60201c565b620000d08686620000c390620008a0565b866200020860201b60201c565b620000e1836200034360201b60201c565b81600b81905550505050505050505062000b38565b600033905090565b6000600660009054906101000a900473ffffffffffffffffffffffffffffffffffffffff16905081600660006101000a81548173ffffffffffffffffffffffffffffffffffffffff021916908373ffffffffffffffffffffffffffffffffffffffff1602179055508173ffffffffffffffffffffffffffffffffffffffff168173ffffffffffffffffffffffffffffffffffffffff167f8be0079c531659141344cd1fd0a4f28419497f9722a3daafe3b4186f6b6457e060405160405180910390a35050565b80600260006101000a81548173ffffffffffffffffffffffffffffffffffffffff021916908373ffffffffffffffffffffffffffffffffffffffff16021790555050565b62000218620003a860201b60201c565b600073ffffffffffffffffffffffffffffffffffffffff168373ffffffffffffffffffffffffffffffffffffffff16036200028a576040517f08c379a0000000000000000000000000000000000000000000000000000000008152600401620002819062000971565b60405180910390fd5b6000600c60009054906101000a900473ffffffffffffffffffffffffffffffffffffffff16905083600c60006101000a81548173ffffffffffffffffffffffffffffffffffffffff021916908373ffffffffffffffffffffffffffffffffffffffff16021790555082600d8190555081600e819055507f5608168c8125345db8098e55c10e36cbcca4a6ad8f02318e8c0963820413b29c8185856040516200033593929190620009b5565b60405180910390a150505050565b62000353620003a860201b60201c565b80600a90805190602001906200036b92919062000463565b507fb6c4f180f069ea11b10bddee1ac0ae6ffa41fcb3ae92e869582f316df1f2f14e816040516200039d919062000a3e565b60405180910390a150565b620003b8620000f660201b60201c565b73ffffffffffffffffffffffffffffffffffffffff16620003de6200043960201b60201c565b73ffffffffffffffffffffffffffffffffffffffff161462000437576040517f08c379a00000000000000000000000000000000000000000000000000000000081526004016200042e9062000ab2565b60405180910390fd5b565b6000600660009054906101000a900473ffffffffffffffffffffffffffffffffffffffff16905090565b828054620004719062000b03565b90600052602060002090601f016020900481019282620004955760008555620004e1565b82601f10620004b057805160ff1916838001178555620004e1565b82800160010185558215620004e1579182015b82811115620004e0578251825591602001919060010190620004c3565b5b509050620004f09190620004f4565b5090565b5b808211156200050f576000816000905550600101620004f5565b5090565b6000604051905090565b600080fd5b600080fd5b600073ffffffffffffffffffffffffffffffffffffffff82169050919050565b6000620005548262000527565b9050919050565b620005668162000547565b81146200057257600080fd5b50565b60008151905062000586816200055b565b92915050565b600080fd5b600080fd5b6000601f19601f8301169050919050565b7f4e487b7100000000000000000000000000000000000000000000000000000000600052604160045260246000fd5b620005e18262000596565b810181811067ffffffffffffffff82111715620006035762000602620005a7565b5b80604052505050565b60006200061862000513565b9050620006268282620005d6565b919050565b600067ffffffffffffffff821115620006495762000648620005a7565b5b620006548262000596565b9050602081019050919050565b60005b838110156200068157808201518184015260208101905062000664565b8381111562000691576000848401525b50505050565b6000620006ae620006a8846200062b565b6200060c565b905082815260208101848484011115620006cd57620006cc62000591565b5b620006da84828562000661565b509392505050565b600082601f830112620006fa57620006f96200058c565b5b81516200070c84826020860162000697565b91505092915050565b6000819050919050565b6200072a8162000715565b81146200073657600080fd5b50565b6000815190506200074a816200071f565b92915050565b600080600080600080600080610100898b0312156200077457620007736200051d565b5b6000620007848b828c0162000575565b9850506020620007978b828c0162000575565b9750506040620007aa8b828c0162000575565b965050606089015167ffffffffffffffff811115620007ce57620007cd62000522565b5b620007dc8b828c01620006e2565b9550506080620007ef8b828c0162000739565b94505060a089015167ffffffffffffffff81111562000813576200081262000522565b5b620008218b828c01620006e2565b93505060c0620008348b828c0162000739565b92505060e0620008478b828c0162000575565b9150509295985092959890939650565b600081519050919050565b6000819050602082019050919050565b6000819050919050565b60006200088a825162000872565b80915050919050565b600082821b905092915050565b6000620008ad8262000857565b82620008b98462000862565b9050620008c6816200087c565b925060208210156200090957620009047fffffffffffffffffffffffffffffffffffffffffffffffffffffffffffffffff8360200360080262000893565b831692505b5050919050565b600082825260208201905092915050565b7f496e76616c6964206f7261636c65206164647265737300000000000000000000600082015250565b60006200095960168362000910565b9150620009668262000921565b602082019050919050565b600060208201905081810360008301526200098c816200094a565b9050919050565b6200099e8162000547565b82525050565b620009af8162000872565b82525050565b6000606082019050620009cc600083018662000993565b620009db602083018562000993565b620009ea6040830184620009a4565b949350505050565b600081519050919050565b600062000a0a82620009f2565b62000a16818562000910565b935062000a2881856020860162000661565b62000a338162000596565b840191505092915050565b6000602082019050818103600083015262000a5a8184620009fd565b905092915050565b7f4f776e61626c653a2063616c6c6572206973206e6f7420746865206f776e6572600082015250565b600062000a9a60208362000910565b915062000aa78262000a62565b602082019050919050565b6000602082019050818103600083015262000acd8162000a8b565b9050919050565b7f4e487b7100000000000000000000000000000000000000000000000000000000600052602260045260246000fd5b6000600282049050600182168062000b1c57607f821691505b60208210810362000b325762000b3162000ad4565b5b50919050565b60805161363662000b69600039600081816104f501528181610921015281816109db0152610aee01526136366000f3fe608060405234801561001057600080fd5b506004361061010b5760003560e01c806389476069116100a2578063b9709cdc11610071578063b9709cdc146102aa578063d6333e0b146102c8578063e236fb16146102e4578063f2fde38b14610300578063fc4577921461031c5761010b565b806389476069146102105780638cfd435f1461022c5780638da5cb5b1461025c578063a76627161461027a5761010b565b8063571d578d116100de578063571d578d146101ae578063596c2328146101cc5780635c816195146101ea578063715018a6146102065761010b565b806307e33bad146101105780630f765c011461012e5780631581797b1461016057806326b1893d1461017e575b600080fd5b61011861033a565b6040516101259190612074565b60405180910390f35b610148600480360381019061014391906120cf565b610340565b604051610157939291906121d6565b60405180910390f35b610168610432565b6040516101759190612214565b60405180910390f35b610198600480360381019061019391906120cf565b6104c0565b6040516101a59190612236565b60405180910390f35b6101b66104f3565b6040516101c39190612236565b60405180910390f35b6101d4610517565b6040516101e1919061226a565b60405180910390f35b61020460048036038101906101ff91906122b1565b61051d565b005b61020e6109c1565b005b61022a6004803603810190610225919061232f565b6109d5565b005b610246600480360381019061024191906123ed565b610aea565b6040516102539190612074565b60405180910390f35b610264610ff0565b6040516102719190612236565b60405180910390f35b610294600480360381019061028f91906120cf565b61101a565b6040516102a19190612074565b60405180910390f35b6102b2611032565b6040516102bf919061226a565b60405180910390f35b6102e260048036038101906102dd91906125c4565b611038565b005b6102fe60048036038101906102f9919061260d565b611091565b005b61031a60048036038101906103159190612660565b6111bf565b005b610324611242565b6040516103319190612236565b60405180910390f35b600d5481565b60086020528060005260406000206000915090508060000160009054906101000a900473ffffffffffffffffffffffffffffffffffffffff1690806001018054610389906126bc565b80601f01602080910402602001604051908101604052809291908181526020018280546103b5906126bc565b80156104025780601f106103d757610100808354040283529160200191610402565b820191906000526020600020905b8154815290600101906020018083116103e557829003601f168201915b5050505050908060020160009054906101000a900473ffffffffffffffffffffffffffffffffffffffff16905083565b600a805461043f906126bc565b80601f016020809104026020016040519081016040528092919081815260200182805461046b906126bc565b80156104b85780601f1061048d576101008083540402835291602001916104b8565b820191906000526020600020905b81548152906001019060200180831161049b57829003601f168201915b505050505081565b60076020528060005260406000206000915054906101000a900473ffffffffffffffffffffffffffffffffffffffff1681565b7f000000000000000000000000000000000000000000000000000000000000000081565b600e5481565b816005600082815260200190815260200160002060009054906101000a900473ffffffffffffffffffffffffffffffffffffffff1673ffffffffffffffffffffffffffffffffffffffff163373ffffffffffffffffffffffffffffffffffffffff16146105bf576040517f08c379a00000000000000000000000000000000000000000000000000000000081526004016105b69061275f565b60405180910390fd5b6005600082815260200190815260200160002060006101000a81549073ffffffffffffffffffffffffffffffffffffffff0219169055807f7cc135e0cebb02c3480ae5d74d377283180a2601f8f644edf7987b009316c63a60405160405180910390a26000600860008581526020019081526020016000206040518060600160405290816000820160009054906101000a900473ffffffffffffffffffffffffffffffffffffffff1673ffffffffffffffffffffffffffffffffffffffff1673ffffffffffffffffffffffffffffffffffffffff1681526020016001820180546106a8906126bc565b80601f01602080910402602001604051908101604052809291908181526020018280546106d4906126bc565b80156107215780601f106106f657610100808354040283529160200191610721565b820191906000526020600020905b81548152906001019060200180831161070457829003601f168201915b505050505081526020016002820160009054906101000a900473ffffffffffffffffffffffffffffffffffffffff1673ffffffffffffffffffffffffffffffffffffffff1673ffffffffffffffffffffffffffffffffffffffff1681525050905060086000858152602001908152602001600020600080820160006101000a81549073ffffffffffffffffffffffffffffffffffffffff02191690556001820160006107cd9190611ef1565b6002820160006101000a81549073ffffffffffffffffffffffffffffffffffffffff021916905550506000816020015160405160200161080d91906127bb565b604051602081830303815290604052805190602001209050600960008281526020019081526020016000206000905561084584611268565b1561088d577f037d8494b1c5a92b49688ff4c11a618ca51caa93543fb0448d9d3dfc720c47dd8585600060405161087e939291906127ed565b60405180910390a150506109bc565b81604001516007600083815260200190815260200160002060006101000a81548173ffffffffffffffffffffffffffffffffffffffff021916908373ffffffffffffffffffffffffffffffffffffffff1602179055507f037d8494b1c5a92b49688ff4c11a618ca51caa93543fb0448d9d3dfc720c47dd85856001604051610917939291906127ed565b60405180910390a17f000000000000000000000000000000000000000000000000000000000000000073ffffffffffffffffffffffffffffffffffffffff16625902368360400151846000015185602001516040518463ffffffff1660e01b815260040161098793929190612883565b600060405180830381600087803b1580156109a157600080fd5b505af11580156109b5573d6000803e3d6000fd5b5050505050505b505050565b6109c9611276565b6109d360006112f4565b565b610ae7817f000000000000000000000000000000000000000000000000000000000000000073ffffffffffffffffffffffffffffffffffffffff16638da5cb5b6040518163ffffffff1660e01b8152600401602060405180830381865afa158015610a44573d6000803e3d6000fd5b505050506040513d601f19601f82011682018060405250810190610a6891906128d6565b8373ffffffffffffffffffffffffffffffffffffffff166370a08231306040518263ffffffff1660e01b8152600401610aa19190612236565b602060405180830381865afa158015610abe573d6000803e3d6000fd5b505050506040513d601f19601f82011682018060405250810190610ae29190612918565b6113ba565b50565b60007f000000000000000000000000000000000000000000000000000000000000000073ffffffffffffffffffffffffffffffffffffffff163373ffffffffffffffffffffffffffffffffffffffff1614610b7a576040517f08c379a0000000000000000000000000000000000000000000000000000000008152600401610b71906129b7565b60405180910390fd5b60008686604051602001610b8f9291906129fc565b604051602081830303815290604052805190602001209050600073ffffffffffffffffffffffffffffffffffffffff166007600083815260200190815260200160002060009054906101000a900473ffffffffffffffffffffffffffffffffffffffff1673ffffffffffffffffffffffffffffffffffffffff1614610c49576040517f08c379a0000000000000000000000000000000000000000000000000000000008152600401610c4090612a61565b60405180910390fd5b6000801b600960008381526020019081526020016000205414610ca1576040517f08c379a0000000000000000000000000000000000000000000000000000000008152600401610c9890612acd565b60405180910390fd5b60008787905011610ce7576040517f08c379a0000000000000000000000000000000000000000000000000000000008152600401610cde90612b39565b60405180910390fd5b6000610cfd600d5430635c81619560e01b611440565b9050610d956040518060400160405280600381526020017f6765740000000000000000000000000000000000000000000000000000000000815250610d8588888080601f016020809104026020016040519081016040528093929190818152602001838380828437600081840152601f19601f82011690508083019250505050505050611471565b8361149d9092919063ffffffff16565b610e146040518060400160405280600481526020017f70617468000000000000000000000000000000000000000000000000000000008152506040518060400160405280600a81526020017f73696d696c6172697479000000000000000000000000000000000000000000008152508361149d9092919063ffffffff16565b610e43600c60009054906101000a900473ffffffffffffffffffffffffffffffffffffffff1682600e546114d0565b925060405180606001604052808a73ffffffffffffffffffffffffffffffffffffffff16815260200189898080601f016020809104026020016040519081016040528093929190818152602001838380828437600081840152601f19601f8201169050808301925050505050505081526020018573ffffffffffffffffffffffffffffffffffffffff168152506008600085815260200190815260200160002060008201518160000160006101000a81548173ffffffffffffffffffffffffffffffffffffffff021916908373ffffffffffffffffffffffffffffffffffffffff1602179055506020820151816001019080519060200190610f46929190611f31565b5060408201518160020160006101000a81548173ffffffffffffffffffffffffffffffffffffffff021916908373ffffffffffffffffffffffffffffffffffffffff1602179055509050508260096000848152602001908152602001600020819055507f8e86526ae5d5af3ffb2a36f51b7137df9b1096cd861a6a7c54183c02c8eb82df828585604051610fdc93929190612b59565b60405180910390a150509695505050505050565b6000600660009054906101000a900473ffffffffffffffffffffffffffffffffffffffff16905090565b60096020528060005260406000206000915090505481565b600b5481565b611040611276565b80600a9080519060200190611056929190611f31565b507fb6c4f180f069ea11b10bddee1ac0ae6ffa41fcb3ae92e869582f316df1f2f14e816040516110869190612214565b60405180910390a150565b611099611276565b600073ffffffffffffffffffffffffffffffffffffffff168373ffffffffffffffffffffffffffffffffffffffff1603611108576040517f08c379a00000000000000000000000000000000000000000000000000000000081526004016110ff90612bdc565b60405180910390fd5b6000600c60009054906101000a900473ffffffffffffffffffffffffffffffffffffffff16905083600c60006101000a81548173ffffffffffffffffffffffffffffffffffffffff021916908373ffffffffffffffffffffffffffffffffffffffff16021790555082600d8190555081600e819055507f5608168c8125345db8098e55c10e36cbcca4a6ad8f02318e8c0963820413b29c8185856040516111b193929190612bfc565b60405180910390a150505050565b6111c7611276565b600073ffffffffffffffffffffffffffffffffffffffff168173ffffffffffffffffffffffffffffffffffffffff1603611236576040517f08c379a000000000000000000000000000000000000000000000000000000000815260040161122d90612ca5565b60405180910390fd5b61123f816112f4565b50565b600c60009054906101000a900473ffffffffffffffffffffffffffffffffffffffff1681565b6000600b5482119050919050565b61127e61159c565b73ffffffffffffffffffffffffffffffffffffffff1661129c610ff0565b73ffffffffffffffffffffffffffffffffffffffff16146112f2576040517f08c379a00000000000000000000000000000000000000000000000000000000081526004016112e990612d11565b60405180910390fd5b565b6000600660009054906101000a900473ffffffffffffffffffffffffffffffffffffffff16905081600660006101000a81548173ffffffffffffffffffffffffffffffffffffffff021916908373ffffffffffffffffffffffffffffffffffffffff1602179055508173ffffffffffffffffffffffffffffffffffffffff168173ffffffffffffffffffffffffffffffffffffffff167f8be0079c531659141344cd1fd0a4f28419497f9722a3daafe3b4186f6b6457e060405160405180910390a35050565b61143b8363a9059cbb60e01b84846040516024016113d9929190612d31565b604051602081830303815290604052907bffffffffffffffffffffffffffffffffffffffffffffffffffffffff19166020820180517bffffffffffffffffffffffffffffffffffffffffffffffffffffffff83818316178352505050506115a4565b505050565b611448611fb7565b611450611fb7565b6114678585858461166b909392919063ffffffff16565b9150509392505050565b6060600a82604051602001611487929190612e14565b6040516020818303038152906040529050919050565b6114b482846080015161171b90919063ffffffff16565b6114cb81846080015161171b90919063ffffffff16565b505050565b60008060045490506001816114e59190612e76565b6004819055506000634042994660e01b60008087600001513089604001518760018c6080015160000151604051602401611526989796959493929190612f5c565b604051602081830303815290604052907bffffffffffffffffffffffffffffffffffffffffffffffffffffffff19166020820180517bffffffffffffffffffffffffffffffffffffffffffffffffffffffff8381831617835250505050905061159186838684611740565b925050509392505050565b600033905090565b6000611606826040518060400160405280602081526020017f5361666545524332303a206c6f772d6c6576656c2063616c6c206661696c65648152508573ffffffffffffffffffffffffffffffffffffffff166118d59092919063ffffffff16565b90506000815111156116665780806020019051810190611626919061300d565b611665576040517f08c379a000000000000000000000000000000000000000000000000000000000815260040161165c906130ac565b60405180910390fd5b5b505050565b611673611fb7565b61168385608001516101006118ed565b508385600001818152505082856020019073ffffffffffffffffffffffffffffffffffffffff16908173ffffffffffffffffffffffffffffffffffffffff16815250508185604001907bffffffffffffffffffffffffffffffffffffffffffffffffffffffff191690817bffffffffffffffffffffffffffffffffffffffffffffffffffffffff191681525050849050949350505050565b6117288260038351611957565b61173b8183611adc90919063ffffffff16565b505050565b60003084604051602001611755929190613147565b604051602081830303815290604052805190602001209050846005600083815260200190815260200160002060006101000a81548173ffffffffffffffffffffffffffffffffffffffff021916908373ffffffffffffffffffffffffffffffffffffffff160217905550807fb5e6e01e79f91267dc17b4e6314d5d4d03593d2ceee0fbb452b750bd70ea5af960405160405180910390a2600260009054906101000a900473ffffffffffffffffffffffffffffffffffffffff1673ffffffffffffffffffffffffffffffffffffffff16634000aea08685856040518463ffffffff1660e01b815260040161184b93929190613173565b6020604051808303816000875af115801561186a573d6000803e3d6000fd5b505050506040513d601f19601f8201168201806040525081019061188e919061300d565b6118cd576040517f08c379a00000000000000000000000000000000000000000000000000000000081526004016118c490613223565b60405180910390fd5b949350505050565b60606118e48484600085611afe565b90509392505050565b6118f5612024565b60006020836119049190613272565b14611930576020826119169190613272565b602061192291906132a3565b8261192d9190612e76565b91505b81836020018181525050604051808452600081528281016020016040525082905092915050565b60178167ffffffffffffffff161161198e576119888160058460ff16901b60ff161784611c1290919063ffffffff16565b50611ad7565b60ff8167ffffffffffffffff16116119e4576119bd601860058460ff16901b1784611c1290919063ffffffff16565b506119de8167ffffffffffffffff16600185611c329092919063ffffffff16565b50611ad6565b61ffff8167ffffffffffffffff1611611a3b57611a14601960058460ff16901b1784611c1290919063ffffffff16565b50611a358167ffffffffffffffff16600285611c329092919063ffffffff16565b50611ad5565b63ffffffff8167ffffffffffffffff1611611a9457611a6d601a60058460ff16901b1784611c1290919063ffffffff16565b50611a8e8167ffffffffffffffff16600485611c329092919063ffffffff16565b50611ad4565b611ab1601b60058460ff16901b1784611c1290919063ffffffff16565b50611ad28167ffffffffffffffff16600885611c329092919063ffffffff16565b505b5b5b5b505050565b611ae4612024565b611af683846000015151848551611c54565b905092915050565b606082471015611b43576040517f08c379a0000000000000000000000000000000000000000000000000000000008152600401611b3a90613349565b60405180910390fd5b611b4c85611d43565b611b8b576040517f08c379a0000000000000000000000000000000000000000000000000000000008152600401611b82906133b5565b60405180910390fd5b6000808673ffffffffffffffffffffffffffffffffffffffff168587604051611bb49190613411565b60006040518083038185875af1925050503d8060008114611bf1576040519150601f19603f3d011682016040523d82523d6000602084013e611bf6565b606091505b5091509150611c06828286611d66565b92505050949350505050565b611c1a612024565b611c2a8384600001515184611dcd565b905092915050565b611c3a612024565b611c4b848560000151518585611e23565b90509392505050565b611c5c612024565b8251821115611c6a57600080fd5b84602001518285611c7b9190612e76565b1115611cb057611caf856002611ca088602001518887611c9b9190612e76565b611eb1565b611caa9190613428565b611ecd565b5b600080865180518760208301019350808887011115611ccf5787860182525b60208701925050505b60208410611d165780518252602082611cf19190612e76565b9150602081611d009190612e76565b9050602084611d0f91906132a3565b9350611cd8565b60006001856020036101000a03905080198251168184511681811785525050508692505050949350505050565b6000808273ffffffffffffffffffffffffffffffffffffffff163b119050919050565b60608315611d7657829050611dc6565b600083511115611d895782518084602001fd5b816040517f08c379a0000000000000000000000000000000000000000000000000000000008152600401611dbd9190612214565b60405180910390fd5b9392505050565b611dd5612024565b83602001518310611dfb57611dfa8460028660200151611df59190613428565b611ecd565b5b83518051602085830101848153818603611e16576001820183525b5050508390509392505050565b611e2b612024565b84602001518483611e3c9190612e76565b1115611e6457611e638560028685611e549190612e76565b611e5e9190613428565b611ecd565b5b6000600183610100611e7691906135b5565b611e8091906132a3565b90508551838682010185831982511617815281518588011115611ea35784870182525b505085915050949350505050565b600081831115611ec357829050611ec7565b8190505b92915050565b600082600001519050611ee083836118ed565b50611eeb8382611adc565b50505050565b508054611efd906126bc565b6000825580601f10611f0f5750611f2e565b601f016020900490600052602060002090810190611f2d919061203e565b5b50565b828054611f3d906126bc565b90600052602060002090601f016020900481019282611f5f5760008555611fa6565b82601f10611f7857805160ff1916838001178555611fa6565b82800160010185558215611fa6579182015b82811115611fa5578251825591602001919060010190611f8a565b5b509050611fb3919061203e565b5090565b6040518060a0016040528060008019168152602001600073ffffffffffffffffffffffffffffffffffffffff16815260200160007bffffffffffffffffffffffffffffffffffffffffffffffffffffffff191681526020016000815260200161201e612024565b81525090565b604051806040016040528060608152602001600081525090565b5b8082111561205757600081600090555060010161203f565b5090565b6000819050919050565b61206e8161205b565b82525050565b60006020820190506120896000830184612065565b92915050565b6000604051905090565b600080fd5b600080fd5b6120ac8161205b565b81146120b757600080fd5b50565b6000813590506120c9816120a3565b92915050565b6000602082840312156120e5576120e4612099565b5b60006120f3848285016120ba565b91505092915050565b600073ffffffffffffffffffffffffffffffffffffffff82169050919050565b6000612127826120fc565b9050919050565b6121378161211c565b82525050565b600081519050919050565b600082825260208201905092915050565b60005b8381101561217757808201518184015260208101905061215c565b83811115612186576000848401525b50505050565b6000601f19601f8301169050919050565b60006121a88261213d565b6121b28185612148565b93506121c2818560208601612159565b6121cb8161218c565b840191505092915050565b60006060820190506121eb600083018661212e565b81810360208301526121fd818561219d565b905061220c604083018461212e565b949350505050565b6000602082019050818103600083015261222e818461219d565b905092915050565b600060208201905061224b600083018461212e565b92915050565b6000819050919050565b61226481612251565b82525050565b600060208201905061227f600083018461225b565b92915050565b61228e81612251565b811461229957600080fd5b50565b6000813590506122ab81612285565b92915050565b600080604083850312156122c8576122c7612099565b5b60006122d6858286016120ba565b92505060206122e78582860161229c565b9150509250929050565b60006122fc8261211c565b9050919050565b61230c816122f1565b811461231757600080fd5b50565b60008135905061232981612303565b92915050565b60006020828403121561234557612344612099565b5b60006123538482850161231a565b91505092915050565b6123658161211c565b811461237057600080fd5b50565b6000813590506123828161235c565b92915050565b600080fd5b600080fd5b600080fd5b60008083601f8401126123ad576123ac612388565b5b8235905067ffffffffffffffff8111156123ca576123c961238d565b5b6020830191508360018202830111156123e6576123e5612392565b5b9250929050565b6000806000806000806080878903121561240a57612409612099565b5b600061241889828a01612373565b965050602087013567ffffffffffffffff8111156124395761243861209e565b5b61244589828a01612397565b9550955050604087013567ffffffffffffffff8111156124685761246761209e565b5b61247489828a01612397565b9350935050606061248789828a01612373565b9150509295509295509295565b600080fd5b7f4e487b7100000000000000000000000000000000000000000000000000000000600052604160045260246000fd5b6124d18261218c565b810181811067ffffffffffffffff821117156124f0576124ef612499565b5b80604052505050565b600061250361208f565b905061250f82826124c8565b919050565b600067ffffffffffffffff82111561252f5761252e612499565b5b6125388261218c565b9050602081019050919050565b82818337600083830152505050565b600061256761256284612514565b6124f9565b90508281526020810184848401111561258357612582612494565b5b61258e848285612545565b509392505050565b600082601f8301126125ab576125aa612388565b5b81356125bb848260208601612554565b91505092915050565b6000602082840312156125da576125d9612099565b5b600082013567ffffffffffffffff8111156125f8576125f761209e565b5b61260484828501612596565b91505092915050565b60008060006060848603121561262657612625612099565b5b600061263486828701612373565b9350506020612645868287016120ba565b92505060406126568682870161229c565b9150509250925092565b60006020828403121561267657612675612099565b5b600061268484828501612373565b91505092915050565b7f4e487b7100000000000000000000000000000000000000000000000000000000600052602260045260246000fd5b600060028204905060018216806126d457607f821691505b6020821081036126e7576126e661268d565b5b50919050565b7f536f75726365206d75737420626520746865206f7261636c65206f662074686560008201527f2072657175657374000000000000000000000000000000000000000000000000602082015250565b6000612749602883612148565b9150612754826126ed565b604082019050919050565b600060208201905081810360008301526127788161273c565b9050919050565b600081905092915050565b60006127958261213d565b61279f818561277f565b93506127af818560208601612159565b80840191505092915050565b60006127c7828461278a565b915081905092915050565b60008115159050919050565b6127e7816127d2565b82525050565b60006060820190506128026000830186612065565b61280f602083018561225b565b61281c60408301846127de565b949350505050565b6000819050919050565b600061284961284461283f846120fc565b612824565b6120fc565b9050919050565b600061285b8261282e565b9050919050565b600061286d82612850565b9050919050565b61287d81612862565b82525050565b60006060820190506128986000830186612874565b6128a5602083018561212e565b81810360408301526128b7818461219d565b9050949350505050565b6000815190506128d08161235c565b92915050565b6000602082840312156128ec576128eb612099565b5b60006128fa848285016128c1565b91505092915050565b60008151905061291281612285565b92915050565b60006020828403121561292e5761292d612099565b5b600061293c84828501612903565b91505092915050565b7f41757468656e74696369747952656769737472793a204e6f7420417574656e7460008201527f69736b0000000000000000000000000000000000000000000000000000000000602082015250565b60006129a1602383612148565b91506129ac82612945565b604082019050919050565b600060208201905081810360008301526129d081612994565b9050919050565b60006129e3838561277f565b93506129f0838584612545565b82840190509392505050565b6000612a098284866129d7565b91508190509392505050565b7f546f6b656e55524920686173206265656e207265676973746572656400000000600082015250565b6000612a4b601c83612148565b9150612a5682612a15565b602082019050919050565b60006020820190508181036000830152612a7a81612a3e565b9050919050565b7f4964656e746963616c2070656e64696e67207265717565737400000000000000600082015250565b6000612ab7601983612148565b9150612ac282612a81565b602082019050919050565b60006020820190508181036000830152612ae681612aaa565b9050919050565b7f546f6b656e205552492063616e277420626520656d7074790000000000000000600082015250565b6000612b23601883612148565b9150612b2e82612aed565b602082019050919050565b60006020820190508181036000830152612b5281612b16565b9050919050565b6000606082019050612b6e6000830186612065565b612b7b602083018561212e565b612b886040830184612065565b949350505050565b7f496e76616c6964206f7261636c65206164647265737300000000000000000000600082015250565b6000612bc6601683612148565b9150612bd182612b90565b602082019050919050565b60006020820190508181036000830152612bf581612bb9565b9050919050565b6000606082019050612c11600083018661212e565b612c1e602083018561212e565b612c2b6040830184612065565b949350505050565b7f4f776e61626c653a206e6577206f776e657220697320746865207a65726f206160008201527f6464726573730000000000000000000000000000000000000000000000000000602082015250565b6000612c8f602683612148565b9150612c9a82612c33565b604082019050919050565b60006020820190508181036000830152612cbe81612c82565b9050919050565b7f4f776e61626c653a2063616c6c6572206973206e6f7420746865206f776e6572600082015250565b6000612cfb602083612148565b9150612d0682612cc5565b602082019050919050565b60006020820190508181036000830152612d2a81612cee565b9050919050565b6000604082019050612d46600083018561212e565b612d53602083018461225b565b9392505050565b60008190508160005260206000209050919050565b60008154612d7c816126bc565b612d86818661277f565b94506001821660008114612da15760018114612db257612de5565b60ff19831686528186019350612de5565b612dbb85612d5a565b60005b83811015612ddd57815481890152600182019150602081019050612dbe565b838801955050505b50505092915050565b7f3f746f6b656e5572693d00000000000000000000000000000000000000000000815250565b6000612e208285612d6f565b9150612e2b82612dee565b600a82019150612e3b828461278a565b91508190509392505050565b7f4e487b7100000000000000000000000000000000000000000000000000000000600052601160045260246000fd5b6000612e8182612251565b9150612e8c83612251565b9250827fffffffffffffffffffffffffffffffffffffffffffffffffffffffffffffffff03821115612ec157612ec0612e47565b5b828201905092915050565b60007fffffffff0000000000000000000000000000000000000000000000000000000082169050919050565b612f0181612ecc565b82525050565b600081519050919050565b600082825260208201905092915050565b6000612f2e82612f07565b612f388185612f12565b9350612f48818560208601612159565b612f518161218c565b840191505092915050565b600061010082019050612f72600083018b61212e565b612f7f602083018a61225b565b612f8c6040830189612065565b612f99606083018861212e565b612fa66080830187612ef8565b612fb360a083018661225b565b612fc060c083018561225b565b81810360e0830152612fd28184612f23565b90509998505050505050505050565b612fea816127d2565b8114612ff557600080fd5b50565b60008151905061300781612fe1565b92915050565b60006020828403121561302357613022612099565b5b600061303184828501612ff8565b91505092915050565b7f5361666545524332303a204552433230206f7065726174696f6e20646964206e60008201527f6f74207375636365656400000000000000000000000000000000000000000000602082015250565b6000613096602a83612148565b91506130a18261303a565b604082019050919050565b600060208201905081810360008301526130c581613089565b9050919050565b60006130d782612850565b9050919050565b60008160601b9050919050565b60006130f6826130de565b9050919050565b6000613108826130eb565b9050919050565b61312061311b826130cc565b6130fd565b82525050565b6000819050919050565b61314161313c82612251565b613126565b82525050565b6000613153828561310f565b6014820191506131638284613130565b6020820191508190509392505050565b6000606082019050613188600083018661212e565b613195602083018561225b565b81810360408301526131a78184612f23565b9050949350505050565b7f756e61626c6520746f207472616e73666572416e6443616c6c20746f206f726160008201527f636c650000000000000000000000000000000000000000000000000000000000602082015250565b600061320d602383612148565b9150613218826131b1565b604082019050919050565b6000602082019050818103600083015261323c81613200565b9050919050565b7f4e487b7100000000000000000000000000000000000000000000000000000000600052601260045260246000fd5b600061327d82612251565b915061328883612251565b92508261329857613297613243565b5b828206905092915050565b60006132ae82612251565b91506132b983612251565b9250828210156132cc576132cb612e47565b5b828203905092915050565b7f416464726573733a20696e73756666696369656e742062616c616e636520666f60008201527f722063616c6c0000000000000000000000000000000000000000000000000000602082015250565b6000613333602683612148565b915061333e826132d7565b604082019050919050565b6000602082019050818103600083015261336281613326565b9050919050565b7f416464726573733a2063616c6c20746f206e6f6e2d636f6e7472616374000000600082015250565b600061339f601d83612148565b91506133aa82613369565b602082019050919050565b600060208201905081810360008301526133ce81613392565b9050919050565b600081905092915050565b60006133eb82612f07565b6133f581856133d5565b9350613405818560208601612159565b80840191505092915050565b600061341d82846133e0565b915081905092915050565b600061343382612251565b915061343e83612251565b9250817fffffffffffffffffffffffffffffffffffffffffffffffffffffffffffffffff048311821515161561347757613476612e47565b5b828202905092915050565b60008160011c9050919050565b6000808291508390505b60018511156134d9578086048111156134b5576134b4612e47565b5b60018516156134c45780820291505b80810290506134d285613482565b9450613499565b94509492505050565b6000826134f257600190506135ae565b8161350057600090506135ae565b816001811461351657600281146135205761354f565b60019150506135ae565b60ff84111561353257613531612e47565b5b8360020a91508482111561354957613548612e47565b5b506135ae565b5060208310610133831016604e8410600b84101617156135845782820a90508381111561357f5761357e612e47565b5b6135ae565b613591848484600161348f565b925090508184048111156135a8576135a7612e47565b5b81810290505b9392505050565b60006135c082612251565b91506135cb83612251565b92506135f87fffffffffffffffffffffffffffffffffffffffffffffffffffffffffffffffff84846134e2565b90509291505056fea264697066735822122045d24812617f6e0ae5e63ba9485750789865ea2a160d68f99510fd8a91da504864736f6c634300080d0033",
  "devdoc": {
    "kind": "dev",
    "methods": {
      "owner()": {
        "details": "Returns the address of the current owner."
      },
      "renounceOwnership()": {
        "details": "Leaves the contract without owner. It will not be possible to call `onlyOwner` functions anymore. Can only be called by the current owner. NOTE: Renouncing ownership will leave the contract without an owner, thereby removing any functionality that is only available to the owner."
      },
      "transferOwnership(address)": {
        "details": "Transfers ownership of the contract to a new account (`newOwner`). Can only be called by the current owner."
      }
    },
    "version": 1
  },
  "userdoc": {
    "kind": "user",
    "methods": {},
    "version": 1
  },
  "storageLayout": {
    "storage": [
      {
        "astId": 319,
        "contract": "contracts/marketplace/AuthenticityRegistry.sol:AuthenticityRegistry",
        "label": "s_ens",
        "offset": 0,
        "slot": "0",
        "type": "t_contract(ENSInterface)974"
      },
      {
        "astId": 321,
        "contract": "contracts/marketplace/AuthenticityRegistry.sol:AuthenticityRegistry",
        "label": "s_ensNode",
        "offset": 0,
        "slot": "1",
        "type": "t_bytes32"
      },
      {
        "astId": 324,
        "contract": "contracts/marketplace/AuthenticityRegistry.sol:AuthenticityRegistry",
        "label": "s_link",
        "offset": 0,
        "slot": "2",
        "type": "t_contract(LinkTokenInterface)1069"
      },
      {
        "astId": 327,
        "contract": "contracts/marketplace/AuthenticityRegistry.sol:AuthenticityRegistry",
        "label": "s_oracle",
        "offset": 0,
        "slot": "3",
        "type": "t_contract(OperatorInterface)1149"
      },
      {
        "astId": 330,
        "contract": "contracts/marketplace/AuthenticityRegistry.sol:AuthenticityRegistry",
        "label": "s_requestCount",
        "offset": 0,
        "slot": "4",
        "type": "t_uint256"
      },
      {
        "astId": 334,
        "contract": "contracts/marketplace/AuthenticityRegistry.sol:AuthenticityRegistry",
        "label": "s_pendingRequests",
        "offset": 0,
        "slot": "5",
        "type": "t_mapping(t_bytes32,t_address)"
      },
      {
        "astId": 2183,
        "contract": "contracts/marketplace/AuthenticityRegistry.sol:AuthenticityRegistry",
        "label": "_owner",
        "offset": 0,
        "slot": "6",
        "type": "t_address"
      },
      {
        "astId": 4708,
        "contract": "contracts/marketplace/AuthenticityRegistry.sol:AuthenticityRegistry",
        "label": "s_autentics",
        "offset": 0,
        "slot": "7",
        "type": "t_mapping(t_bytes32,t_address)"
      },
      {
        "astId": 4713,
        "contract": "contracts/marketplace/AuthenticityRegistry.sol:AuthenticityRegistry",
        "label": "s_authenticityRequests",
        "offset": 0,
        "slot": "8",
        "type": "t_mapping(t_bytes32,t_struct(AuthenticityRequest)4674_storage)"
      },
      {
        "astId": 4717,
        "contract": "contracts/marketplace/AuthenticityRegistry.sol:AuthenticityRegistry",
        "label": "s_signatureToRequestId",
        "offset": 0,
        "slot": "9",
        "type": "t_mapping(t_bytes32,t_bytes32)"
      },
      {
        "astId": 4719,
        "contract": "contracts/marketplace/AuthenticityRegistry.sol:AuthenticityRegistry",
        "label": "s_classifierUrl",
        "offset": 0,
        "slot": "10",
        "type": "t_string_storage"
      },
      {
        "astId": 4721,
        "contract": "contracts/marketplace/AuthenticityRegistry.sol:AuthenticityRegistry",
        "label": "s_similarityThreshold",
        "offset": 0,
        "slot": "11",
        "type": "t_uint256"
      },
      {
        "astId": 4723,
        "contract": "contracts/marketplace/AuthenticityRegistry.sol:AuthenticityRegistry",
        "label": "s_oracle",
        "offset": 0,
        "slot": "12",
        "type": "t_address"
      },
      {
        "astId": 4725,
        "contract": "contracts/marketplace/AuthenticityRegistry.sol:AuthenticityRegistry",
        "label": "s_jobId",
        "offset": 0,
        "slot": "13",
        "type": "t_bytes32"
      },
      {
        "astId": 4727,
        "contract": "contracts/marketplace/AuthenticityRegistry.sol:AuthenticityRegistry",
        "label": "s_fee",
        "offset": 0,
        "slot": "14",
        "type": "t_uint256"
      }
    ],
    "types": {
      "t_address": {
        "encoding": "inplace",
        "label": "address",
        "numberOfBytes": "20"
      },
      "t_bytes32": {
        "encoding": "inplace",
        "label": "bytes32",
        "numberOfBytes": "32"
      },
      "t_contract(ENSInterface)974": {
        "encoding": "inplace",
        "label": "contract ENSInterface",
        "numberOfBytes": "20"
      },
      "t_contract(LinkTokenInterface)1069": {
        "encoding": "inplace",
        "label": "contract LinkTokenInterface",
        "numberOfBytes": "20"
      },
      "t_contract(OperatorInterface)1149": {
        "encoding": "inplace",
        "label": "contract OperatorInterface",
        "numberOfBytes": "20"
      },
      "t_mapping(t_bytes32,t_address)": {
        "encoding": "mapping",
        "key": "t_bytes32",
        "label": "mapping(bytes32 => address)",
        "numberOfBytes": "32",
        "value": "t_address"
      },
      "t_mapping(t_bytes32,t_bytes32)": {
        "encoding": "mapping",
        "key": "t_bytes32",
        "label": "mapping(bytes32 => bytes32)",
        "numberOfBytes": "32",
        "value": "t_bytes32"
      },
      "t_mapping(t_bytes32,t_struct(AuthenticityRequest)4674_storage)": {
        "encoding": "mapping",
        "key": "t_bytes32",
        "label": "mapping(bytes32 => struct AuthenticityRegistry.AuthenticityRequest)",
        "numberOfBytes": "32",
        "value": "t_struct(AuthenticityRequest)4674_storage"
      },
      "t_string_storage": {
        "encoding": "bytes",
        "label": "string",
        "numberOfBytes": "32"
      },
      "t_struct(AuthenticityRequest)4674_storage": {
        "encoding": "inplace",
        "label": "struct AuthenticityRegistry.AuthenticityRequest",
        "members": [
          {
            "astId": 4669,
            "contract": "contracts/marketplace/AuthenticityRegistry.sol:AuthenticityRegistry",
            "label": "to",
            "offset": 0,
            "slot": "0",
            "type": "t_address"
          },
          {
            "astId": 4671,
            "contract": "contracts/marketplace/AuthenticityRegistry.sol:AuthenticityRegistry",
            "label": "tokenURI",
            "offset": 0,
            "slot": "1",
            "type": "t_string_storage"
          },
          {
            "astId": 4673,
            "contract": "contracts/marketplace/AuthenticityRegistry.sol:AuthenticityRegistry",
            "label": "collection",
            "offset": 0,
            "slot": "2",
            "type": "t_address"
          }
        ],
        "numberOfBytes": "96"
      },
      "t_uint256": {
        "encoding": "inplace",
        "label": "uint256",
        "numberOfBytes": "32"
      }
    }
  }
}